:10000000A479001059A3000009A5000009A500006B
:1000100009A5000009A5000009A5000000000000D6
:1000200000000000000000000000000009A5000022
:1000300009A5000000000000A5AB0000C1D200002F
:1000400009A5000009A5000009A5000009A50000F8
:1000500009A5000009A5000009A5000009A50000E8
:1000600009A5000009A5000009A5000009A50000D8
:1000700009A5000009A5000009A5000009A50000C8
:1000800009A5000009A5000009A5000009A50000B8
:100090005DC8000009A5000009A5000009A5000031
:1000A00009A5000009A5000009A5000009A5000098
:1000B00009A5000009A5000009A5000009A5000088
:1000C00009A500003334564230313231303000005F
:1000D0000000000000000000000000000000000020
:1000E0000000000000000000000000000000000010
:1000F0000000000000000000000000000000000000
:1001000000000000000000000000000000000000EF
:1002F000000000000000000000000000FFFFFFFF02
:1003000080B485B000AF0346FB71FB79FB7397F9AE
:100310000F304FEAE313FB73FB7B03F01B03FB730C
:10032000FB794FEA4303DBB21A46FB7B5340DBB257
:10033000DBB2184607F11407BD4680BC704700BF0A
:1003400080B58AB000AFF860B9601346FB7107F161
:1003500010031846B9684FF010020EF051F84FF034
:10036000000387F82730C8E14FF0000387F82630F4
:100370001AE097F82630FA68D31897F82620F9681B
:100380008A18117897F8262007F12800821812F8A9
:10039000182C4A40D2B2C2498A5C1A7097F82630AB
:1003A00003F1010387F8263097F826300F2BE0D9A8
:1003B000FB685B7887F82530FB6803F10103FA6876
:1003C00052791A70FB6803F10503FA68527A1A70C1
:1003D000FB6803F10903FA68527B1A70FB6803F1AA
:1003E0000D0397F825201A70FB689B7887F8253055
:1003F000FB689B7987F82430FB6803F10203FA68F5
:10040000927A1A70FB6803F10603FA68927B1A70FD
:10041000FB6803F10A0397F825201A70FB6803F1C3
:100420000E0397F824201A70FB68DB7B87F82530D1
:10043000FB6803F10F03FA68D27A1A70FB6803F1C4
:100440000B03FA68D2791A70FB6803F10703FA68A4
:10045000D2781A70FB6803F1030397F825201A700D
:1004600097F82730082B00F2F380FB79002B40F03F
:10047000EF804FF0000387F82630E4E097F826304D
:100480004FEA830387F8233097F82330FA68D318AC
:100490001A7897F8233003F10103F968CB181B7819
:1004A0005340DAB297F8233003F10203F968CB180E
:1004B0001B785340DAB297F8233003F10303F9684D
:1004C000CB181B78534087F8253097F82330FA680B
:1004D000D3181B7887F8243097F82330FA68D3189C
:1004E0001A7897F8233003F10103F968CB181B78C9
:1004F000534087F8223097F822301846FFF700FF64
:10050000034687F8223097F82330FA68D31897F813
:100510002320F9688A18117897F822204A40D1B22E
:1005200097F825204A40D2B21A7097F8233003F189
:100530000103FA68D3181A7897F8233003F10203FD
:10054000F968CB181B78534087F8223097F822308F
:100550001846FFF7D5FE034687F8223097F8233078
:1005600003F10103FA68D31897F8232002F101027E
:10057000F9688A18117897F822204A40D1B297F882
:1005800025204A40D2B21A7097F8233003F10203B3
:10059000FA68D3181A7897F8233003F10303F9683F
:1005A000CB181B78534087F8223097F82230184632
:1005B000FFF7A6FE034687F8223097F8233003F1B1
:1005C0000203FA68D31897F8232002F10202F968AF
:1005D0008A18117897F822204A40D1B297F825203E
:1005E0004A40D2B21A7097F8233003F10303FA6835
:1005F000D3181A7897F82430534087F8223097F8A8
:1006000022301846FFF77CFE034687F8223097F821
:10061000233003F10303FA68D31897F8232002F17B
:100620000302F9688A18117897F822204A40D1B25B
:1006300097F825204A40D2B21A7097F8263003F175
:10064000010387F8263097F82630032B7FF616AF84
:100650007B7F134AD25C3B7C5340DAB297F8273059
:100660001049CB5C5340DBB23B74BB7F0C4AD25C7D
:100670007B7C5340DBB27B74FB7F094AD25CBB7C42
:100680005340DBB2BB743B7F054AD25CFB7C5340DA
:10069000DBB2FB744FF0040387F8263023E000BF81
:1006A000A0E40000A0E5000097F8263097F8262087
:1006B00007F128018A1812F8181C97F82620A2F1D1
:1006C000040207F12800821812F8182C4A40D2B20E
:1006D00007F12801CB1803F8182C97F8263003F1FE
:1006E000010387F8263097F826300F2BDCD997F8CE
:1006F000273003F1010387F8273097F82730092BBB
:100700007FF632AEFB79002B21D14FF0000387F842
:10071000263018E097F82630FA68D31897F8262084
:10072000F9688A18117897F8262007F128008218AE
:1007300012F8182C4A40D2B21A7097F8263003F1FA
:10074000010387F8263097F826300F2BE2D907F1FE
:100750002807BD4680BD00BF80B400AF0E4A0F4BD6
:100760001A600D4B03F1C8020C4B5A600C4B0A4A3D
:100770001A600B4B1B684FF000021A60084B1B6895
:100780004FF000025A60064B1B684FF000029A605F
:10079000BD4680BC704700BFC00900108C0A001025
:1007A000880A001080B582B000AF4FF000037B7163
:1007B0004FF000033B714FF00003FB714FF001035A
:1007C000BB71B14B4FF0FF021A70B04B4FF0FF02FC
:1007D0001A704FF000033B7107F104034FF07600ED
:1007E00019460AF071FD4FF00103BB714FF0000391
:1007F0003B714FF00003FB712DE007F104034FF054
:10080000750019464FF001020AF0AAFD3B79392B19
:1008100002D03B79422B03D14FF00003BB711DE0A6
:100820009B4B1A689B4B9A4204D04FF0010009F091
:100830006BFF0CE04FF000033B6003E03B6803F10B
:1008400001033B603A6840F257239A42F6D9FB799C
:1008500003F10103FB71FB79092BCED9BB79012B85
:1008600002D14FF0010309E107F105034FF07600D3
:1008700019464FF001020AF073FD7B7923F007035C
:10088000DBB27B7107F105034FF0760019460AF0E1
:100890001BFD07F105034FF0160019464FF001024A
:1008A0000AF05EFD7B7963F07F03DBB27B7107F1B9
:1008B00005034FF0160019460AF006FD07F105037F
:1008C0004FF0600019464FF001020AF049FD4FF069
:1008D000FF037B7107F105034FF0600019460AF032
:1008E000F3FC07F105034FF0610019464FF00102D8
:1008F0000AF036FD7B7923F00F03DBB27B717B7945
:1009000043F00703DBB27B7107F105034FF0610091
:1009100019460AF0D9FC07F105034FF04C001946BF
:100920004FF001020AF01CFD7B7923F03003DBB2AB
:100930007B7107F105034FF04C0019460AF0C4FC27
:1009400007F105034FF0140019464FF001020AF0B9
:1009500007FD7B7943F01803DBB27B7107F10503D8
:100960004FF0140019460AF0AFFC07F105034FF0F1
:10097000630019464FF001020AF0F2FC7B7943F064
:100980002A03DBB27B7107F105034FF063001946C0
:100990000AF09AFC07F105034FF0640019464FF086
:1009A00001020AF0DDFC7B7923F01003DBB27B71DE
:1009B00007F105034FF0640019460AF085FC07F1C2
:1009C00005034FF0650019464FF001020AF0C8FC1C
:1009D0007B7923F07F03DBB27B7107F105034FF0D6
:1009E000650019460AF070FC07F105034FF0760028
:1009F00019464FF001020AF0B3FC7B7923F007039C
:100A0000DBB27B717B7943F00403DBB27B7107F1CE
:100A100005034FF0760019460AF056FC07F105036E
:100A20004FF0440019464FF001020AF099FC7B791F
:100A300023F00703DBB27B7107F105034FF044009D
:100A400019460AF041FC07F105034FF076001946FC
:100A50004FF001020AF084FC7B7923F00703DBB23C
:100A60007B7107F105034FF0760019460AF02CFC64
:100A7000094B4FF001021A704FF00003184607F1BE
:100A80000807BD4680BD00BF741500107515001025
:100A90008000001000093D007715001080B586B079
:100AA00000AF03463960FB714FF00003FB734FF05A
:100AB0000003BB604FF00003FB75FB7903F1FF33CC
:100AC000072B00F2CB8201A252F823F0ED0A0000BE
:100AD000190C0000410E00005D1000005D100000C8
:100AE000210F00005D1000001D0B000007F10F0337
:100AF0004FF000004FF075011A464FF001030BF064
:100B000099FEFB7B392B05D0FB7B422B02D04FF0AB
:100B10000403A6E2FA7B3B681A70A0E207F10F0318
:100B20004FF04E0019464FF001020AF019FCFB7B12
:100B300023F00F03DBB2FB7307F10F034FF04E00FE
:100B400019460AF0C1FB07F10F034FF04B0019469D
:100B50004FF001020AF004FCFB7B43F00203DBB21E
:100B6000FB7307F10F034FF04B0019460AF0ACFB83
:100B700007F10F034FF04E0019464FF001020AF043
:100B8000EFFBFB7B23F00F03DBB2FB73A64B1B7861
:100B9000FF2B05D0FB7B43F00C03DBB2FB7302E0C1
:100BA0004FF00103FB75A14B1B78FF2B0DD0FB7D94
:100BB000012B05D1FB7B43F00203DBB2FB7304E0A6
:100BC000FB7B43F00303DBB2FB7307F10F034FF032
:100BD0004E0019460AF078FB954B1A68954B9A42DD
:100BE00008D0954B4FF001021A704FF0020009F047
:100BF0008BFD34E2904B4FF000021A704FF000036F
:100C0000BB6003E0BB6803F10103BB60BA6840F25C
:100C1000AF439A42F6D922E24FF00003FB7507F189
:100C20000F034FF04E0019464FF001020AF098FBF7
:100C3000FB7B23F00F03DBB2FB7307F10F034FF0D5
:100C40004E0019460AF040FB794B1A68794B9A42DC
:100C50002AD007F10F034FF0680019464FF0010248
:100C60000AF07EFBFB7B43F00603DBB2FB7307F16C
:100C70000F034FF0680019460AF026FB07F10F0337
:100C80004FF05F0019464FF001020AF069FBFB7B51
:100C900043F02703DBB2FB7307F10F034FF05F0054
:100CA00019460AF011FB14E007F10F034FF05F0043
:100CB00019464FF001020AF053FBFB7B43F0070398
:100CC000DBB2FB7307F10F034FF05F0019460AF028
:100CD000FBFA07F10F034FF04B0019464FF00102EA
:100CE0000AF03EFBFB7B43F00203DBB2FB7307F130
:100CF0000F034FF04B0019460AF0E6FA4A4B1B78F7
:100D0000FF2B1AD007F10F034FF04F0019464FF099
:100D100001020AF025FBFB7B23F06F03DBB2FB73C0
:100D2000FA7B414B1B781343DBB2FB7307F10F03D4
:100D30004FF04F0019460AF0C7FA3C4B1B78FF2BC7
:100D40001AD007F10F034FF0500019464FF001027F
:100D50000AF006FBFB7B23F06F03DBB2FB73FA7B2D
:100D6000324B1B781343DBB2FB7307F10F034FF0D9
:100D7000500019460AF0A8FA07F10F034FF04E0091
:100D800019464FF001020AF0EBFAFB7B23F00F0348
:100D9000DBB2FB73244B1B78FF2B05D0FB7B43F0AE
:100DA0000C03DBB2FB7302E04FF00103FB751F4B3A
:100DB0001B78FF2B0DD0FB7D012B05D1FB7B43F076
:100DC0000203DBB2FB7304E0FB7B43F00303DBB203
:100DD000FB7307F10F034FF04E0019460AF074FA47
:100DE000134B1A68134B9A4208D0134B4FF0010271
:100DF0001A704FF0020009F087FC10E00E4B4FF024
:100E000000021A704FF00003BB6003E0BB6803F1FF
:100E10000103BB60BA6840F2AF439A42F6D9074B70
:100E20004FF002021A701AE17415001075150010C7
:100E30008000001000093D007C590010771500105B
:100E400007F10F034FF04E0019464FF001020AF070
:100E500087FAFB7B23F00F03DBB2FB7307F10F0371
:100E60004FF04E0019460AF02FFA0BF0A1FC07F1E3
:100E70000F034FF04B0019464FF001020AF070FAD1
:100E8000FB7B43F00203DBB2FB7307F10F034FF070
:100E90004B0019460AF018FA07F10F034FF05F00F4
:100EA00019464FF001020AF05BFAFB7B23F02F0397
:100EB000DBB2FB7307F10F034FF05F0019460AF036
:100EC00003FA07F10F034FF0680019464FF00102D3
:100ED0000AF046FAFB7B23F07F03DBB2FB7307F1DA
:100EE0000F034FF0680019460AF0EEF907F10F03FF
:100EF0004FF0160019464FF001020AF031FAFB7B61
:100F000003F03F03DBB2FB7307F10F034FF0160052
:100F100019460AF0D9F9554B4FF003021A709EE0BA
:100F2000534B4FF000021A703B683B613B699B7862
:100F3000A3F102030E2B49D801A252F823F000BFFF
:100F40007D0F0000CD0F0000950F0000CD0F0000B9
:100F5000CD0F0000CD0F0000A50F0000CD0F000049
:100F6000CD0F0000CD0F0000CD0F0000CD0F000011
:100F7000CD0F0000CD0F0000B50F00004FF0600353
:100F8000FB733C4B4FF040021A70394B4FF0080294
:100F90001A701EE04FF04003FB73364B4FF02002F7
:100FA0001A7016E04FF02003FB73324B4FF0100223
:100FB0001A700EE04FF00003FB732E4B4FF0080247
:100FC0001A702B4B4FF003021A7002E04FF005032A
:100FD00047E03B691B889BB2184600F067F903465F
:100FE0001A46FB7B1343DBB2FB73FA7B224B1A706E
:100FF0004FF00003FB733B699B79032B1AD801A2C6
:1010000052F823F0151000001D10000025100000FC
:101010002D1000004FF08003FB730FE04FF06003D2
:10102000FB730BE04FF04003FB7307E04FF020032E
:10103000FB7303E04FF00003FB7300BF3B699B8829
:101040009BB2184600F032F903461A46FB7B134365
:10105000DBB2FB73FA7B094B1A7000E000BF4FF064
:101060000003184607F11807BD4680BD771500102C
:101070007D590010761500107515001074150010BC
:1010800080B58AB000AF78600B467B804FF00003DC
:10109000FB834FF0000387F822304FF0000387F8FE
:1010A00027304FF00003BB844FF00003BB614FF0CB
:1010B000000387F823307C4B1B78022B02D04FF0C3
:1010C0000003EBE007F118034FF06C0019464FF0F6
:1010D00002020BF041FB034687F8213097F82130DC
:1010E000002B08D097F82130012B01D10BF060FBC9
:1010F0004FF00003D2E007F1180318464FF000014B
:101100004FF004020DF0D6F807F118034FF02D0050
:1011100019464FF003020BF01FFB034687F82130FE
:1011200097F82130002B08D097F82130012B01D1FE
:101130000BF03EFB4FF00003B0E03B7E87F822301F
:1011400097F8223003F00803002B00F0998007F194
:101150001E0207F1180303F10103104619464FF070
:1011600002020DF023F8FB8B4FEA13139BB287F8B2
:10117000273097F827309BB24FEA0313BB84BA8C11
:101180007B884FEA03139A4209D97B884FEA0313FD
:10119000BB84BB8C4FEA13139BB287F82730BB8C00
:1011A000002B6DD04FF0000387F8233062E007F189
:1011B00008034FF0300019464FF010020BF0CCFA44
:1011C00097F8232013464FEA43039B184FEA830303
:1011D0007A68D318B7F9112092B21A8097F82320B1
:1011E00013464FEA43039B184FEA83037A68D318E8
:1011F000B7F90F2092B25A8097F8232013464FEA8E
:1012000043039B184FEA83037A68D318B7F9132076
:1012100092B29A8097F8232013464FEA43039B1813
:101220004FEA83037A68D318B7F9092092B2DA80BB
:1012300097F8232013464FEA43039B184FEA830392
:101240007A68D318B7F90B2092B21A8197F8232045
:1012500013464FEA43039B184FEA83037A68D31877
:10126000B7F90D2092B25A8197F8233003F10103A8
:1012700087F8233097F8232097F827309A4296D39F
:1012800097F8223003F00203002B05D04FF008003E
:101290004FF000010AF0B8FA97F82730184607F126
:1012A0002807BD4680BD00BF7715001080B485B00B
:1012B00000AF0346FB804FF0FF03FB73FA8840F258
:1012C0001F339A4203D94FF00603FB732EE0FA88CE
:1012D00040F28F139A4203D94FF00F03FB7325E0BE
:1012E000FB88642B03D94FF00703FB731EE0FB88D8
:1012F000322B03D94FF00803FB7317E0FB88192B3F
:1013000003D94FF00903FB7310E0FB880C2B03D9C2
:101310004FF00A03FB7309E0FB88002B03D04FF06A
:101320000B03FB7302E04FF0FF03FB73FB7B1846DC
:1013300007F11407BD4680BC704700BF80B586B07A
:1013400000AF78604FF00003FB824FF000033B6179
:101350004FF00003BB81294B1B78022B0ED04FF0BE
:10136000010027494FF4B47200F052FA234B4FF0BA
:1013700002021A704FF00A0009F0C6F907F10C03D7
:101380004FF01D0019464FF0020209F0E9FF7B7B88
:10139000FB82FB8A4FEA0323FB823B7B1A46FB8AD4
:1013A0001343FB82FB8A1BB242F2107202FB03F36F
:1013B0003B613B69134A82FB03124FEAE2224FEA88
:1013C000E373D31A03F6C4133B613B69002B06DBBE
:1013D0007B684FF000021A703B69FB8208E07B6873
:1013E0004FF001021A703B699BB2C3F10003FB820C
:1013F000FB8A184607F11807BD4680BD7715001017
:1014000098590010492B932780B586B000AF03464A
:101410003960FB714FF000033B824FF00003FB8209
:101420004FF000037B754FF000033B754FF0010355
:10143000FB744FF00003BB744FF0020009F064F935
:101440004FF00100B8494FF4B47200F0E1F94FF0E9
:101450000A0009F059F94FF00200B3494FF4B47291
:1014600000F0D6F903463B824FF000033B754FF086
:1014700000037B754FF00003BB744FF00A0009F0C6
:1014800043F94FF00200A8494FF4B47200F0C0F9DC
:1014900003463B824FF00003FB82A2E0FA8AA24996
:1014A00013464FEA43039B184FEA8303CB18B3F963
:1014B00000309BB21BB213F5004F1FD1FA8A9A4934
:1014C00013464FEA43039B184FEA8303CB18B3F943
:1014D00002309BB21BB213F5004F0FD1FA8A92492A
:1014E00013464FEA43039B184FEA8303CB18B3F923
:1014F00004309BB21BB213F5004F6ED0FB79012B69
:1015000027D1FA8A884913464FEA43039B184FEACA
:101510008303CB18B3F900309BB23B81FA8A82492E
:1015200013464FEA43039B184FEA8303CB18B3F9E2
:1015300002309BB27B81FA8A7B4913464FEA430310
:101540009B184FEA8303CB18B3F904309BB2BB81DD
:101550002AE0FA8A744913464FEA43039B184FEA7C
:101560008303CB18B3F906309BB23B81FA8A6E49EC
:1015700013464FEA43039B184FEA8303CB1803F14A
:101580000803B3F900309BB27B81FA8A664913469F
:101590004FEA43039B184FEA8303CB1803F1080378
:1015A000B3F902309BB2BB81BB7C3A68D21807F119
:1015B0000803104619464FF006020CF0F7FDBB7CFD
:1015C00003F10603BB747B7D03F101037B754FF0D0
:1015D0000003FB747B7D042B09D8FB8A03F1010314
:1015E000FB82FA8A3B8A9A42FFF458AF00E000BFC0
:1015F0007B7D042B08D83B7D03F101033B753B7DCC
:10160000092B7FF63AAF00E000BF7B7D002B02D1B3
:101610004FF0AD03F5E04FF0000043494FF4B472D2
:1016200000F0F6F84FF00A0009F06EF84FF00200F3
:101630003D494FF4B47200F0EBF803463B824FF0A3
:1016400000033B754FF000037B754FF01E03BB7426
:101650004FF00A0009F058F84FF0020032494FF4F9
:10166000B47200F0D5F803463B824FF00003FB82D2
:10167000A4E0FA8A2C4913464FEA43039B184FEA29
:101680008303CB18B3F900309BB21BB213F5004FA4
:101690001FD1FA8A244913464FEA43039B184FEAA5
:1016A0008303CB18B3F902309BB21BB213F5004F82
:1016B0000FD1FA8A1C4913464FEA43039B184FEA9D
:1016C0008303CB18B3F904309BB21BB213F5004F60
:1016D00070D0FB79012B29D1FA8A134913464FEABE
:1016E00043039B184FEA8303CB18B3F900309BB236
:1016F0003B81FA8A0C4913464FEA43039B184FEA91
:101700008303CB18B3F902309BB27B81FA8A064976
:1017100013464FEA43039B184FEA8303CB18B3F9F0
:1017200004309BB2BB812CE098590010FA8A3749EB
:1017300013464FEA43039B184FEA8303CB18B3F9D0
:1017400006309BB23B81FA8A304913464FEA430385
:101750009B184FEA8303CB1803F10803B3F9003059
:101760009BB27B81FA8A294913464FEA43039B18AF
:101770004FEA8303CB1803F10803B3F902309BB29D
:10178000BB81BB7C3A68D21807F1080310461946A2
:101790004FF006020CF00AFDBB7C03F10603BB749C
:1017A0007B7D03F101037B754FF00003FB747B7DB0
:1017B000042B09D8FB8A03F10103FB82FA8A3B8AD6
:1017C0009A42FFF456AF00E000BF7B7D042B08D89F
:1017D0003B7D03F101033B753B7D092B7FF638AF61
:1017E00000E000BF7B7D002B02D14FF0AD0308E08D
:1017F0004FF0030005494FF4B47200F009F8FB7C88
:101800009BB2184607F11807BD4680BD98590010D5
:1018100080B584B000AF396013460246FA71BB80D0
:101820004FF00003FB814FF000037B734FF0000388
:10183000BB60FB79022B07D1BB88386819460AF0D8
:10184000F5FD0346FB814AE1FB79032B2ED107F11D
:101850000D034FF04E0019464FF0010209F080FDD4
:101860007B7B23F00F03DBB27B7307F10D034FF09B
:101870004E00194609F028FD07F10D034FF04B000B
:1018800019464FF0010209F06BFD7B7B43F0020328
:10189000DBB27B7307F10D034FF04B00194609F0E3
:1018A00013FD924B4FF003021A7018E107F10D037C
:1018B0004FF04E0019464FF0010209F051FD7B7BBD
:1018C00023F00F03DBB27B7307F10D034FF04E00E3
:1018D000194609F0F9FC864B1A68864B9A422AD0C1
:1018E00007F10D034FF0680019464FF0010209F0AF
:1018F00037FD7B7B43F00603DBB27B7307F10D03FF
:101900004FF06800194609F0DFFC07F10D034FF0B6
:101910005F0019464FF0010209F022FD7B7B43F086
:101920002703DBB27B7307F10D034FF05F0019460D
:1019300009F0CAFC14E007F10D034FF05F001946EF
:101940004FF0010209F00CFD7B7B43F00703DBB293
:101950007B7307F10D034FF05F00194609F0B4FCEB
:1019600007F10D034FF04B0019464FF0010209F04B
:10197000F7FC7B7B43F00203DBB27B7307F10D03C3
:101980004FF04B00194609F09FFC07F10D034FF093
:10199000700019464FF0010209F0E2FCFB79002BC0
:1019A00005D17B7B43F07F03DBB27B7304E07B7B61
:1019B00023F07F03DBB27B7307F10D034FF0700060
:1019C000194609F081FC4C4B4FF007021A704B4B43
:1019D0004FF067021A70484B1B78FF2B1AD007F1A3
:1019E0000D034FF04F0019464FF0010209F0B8FC0B
:1019F0007B7B23F06F03DBB27B737A7B3E4B1B78E0
:101A00001343DBB27B7307F10D034FF04F00194610
:101A100009F05AFC394B1B78FF2B1AD007F10D0344
:101A20004FF0500019464FF0010209F099FC7B7B02
:101A300023F06F03DBB27B737A7B304B1B7813434D
:101A4000DBB27B7307F10D034FF05000194609F02C
:101A50003BFC07F10D034FF04E0019464FF0010219
:101A600009F07EFC7B7B23F00F03DBB27B737B7B77
:101A700043F00C03DBB27B737B7B43F00303DBB2ED
:101A80007B7307F10D034FF04E00194609F01CFC63
:101A9000164B4FF001021A70154B1A68154B9A42FB
:101AA00008D0174B4FF001021A704FF0050008F0F4
:101AB0002BFE10E0124B4FF000021A704FF00003A3
:101AC000BB6003E0BB6803F10103BB60BA6840F68A
:101AD000B7339A42F6D9054B4FF002021A70FB89D0
:101AE000184607F11007BD4680BD00BF77150010EE
:101AF0008000001000093D007415001075150010DD
:101B00007C59001080B500AF0E4B1B78012B10D113
:101B10000D4B1B78012B01D104F068FE0B4B1B7899
:101B2000012B01D104F042FA064B4FF000021A706B
:101B300006E0044B1B7803F1FF33DAB2014B1A7055
:101B400080BD00BF950A001004150010960A001011
:101B500080B500AF154B164A1A60164B4FF00702BE
:101B60001A60154B144A126842F07F421A60134AF9
:101B7000124B1B686FEA03436FEA1343136004F0D0
:101B800043F8FEF7E9FD0E4B1B7803F10103DAB2CF
:101B90000B4B1A700B484FF000014FF4CA520A4B1E
:101BA00004F0D0FA084808F0EDFF80BD14E000E032
:101BB0003F420F0010E000E01CED00E020ED00E0EF
:101BC000950A00102DE10000CC14001080B500AF84
:101BD000094B0A4A1A60084B1A68094B1A60064BEF
:101BE0001B684FF001025A71034B1B68184604F042
:101BF000C9F8FFF787FF80BDDC14001070130010D8
:101C0000D814001080B400AF2C4B1B78012B51D09E
:101C10002B4B2B4AD2F8C42042F00802C3F8C42050
:101C2000284B284A126842F050021A60254B254A78
:101C3000126C22F030021A64224B224A126C42F0DB
:101C400020021A64204B1A68204B9A4214D0204B71
:101C50004FF083021A731E4B4FF009021A701C4B8F
:101C60004FF021029A621A4B4FF000021A71184B82
:101C70004FF003021A7313E0154B4FF083021A73EF
:101C8000134B4FF001021A70114B4FF085029A620C
:101C90000F4B4FF000021A710D4B4FF003021A73F5
:101CA0000B4B4FF0800283F83020044B4FF00102C1
:101CB0001A7000E000BFBD4680BC7047970A001054
:101CC00000C00F4000C002408000001000093D002D
:101CD00000C0004080B400AF174B1B78002B27D00A
:101CE000164B4FF0000283F83020144B4FF00002E7
:101CF0001A73134B124AD2F8C42022F00802C3F818
:101D0000C420104B0F4A126822F030021A600D4BAB
:101D10000C4A126C42F030021A640B4B0A4A1268E9
:101D200022F004021A60044B4FF000021A7000E027
:101D300000BFBD4680BC7047970A001000C000403D
:101D400000C00F4000C0024000C0092080B483B032
:101D500000AF78600C4B1B78002B02D14FF00003D2
:101D60000CE000BF094B1B7DDBB203F02003002B0E
:101D7000F8D0064A7B68DBB219461170184607F1A5
:101D80000C07BD4680BC7047970A001000C0004099
:101D900080B582B000AF786039600C4B1B689A68E0
:101DA0003B689A4205D0094B1B68DA683B689A4247
:101DB00004D17868FFF7CAFF7B6801E04FF0FF337A
:101DC000184607F10807BD4680BD00BF900500100A
:101DD00080B584B000AF786039604FF00003FB60DD
:101DE00014E07B681B7818463968FFF7D1FF03467B
:101DF000B3F1FF3F02D14FF0FF330CE0FB6803F17A
:101E00000103FB607B6803F101037B607B681B7847
:101E1000002BE6D1FB68184607F11007BD4680BDD0
:101E20004FF00004EFF3098420467047234618461C
:101E3000034683F30888704780B483B000AF7860AE
:101E40007B6883F3148807F10C07BD4680BC70479C
:101E500090B587B000AF0346FB71FA798849134605
:101E60004FEA43039B184FEAC303CB1803F1040363
:101E70001B68FB60FB68002B00F0FC80814B1B782B
:101E800003F10103DAB27F4B1A707F4B1B68002B02
:101E90000BD1FA7913464FEA43039B184FEAC30369
:101EA000774A9A18784B1A60E1E0774B1B687B61A0
:101EB000FB683B61D7E03A697B695B68D31A3B6199
:101EC0003B69002B80F29F807B695B69002B32D0DD
:101ED0007B695969FA7913464FEA43039B184FEA25
:101EE000C303674A9B180B61FA797B695969644897
:101EF00013464FEA43039B184FEAC303C31803F189
:101F000014031960FA795E4913464FEA43039B189C
:101F10004FEAC303CB1803F110037A691A60FA7908
:101F200013464FEA43039B184FEAC303544A9A18D7
:101F30007B695A6124E0FA79534B1968504813467B
:101F40004FEA43039B184FEAC303C31803F110037E
:101F500019604D4B1968FA7913464FEA43039B18F1
:101F60004FEAC303464A9B184B61FA7913464FEA7E
:101F700043039B184FEAC303414A9A18424B1A6025
:101F8000FA79F9793E480B464FEA43035B184FEA6A
:101F9000C303C31803F110031B6859683B69C918D0
:101FA000374813464FEA43039B184FEAC303C3184D
:101FB00003F104031960FA79314913464FEA4303E8
:101FC0009B184FEAC303CB1803F110031968FA7981
:101FD0002B4813464FEA43039B184FEAC303C31829
:101FE00003F110031B685868FA79254C13464FEA31
:101FF00043039B184FEAC303E31803F104031B6870
:10200000C31A4B6033E03B69002B29DB7B691B69FA
:10201000002B25D1FA791A4913464FEA43039B183E
:102020004FEAC303CB1803F114037A691A60FA79F3
:1020300013464FEA43039B184FEAC303104A9A180A
:102040007B691A61FA7939690D4813464FEA4303EF
:102050009B184FEAC303C31803F10403196006E099
:102060007B691B697B617B69002B7FF424AFFFF7E1
:1020700049FD00E000BF07F11C07BD4690BD00BF51
:10208000980A0010950A0010100B001080B584B05B
:1020900000AF0346FB71FA7913464FEA43039B18DE
:1020A0004FEAC303304A9B18FB60304B1B7803F1A7
:1020B0000103DAB22D4B1A70FB685B69002B08D163
:1020C000FB681B69002B04D1294B4FF000021A60FA
:1020D00043E0FB685B69002B16D1FB681A69244B4F
:1020E0001A60234B1B684FF000025A61FB681B69A2
:1020F000FA6812695168FA6852688A185A60FB686F
:102100004FF000021A6128E0FB681B69002B09D11F
:10211000FB685B694FF000021A61FB684FF0000238
:102120005A611AE0FB685B69FA6812691A61FB6818
:102130001B69FA6852695A61FB681B69FA6812697F
:102140005168FA6852688A185A60FB684FF00002BA
:102150001A61FB684FF000025A61FFF7D3FC07F1E8
:102160001007BD4680BD00BF980A0010950A0010F8
:10217000100B001080B582B000AF1C4B1B687B6059
:1021800028E07B685B78002B0CD17B681B781846B5
:10219000FFF77CFF7B684FF001029A707B68DB6879
:1021A000984714E07B685B78012B10D17B681B7823
:1021B0001846FFF76BFF7B689A687B685A607B68FC
:1021C0001B781846FFF744FE7B68DB689847074B8F
:1021D0001B687B607B68002B03D07B685B68002BEF
:1021E000CFD007F10807BD4680BD00BF100B00101F
:1021F00080B500AF074B1B78012B08D9064B4FF079
:1022000001021A70054B4FF001021A7001E0FFF74E
:10221000B1FF80BD950A00100415001006150010CE
:1022200080B483B000AF4FF000037B608D4B44F26D
:102230003A021A608B4BD3F888304FEA136303F0ED
:102240000303032B4ED0874B4FF02002C3F8A0218D
:1022500000BF844BD3F8A03103F04003002BF8D02B
:10226000804B4FF48812C3F8A8217E4B4FF4806254
:10227000C3F8AC217B4B4FF00102C3F80C21794B22
:10228000794AC3F88420774B4FF00102C3F88020CD
:10229000744B4FF0AA02C3F88C20724B4FF05502DA
:1022A000C3F88C204FF000037B6003E07B6803F1F0
:1022B00001037B607B68B3F57A7FF7D9694B4FF0F8
:1022C0000302C3F80421674B4FF00302C3F88020D8
:1022D000644B4FF0AA02C3F88C20624B4FF05502BA
:1022E000C3F88C205F4BD3F888304FEA136303F0B8
:1022F0000303032B79D15B4BD3F80C3103F00303B9
:10230000032B00F2AA8001A252F823F01D23000043
:1023100063230000A52300001D230000514BD3F8C8
:1023200088304FEA43434FEA534303F101034FEA36
:1023300043024C4BD3F888304FEA1343DBB203F12E
:102340000103B2FBF3F3494A02FB03F2454BD3F816
:102350000431DBB203F10103B2FBF3F2444B1A6028
:102360007BE0404BD3F888304FEA43434FEA534376
:1023700003F101033F4A02FB03F23A4BD3F88830E2
:102380004FEA1343DBB203F101033649D1F80411DC
:10239000C9B201F1010101FB03F3B2FBF3F2344BCB
:1023A0001A605AE02F4BD3F888304FEA43434FEA84
:1023B000534303F101034FEA43022A4BD3F8883019
:1023C0004FEA1343DBB203F10103B2FBF3F34FEA2D
:1023D000C332244BD3F80431DBB203F10103B2FB67
:1023E000F3F2234B1A6000BF37E01E4BD3F80C31D9
:1023F00003F00303032B30D801A252F823F000BFEF
:1024000011240000292400004124000011240000B0
:10241000144BD3F80431DBB203F10103134AB2FBCE
:10242000F3F2134B1A6018E00E4BD3F80431DBB211
:1024300003F10103104AB2FBF3F20D4B1A600CE0FA
:10244000084BD3F80431DBB203F101034FF400422F
:10245000B2FBF3F2064B1A6000BF07F10C07BD4652
:1024600080BC704700C00F401800020000093D000A
:1024700080000010006CDC0200366E0180B400AFFA
:10248000024B1B681846BD4680BC7047180B0010F5
:1024900080B400AF62B6BD4680BC704780B400AF68
:1024A00072B6BD4680BC704780B483B000AF0346AF
:1024B000FB71094B97F907204FEA5212F97901F0A5
:1024C0001F014FF0010000FA01F143F8221007F15B
:1024D0000C07BD4680BC704700E100E080B483B0CB
:1024E00000AF0346FB710A4B97F907204FEA5212DF
:1024F000F97901F01F014FF0010000FA01F102F13A
:10250000200243F8221007F10C07BD4680BC70473B
:1025100000E100E080B483B000AF78607B684FF0EA
:102520003B021A707B6803F101034FF09A021A70A4
:1025300007F10C07BD4680BC704700BF80B500AFF7
:102540000A484FF0000140F604020BF0B3FE0848C1
:102550004FF0000140F604020BF0ACFE08F024FA44
:10256000044B4FF000021A7080BD00BFDC18001051
:10257000F02100106013001080B500AF05484FF047
:102580000001054A054B03F0DDFD03461A46044BE6
:102590001A7080BDA52500000F000400FC0F082064
:1025A0005F13001080B582B000AF7860FFF7C6FF00
:1025B00001E000F011F8074BB3F80028054BB3F821
:1025C00002389A42F5D14FF0010008F09DF800BFA3
:1025D000F1E700BFDC18001080B582B000AF4FF00B
:1025E0000003FB714FF00003BB80FFE0864B1B88AC
:1025F000864AB2F802288549895C854AD154834BC2
:10260000B3F8023803F101039AB2804BA3F8022811
:102610007E4BB3F8022840F2FF739A4204D97B4BF9
:102620004FF00002A3F802287A4B1B78052B00F22A
:10263000DD8001A252F823F0512600007F26000021
:10264000BD260000E12600003727000065270000B6
:102650006D4B1B886E4AD35C022B40F0C4806A4BE2
:102660004FF000021A806B4B4FF001021A70664B5C
:102670001B8803F101039AB2634B1A80B6E0624BE8
:102680001B88634AD35C03F0F003D02B0AD0614B64
:102690004FF000021A705D4BB3F800285B4BA3F8B3
:1026A0000228A3E0584B1B8803F101039AB2564B52
:1026B0001A80584B4FF002021A7097E0524B1B8859
:1026C000534AD25C544B1A704F4B1B8803F10103E1
:1026D0009AB24D4B1A804F4B4FF003021A7085E0AF
:1026E0004E4B4FF000021A80474B1B88484AD35C80
:1026F0004FEA03239AB2484B1B7813439BB29AB21A
:10270000464B1A80404B1B8803F101039AB23E4BA3
:102710001A80424B1A88424B1A80404B1B88002B70
:1027200004D13C4B4FF005021A705FE0394B4FF07B
:1027300004021A705AE0344B1B8803F101039AB269
:10274000314B1A80354B1B8803F1FF339AB2334B60
:102750001A80324B1B88002B47D12E4B4FF00502BD
:102760001A7042E04FF00003FB714FF00003BB8092
:1027700009E0BB88264AD25CFB79D318FB71BB8881
:1027800003F10103BB80BA88254B1B8803F10403C6
:102790009A42EEDB1C4B1B881D4AD35CFA799A42A5
:1027A0000ED01C4B4FF000021A70174B4FF0000276
:1027B0001A80164BB3F80028144BA3F8022815E032
:1027C000144B4FF000021A700F4B4FF000021A80AA
:1027D0000F4800F027F80E484FF000014FF4006258
:1027E0000BF068FD02E000BF00E000BF074BB3F84C
:1027F0000028064BB3F802389A427FF4F7AE07F18F
:102800000807BD4680BD00BF1E130010DC18001075
:102810001C0B00101C1300101D13001020130010BF
:1028200022130010B0B5ADF6882D00AF07F10403F8
:10283000186007F23A234FF000021A804FF00003AD
:10284000A7F8863A07F50E734FF000021A804FF092
:10285000000387F8853A07F50D734FF000021A6000
:1028600007F50C734FF000021A604FF00003C7F831
:10287000583A4FF00003C7F8543A4FF00003C7F836
:10288000503A4FF00003A7F8823A4FF0010387F85F
:10289000813A07F50B734FF000021A6007F50A73CF
:1028A0004FF000021A604FF00003C7F84C3A07F2ED
:1028B00017234FF000021A7007F505734FF000025E
:1028C0001A804FF0000387F8803A4FF0000387F832
:1028D0007F3A07F213234FF000021A704FF0020301
:1028E000A7F84A3A07F504734FF000021A804FF038
:1028F0000003C7F8443A07F10C02D64B14461D46B4
:1029000028686968AA68EB680FC428692060AB8AE8
:10291000A3804FF00003C7F8643A4FF00003C7F8F4
:10292000603A4FF00003C7F85C3A4FF00003C7F875
:10293000703A4FF00003C7F86C3A4FF00003C7F845
:10294000683A07F5067318464FF000014FF0100281
:102950000BF0B0FC07F50F7318464FF000014FF471
:1029600000620BF0A7FC07F104031B68C7F8403AAC
:1029700007F50F73C7F83C3AD7F83C3A4FF002021C
:102980001A70D7F8403A5A78D7F83C3A5A70D7F8C4
:102990003C3A4FF0000242F001029A704FF0000200
:1029A000DA70D7F83C3A4FF000021A71D7F8403A83
:1029B0005B78DF2B1DD1D7F8403A1B7903F0F00389
:1029C000002B16D0B7F8863AD7F83C2AD3184FF028
:1029D00081025A71B7F8863A03F10103A7F8863AE3
:1029E000D7F83C3AB7F8862A5A804FF0010387F8A7
:1029F000853A97F8853A012B01F0C087D7F8403A1D
:102A00005B78A3F1D0030F2B01F2B58701A151F838
:102A100023F000BF552A0000774900002B2B00004F
:102A2000092D0000292D0000552D0000CD2D00009E
:102A3000B52F0000C1300000774900007749000041
:102A40007749000077490000774900007749000086
:102A5000FB330000804A4FF4803311461A464FF48E
:102A60008073084611461A460BF0A0FB7B4808F01D
:102A7000A3FA0346002B0ED1B7F8863AD7F83C2AC2
:102A8000D3184FF0A0025A71B7F8863A03F1010348
:102A9000A7F8863A0DE0B7F8863AD7F83C2AD3185B
:102AA0004FF020025A71B7F8863A03F10103A7F8F4
:102AB000863AB7F8863AD7F83C2AD31803F10503CB
:102AC000184667494FF00A020BF070FBB7F8863AD8
:102AD00003F10A03A7F8863A604808F06DFA034646
:102AE000002B0DD1B7F8863AD7F83C2AD31803F15A
:102AF000050318465B494FF014020BF057FB0CE03E
:102B0000B7F8863AD7F83C2AD31803F105031846DC
:102B100055494FF00A020BF049FBB7F8863A03F12A
:102B20001403A7F8863A01F029BFB7F8863A03F1F3
:102B300001039AB2D7F83C3A5A8007F23A234FF091
:102B400000021A801DE0B7F8863AB7F8862AD7F84F
:102B50003C1A8A18517907F23A221288D7F83C0AAF
:102B6000821852798A18D2B2D7F83C1ACB185A7107
:102B700007F23A231B8803F101039AB207F23A23C2
:102B80001A8007F23A231B88B7F8862A9A42DAD8C5
:102B9000B7F8863AB7F8862AD7F83C1A8A185179D6
:102BA000D7F83C2A12788A18D2B2D7F83C1ACB1838
:102BB0005A71B7F8863AB7F8862AD7F83C1A8A18B5
:102BC0005179D7F83C2A52788A18D2B2D7F83C1AF1
:102BD000CB185A71B7F8863AB7F8862AD7F83C1A54
:102BE0008A185179D7F83C2A12798A18D2B2D7F8C4
:102BF0003C1ACB185A71B7F8863AB7F8862AD7F834
:102C00003C1A8A185179D7F83C2A528892B2D2B22B
:102C10008A18D2B2D7F83C1ACB185A71B7F8863A4C
:102C2000B7F8862AD7F83C1A8A185179D7F83C2A7F
:102C3000528892B24FEA122292B2D2B28A18D2B21B
:102C4000D7F83C1ACB185A7107F23A234FF000021A
:102C50001A8030E0C4E50000785800100100040339
:102C6000C400000098580010BCE50000C24BB3F847
:102C70000028114607F23A231B88184607F50F74FF
:102C8000245CBD48445402F1010291B2BA4AA2F850
:102C9000001803F101039AB207F23A231A80B64BE7
:102CA000B3F8002840F2FF739A4204D9B24B4FF0B8
:102CB0000002A3F8002807F23A231B881A46B7F847
:102CC000863A03F105039A42D0DD03E04FF001009C
:102CD00007F01AFDA84BB3F80028A74BB3F8023849
:102CE0009A42F3D14FF0050007F00EFDA34B4FF0D1
:102CF00080629A61FFF7D2FBA14B4FF004021A6089
:102D0000A04BA14A1A60FEE7B7F8863AD7F83C2AEA
:102D1000D3184FF000025A71B7F8863A03F1010355
:102D2000A7F8863A01F02ABEB7F8863AD7F83C2AC7
:102D3000D31803F10503184602F0F0FCB7F8863A01
:102D400003F11003A7F8863A904B4FF001021A7076
:102D500001F014BE8D4B1B78012B30D107F50673A3
:102D600018468B494FF010020BF04AFB07F506732B
:102D7000184688494FF00002FDF7E2FAD7F8403ACA
:102D800003F1040307F50672104619464FF01002CE
:102D90000BF0DAFA0346002B0AD1D7F83C3A4FF091
:102DA00000021A71794B4FF002021A7001F0E6BD71
:102DB000D7F83C3A4FF08B021A7101F0DFBDD7F81B
:102DC0003C3A4FF08B021A7101F0D8BD6F4B1B7863
:102DD000022B40F0CA80D7F8403A1B791A46D7F840
:102DE000403A5B794FEA03231A43D7F8403A9B797C
:102DF0004FEA03431A43D7F8403ADB794FEA0363BB
:102E000013431A46644B1A60D7F8403A1B7A1A46A5
:102E1000D7F8403A5B7A4FEA03231A43D7F8403A8F
:102E20009B7A4FEA03431A43D7F8403ADB7A4FEADA
:102E3000036313431A46594B1A60D7F8403A1B7B79
:102E40001A46D7F8403A5B7B4FEA03231A43D7F878
:102E5000403A9B7B4FEA03431A43D7F8403ADB7B67
:102E60004FEA036313431A464D4B1A60D7F8403AB2
:102E70001B7C1A46D7F8403A5B7C4FEA03231A437F
:102E8000D7F8403A9B7C4FEA03431A43D7F8403ABD
:102E9000DB7C4FEA036313431A46424B1A60424AF3
:102EA000D7F8403A144603F1140528686968AA68FF
:102EB000EB680FC428692060B7F8863AD7F83C2A37
:102EC000D3184FF000025A71B7F8863A03F10103A4
:102ED000A7F8863AB7F8863AD7F83C2AD3184FF0C5
:102EE00008025A71B7F8863A03F10103A7F8863A47
:102EF000B7F8863AD7F83C2AD3184FF000025A7137
:102F0000B7F8863A03F10103A7F8863AB7F8863A8C
:102F1000D7F83C2AD3184FF001025A71B7F8863A15
:102F200003F10103A7F8863A1E4B1A681F4B9A4219
:102F300007D14FF4E0604FF480710BF099FA01F083
:102F40001DBD184B1A681A4B9A4207D14FF4807076
:102F50004FF4C0610BF08CFA01F010BDD7F83C3A89
:102F60004FF089021A7101F009BDD7F83C3A4FF0D1
:102F70008B021A7101F002BDF021001000C009207F
:102F800010E000E00CED00E00400FA05631300100F
:102F9000E0200010840000102813001024130010FB
:102FA0002C130010C018001034130010020004038A
:102FB000010004038D4B1B78022B7AD18C4B1B88AC
:102FC000002B18D1D7F8403A1B791A46D7F8403A67
:102FD0005B794FEA03231A43D7F8403A9B794FEACB
:102FE00003431A43D7F8403ADB794FEA03631343AC
:102FF0001A46804B1A60D7F8403A5B889BB2A3F11F
:1030000004027B4B1B88D318B3F5805F30DC784B10
:103010001B881A46784BD118D7F8403A03F10802BA
:10302000D7F8403A5B889BB2A3F1040308461146E7
:103030001A460BF0BBF8D7F8403A5B889BB2B3F561
:10304000827F0DD1D7F8403A5B889AB2684B1B88D3
:10305000D3189BB2A3F104039AB2654B1A800CE01B
:10306000634B1B8803F580739AB2614B1A8004E0AE
:10307000D7F83C3A4FF087021A715D4B1B88B3F5C5
:10308000805F41F07A845B4B1A68594B1B8810466D
:1030900059491A460AF0B8F9554B4FF000021A8008
:1030A00055484FF000014FF480520BF003F901F046
:1030B00064BCD7F83C3A4FF08B021A7101F05DBC4A
:1030C0004A4B1B78022B40F09181D7F8403A1B798C
:1030D0001A46D7F8403A5B794FEA03231A43D7F8E8
:1030E000403A9B794FEA03431A43D7F8403ADB79D9
:1030F0004FEA03631343C7F8543AD7F8403A1B7AB0
:103100001A46D7F8403A5B7A4FEA03231A43D7F8B6
:10311000403A9B7A4FEA03431A43D7F8403ADB7AA6
:103120004FEA03631343C7F8583AD7F8403A1B7B7A
:103130001A46D7F8403A5B7B4FEA03231A43D7F885
:10314000403A9B7B4FEA03431A43D7F8403ADB7B74
:103150004FEA03631343C7F8503A254B1B88002BF3
:1031600013D0244B1A68224B1B88104622491A465A
:103170000AF04AF91E4B4FF000021A801E484FF029
:1031800000014FF480520BF095F81C4B1B68D7F8E8
:10319000542A9A4240F02181194B1B68D7F8582ACB
:1031A0009A4240F01A81D7F8580AD7F8541A07F013
:1031B00035FF0246D7F8503A9A4240F00E81114B43
:1031C0001B68184607F0F8FE0346002B40F0058107
:1031D000B7F8863A03F101039AB2D7F83C3A5A801D
:1031E00007F23A234FF000021A802BE0631300101D
:1031F0000C150010301300101C480010281300108C
:1032000024130010C0180010B7F8863AB7F8862AC1
:10321000D7F83C1A8A18517907F23A221288D7F85F
:103220003C0A821852798A18D2B2D7F83C1ACB18C5
:103230005A7107F23A231B8803F101039AB207F28D
:103240003A231A8007F23A231B88B7F8862A9A4253
:10325000DAD8B7F8863AB7F8862AD7F83C1A8A1827
:103260005179D7F83C2A12788A18D2B2D7F83C1A8A
:10327000CB185A71B7F8863AB7F8862AD7F83C1AAD
:103280008A185179D7F83C2A52788A18D2B2D7F8DE
:103290003C1ACB185A71B7F8863AB7F8862AD7F88D
:1032A0003C1A8A185179D7F83C2A12798A18D2B276
:1032B000D7F83C1ACB185A71B7F8863AB7F8862A6D
:1032C000D7F83C1A8A185179D7F83C2A528892B21A
:1032D000D2B28A18D2B2D7F83C1ACB185A71B7F8C2
:1032E000863AB7F8862AD7F83C1A8A185179D7F85F
:1032F0003C2A528892B24FEA122292B2D2B28A1873
:10330000D2B2D7F83C1ACB185A7107F23A234FF0D1
:1033100000021A8024E0D84BB3F80028114607F2C7
:103320003A231B88184607F50F74245CD24844548E
:1033300002F1010291B2D04AA2F8001803F1010390
:103340009AB207F23A231A80CB4BB3F8002840F226
:10335000FF739A4204D9C84B4FF00002A3F800282B
:1033600007F23A231B881A46B7F8863A03F1050399
:103370009A42D0DD03E04FF0010007F0C5F9BE4BE3
:10338000B3F80028BC4BB3F802389A42F3D14FF09F
:10339000050007F0B9F9B94B1A68B94B9A4223D125
:1033A000D7F8583A4FEA1323A7F8823AD7F8583A91
:1033B000DBB2002B05D0B7F8823A03F10103A7F87E
:1033C000823A09F0CBFC09F073FC04F00BFCB7F86F
:1033D000823A18460AF062F806E0D7F83C3A4FF015
:1033E00087021A7101F0CABA01F0C8BAD7F83C3A9C
:1033F0004FF08B021A7101F0C1BAB7F8863AD7F8CC
:10340000402A127962F07F02D2B2D7F83C1ACB1868
:103410005A71B7F8863A03F10103A7F8863AD7F84C
:10342000403A1B7903F00F03102B01F2918201A2A5
:1034300052F823F079340000053500003F350000D4
:1034400085350000B1350000B5360000E3370000D7
:10345000853900005F3A0000C13A0000333C0000AB
:10346000173E00003B3E0000BD460000C54700007F
:103470007548000019490000B7F8863AD7F83C2A89
:10348000D31803F1050318464FF000014FF00A026C
:103490000AF010FF7B4BB3F800287A4BB3F80238E0
:1034A0009A420CD0744BB3F80028734BB3F802382F
:1034B0009A4204D04FF0000387F8853A03E04FF0BA
:1034C000010387F8853AB7F8863A6F4A12784FEACF
:1034D000C212D1B297F8852A0A43D1B26B4A127848
:1034E0004FEA8212D2B20A43D2B2D2B2D7F83C1A11
:1034F000CB185A71B7F8863A03F10103A7F8863A58
:1035000001F038BAD7F8403A03F10400D7F8403A4E
:1035100003F10201B7F8863AD7F83C2AD31803F131
:10352000050207F23A2301F019FC07F23A231A8840
:10353000B7F8863AD318A7F8863A01F01BBAB7F85D
:10354000863AD7F83C2AD3184FF000025A71B7F8E0
:10355000863A03F10103A7F8863AB7F8863AD7F816
:103560003C2AD31803F10503184649494FF00402D9
:103570000AF01CFEB7F8863A03F10403A7F8863A6E
:1035800001F0F8B9B7F8863AD7F83C2AD3184FF0CB
:1035900000025A71B7F8863A03F10103A7F8863A98
:1035A000D7F8403A5B79184602F0F4F901F0E2B935
:1035B000D7F8403A5B79012B11D1B7F8863AD7F8A2
:1035C0003C2AD3184FF000025A71B7F8863A03F13B
:1035D0000103A7F8863A0AF037F901F0CBB9D7F81A
:1035E000403A5B79022B55D1D7F8403A9B7987F85E
:1035F000853AB7F8863AD7F83C2AD3184FF000023C
:103600005A71B7F8863A03F10103A7F8863A01F038
:103610003BFD4FF0020007F077F809F09FFB09F03F
:1036200047FB97F8853AFF2B07D197F8853A4FF07B
:103630000000194604F096F906E097F8853A4FF035
:103640000100194604F08EF909F0FAFA09F046FB78
:103650004FF00103A7F8863AB7F8863AD7F83C2A24
:10366000D3184FF000025A71B7F8863A03F10103FC
:10367000A7F8863A01F07EB9F0210010C0180010BA
:1036800002000403DC1800100815001009150010D2
:1036900000ED00E0B7F8863AD7F83C2AD3184FF08F
:1036A00082025A71B7F8863A03F10103A7F8863A05
:1036B00001F060B94FF00003C7F8783A4FF000030B
:1036C00087F8773A4FF0000387F8853A32E04FF0F9
:1036D000050007F019F807F50E73184607F0D2F940
:1036E00007F50E731B88002B1ED007F50E731A8882
:1036F00040F6FE739A4217D897F8773AD7F8782AA7
:1037000002FB03F207F50E731B88D21897F8773A7D
:1037100003F10103B2FBF3F3C7F8783A97F8773A6D
:1037200003F1010387F8773A97F8853A03F101032B
:1037300087F8853A97F8853A092BC8D9D7F8783AA7
:103740009AB207F50E731A80B7F8863AD7F83C2A72
:10375000D3184FF000025A71B7F8863A03F101030B
:10376000A7F8863AB7F8863AD7F83C2AD31803F177
:10377000050207F50E73104619464FF002020AF0D3
:1037800015FDB7F8863A03F10203A7F8863A07F564
:103790000E731B8849F2CF2202FB03F3002B01DAE0
:1037A00003F6FF734FEA233303F5E1731A4607F577
:1037B0000C731A60B7F8863AD7F83C2AD31803F18D
:1037C000050207F50C73104619464FF004020AF083
:1037D000EDFCB7F8863A03F10403A7F8863A01F046
:1037E000C9B8D7F8403A5B79DBB25BB2002B15DA87
:1037F000D7F8403A9B79DBB25BB2002B06DAC84BB4
:10380000C74A926942F080529A6107E0C44AC44BA9
:10381000DB6943F0805343F40063D361D7F8403A47
:103820005B7903F04003002B13D0D7F8403A9B7923
:1038300003F04003002B06D0BA4BBA4A926942F417
:1038400080729A6105E0B74BB64AD26942F4807241
:10385000DA61D7F8403A5B7903F02003002B19D0E6
:10386000D7F8403A9B7903F02003002B06D0AD4BEC
:10387000AC4A926942F400029A610BE0A94BA94A52
:10388000D26942F40002DA61A64BA64A926942F07C
:1038900080529A61D7F8403A5B7903F01003002B0D
:1038A00013D0D7F8403A9B7903F01003002B06D0D1
:1038B0009D4B9D4A926942F020029A6105E09A4B25
:1038C000994AD26942F02002DA61D7F8403A5B792E
:1038D00003F00803002B13D0D7F8403A9B7903F08C
:1038E0000803002B06D0904B8F4A926942F04002A9
:1038F0009A6105E08C4B8C4AD26942F04002DA6151
:10390000D7F8403A5B7903F00403002B11D0D7F8C5
:10391000403A9B7903F00403002B06D0834B4FF011
:1039200001021A7001F090F903E0804B4FF00002A1
:103930001A70D7F8403A5B7903F00203002B11D0DC
:10394000D7F8403A9B7903F00203002B06D0784B5E
:103950004FF001021A7001F077F903E0744B4FF059
:1039600000021A70B7F8863AD7F83C2AD3184FF0FD
:1039700000025A71B7F8863A03F10103A7F8863AB4
:1039800000F0F8BFD7F8403A5B79012B1FD1D7F888
:10399000403A9B7987F8853AD7F8403A03F1070314
:1039A00007F50B72104619464FF004020AF0FEFBB1
:1039B00007F50B731A6897F8851A07F50A73084616
:1039C00011461A4601F022FE034687F8813A97F81D
:1039D000813A002B33D1B7F8863AD7F83C2AD3186E
:1039E0004FF000025A71B7F8863A03F10103A7F8C5
:1039F000863AB7F8863AD7F8402A5279D7F83C1A6F
:103A0000CB185A71B7F8863A03F10103A7F8863A42
:103A1000B7F8863AD7F83C2AD31803F1050207F520
:103A20000A73104619464FF004020AF0BFFBB7F8BC
:103A3000863A03F10403A7F8863A00F09BBFB7F873
:103A4000863AD7F83C2AD3184FF08A025A71B7F851
:103A5000863A03F10103A7F8863A00F08BBF09F01C
:103A60007DF909F025F901F035FB034687F8813A25
:103A700009F0E6F809F032F997F8813A002B0FD1F6
:103A8000B7F8863AD7F83C2AD3184FF000025A719B
:103A9000B7F8863A03F10103A7F8863A00F06ABF47
:103AA000B7F8863AD7F83C2AD3184FF08A025A71F1
:103AB000B7F8863A03F10103A7F8863A00F05ABF37
:103AC000B7F8863AD7F8402A5279D7F83C1ACB187B
:103AD0005A71B7F8863A03F10103A7F8863AD7F886
:103AE000403A5B79012B4DD1B7F8863AD7F83C2A9A
:103AF000D3184FF000025A7109F000FE0346002B64
:103B000038D102F011FF09F011FD0A4B4FF001020C
:103B10001A7009F051FD084B1B68C7F84C3A24E0B5
:103B200000C0092020C0092040C009205E130010F9
:103B30005D13001015150010B41800104FF014009C
:103B400006F0E2FDD7F84C3A03F59C5303F1080365
:103B5000D14A1268934208D8B7F8863AD7F83C2A77
:103B6000D3184FF08C025A7104E009F0C7FD0346E8
:103B7000002BE3D0B7F8863A03F10103A7F8863AA1
:103B800000F0F5BED7F8403A5B79022B39D1B7F88F
:103B9000863AD7F83C2AD3184FF000025A7109F040
:103BA000ADFD0346012B24D109F066FD02F0D2FEE3
:103BB000B94B1B68C7F84C3A16E04FF0140006F0FA
:103BC000A3FDD7F84C3A03F59C5303F10803B24A1E
:103BD0001268934208D8B7F8863AD7F83C2AD31827
:103BE0004FF08C025A7104E009F088FD0346012B66
:103BF000E3D0B7F8863A03F10103A7F8863A00F05C
:103C0000B6BED7F8403A5B79032B40F0B086B7F8E0
:103C1000864A09F073FD03461A46D7F83C3A1B1949
:103C20005A71B7F8863A03F10103A7F8863A00F013
:103C30009EBEB7F8863AD7F8402A5279D7F83C1A90
:103C4000CB185A71B7F8863A03F10103A7F8863A00
:103C500092484FF000014FF014020AF02BFBD7F806
:103C6000403A5B79012B14D1B7F8863AD7F83C2A51
:103C7000D3184FF000025A71B7F8863A03F10103E6
:103C8000A7F8863A01F08EFD844B4FF001029A723C
:103C900079E0D7F8403A5B79022B14D1B7F8863A2D
:103CA000D7F83C2AD3184FF000025A71B7F8863A79
:103CB00003F10103A7F8863A09F07EFC774B4FF039
:103CC00002029A725FE0D7F8403A5B79032B28D161
:103CD0004FF0020001F05EFE0346002B12D1B7F850
:103CE000863AD7F83C2AD3184FF000025A71B7F839
:103CF000863A03F10103A7F8863A694B4FF00102B7
:103D00001A7040E0B7F8863AD7F83C2AD3184FF03B
:103D100089025A71B7F8863A03F10103A7F8863A87
:103D200031E0D7F8403A5B79042B18D1D7F8403A04
:103D3000DB794FF4616202FB03F31A46594B1A60B8
:103D4000B7F8863AD7F83C2AD3184FF000025A71D8
:103D5000B7F8863A03F10103A7F8863A13E0B7F8FB
:103D6000863AD7F83C2AD3184FF000025A71B7F8B8
:103D7000863A03F10103A7F8863A01F073FD474B39
:103D80004FF000029A72454B4AF2A5521A80434BFB
:103D9000C7F8443A414B4FF00002DA7407F23A2375
:103DA0004FF000021A8015E03C4BDA7C07F23A2310
:103DB0001B88D7F8441ACB181B78D318DAB2374BC4
:103DC000DA7407F23A231B8803F101039AB207F26F
:103DD0003A231A8007F23A231B88112BE4D9324A7E
:103DE0002E4B15461C460FCC28606960AA60EB601C
:103DF00020682861D7F8403A9B79012B05D12B4BDD
:103E00004FF001021A7000F0B5BD284B4FF00002D0
:103E10001A7000F0AFBDB7F8863AD7F83C2AD3182D
:103E20004FF000025A71B7F8863A03F10103A7F880
:103E3000863A01F065FD00F09DBDB7F8863AD7F8E7
:103E4000402A5279D7F83C1ACB185A71B7F8863AFB
:103E500003F10103A7F8863AD7F8403A5B7903F0FB
:103E60000F03092B00F2858501A151F823F000BF53
:103E7000F9450000B13E0000073F0000853F00000B
:103E800093400000574100007F450000F3400000D0
:103E90004F46000085460000B4180010481300107B
:103EA00065130010681300104440024064130010B2
:103EB00007F0E4FA03461A4607F217231A7007F2CE
:103EC00017231B78002B0ED1B7F8863AD7F83C2A77
:103ED000D3184FF000025A71B7F8863A03F1010384
:103EE000A7F8863AE9E3B7F8863A07F2172212787C
:103EF000D7F83C1ACB185A71B7F8863A03F1010388
:103F0000A7F8863AD9E307F213234FF001001946C8
:103F100007F07AFC03461A4607F217231A7007F2D5
:103F200017231B78002B0ED1B7F8863AD7F83C2A16
:103F3000D3184FF000025A71B7F8863A03F1010323
:103F4000A7F8863A0EE0B7F8863A07F217221278F9
:103F5000D7F83C1ACB185A71B7F8863A03F1010327
:103F6000A7F8863AB7F8863A07F213221278D7F8FC
:103F70003C1ACB185A71B7F8863A03F10103A7F837
:103F8000863A9AE3B7F84A3AD7F8402AD3181A790A
:103F900007F124039A70B7F84A3A03F10103A7F82E
:103FA0004A3AB7F84A3AD7F8402AD3181B791A4642
:103FB00007F10C0333F8122007F124031A80B7F835
:103FC0004A3A03F10103A7F84A3AB7F84A3AD7F850
:103FD000402AD3181A7907F124039A71B7F84A3A9C
:103FE00003F10103A7F84A3AB7F84A3AD7F8402A4A
:103FF000D3181B791A4607F10C0333F8122007F186
:1040000024039A80B7F84A3A03F10103A7F84A3A21
:1040100007F217234FF00100194607F0F5FB03469E
:10402000002B27D107F124034FF00600194607F0B3
:10403000EBFB0346002B0ED1B7F8863AD7F83C2AA3
:10404000D3184FF000025A71B7F8863A03F1010312
:10405000A7F8863A31E3B7F8863AD7F83C2AD3185E
:104060004FF0AE025A71B7F8863A03F10103A7F890
:10407000863A22E3B7F8863AD7F83C2AD3184FF0AD
:10408000AF025A71B7F8863A03F10103A7F8863AEE
:1040900013E307F217234FF00200194607F0B4FBB1
:1040A00003461A4607F217231A7007F217231B78E4
:1040B000002B0ED1B7F8863AD7F83C2AD3184FF028
:1040C00000025A71B7F8863A03F10103A7F8863A5D
:1040D000F3E2B7F8863A07F217221278D7F83C1ABB
:1040E000CB185A71B7F8863A03F10103A7F8863A5C
:1040F000E3E207F217234FF00300194607F084FBB1
:1041000003461A4607F217231A7007F217231B7883
:10411000002B0ED1B7F8863AD7F83C2AD3184FF0C7
:1041200000025A71B7F8863A03F10103A7F8863AFC
:104130000EE0B7F8863A07F217221278D7F83C1A41
:10414000CB185A71B7F8863A03F10103A7F8863AFB
:1041500007F020FBB1E207F1300318464FF00001F1
:104160004FF0F0020AF0A6F807F5907318464FF0EA
:1041700000014FF0F0020AF09DF807F50D734FF0C3
:1041800000021A604FF0000387F87F3A90E1CB48B5
:104190004FF000014FF0F0020AF08CF807F21723FD
:1041A0004FF000021A7007F505734FF000021A80F5
:1041B00016E0C2484FF0140108F038F903461A46D9
:1041C00007F505731A8007F217231B7803F1010323
:1041D000DAB207F217231A704FF0010006F094FAD2
:1041E00007F505731B88002B04D107F217231B78F2
:1041F0000A2BDED907F505731B88002B0AD197F827
:104200007F3A002B40F05C8107F50D734FF0AD0253
:104210001A6055E14FF00003C7F8643A4FF000030D
:10422000C7F8603A4FF00003C7F85C3A4FF000035C
:10423000C7F8703A4FF00003C7F86C3A4FF000032C
:10424000C7F8683A07F130029C4B11461A464FF006
:10425000F003084611461A4609F0A8FF07F5057352
:104260001B880A2B04D907F505734FF00A021A8040
:104270004FF0000387F8803A75E097F8802A07F13D
:10428000300113464FEA43039B184FEA8303CB18D0
:104290001B881BB2D7F8642AD318C7F8643A97F87A
:1042A000802A07F1300113464FEA43039B184FEA77
:1042B0008303CB185B881BB2D7F8602AD318C7F8E2
:1042C000603A97F8802A07F1300113464FEA43031A
:1042D0009B184FEA8303CB189B881BB2D7F85C2A44
:1042E000D318C7F85C3A97F8802A07F130011346D3
:1042F0004FEA43039B184FEA8303CB18DB881BB2BA
:10430000D7F8702AD318C7F8703A97F8802A07F1BF
:10431000300113464FEA43039B184FEA8303CB183F
:1043200003F108031B881BB2D7F86C2AD318C7F80F
:104330006C3A97F8802A07F1300113464FEA43039D
:104340009B184FEA8303CB1803F108035B881BB269
:10435000D7F8682AD318C7F8683A97F8803A03F173
:10436000010387F8803A97F8803A9AB207F5057307
:104370001B889A4281D307F1300318464FF00001A1
:104380004FF0F00209F096FF97F87F2AD7F8643AC9
:104390009BB219B207F505731B8891FBF3F399B231
:1043A00007F5907013464FEA43039B184FEA8303C7
:1043B000C3180A461A8097F87F2AD7F8603A9BB24A
:1043C00019B207F505731B8891FBF3F399B207F552
:1043D000907013464FEA43039B184FEA8303C318B8
:1043E0000A465A8097F87F2AD7F85C3A9BB219B2EE
:1043F00007F505731B8891FBF3F399B207F59070ED
:1044000013464FEA43039B184FEA8303C3180A4637
:104410009A8097F87F2AD7F8703A9BB219B207F5BD
:1044200005731B8891FBF3F399B207F5907013465F
:104430004FEA43039B184FEA8303C3180A46DA8006
:1044400097F87F2AD7F86C3A9BB219B207F5057333
:104450001B8891FBF3F399B207F5907013464FEA6E
:1044600043039B184FEA8303C31803F108030A466A
:104470001A8097F87F2AD7F8683A9BB219B207F5E5
:1044800005731B8891FBF3F399B207F590701346FF
:104490004FEA43039B184FEA8303C31803F1080351
:1044A0000A465A8097F87F3A03F1010387F87F3A6A
:1044B00097F87F3A092B7FF66AAE02E0F4290010E4
:1044C00000BF07F50D731B68AD2B0ED1B7F8863A08
:1044D000D7F83C2AD3184FF0AD025A71B7F8863A94
:1044E00003F10103A7F8863AE7E0B7F8863AD7F870
:1044F0003C2AD3184FF000025A71B7F8863A03F1FC
:104500000103A7F8863A97F87F3A9BB21A464FEA1A
:104510004202D3184FEA83039AB207F505731A8053
:10452000B7F8863AD7F83C2AD31803F1050207F505
:104530000573104619464FF0020209F037FEB7F82E
:10454000863A03F10203A7F8863AB7F8863AD7F815
:104550003C2AD31803F1050107F505731B8807F5FD
:104560009072084611461A4609F020FE07F50573B9
:104570001A88B7F8863AD318A7F8863A9DE0B7F8B4
:10458000863AD7F83C2AD3184FF000025A71B7F890
:10459000863A03F10103A7F8863A07F21723184673
:1045A00008F0FCF903461A4607F504731A80B7F8B9
:1045B000863A07F217221278D7F83C1ACB185A71AC
:1045C000B7F8863A03F10103A7F8863AB7F8863AB6
:1045D000D7F83C2AD31803F1050207F504731046F7
:1045E00019464FF0020209F0E1FDB7F8863A03F1EF
:1045F0000203A7F8863A60E007F0CCF803461A46B3
:1046000007F217231A7007F217231B78002B0ED11D
:10461000B7F8863AD7F83C2AD3184FF000025A71FF
:10462000B7F8863A03F10103A7F8863A45E0B7F8F0
:10463000863A07F217221278D7F83C1ACB185A712B
:10464000B7F8863A03F10103A7F8863A35E0B7F8E0
:10465000864AB7F8863A03F10103D7F83C2AD31803
:1046600003F10503184607F0C5FB0346DAB2D7F895
:104670003C3A1B195A71B7F8863A03F13D03A7F883
:10468000863A1AE0B7F8864AB7F8863A03F101038A
:10469000D7F83C2AD31803F10503184607F0CCFDE0
:1046A0000346DAB2D7F83C3A1B195A71B7F8863A82
:1046B00003F13D03A7F8863A00BF5AE1B7F8863AFE
:1046C000D7F83C2AD3184FF000025A71B7F8863A4F
:1046D00003F10103A7F8863AAF4A4FF4803311463D
:1046E0001A464FF48073084611461A4609F05EFDDB
:1046F000AA4806F061FC0346002B0ED1B7F8863AB3
:10470000D7F83C2AD3184FF0A0025A71B7F8863A6E
:1047100003F10103A7F8863A0DE0B7F8863AD7F817
:104720003C2AD3184FF020025A71B7F8863A03F1A9
:104730000103A7F8863AB7F8863AD7F83C2AD31887
:1047400003F10503184696494FF00A0209F02EFDC1
:10475000B7F8863A03F10A03A7F8863A8E4A4FF46F
:10476000803311461A464FF48073084611461A46A4
:1047700009F01CFD894806F01FFC0346002B0DD1F3
:10478000B7F8863AD7F83C2AD31803F10503184640
:1047900084494FF0140209F009FD0CE0B7F8863A9D
:1047A000D7F83C2AD31803F1050318467E494FF089
:1047B0000A0209F0FBFCB7F8863A03F11403A7F8E4
:1047C000863AD7E006F046F906F084F907F50E734D
:1047D000184606F0AFF906F0E7F8B7F8863AD7F8CA
:1047E0003C2AD3184FF000025A71B7F8863A03F109
:1047F0000103A7F8863AB7F8863AD7F83C2AD318C7
:1048000003F1050207F50E73104619464FF0020238
:1048100009F0CCFCB7F8863A03F10203A7F8863A10
:1048200007F50E731B8840F6E44202FB03F35F4A70
:1048300082FB0312D2184FEAE2224FEAE373D31A43
:104840001A4607F50C731A60B7F8863AD7F83C2A6F
:10485000D31803F1050207F50C73104619464FF003
:10486000040209F0A3FCB7F8863A03F10203A7F8A3
:10487000863A7FE04E484FF400714FF4807209F0A1
:1048800095FC4C4B4C4A1A6007F23A234FF0020257
:104890001A80FDF703FE07F23A231B8818464449A5
:1048A00006F0F2FBFDF7F4FD4FF43F731A6807F5CD
:1048B0000D731A6007F50D731A683F4B9A4215D0B5
:1048C000B7F8863AD7F83C2AD31803F1050207F562
:1048D0000D73104619464FF0040209F067FCB7F853
:1048E000863A03F10403A7F8863A0DE0B7F8863A52
:1048F000D7F83C2AD3184FF000025A71B7F8863A1D
:1049000003F10103A7F8863A29484FF000014FF45C
:10491000805209F0CFFC2DE04FF43F731A6807F581
:104920000D731A60B7F8863AD7F83C2AD31803F10A
:10493000050207F50D73104619464FF0040209F001
:1049400035FCB7F8863A03F10403A7F8863A11E07C
:10495000B7F8863AD7F83C2AD3184FF082025A713A
:10496000B7F8863A03F10103A7F8863A02E000BFE0
:1049700000E000BF02E000BF00E000BFB7F8863AE9
:1049800003F101039AB2D7F83C3A5A8007F23A236E
:104990004FF000021A802FE0785800100100040345
:1049A000C400000098580010BCE500008100088099
:1049B000F82A0010F42B001078563412B7F8863A13
:1049C000B7F8862AD7F83C1A8A18517907F23A22A2
:1049D0001288D7F83C0A821852798A18D2B2D7F8CE
:1049E0003C1ACB185A7107F23A231B8803F10103D2
:1049F0009AB207F23A231A8007F23A231B88B7F8D3
:104A0000862A9A42DAD8B7F8863AB7F8862AD7F8CB
:104A10003C1A8A185179D7F83C2A12788A18D2B2EF
:104A2000D7F83C1ACB185A71B7F8863AB7F8862AE5
:104A3000D7F83C1A8A185179D7F83C2A52788A1844
:104A4000D2B2D7F83C1ACB185A71B7F8863AB7F8F1
:104A5000862AD7F83C1A8A185179D7F83C2A127955
:104A60008A18D2B2D7F83C1ACB185A71B7F8863ADE
:104A7000B7F8862AD7F83C1A8A185179D7F83C2A11
:104A8000528892B2D2B28A18D2B2D7F83C1ACB1856
:104A90005A71B7F8863AB7F8862AD7F83C1A8A18B6
:104AA0005179D7F83C2A528892B24FEA122292B238
:104AB000D2B28A18D2B2D7F83C1ACB185A7107F280
:104AC0003A234FF000021A8024E01A4BB3F8002872
:104AD000114607F23A231B88184607F50F74245C29
:104AE0001448445402F1010291B2124AA2F800188B
:104AF00003F101039AB207F23A231A800D4BB3F87F
:104B0000002840F2FF739A4204D90A4B4FF000028A
:104B1000A3F8002807F23A231B881A46B7F8863A0A
:104B200003F105039A42D0DD07F5227707F5006708
:104B3000BD46B0BDF021001080B483B000AF4FF08F
:104B400000037B60384B1B687B60374B364A11682B
:104B50007A680A431A60354B1B78DBB2012B2FD1E0
:104B6000334B1B78DBB2022B0DD8324B5B6903F061
:104B70001003002B07D02E4B1B78DBB203F101038F
:104B8000DAB22B4B1A702C4B1B78012B03D1294B1B
:104B90004FF020029A61294B1B78012B03D1284B3F
:104BA0004FF480729A61274B1B78012B03D1214B64
:104BB0004FF022029A611D4B4FF000021A702EE056
:104BC0001B4B1B78DBB2022B0DD81A4B5B6903F031
:104BD0001003002B07D1164B1B78DBB203F1010346
:104BE000DAB2134B1A70144B1B78012B03D1114B03
:104BF0004FF02002DA61114B1B78012B03D1104BCF
:104C00004FF48072DA610F4B1B78012B03D1094BF3
:104C10004FF02202DA61054B4FF001021A7007F1E2
:104C20000C07BD4680BC7047008000406113001037
:104C3000D818001000C009205E1300105D1300108A
:104C400040C009205C13001080B582B000AF4FF067
:104C50000103FB71384B4FF000021A70374B374A93
:104C6000D2F8C42042F00402C3F8C420344B4FF001
:104C70000002C3F8A020324B1B68BB71304B304A96
:104C80001168BA790A431A602D4B4FF003025A613A
:104C90002B4B4FF002025A60294B4FF000025A6032
:104CA000274B4FF00402DA60254B4FF4FA729A61F9
:104CB0004FF00200234905F0F1FB234B4FF00102B6
:104CC0001A70224B1B78012B13D1214B204A1269F9
:104CD00022F440321A611F4B1E4A126842F480725D
:104CE0001A601C4B4FF040029A611A4B4FF02002A1
:104CF0009A614FF0020005F007FD174B4FF00002DC
:104D00001A700F4B4FF001025A604FF00200FDF78E
:104D1000CBFB4FF0020005F0F7FC074B1B78DBB232
:104D2000022B02D84FF00003FB71FB79184607F104
:104D30000807BD4680BD00BFD818001000C00F4056
:104D400000800040394B0000601300105D1300101C
:104D500000C0024040C009206113001080B487B039
:104D600000AFF860B9607A603B604FF00703FB75F5
:104D70004FF001037B75D5E07B7DFA68D3181B7873
:104D80001A46FB7D42FA03F303F00103002B00F007
:104D9000BA807B7D03F1FF33DBB24FEAC303DAB2A3
:104DA000FB7DD3183B753A7DA84B13F83230C3F323
:104DB0000103DBB2012B40F0A6803B7DA44AD35C0B
:104DC000C3F30303DBB2FA68D3181B781A463B7DA2
:104DD0009F49CB5CC3F30313DBB242FA03F303F046
:104DE0000303032B1FD801A252F823F0FD4D00004E
:104DF0000F4E0000174E00001F4E00003A7D934BEF
:104E000013F83230C3F34213DBB2FB740BE04FF004
:104E10000003FB7407E04FF00203FB7403E04FF064
:104E20000303FB7400BFFB7C03F00203002B1FD0C5
:104E30003A7D864B13F83230C3F38203DBB21A4655
:104E4000844B53F82220397D804B13F83130C3F363
:104E50008203DBB219467F4B53F8213019683B7D42
:104E60007A484FEAC303C3185B680B43136020E022
:104E70003A7D764B13F83230C3F38203DBB21A4625
:104E8000744B53F82220397D704B13F83130C3F343
:104E90008203DBB219466F4B53F8213019683B7D12
:104EA0006A484FEAC303C3185B686FEA03030B4009
:104EB0001360FB7C03F00103002B12D03A7D634B9F
:104EC00013F83230C3F38203DBB21A46614B53F856
:104ED00022203B7D5D494FEAC303CB185B68936199
:104EE00011E03A7D594B13F83230C3F38203DBB241
:104EF0001A46584B53F822203B7D54494FEAC303CE
:104F0000CB185B68D361FB7D002B07D14FF0070303
:104F1000FB757B7D03F101037B7503E0FB7D03F1F2
:104F2000FF33FB757B7D022B7FF626AF4FF0070327
:104F3000FB754FF00003BB754FF000033B754FF05E
:104F400002037B757B7D7A68D3184FF000021A70DC
:104F50008CE03A7D3D4B13F83230C3F30103DBB2F2
:104F6000012B26D13A7D394B13F83230C3F382033B
:104F7000DBB21A46374B53F822305A693B7D33492E
:104F80004FEAC303CB185B681340002B11D07B7D25
:104F90007A68D3187A7D79688A181278D1B2BA7D86
:104FA0004FF0010000FA02F2D2B20A43D2B2D2B2FA
:104FB0001A70BB7D03F10103BB753A7D234B13F8D7
:104FC0003230C3F30103DBB2012B26D13A7D1F4BF4
:104FD00013F83230C3F38203DBB21A461D4B53F889
:104FE00022301A683B7D19494FEAC303CB185B682E
:104FF0001340002B11D07B7D7A68D3187A7D7968B5
:105000008A181278D1B2BA7D4FF0010000FA02F28C
:10501000D2B20A43D2B2D2B21A70BB7D03F10103FD
:10502000BB753B7D03F101033B75BB7D072B1DD990
:105030004FF00003BB757B7D03F00103DBB2002B57
:105040000AD17B7D03F1FF337B7509E0A4000010DA
:10505000ACE50000640100107B7D03F103037B7568
:105060007B7D7A68D3184FF000021A707B7D062B87
:105070007FF66FAF3B684FF007021A8007F11C07FD
:10508000BD4680BC704700BF80B500AF0E4B1B789B
:10509000012B17D10D4B4FF000025A604FF0020068
:1050A000FDF71CFA4FF0020005F012FA084B084A0F
:1050B000D2F8C42022F00402C3F8C420024B4FF0FF
:1050C00000021A7080BD00BF601300100080004015
:1050D00000C00F4080B584B000AF4FF00003FB73F9
:1050E0004FF00003BB814FF000037B819F4A9F4B31
:1050F0001B6823F4706323F00F0313609B4A9B4BE0
:105100001B6C23F4706323F00F031364974A974BCF
:105110001B6C43F4206343F00A031364944B944ADA
:10512000126842F022021A60914B914A126822F0F2
:1051300011021A608F4B8F4A926942F000529A61B5
:105140008B4A8B4B9B6943F0805343F4006393611C
:10515000874B874A926942F400229A61854B854ABF
:10516000926942F080529A61824A824BDB6943F431
:10517000000343F48073D3614FF0010005F0C4FADB
:105180007D4B4FF001021A70FFF75EFD7B4B1B68F1
:1051900003F164037B601BE0754B5B6903F0010363
:1051A000002B05D1724B5B6903F01003002B0FD06D
:1051B0006F4B5B6903F00103002B05D06C4B5B69FF
:1051C00003F01003002B03D1BB8903F10103BB8162
:1051D0006A4B1A687B689A42DED9BB89002B02D1E0
:1051E0004FF00103FB73FB7B012B55D14FF0000304
:1051F000FB73604B5F4AD26942F00052DA615C4A4D
:105200005B4BDB6943F0805343F40063D361584B3D
:10521000574A926942F400229A61564B554A926964
:1052200042F080529A61534A524BDB6943F40003C7
:1052300043F48073D3614FF0010005F065FA4F4BE2
:105240001B6803F164037B601BE0494B5B6903F05F
:105250000103002B05D1464B5B6903F01003002BC3
:105260000FD0434B5B6903F00103002B05D0404B8B
:105270005B6903F01003002B03D1BB8903F1010329
:10528000BB813E4B1A687B689A42DED9BB89002BF2
:1052900002D14FF00103FB73FB7B012B5CD14FF07C
:1052A0000003FB73334B334A926942F000529A6118
:1052B0002F4A2F4BDB6943F0805343F40063D361E3
:1052C0002B4B2B4A926942F400229A61294B294ABE
:1052D000926942F080529A61264A264BDB6943F478
:1052E000000343F48073D3614FF0010005F00CFA22
:1052F000224B1B6803F164037B601FE01C4B5B695E
:1053000003F00103002B05D0194B5B6903F0100378
:10531000002B03D1BB8903F10103BB81144B5B69F3
:1053200003F00103002B09D0114B5B6903F010035C
:10533000002B03D07B8903F101037B810F4B1A689B
:105340007B689A42DAD9BB89032B05D97B89032B69
:1053500002D94FF00103FB73074B4FF000021A70A4
:10536000FB7B002B0CD14FF001030BE000C002408F
:1053700000C0092020C009205C130010B4180010E0
:105380004FF00003184607F11007BD4680BD00BF6F
:1053900080B582B000AF404B3F4AD2F8C42042F4FF
:1053A0008042C3F8C4203C4B3B4AD2F8A82122F0EB
:1053B0008052C3F8A821384B374AD2F8A82122F0EE
:1053C0000052C3F8A821354B344A126822F47062A7
:1053D0001A60324B314A126842F420621A602F4B35
:1053E0002E4A126C22F470621A642C4B2B4A126CF7
:1053F00042F420621A642A4B4FF40062DA61294BAE
:105400004FF080529A61254B244AD26822F47032C0
:10541000DA60244B234A126842F400021A60214BDE
:10542000204AD26942F40002DA611F4B4FF00002B9
:105430001A701E4B4FF001021A601C4B4FF0000215
:105440001A611A4B4FF000029A60184B4FF00E028F
:105450005A60164BDB687B60144B154A5A61134B3C
:105460004FF0FF029A61114B4FF000021A604FF0AB
:105470001900104905F012F80C4B4FF085021A6123
:105480004FF01900FDF710F80B4B4FF002021A60B5
:1054900007F10807BD4680BD00C00F4000C00240B4
:1054A00000C0092020C009206213001000800440C1
:1054B00004C025000155000000C0034080B500AFC6
:1054C0004FF01900FDF70AF84FF0190005F000F849
:1054D000084B4FF400629A61074B4FF08052DA613B
:1054E000064B064AD2F8C42022F48042C3F8C420F6
:1054F00080BD00BF00C0092020C0092000C00F40AF
:1055000080B485B000AF264B9B68BB60244BDB6842
:105510007B60BB6803F08003002B03D0204B4FF06F
:1055200022025A60BB6803F00103002B24D01C4BFD
:105530001B6A4FEA134303F00F03FB60FB68DAB208
:10554000184B1A71164B5B6AFB60FA68154B1A60B0
:10555000134B9B6AFB60FA68124B9A60104BDB6A34
:10556000FB60FA680F4BDA600D4B4FF004025A6093
:105570000D4B4FF001021A70094BDB68FB60FB68B2
:1055800003F00203002B06D0084B1B68FB60044BA2
:105590004FF085021A6107F11407BD4680BC7047C1
:1055A00000800440E42A0010621300100000044050
:1055B00080B485B000AF7860124BDB69FB60FB689C
:1055C00003F00403002B17D00E4B4FF400221A6394
:1055D0000C4B7A685A630B4B0B4A9A63094B4FF09A
:1055E0000002DA63074B4FF021025A60054B054A6F
:1055F000126942F082021A6107F11407BD4680BCAD
:10560000704700BF008004400255AA0080B586B0F4
:1056100000AF0346B9607A60FB734FF00003FB757F
:105620004FF000033B6138484FF000014FF010028B
:1056300008F040FE4FF0020005F066F84FF0190048
:10564000FCF74CFF314B4FF000021A614FF019008C
:1056500004F03EFFFFF79CFEB868FFF7A9FF4FF08C
:1056600000033B6121E04FF0010005F04DF8284BAD
:105670001B78DBB2002B14D0234B1A687B681A60AE
:10568000214B9A68234B9A4207D11F4BDB68002BB2
:1056900003D14FF00103FB7510E04FF00003FB75E1
:1056A0000CE03B6903F101033B61FB7B4FF06402BB
:1056B00002FB03F31A463B699A42D4D8144B4FF0CD
:1056C00000021A70FFF7FAFE4FF01900FCF7ECFE2B
:1056D0000E4B0E4A126942F001021A614FF0190096
:1056E0000D4904F0DBFE4FF00A0005F00DF8FB7DDC
:1056F000002B02D14FF0010301E04FF000031846E8
:1057000007F11807BD4680BDE42A001000400440A0
:10571000621300100255AA00B99D000090B58DB02B
:1057200000AF786007F1080318464FF0FF014FF013
:10573000140208F0BFFD07F11C0318464FF00001EA
:105740004FF0140208F0B6FD4FF03A03FB61FCF78E
:10575000A5FE114B1B6807F11C0107F10802084662
:1057600011469847FCF794FE0C4B1C4607F10C03BE
:105770000FCB84E80F00094809494FF00002FAF7FF
:10578000DFFD786805494FF0100208F039FE07F197
:105790003407BD4690BD00BF88010010E020001016
:1057A0009400001080B400AF2B4B2B4A926822F07B
:1057B00040429A60284B284AD26822F00302DA60FD
:1057C000254B254A526A22F040625A62224B224AF5
:1057D000926C22F040429A641F4B1F4A926C42F036
:1057E00000429A641C4B1C4AD26C22F00302DA6419
:1057F000194B194AD26C42F00202DA64164B164A6F
:10580000526E22F040625A66134B134A526E42F0B7
:1058100000625A66114B114A126842F4C0321A6093
:105820000F4B0F4A126842F000521A600B4B0B4AA2
:10583000926942F480329A61084B084A926942F4B4
:1058400000429A61064B064AD26942F00052DA6180
:10585000BD4680BC704700BF00C0024020C0092088
:1058600080C0092080B400AF224B224AD26822F0C7
:105870000302DA601F4B1F4A526A22F040625A62EA
:105880001C4B1C4AD26C22F00302DA64194B194AF1
:10589000D26C42F00202DA64164B164A526E22F0C3
:1058A00040625A66134B134A526E42F000625A66C7
:1058B000114B114A126842F4C0321A600F4B0F4A62
:1058C000126842F000521A600B4B0B4A926942F484
:1058D00080329A61084B084AD26942F40042DA6188
:1058E000064B064A926942F000529A61BD4680BC5E
:1058F000704700BF00C0024020C0092080C00920BE
:1059000080B400AF1F4B1F4A126822F440521A6045
:105910001C4B1C4A926822F003029A60194B194AE8
:10592000126C22F440521A64164B164A126C42F45E
:1059300000521A64134B134A926C22F003029A64C9
:10594000104B104A926C42F002029A640D4B0D4AC1
:10595000D26822F44002DA600A4B0A4AD26842F462
:105960008002DA60084B4FF4F9721A60074B4FF06F
:1059700040029A61064B4FF00102DA61BD4680BCDD
:10598000704700BF00C00240C8C10F4000C00920DE
:1059900020C0092090B5C5B000AF024607F107034B
:1059A0001A704FF00003C7F808314FF00003A7F852
:1059B0000E3148484FF000014FF4807208F07AFC35
:1059C000444B4AF2A5521A8007F107031B78012BBA
:1059D00004D1404B4FF000029A7003E03D4B4FF072
:1059E00001029A703B4BC7F808313A4B4FF0000266
:1059F00083F8FF204FF00003A7F80E3113E0354B7A
:105A000093F8FF20B7F80E31D7F80811CB181B78A0
:105A1000D318DAB22F4B83F8FF20B7F80E3103F119
:105A20000103A7F80E31B7F80E31FE2BE7D9FCF7CA
:105A300035FD4FF0F1004FF0010108F019FD4FF076
:105A4000F100244905F020FBFCF722FD07F10803D3
:105A500018464FF000014FF4807208F02BFC07F15C
:105A600008024FF4714311461A464FF480730846FA
:105A700011461A4608F09AFB07F108031A884AF201
:105A8000A5539A420DD107F1080393F8FF4007F19F
:105A9000080318464FF0FF0102F030FC03469C4219
:105AA00008D007F1080318464FF000014FF4807248
:105AB00008F000FC07F108039B78012B02D14FF09E
:105AC000000301E04FF08903184607F58A77BD46C9
:105AD00090BD00BFF020001080B500AF0E4B1B78CA
:105AE000012B17D10D4B4FF000025A604FF002000E
:105AF000FCF7F4FC4FF0020004F0EAFC084B084A03
:105B0000D2F8C42022F00402C3F8C420024B4FF0A4
:105B100000021A7080BD00BF6013001000800040BA
:105B200000C00F4080B584B000AF0346FB802D4B12
:105B30001B78002B51D12C4B4FF000021A702B4BCD
:105B40002A4AD2F8C42042F00402C3F8C420284BE9
:105B50004FF00002C3F8A020254B1B68FB81244BAB
:105B6000234A1168FA890A431A60214B4FF0030255
:105B70005A611F4B4FF002025A601D4B4FF000025A
:105B80005A601B4B4FF00402DA60194BFA884FEA57
:105B90004202184991FBF2F29A614FF00200164955
:105BA00004F07CFC0F4B4FF001021A70134B4FF0C6
:105BB00000021A70124B4FF001021A700C4B4FF09A
:105BC00001025A604FF00200FCF76EFC0D4803F032
:105BD00045FE4FF0020004F097FD07F11007BD46A7
:105BE00080BD00BF60130010D818001000C00F4027
:105BF00000800040404B4C00394B00006113001006
:105C00005D130010DCE5000080B485B000AF184BD8
:105C1000BB60184B7B604FF00003FB7315E0BB6863
:105C2000FA7B9A71BB684FF003025A71BB687A68BD
:105C30005A61BB6803F11C03BB607B6803F11C0362
:105C40007B60FB7B03F10103FB73FB7B072BE6D936
:105C5000BB68FA7B9A71BB684FF000025A61064B31
:105C6000034A1A6007F11407BD4680BC704700BFA5
:105C7000701300108C130010D014001080B487B083
:105C800000AF78607B681B79FB737B684FF0000284
:105C90005A71374B1B683B613B691B79FA7B9A420F
:105CA0001ED13A697B689A421AD03B69002B17D003
:105CB000304BD3E90001304BD3E90023994208BFB0
