:020000040000FA
:10000000B879002051010000590100005B01000097
:1000100000000000000000000000000000000000E0
:10002000000000000000000000000000853100001A
:1000300000000000000000000F01000089320000F5
:10004000630100006301000049310000630100000A
:100050006301000063010000630100006301000010
:100060006301000063010000A1350000630100008E
:100070006301000075360000C9360000630100000E
:1000800063010000630100006301000063010000E0
:1000900063010000310F00006301000063010000F4
:1000A000A10D000063010000630100006301000076
:1000B000710C000063010000752E0000650E000049
:1000C0000448854600F096FD00480047AD45000015
:1000D000C046C046B8790020084B1968086820302F
:1000E00080F30988022080F31488BFF36F8F3FBC30
:1000F000AE4608BC04BC62B61847000014000020DD
:10010000EFF3108072B6704780F310887047EFF3FA
:1001100009800E4B1A6820381060F0C044464D46E6
:1001200056465F46F0C008B572B607F0B7FD62B636
:100130000CBC116808681030F0C8A046A946B24649
:10014000BB4680F309882038F0C818471400002007
:100150000448804704480047FEE7FEE7FEE7FEE765
:10016000FEE7FEE7D5330000C100000030B50B46C6
:10017000014600202022012409E00D46D5409D4281
:1001800005D31D469540491B254695404019154607
:10019000521E002DF1DC30BD70B50024254600282C
:1001A00001DA01244042002901DA01254942FFF722
:1001B000DDFFAC4200D04042002C00D0494270BD6F
:1001C000F0B51FB40646002082B0054640240191D8
:1001D00000901BE0019922460F46304600F0D0FB0C
:1001E000049A059B801A994110D31046194622465D
:1001F00000F0B6FB361A8F410197224601200021FC
:10020000009F00F0ADFB38184D4100902046641E61
:100210000028DFDC019B00982946324607B0F0BD7C
:10022000F0B51FB486B000200090019002900698AF
:10023000069980B204900798090C02040014114337
:1002400007900027089D099806913E463C4603907A
:100250000398A9B20204000C039004982D0C1543D6
:1002600048430021224600F07BFBC719714110343E
:100270000E46402CECDB3846029A00F071FB009AE7
:10028000019B801800905941029801911030029012
:100290004028CCDB00980BB0F0BD000038B5044618
:1002A000C0681821401E4843A16840183C214843BB
:1002B000616840183C2148432168451860690C2159
:1002C0004843216940186921C900401A3021FFF7CD
:1002D00063FF114A50434219084600921A2902DB73
:1002E0000E49511800910C21FFF756FF0C4A50435C
:1002F000009A801800900B4806E0491E425C074BAC
:100300005A43009BD21800920029F6DC2146684629
:1003100000F062FB009838BD801F86078051010005
:100320008033E1014C8A000003460B439B0703D056
:1003300009E008C9121F08C0042AFAD203E00B78AA
:100340000370401C491C521EF9D27047D2B201E022
:100350000270401C491EFBD270470022F6E710B520
:1003600013460A4604461946FFF7F0FF204610BD23
:1003700030B505462A460B4610781C78521C5B1C8B
:10038000002801D0A042F7D0002C03D0002802D0D2
:100390006D1CEFE7284630BD0321001D401E037889
:1003A00012021A43491EF9D510467047034603222C
:1003B0000870000A491C521EFAD518467047F8B555
:1003C00002464A40D40F42004B0052085B089A4252
:1003D00002D20246084611464A0023D0C30D4A0005
:1003E000DDB2120EAD1A202D35DA49020126490A76
:1003F000F6058A19002C00D0524220214F1B1146CD
:10040000B9402A411018C20D9A4221D0002C17D0B1
:10041000012D08DCDA05801AD20F8019D207DBB271
:1004200000F01CFBF8BDDA05801A012340001B0612
:10043000C01880185A428018CA0F1043490007E0BC
:100440004908C2071143DA05801A8019400880184C
:1004500000F0FCFAF8BD61000122511A001BF7E719
:100460000122D2075140AAE70122D2075040A6E755
:10047000024670B54A40D30FDB0740002DD04A003A
:100480002AD0010E140E000212020919400A520A63
:100490008418E50104465443000A120A2E0450430E
:1004A000A4194219200CC543AA18120C0125AD034A
:1004B000521C521912047F39240400D0521C1043DC
:1004C00001D44000491EC2B20C06C0092018401CCD
:1004D0004008802A02D003E0002070BD40084000A0
:1004E000002900DA0020184370BD70B502464A406A
:1004F000D50F40004A00ED0740085208002814D0EC
:10050000002A12D0C40DD30D41020120C0055202B1
:10051000490A520AE41A091812187D34914201D38B
:10052000641C00E04900002C01DA002070BD0023AB
:10053000914201D3891A0343400849000028F7D1AA
:1005400000290AD0914202D10121C90705E0914258
:1005500001D2012101E00121C943E005C018401981
:1005600000F074FA70BD0000F0B507460846584028
:1005700087B0C00F049048000E4659004008490853
:10058000BC1A884105D2384631461E4617460B46EE
:1005900002465800400810434DD0300D03904005EE
:1005A0005900400D490D0590401A0290402873DA19
:1005B00018030121000B09050843019004980092DB
:1005C000002806D01146019A49420020904100912E
:1005D0000190029840210A1A0199009800F0C0F990
:1005E00005460C466B4607CB00F0DBF9C01971419C
:1005F000039A0E0D0023D71756401A467A40164329
:1006000044D0049A002A2DD0029A012A039A15DCBC
:100610001205C01A914101263605001C7141D20F06
:10062000059ED2070093019202962A46234600F0C7
:100630005BFA07B0F0BD38463146FAE71605234AA3
:100640000F46B218C01AB74101210905001C4F41DD
:1006500000187F41114618187941E20F10436D19B7
:10066000644113E0E2076D0815436408C2071443B0
:10067000039A01261205C01A91413605001C7141EA
:10068000CE07400830434908C01851412A46234646
:1006900000F01DFACDE7FFE7049801224000C117E2
:1006A000121A00238B4104983146C417381AA1410D
:1006B000EEE730B40124E407634030BC54E730B4C3
:1006C0000124E407614030BC4EE700000000E0FF79
:1006D000F0B51FB488B00B990998002448400999D7
:1006E000C00F490049080991C0070B9900904900C3
:1006F00049080B9109990898A64608431CD00B9904
:100700000A98084318D0099801244000420D480077
:10071000410D099824050003000B204309900B9814
:100720000003000B20430B9050181C494018002276
:1007300001901446104605E0002001460DB0F0BDC2
:10074000032801DA034600E003239C46C11A0AAEDF
:100750000AE05F0008ADED5B4F00F75B7D430027CB
:10076000AA187C41491C5B1E6145F2DD410004ABC7
:100770005A522104120C0A43240C401C0828DFDBC7
:10078000019802900099704601910090059B049A8F
:100790000799069800F0A8F9D0E700000DFCFFFFCC
:1007A000F0B50C465C4085B0E40FE40703944C00C0
:1007B00000266408590094464908024602962243DE
:1007C00021D062460A431ED06200570D4A000E0334
:1007D0002303550D012402462C492405781B1B0BCD
:1007E000360B401823432643614600901C46501A9E
:1007F000B44103D30098401C009002E09218009886
:100800005B41002803DA0020014605B0F0BD00205E
:10081000012109050746864611E064461D46141B62
:10082000B54106D36546521BB341744607430C439A
:10083000A646CD0740084908284392185B41054663
:100840000D43EAD11046184313D060461946504074
:100850007140084306D06046101AB34106D2012207
:10086000002306E000220123DB0702E00122D2433D
:100870005310009874460105381C6141029C039D89
:100880000019694100F023F9BFE70000FD030000F3
:10089000C217C10F504010B54018CA079623002157
:1008A00000F0DCF810BD10B500229623114600F0D0
:1008B000D5F810BDC20F410040020123400ADB05FC
:1008C000D207090EC0187F2901DA00207047962947
:1008D00003DC9623591AC84001E096398840002A63
:1008E000F4D040427047410040020122400AD20544
:1008F000090E80187F2901DA00207047962903DC51
:100900009622511AC8407047963988407047C20FE6
:10091000D207400040080BD0C10D0723DB01C918E6
:1009200040020905400A1143C208400711437047BD
:1009300000200146704700000122D207002800DB9A
:10094000101A002900DB511A814270470122D20798
:10095000002800DB101A002900DB511A884270477A
:1009600010B5202A04DB0146203A9140002010BD3A
:10097000914020239C1A0346E3401943904010BD48
:1009800010B5202A04DB0846203AD040002110BDD3
:100990000B46D340D0402024A21A91400843194668
:1009A00010BD10B5202A06DBCB170846203A1041AF
:1009B000C1170B4306E00B461341D0402024A21A76
:1009C00091400843194610BD10B5024900F004F8E3
:1009D00010BD00008871002070B50C4600683C21F5
:1009E000FFF7C4FB21603C21FFF7C0FB61601821C9
:1009F000FFF7BCFB0546A1600721001DFFF7B6FB12
:100A0000A1610F48A90008180E49FFF7AFFB024685
:100A1000443288086261E0613B2802D3910700D02C
:100A2000401C0021084B0A462161995C814203D891
:100A3000401A521C2261F8E7401CE060204670BD5D
:100A40006C0B0000B5050000588A0000002904DA8C
:100A5000401C490001D140084000704770B4002498
:100A6000050C05D11024000402D1002921D0112445
:100A7000050E01D100020834050F01D10001241D2B
:100A8000850F01D18000A41C002801DB4000641CFC
:100A9000002908D020252E1B0D46F540A14000D08E
:100AA00001212943084301061B1B000ADB1D02D557
:100AB000002070BC7047DB05181880180029F8DA90
:100AC000401C4900F5D170BC40084000704710B58B
:100AD000002B08DA0024401C614192185B411A4344
:100AE00001D14008400010BDF0B51FB482B00546EA
:100AF0000C0003D0084602F075FE02E002F072FE20
:100B000020300246009021462846FFF729FF049B2B
:100B1000059A04460F4618431143084314D018465B
:100B200010431BD0009840210A1A18460599FFF778
:100B300027FF05460E46009A05990498FFF710FF17
:100B4000084305D0012004E02046394607B0F0BD37
:100B50000020C11705430E432C43374300990E98DC
:100B60006305401A7905E40A00220C43FD0A0A30A5
:100B700002D500200146E9E70105101969410C9CE6
:100B80000D9D00196941FFF7A2FFDFE74A00090345
:100B90000123090B1B0519430A4B10B5520D9A424C
:100BA00002DA0020014610BD064B34339A4203DCC2
:100BB0009A1AFFF7E5FE10BD034BD218FFF7D0FEDF
:100BC00010BD0000FF030000CDFBFFFF10B50029A2
:100BD00004DB0124E40740428C412146002B04DB66
:100BE0001C460123DB075242A341994200D19042A7
:100BF00010BD0000064C0125064E05E0E36807CC59
:100C00002B430C3C98471034B442F7D3FFF75CFAFF
:100C1000648A0000848A000070B58C180578401C36
:100C20006B075B0F01D10378401C2A1106D10278B3
:100C3000401C03E006780E70401C491C5B1EF9D175
:100C40002B0705D40023521E0DD40B70491CFAE764
:100C50000378401CCB1A921C03E01D780D70491CD0
:100C60005B1C521EF9D5A142D8D3002070BD0000F4
:100C700070B50024002500BF4248C068C007C00FFF
:100C800001214840484000287BD000BF3D48006912
:100C9000084048404840002873D000BF012039492F
:100CA000086100BF38480088401C37490880084662
:100CB00000887D21C900884224DB00203249088059
:100CC00001203249087008460179C27808021043B1
:100CD00000280ED02E48807803280AD12B480179AD
:100CE000C27808021043401E81B22848C170090A28
:100CF000017126484078002804D024484078401EDE
:100D00002249487021488078002805D01F48807803
:100D1000401E1E49887017E01E480078002813D135
:100D20001C480179C2780802104300280CD0012029
:100D300018490870481DFFF72FFB16490A79CB7830
:100D4000110219430022425413480078002818D198
:100D5000124901200A46062804D8C600131DF318BC
:100D60005B6802E0536C1B051B0D1C460A48401DC6
:100D7000FFF712FB201A85B2092D02DB012006497C
:100D8000087070BD00300140000100207400002098
:100D9000D4460020DE000020B900002000040040FE
:100DA00000BF0E48C068C007C00F0121484048403E
:100DB000002811D000BF0948006908404840484059
:100DC000002809D000BF01200449086100BF044881
:100DD0000068401C02490860704700000060014044
:100DE000000000201FB50720019031200290012053
:100DF0000390002000906946184800F05DFC00BF99
:100E000001201649086100BF00BF0846C0680121E3
:100E100008431249C86000BF1820002805DBC2063D
:100E2000D20E012191400E4A116000BF022118200C
:100E300002F0A4F81820002806DBC206D20E012119
:100E40009140074A803A116000BF00BF0348006824
:100E5000012108430149086000BF1FBD0060014037
:100E600080E100E03EB50020009001900290002457
:100E700000BF2248006A10210840000900283BD02A
:100E800000BF1E48C06908400009002834D000F0A7
:100E9000A1FC00BF10201949486200BF0121184879
:100EA00041761848006809030840002809D0154811
:100EB00000884005C008134909684900890B441897
:100EC00003E0104800884405640D200E6946087050
:100ED0002002010E684641702004010E68468170B0
:100EE000C47008220749093101A8FFF71DFA0C2236
:100EF0006946054804F011FB3EBD00000094014026
:100F0000B446002074710020C200002030B5064CA9
:100F1000E468064D2C4015040D431D4305432C4346
:100F2000014DEC6030BD00000024004085FF80FFD3
:100F300010B502200A49896CC20182401140C201E9
:100F40008240914201D1012100E00021002906D018
:100F50000221034800F09AFF00200249087010BDEA
:100F600000040040F80000200121016070470000EB
:100F700070B50446012500BF206800280BD020680A
:100F8000012808D02068022805D02068032802D054
:100F90002068042801D1012000E00020002801D1B0
:100FA00000BFFEE700BF00BFA068002802D0A06815
:100FB000012801D1012000E00020002801D100BF5C
:100FC000FEE700BF00BFE068002808D0E0680828FE
:100FD00005D0E068102802D0E068182801D101206F
:100FE00000E00020002801D100BFFEE700BF20681C
:100FF000042814D100BF6068002808D06068012868
:1010000005D06068022802D06068032801D1012061
:1010100000E00020002801D100BFFEE71AE000BF79
:10102000606800280ED0606801280BD06068022834
:1010300008D06068032805D06068042802D0606882
:10104000052801D1012000E00020002801D100BFC7
:10105000FEE700BFFF2001302649896B0143254A86
:10106000916300BF206804280ED10421224800F0BB
:1010700037FA6168880120494969C02291430143D8
:101080001D4A516100BF20E000211B4800F028FAF2
:101090002068184940318968890889000143154A48
:1010A0004032916000BF61688800114689681C2247
:1010B000914301430F4A4032916000BF90131146A3
:1010C000C9680143D16000BF00BFA0680A494969EF
:1010D000890889000143084A516100BFE068114650
:1010E0004969182291430143034A516100BF2846D0
:1010F00070BD000000240040005C01408168490888
:1011000049008160704781684908490081607047E3
:10111000816901221204914381617047026A4B0088
:101120005B089A4302627047816801221143816023
:10113000704781680222114381607047026A4B0048
:101140005B081A4302627047F8B505460C46012059
:101150000090002600BFDB48854201D1012000E05D
:101160000020002801D100BFFEE700BF00BF2068BB
:10117000002804D0012149022068884201D10120C1
:1011800000E00020002801D100BFFEE700BF00BF43
:101190006068002804D00121C9026068884201D13A
:1011A000012000E00020002801D100BFFEE700BFC1
:1011B00000BFE068002802D0E068042801D10120C7
:1011C00000E00020002801D100BFFEE700BF00BF03
:1011D0002069002808D02069012805D0206902284C
:1011E00002D02069032801D1012000E0002000285E
:1011F00001D100BFFEE700BF00BF2020005D002836
:1012000003D02020005D012801D1012000E0002052
:10121000002801D100BFFEE700BF00BF606A0028C0
:1012200021D001214904606A88421CD04900606ACB
:10123000884218D003214904606A884213D00121F2
:10124000C904606A88420ED005214904606A884258
:1012500009D003218904606A884204D00721490427
:10126000606A884201D1012000E00020002801D1FD
:1012700000BFFEE700BF00BFA06A002826D0012102
:101280000905A06A884221D04900A06A88421DD081
:1012900003210905A06A884218D001218905A06AA6
:1012A000884213D005210905A06A88420ED0032187
:1012B0004905A06A884209D007210905A06A884229
:1012C00004D00121C905A06A884201D1012000E0B3
:1012D0000020002801D100BFFEE700BF012000036D
:1012E0007949496B0143784A516300BF00BF774891
:1012F0000068C007C00F01214840484000280DD1B8
:1013000000BF01207149886000BF00BF0846006827
:10131000012108436D49086000BF00BF00BF6B4852
:101320000068022108436949086000BF05E07D208C
:101330008002864200D30AE0761C00BF63488068C2
:10134000C007C00F0121484048400028EFD000BF2F
:101350002846FFF7D3FE2846FFF7DAFE00BFA8684D
:1013600001210843A86000BF00BF56480069084338
:101370005449086100BF002600BF00BF5148006803
:1013800010210840070900BF761C701C002801D0FE
:10139000002FF2D0012F7DD100BF102049490860F5
:1013A00000BF2846FFF7AAFE00BFA8683840012109
:1013B0004840484000287DD12068A9697A029143BD
:1013C0000143A96100BF6068A9699200914301438C
:1013D000A96100BF207A002806D000BFA86951107B
:1013E0000843A86100BF07E000BFA8690121890286
:1013F0008843A86100BF00BF607A002807D000BF03
:10140000A869FF2101310843A86100BF07E000BFC0
:10141000A869FF2101318843A86100BF00BFE068CF
:10142000A969042291430143A96100BF00BF686913
:1014300020218843686100BF2069E9688908890024
:101440000143E96000BF6069A969F022914301434B
:10145000A96100BFA069E96991430143E96100BF47
:10146000E069E969090909010143E96100BF202038
:10147000005D00281AD0606AA969072252049143CE
:101480000143A96100BFA06AA9690F221205914317
:10149000014301E011E00DE0A96100BF00BFA869B0
:1014A000012109040843A86100BF08E02846FFF7AE
:1014B0002FFE04E00020009001E000200090009842
:1014C000F8BD0000005C01400024004000A4014081
:1014D00001460868C007C00F0122504050407047C5
:1014E000426904239A430A434261704741690122D9
:1014F000114341617047000070B505460C46052652
:1015000000BF6148854201D1012000E00020002891
:1015100001D100BFFEE700BF00BFA06800280BD0CC
:10152000A068102808D0A068202805D0A06840280E
:1015300002D0A068602801D1012000E0002000282E
:1015400001D100BFFEE700BF00BF6069002808D0DE
:10155000FF2101316069884203D0490060698842F7
:1015600001D1012000E00020002801D100BFFEE7EA
:1015700000BF00BF2069012802D02069002801D1E6
:10158000012000E00020002801D100BFFEE700BFDD
:1015900000BF2068002802D02068802801D10120E7
:1015A00000E00020002801D100BFFEE700BF206856
:1015B00036494968802291430143344A516000BF53
:1015C000102000F0E1FA0120C00300F0CDFAA0697C
:1015D000296B090A09020143296300BFA06820287A
:1015E00004D0402803D060280BD101E000BF00BF29
:1015F0000021284600F05AF82846A16800F050F86B
:1016000008E02846A16800F051F80021284600F0C3
:1016100047F800BF00BFE068E96A090C090401430C
:10162000E96200BF60692968032212029143014305
:10163000296000BF6068A96A090C09040143A96216
:1016400000BF2069012806D100BF28688021084317
:10165000286000BF06E000BF28688021884328601A
:1016600000BF00BF2846FFF741FF00E0761E064896
:1016700000F00EF8002801D1002EF7D100BF0120A4
:101680000149086100BF70BD0030014040240040A6
:1016900001460869C007C00F012250405040704702
:1016A000026860239A430A4302607047026810236D
:1016B0009A430A430260704730B50246052300BFD3
:1016C0003F48824201D1012000E00020002801D1E2
:1016D00000BFFEE700BF00BF086800280ED001244D
:1016E00064030868A04209D0032424030868A042C8
:1016F00004D0012424030868A04201D1012000E0A5
:101700000020002801D100BFFEE700BF00BFC8686D
:10171000012802D0C868002801D1012000E0002083
:10172000002801D100BFFEE700BF0120254C24683E
:101730000443244D2C6000BF08682C4664680325D0
:101740002D03AC4304431F4D6C6000BF04202C46A6
:10175000E4680443EC6000BF4868946A906200BF8C
:1017600000BF10680224A043106000BF8868D46ADC
:10177000D06200BFC868012806D100BF106880246D
:101780002043106000BF06E000BF10688024A04323
:10179000106000BF00BF00BF5069012420435061AA
:1017A00000BF00E05B1E00BF1069C007C00F01242E
:1017B00060406040002801D1002BF3D1012030BDF2
:1017C0000060014040240040016802221143016092
:1017D000704700000020002100BF164A126D164B12
:1017E0001A6000BF134A526D1207120F1A7200BF1F
:1017F000104A926D104600BF0E4AD26D11465872C3
:101800000204130E0C4A93720202130E0A4AD37298
:10181000020E094B1A731A4651730A04130E064A34
:1018200093730A02130E044AD3730A0E024B1A74FE
:10183000704700000094014074710020F0B500254D
:1018400000BF00BF144EB6690127BF023E40B40A74
:1018500000BF6D1C002C02D0104EB542F1D100BF6C
:1018600004260D4F7E6200BF00BF3E46366B3863D4
:1018700000BF00BF3E46766B360936010E437E63DD
:1018800000BF00BF3E46B66BBA6300BF00BF3E4616
:10189000F66BFB6300BFF0BD00940140FFFF0F003B
:1018A000FCB505460C46002600270020019000905C
:1018B000002D03D120884605760D29E0012D05D1A4
:1018C00020884005400DE902461821E0022D0DD187
:1018D000606880034008E9024018491040181B4A1C
:1018E00061681140890C0843064611E0032D0FD1B1
:1018F000606880034008012109034018491040181E
:1019000009050843114A61681140890C08430646DD
:10191000277A207B0006E17A09040843A17A0902AC
:101920000843617A08430190207C0006E17B0904AA
:101930000843A17B09020843617B084300903946B4
:101940003046009B019AFFF779FFFCBD0000FC1FA9
:1019500070B505460C4600BF6078002808D0607856
:10196000012805D06078022802D06078032801D1D0
:10197000012000E00020002801D100BFFEE700BFE9
:1019800000BFA07800282CD0A078012829D0A0780A
:10199000022826D0A078032823D0A078042820D0BD
:1019A000A07805281DD0A07806281AD0A07807288E
:1019B00017D0A078082814D0A078092811D0A078D2
:1019C0000A280ED0A0780B280BD0A0780C2808D0BD
:1019D000A0780D2805D0A0780E2802D0A0780F2876
:1019E00001D1012000E00020002801D100BFFEE766
:1019F00000BF00BFE078002814D0E078012811D0A3
:101A0000E07802280ED0E07803280BD0E078042894
:101A100008D0E078052805D0E078062802D0E078E4
:101A2000072801D1012000E00020002801D100BFDB
:101A3000FEE700BF00BF6079002808D06079102859
:101A400005D06079202802D06079302801D10120AA
:101A500000E00020002801D100BFFEE700BF012008
:101A6000C0043749C96B0143354AD16300BF4011F7
:101A700033494031C9680143314A4032D16000BF27
:101A80006079114649683022914301432C4A403223
:101A9000516000BF01202B49096881430143294A55
:101AA000116000BF60781146C968FF2281329143FE
:101AB000C2011143234AD16000BFA0781146C96812
:101AC000090909010143D16000BFE0781146C968E6
:101AD00070229143020111431A4AD16000BF20795C
:101AE00011468968090A09020143916000BF207804
:101AF00000280BD100BF10464068022188431146E0
:101B0000486000BF0846FFF75FFE17E02078012815
:101B10000BD100BF0B4840680221084309494860C7
:101B200000BF0846FFF750FE08E000BF0548006808
:101B3000022188430349086000BF00BF012070BD37
:101B400000240040009401400249C96B0143014A4E
:101B5000D1637047002400400249C96B0143014A28
:101B6000D1637047002400400249C9680143014A1B
:101B7000D1607047402400400249C9680143014ACE
:101B8000D160704740240040024909680143014A7E
:101B9000116070474024004010B5002400BF1B486E
:101BA000006807210902084005221202811A9042AA
:101BB00018D006DC00280DD001218902401A1DD161
:101BC0000CE0C81FF938002810D0FF380138002871
:101BD00014D10FE000F0FCF8044613E000F0F8F830
:101BE00044080FE000F0F4F884080BE000F0F0F88F
:101BF000C40807E000F0ECF8040903E000F0E8F89E
:101C0000044600BF00BF204610BD00000024004075
:101C100010B5002400BF1B480068072109040840D4
:101C200005221204811A904218D006DC00280DD03B
:101C300001218904401A1DD10CE001200004081A7A
:101C400010D001210904401A14D10FE0FFF7A4FFBE
:101C5000044613E0FFF7A0FF44080FE0FFF79CFFE6
:101C600084080BE0FFF798FFC40807E0FFF794FF34
:101C7000040903E0FFF790FF044600BF00BF2046C1
:101C800010BD00000024004070B50024002500BFF6
:101C90002648C06802210840002802D0022807D147
:101CA00003E000F047F8044606E02148046803E03A
:101CB00000F040F8044600BF00BF00BF1B48C068EA
:101CC000702108400107090F00291FD100110300EE
:101CD00001F09FFD080506080A0C12141A1C16E0F4
:101CE000640814E0A40812E0E40810E00C21204687
:101CF000FEF73CFA04460AE0240908E018212046D1
:101D0000FEF734FA044602E0640900E000BF00BFB9
:101D100000BF0648C0687F2109040840000C451C2C
:101D2000204668430446204670BD00000024004061
:101D30000C000020002000BF0D4949680F2212044A
:101D40001140002908D001221204891A06D0891AEC
:101D500006D0891A08D105E0064807E0064805E0E4
:101D6000064803E0064801E0024800BF00BF704794
:101D70000024004000127A000024F40000366E01B6
:101D80000048E801002000BF1049496A03221204FC
:101D90001140002908D001221204891A07D0891A9B
:101DA00008D0891A0CD108E04B2040030BE04B20EF
:101DB000C00208E04B20800205E04B20400202E018
:101DC0004B20400300BF00BF7047000000240040CC
:101DD00010B5002400BF144800684007400F0300FE
:101DE00001F017FD0705090C1A1014171A00FFF768
:101DF000A1FF044614E00D48046811E0FFF744FF1A
:101E000004460DE0FFF7BEFF044609E008480468F9
:101E100006E00124E40303E0FFF78CFF044600BF63
:101E200000BF204610BD0000002400400C00002030
:101E300008000020034989681C2291430143014A9C
:101E4000916070474024004004490968072212024B
:101E500091430143014A1160704700000024004093
:101E6000044909680722120491430143014A1160A1
:101E7000704700000024004003490968C908C900F0
:101E80000143014A1160704700240040FF220132E3
:101E90008A40826470470000014600BF15488142B5
:101EA00001D1012000E00020002801D100BFFEE7A1
:101EB00000BF00BF1048114A506100BF0120926965
:101EC00002430E4B9A6100BF00BF1A4692698243DB
:101ED0009A6100BF10200A4A926B8243084B9A63B2
:101EE00000BF00BF0448C043044A506100BF012046
:101EF0007047000000040040DF9B5713002800409B
:101F00000024004030B502461046062908D8CC000F
:101F1000031D1B595C086400CD00031D5C5103E0E8
:101F2000C36B5B085B00C36330BD016801221143D2
:101F30000160704730B502461046062908D8CC002B
:101F4000031D1B5904242343CD00041D635103E0EA
:101F5000C36B04242343C36330BD0000FCB50346B8
:101F600000BFB548834201D1012000E000200028D5
:101F700001D100BFFEE700BF00BF486900280DD0B7
:101F8000012424034869A04208D064004869A042A3
:101F900004D0032424034869A04201D1012000E0B9
:101FA0000020002801D100BFFEE700BF00BF886904
:101FB000002802D08869012801D1012000E000201A
:101FC000002801D100BFFEE700BF00BF486800281D
:101FD0000AD04868402807D00124A4024868A042DB
:101FE00002D04868002801D1012000E0002000282C
:101FF00001D100BFFEE700BF00BF0869002805D07F
:102000000869102802D00869202801D1012000E0C9
:102010000020002801D100BFFEE700BF00BF01245F
:10202000E4028868A04210D0886800280DD0A4106F
:102030008868A04209D08868002806D064108868A3
:10204000A04202D08868002801D1012000E00020D1
:10205000002801D100BFFEE700BF1020774CA46B21
:102060000443764DAC6300BF00934C691046019465
:10207000009B1C4606280BD8C600251DAD5903261B
:102080003603B543019E3543C600271DBD5106E00A
:10209000E56B03263603B543019E3543E56300BF78
:1020A00000938C6810460194009B1C4606280BD8B0
:1020B000C600251DAD590126F602B543019E3543E4
:1020C000C600271DBD5106E0E56B01267602B5432B
:1020D000019E3543E56300BF00934C6810460194B0
:1020E000009B1C4606280AD8C600251DAD5940266F
:1020F000B543019E3543C600271DBD5106E0E56B83
:102100000126B602B543019E3543E56300BF009347
:102110000C6910460194009B1C46062809D8C6008D
:10212000251DAD593026B543019E3543C600271DF8
:10213000BD5100BF8869012818D1072A01D10020AC
:10214000FCBD10460193019B1C46062808D8C6001A
:10215000251DAD5908263543C600271DBD5103E096
:10216000E56B08263543E56300BF14E01046019394
:10217000019B1C46062808D8C600251DAD59082617
:10218000B543C600271DBD5103E0E56B0826B543E6
:10219000E56300BF00BF072A42D000BF08680028DF
:1021A00021D0FF2401340868A0421CD064000868D4
:1021B000A04218D0032424020868A04213D00124AE
:1021C000A4020868A0420ED0052424020868A04298
:1021D00009D0032464020868A04204D00724240222
:1021E0000868A04201D1012000E00020002801D1B0
:1021F00000BFFEE700BF00930C6810460194009BEF
:102200001C4606280AD8C600251DAD5907263602E9
:10221000B543019E3543C600271DBD5100BF09E0EF
:10222000C8681C46E56BFF260136B5430543E563E8
:1022300000BF00BF012083E70004004000240040ED
:10224000F7B581B003460093029910464C68009B95
:102250001946062809D8C6000D1DAD59ADB2260491
:102260003543C6000F1DBD5105E0CD6B1E4E3540F8
:1022700026043543CD6300BF0093029910460C68D5
:10228000009B1946062808D8C6000D1D75196D68F3
:10229000C6000F1DF619746004E04D6C2D0B2D0364
:1022A00025434D6400BF00BF01209040986400BFEB
:1022B00000BFFF2001309040986400BF1C461046CC
:1022C0002146062808D8C6000D1DAD590126354304
:1022D000C6000F1DBD5103E0CD6B01263543CD6314
:1022E00000BF012004B0F0BDFFFF00F002689208BB
:1022F00092000A43026070474A03520B42617047E2
:10230000826A8BB29A438262704702688BB29A43A8
:102310000260704782688BB29A438260704742685D
:102320008BB29A4342607047026A8BB29A43026250
:1023300070470246D0698BB218408BB2984201D1E7
:10234000012070470020FCE7F8B506460C46002740
:10235000002500BF724886420ED071484030864248
:102360000AD06F488030864206D06D48C030864221
:1023700002D06C48864201D1012000E000200028F4
:1023800001D100BFFEE700BF00BF2068002805D9CB
:1023900065492068884201D8012000E0002000281B
:1023A00001D100BFFEE700BF00BF6068032808D06E
:1023B0006068002805D06068012802D060680228A3
:1023C00001D1012000E00020002801D100BFFEE77C
:1023D00000BF00BFA068012802D0A068002801D17A
:1023E000012000E00020002801D100BFFEE700BF6F
:1023F00000BFE068002802D0E068012801D1012078
:1024000000E00020002801D100BFFEE700BF00BFB0
:102410006069002802D06069012801D1012000E034
:102420000020002801D100BFFEE700BF80203F4907
:10243000496B01433D4A516300BF6AE00121B94045
:10244000206808400546002D62D0606803281AD134
:1024500029463046FFF759FF29463046FFF75FFF10
:1024600029463046FFF756FF6069012806D100BFB4
:10247000B06AA9B20843B06200BF33E029463046D3
:10248000FFF73EFF2EE029463046FFF739FF606830
:10249000002806D100BF3068A9B20843306000BFF1
:1024A00003E029463046FFF730FFA068002804D13A
:1024B00029463046FFF72EFF06E000BFB068A9B2FC
:1024C0000843B06000BF00BFE068002806D000BF2E
:1024D0007068A9B20843706000BF03E02946304627
:1024E000FFF71DFF606802280DD12069012806D181
:1024F00000BF306AA9B20843306200BF03E029463A
:102500003046FFF711FF29463046626800F031F887
:102510007F1C2068F840002890D10120F8BD000001
:10252000000C0040000D0040FFFF000000240040B0
:10253000024650694B035B0B18404B035B0B984200
:1025400001D1012070470020FCE782698BB21A4359
:102550008261704782698BB21A4382617047426917
:102560008BB21A434261704742698BB21A4342618F
:10257000704730B5C3680C464C4365006419A343EB
:102580000C464C4354432343C36030BD30B583688D
:102590000C464C4365006419A3430C464C4354431A
:1025A0002343836030BD000038B50246012300BFDD
:1025B0002E48824201D1012000E00020002801D1F4
:1025C00000BFFEE700BF00BF294C4868A04201D20F
:1025D000012000E00020002801D100BFFEE700BF7D
:1025E00000BF0868002814D00868012811D00868C6
:1025F00002280ED0086803280BD00868042808D0E9
:102600000868052805D00868062802D00868072849
:1026100001D1012000E00020002801D100BFFEE729
:1026200000BF2020134C646B0443124D6C6300BF49
:102630000868002400945468E408E40004435460EB
:102640001468009400BF4868002400940405240D19
:10265000D4601468009400BF00BF002000900648BA
:1026600010601068009000BF184638BD001401408B
:10267000FF0F0000002400405A5A341270B505467E
:102680000C462868032801D903202860204600282A
:1026900005DBC206D20E01219140094A116000BF3C
:1026A0002046296800F0A6FC2046002806DBC2066A
:1026B000D20E01219140024A803A116000BF70BDE4
:1026C00080E100E030B50246002300BF5748824257
:1026D00001D1012000E00020002801D100BFFEE769
:1026E00000BF00BF0868002805D00868012802D094
:1026F0000868022801D1012000E00020002801D153
:1027000000BFFEE700BF00BF0879002802D00879AB
:10271000012801D1012000E00020002801D100BFE4
:10272000FEE700BF00BF0869002804D00124E404CC
:102730000869A04201D1012000E00020002801D159
:1027400000BFFEE700BF00BF012464028868A0420A
:1027500002D08868002801D1012000E00020002874
:1027600001D100BFFEE700BF00BFC868002808D045
:102770000124A402C868A04203D06400C868A04233
:1027800001D1012000E00020002801D100BFFEE7B8
:1027900000BF00BF4869002808D04869012805D05B
:1027A0004869022802D04869032801D1012000E0CD
:1027B0000020002801D100BFFEE700BF486954682F
:1027C000A408A4000443546000BFC868146803252B
:1027D000AD02AC430443146000BF0879012807D15F
:1027E00000BF1068FF2401342043106000BF07E0E1
:1027F00000BF1068FF240134A043106000BF00BF79
:10280000086914680325AD04AC430443146000BF99
:102810000020074C20618868146801256D02AC43D4
:102820000443146000BF0123184630BD002000405F
:1028300000ED00E0024600BF1C48106000BF886940
:10284000D368DB09DB010343D36000BF4869136928
:10285000DB09DB010343136100BF086953699B096E
:102860009B010343536100BF886893699B099B01E7
:102870000343936100BFC868D369DB08DB000343EF
:10288000D36100BF4868136A5B095B0103431362AD
:1028900000BF0868536A1B0A1B020343536200BF50
:1028A00000BF0348106000BF01207047ACACACAC67
:1028B0005A5A5A5A024600BFD0684006400E8861F4
:1028C00000BF10694006400E486100BF5069800695
:1028D000800E086100BF90698006800E886000BF8E
:1028E000D0694007400FC86000BF106AC006C00E24
:1028F000486000BF506AC0B2086001207047000005
:1029000030B504460D4600BF0B48844201D101207A
:1029100000E00020002801D100BFFEE700BF042036
:102920000649496B0143054A516300BF29462046C9
:10293000FFF780FF012030BD00100140002400405F
:1029400070B505460C4600BF7648854205D07648EE
:10295000854202D07548854201D1012000E0002067
:10296000002801D100BFFEE700BF00BF606800285B
:1029700004D0FF2101316068884201D1012000E0CC
:102980000020002801D100BFFEE700BF00BFE069C2
:10299000002802D0E069042801D1012000E00020D5
:1029A000002801D100BFFEE700BF00BFA0680028DB
:1029B0000DD001214902A068884208D04900A068D2
:1029C000884204D003214902A068884201D1012035
:1029D00000E00020002801D100BFFEE700BF00BFDB
:1029E000A069002814D0A069082811D0A069102877
:1029F0000ED0A06918280BD0A069202808D0A069A3
:102A0000282805D0A069302802D0A069382801D133
:102A1000012000E00020002801D100BFFEE700BF38
:102A200000BF2069002802D02069012801D10120BF
:102A300000E00020002801D100BFFEE700BF00BF7A
:102A4000E068002802D0E068022801D1012000E0FF
:102A50000020002801D100BFFEE700BF31488542B9
:102A600003D10120FFF770F80FE02F48854203D112
:102A70000220FFF769F808E02C48854203D10420C2
:102A8000FFF762F801E0002070BD6069012806D1FF
:102A900000BF686802210843686000BF06E000BF0D
:102AA000686802218843686000BF00BF60682968C9
:102AB000FF22013291430143296000BFA0692968C8
:102AC000382291430143296000BFE069296804224C
:102AD00091430143296000BFA06869680322520244
:102AE00091430143696000BF206929684908490092
:102AF0000143296000BF20686968FF2201329143C9
:102B00000143696000BFE0682968022291430143E4
:102B1000296000BF00BF686801210843686000BFEA
:102B20000120B1E7000401400008014000480140D5
:102B30004168FF220132114341607047F8B50546F4
:102B40000C46002700200090002600BFAD488542BB
:102B50000BD0AD48854208D0AC48854205D0AC4882
:102B6000854202D0AB48854201D1012000E000201F
:102B7000002801D100BFFEE700BF00BF2068002889
:102B800014D02068012811D0206802280ED02068B7
:102B900003280BD02068002808D02068042805D01E
:102BA0002068082802D020680C2801D1012000E00C
:102BB0000020002801D100BFFEE700BF00BFA068D1
:102BC000C02808D0A068002805D0A068402802D0FE
:102BD000A068802801D1012000E00020002801D158
:102BE00000BFFEE700BF00BF2069002805D02069B4
:102BF000102802D02069202801D1012000E0002007
:102C0000002801D100BFFEE700BF00BFE068002838
:102C100004D0FF210131E068884201D1012000E0A9
:102C20000020002801D100BFFEE700BF00BF60699F
:102C3000002808D06069022805D06069012802D008
:102C40006069032801D1012000E00020002801D1A3
:102C500000BFFEE700BF6B4885422CD120686E495B
:102C600049688908890001436B4A516000BF2068A8
:102C7000002806D0012808D002280AD0032810D145
:102C80000BE0FEF7C5FF00900FE0FFF753F8009050
:102C90000BE0FFF79DF8009007E0604800680090A7
:102CA00003E0FEF7B5FF009000BF00BF6168009829
:102CB000FDF75CFA461E544885422CD120685649DF
:102CC00049680C2291430143534A516000BF206878
:102CD000002806D0042808D008280AD00C2810D1D3
:102CE0000BE0FEF795FF00900FE0FFF723F8009050
:102CF0000BE0FFF76DF8009007E04848006800908F
:102D000003E0FEF785FF009000BF00BF61680098F8
:102D1000FDF72CFA461E3B48854206D18015FEF78A
:102D20001BFFA815FEF728FF35E03748854206D17E
:102D30004015FEF711FF6815FEF71EFF2BE0334824
:102D400085420BD1C014FEF707FFFEF761FF00902C
:102D500061680098FDF70AFA461E1CE02C4885427F
:102D60000BD18014FEF7F8FEFEF752FF0090616869
:102D70000098FDF7FBF9461E0DE0264885420AD172
:102D80004014FEF7E9FEFEF743FF009061680098EB
:102D9000FDF7ECF9461E207DC007C00F002806D0C5
:102DA00000BF286801210843286000BF00BF02213E
:102DB00060690840002805D000BF286808432860E3
:102DC00000BF00BF00BFA869000C00043043A86129
:102DD00000BFE0682968FF22013291430143296066
:102DE00000BFA0682968C02291430143296000BF49
:102DF00020692968302291430143296000BF0127DF
:102E00003846F8BD002001400068014000700140D4
:102E10000074014000780140402400400C00002074
:102E200001468868FF2201321040000A70470146BF
:102E30008868022210404008704701468868C00731
:102E4000C00F012250405040704701464868FF22A1
:102E500001321040000A704701464868C007C00FA1
:102E600001225040504070474269520A52020A43C0
:102E70004261704710B5012189030D48FFF758FBE7
:102E8000002807D001210B48817189030848FFF70A
:102E900033FA0CE002210648FFF74AFB002806D06F
:102EA00001210448C17102210148FFF725FA10BD34
:102EB000C00D0040D44600200EB50020029007202F
:102EC000019001A90848FFF76FFB00BF00200090A8
:102ED000054840680121C902084303494860084683
:102EE0000068009000BF0EBD0014014010B5032023
:102EF0000004144949680F22120491430143114A06
:102F0000516000BF00BF10464068012108431146D0
:102F1000486000BF00F002FC00210B48FFF7E6F913
:102F20000020FEF7A9FF0020FEF78EFF0020FEF72D
:102F300097FF00F0B1F93F210320000400F024F9CD
:102F400010BD00000024004000100040002805DBF8
:102F5000C206D20E01219140014A11607047000063
:102F600080E100E0002805DBC206D20E012191407D
:102F7000014A11607047000000E100E010B5002830
:102F800019DB1A4A03231B02D21883089B00D2586C
:102F90008307DC0EFF23A3409A438B071B0E840795
:102FA000E40EA3401A43114B032424021B19840886
:102FB000A4001A5118E00E4A03071B0F083B9B0898
:102FC0009B00D2588307DC0EFF23A3409A438B0754
:102FD0001B0E8407E40EA3401A43054B0407240F7D
:102FE000083CA408A4001A5110BD000000E100E054
:102FF0001CED00E010B5002819DB1A4A03231B0260
:10300000D21883089B00D2588307DC0EFF23A3400D
:103010009A438B071B0E8407E40EA3401A43114BFF
:10302000032424021B198408A4001A5118E00E4A34
:1030300003071B0F083B9B089B00D2588307DC0E3D
:10304000FF23A3409A438B071B0E8407E40EA34083
:103050001A43054B0407240F083CA408A4001A5186
:1030600010BD000000E100E01CED00E010B50028FC
:1030700019DB1A4A03231B02D21883089B00D2587B
:103080008307DC0EFF23A3409A438B071B0E8407A4
:10309000E40EA3401A43114B032424021B19840895
:1030A000A4001A5118E00E4A03071B0F083B9B08A7
:1030B0009B00D2588307DC0EFF23A3409A438B0763
:1030C0001B0E8407E40EA3401A43054B0407240F8C
:1030D000083CA408A4001A5110BD000000E100E063
:1030E0001CED00E0F0B58FB006460127002522E078
:1030F00008A91448FFF7DEFB01A91248FFF7DAFB25
:1031000000240AE0A00008A90858A10001AA51580B
:10311000884200D003E0601CC4B2072CF2DB00BF81
:10312000072C06D100271C2208A93046FDF7FCF821
:1031300003E0681CC5B2032DDADB00BF38460FB0D0
:10314000F0BD00000010014000BF0C4840680121A4
:10315000C9020840C00A00280FD000BF0748806895
:103160000840C00A002808D001210548017200BFAC
:10317000C8020249886000BF00BF704700100140CC
:10318000D446002070470000FEB505460C460026D8
:103190000027302000903F2C00D9FEBD00BF042046
:1031A0003649086300BF00BF0846C06A04210843CF
:1031B0003249C86200BF00200190042101A8FFF736
:1031C0005DFA01200004281A06D001210904401AE2
:1031D00005D0401A09D105E05020009006E060209B
:1031E000009003E07020009000E000BF00BF172CAB
:1031F00004D800212248FFF779F80CE0172C06D9F3
:103200002F2C04D801211E48FFF770F803E002219B
:103210001B48FFF76BF80023224618460099FDF77C
:1032200075FE00BF1548C068012108431349C860F6
:1032300000BF00BF00BF1148C06880210840C0091E
:103240000746761C002F02D1701C0028F2D1032003
:103250000C494968C908C90001430A4A516000BFC6
:103260000220FEF709FE0020FEF7EEFD0020FEF72B
:10327000F7FD00F011F800BF8FE7000000240040C8
:103280000010004000E0014010B504F07BFF012871
:1032900001D004F07BFD10BD10B546480068400722
:1032A000400F030000F0B5FA073C050A3C0F323727
:1032B0003C00414800684149086051E000F008F9CD
:1032C0003E4908604CE03B48406A8003800F00287C
:1032D00006D0012809D002280CD0032814D10EE012
:1032E0004B204003354908600EE04B20C0023349B3
:1032F000086009E04B2080023049086004E04B2060
:1033000040022E49086000BF00BF29E02C48006839
:103310002A49086024E07D200002284908601FE057
:10332000244840680003000F002813D0012804D06F
:10333000022806D003280CD107E022481F49086064
:103340000CE021481D49086008E020481B4908603E
:1033500004E000BF1E481949086000BF00BF00BF5D
:1033600000BF144800684005400F042806D0052817
:103370000AD006280ED0072818D111E00F4800689F
:1033800040080E49086012E00C48006880080B49AC
:1033900008600CE009480068C0080849086006E0B9
:1033A0000648006800090549086000E000BF00BF4A
:1033B00010BD0000002400400C0000201000002080
:1033C000080000200024F40000366E010048E801E7
:1033D00000127A0010B53948406B012109030843F7
:1033E000364948630846406B8021084333494863A7
:1033F000084600680121C906084330490860552085
:10340000C8610320090548602D488069000C2C49DB
:10341000098BC94389B2884202D12948806900E0FA
:103420001020C006C00E274988632548C0300068B8
:10343000000C2349C0310988C94389B2884203D1AD
:103440001F48C030006800E08020C0B21B4988607F
:103450001B48C0304068000C1949C0318988C943F5
:1034600089B2884203D11648C030406800E080200D
:10347000C0B21249886212488030006A000C1049BC
:103480008031098CC94389B2884203D10C4880300D
:10349000006A00E08020C0B2084948610A484068DC
:1034A000FF21813108430849486005200749086029
:1034B00001204860FFF7F0FE10BD0000002400402E
:1034C00080FAFF1F00200040C00C00400028004090
:1034D00010B500242C48C0688007C00F002802D017
:1034E00001281BD117E0284840680003000F00287E
:1034F0000DD0012804D0022804D0032806D103E00F
:10350000224C06E0224C04E0224C02E000BF224C98
:1035100000BF00BF02E02148046800BF00BF1A4896
:10352000C0684006400F030000F073F90805070962
:103530000B0D13151B1D00BF15E0640813E0A40854
:1035400011E0E4080FE00C212046FCF70FFE0446D2
:1035500009E0240907E018212046FCF707FE04468D
:1035600001E0640900BF00BF0748C0684002400E88
:10357000401C44430448C0680007C00F002800D026
:103580006400204610BD0000002400400024F40028
:1035900000366E010048E80100127A000C0000209D
:1035A000F8B50024002500260027002000902E48B2
:1035B000FFF74BFC04462C48FFF732FC05462A482F
:1035C000FFF74AFC06462848FFF737FC0746012C60
:1035D0003ED1012D3CD100BF23480069C0B200900C
:1035E00022480078002833D12048401DFCF7D4FE43
:1035F0001E490A79CB7811021943009A42541B489C
:103600000179C27808021043401C81B21748C1708A
:10361000090A01710179C2780802104313498A78B6
:103620004B781102194388420FDB01200F490870C3
:10363000481DFCF7B1FE01460C480279C378100220
:103640001843401E00220A5402E00A2008498870EC
:10365000012E07D1012F05D100BF0120024988604A
:1036600000BF00BFF8BD000000200140DE000020C8
:1036700074000020F8B5002400250026002711481A
:10368000FFF7E3FB04460F48FFF7CAFB05460D486A
:10369000FFF7E2FB06460B48FFF7CFFB0746012C7E
:1036A00005D1012D03D100BF0648006900BF012EDE
:1036B00007D1012F05D100BF01200249886000BF5A
:1036C00000BFF8BD00740140F8B5002400250026B5
:1036D00000271148FFF7B9FB04460F48FFF7A0FB8E
:1036E00005460D48FFF7B8FB06460B48FFF7A5FB5C
:1036F0000746012C05D1012D03D100BF0648006902
:1037000000BF012E07D1012F05D100BF01200249C2
:10371000886000BF00BFF8BD0078014000B587B0E9
:10372000182101A8FCF719FE0C200190032002903B
:10373000002003900490059001A90D48FEF704FEB7
:103740000A200C49096A1F22120291430202114306
:10375000084A116200BF00BF1046006A01210843F9
:103760001146086200BF022004F0CEFE07B000BD83
:10377000800C0040002400400FB410B503A9044B96
:10378000044A029800F01CF910BC08BC04B01847A9
:1037900089450000FC0000200FB47CB50C0009AD89
:1037A00001D0611E00E0002101910090074B6A46A4
:1037B0002946089800F004F9002C02D0009A002154
:1037C00011707CBC08BC04B01847000071450000B3
:1037D00010B5024B024A00F007FB10BD89450000FE
:1037E000FC0000202021020C01D010211046020A0A
:1037F00001D010460839020901D01046091F82087D
:1038000001D01046891E420801D0881E7047081A50
:10381000704730B47446641E2578641CAB4204D3F0
:10382000635D5B00E31830BC18471D46F8E702E013
:1038300008C8121F08C1002AFAD17047704700203B
:1038400001E001C1121F002AFBD17047F0B51FB47F
:1038500086B00998089A030D0021024314D05148FC
:10386000514A1818504305141198012810981AD07D
:10387000281A401C00264D4F4D4900960191049096
:10388000002812DA444211E01198012449A30128CA
:1038900001D11098C1430698119A84600360C260F8
:1038A00041600BB0F0BD4042E4E704462105002032
:1038B0003F4A001C51410391029012E0E00707D0FB
:1038C00032463B4601990098FCF702FF01910090B7
:1038D00032463B4610461946FCF7FAFE06460F46AE
:1038E0006410002CEAD10498039B0028029A0999DD
:1038F000089806DAFCF7ECFE019B009AFCF7E8FE5C
:1039000005E0FCF74DFF019B009AFCF749FF0446D8
:103910000E460022284BFDF759F903D80020C0437A
:10392000014607E00022254B20463146FCF71CFEED
:10393000FDF72CF9102409E0002C0ADB0A220023F1
:10394000FCF73EFC079B30321A55641E02460A43C0
:10395000F2D11122641C079B121B1C19119B012B15
:1039600003D0012308430ED10AE0084304D01120FC
:1039700010900020119077E71098151A6D1E0BE03B
:103980001098824202DD00236D1C03E0824201DABE
:1039900000236D1E002BEED0069811998260C16045
:1039A00030C07EE701FCFFFF104D00000000144016
:1039B0000000F03F300000000000F0430000E03F56
:1039C000FFB591B00F460546002606E025280AD02F
:1039D000149A139990476D1C761C28780028F5D10D
:1039E000304615B0F0BD002400940121F34A029442
:1039F00000E004436D1C2B780846203B98401042A1
:103A0000F7D128782A280ED00222287801463039AA
:103A1000092915D800990A2359433039401814430D
:103A20006D1C0090F1E701CF0090002805DA01201D
:103A300040030443009840420090022004436D1C60
:103A400028782E2815D10420044368786D1C2A2874
:103A50000AD101CF6D1C02900BE002990A2251435A
:103A6000303940186D1C02902878014630390929F8
:103A7000F3D928786C2810D006DC4C281AD0682896
:103A80000ED06A2817D104E0742813D07A2812D1F6
:103A900010E00120400504430CE00121090501E08C
:103AA000032109050C436978814203D101200005F7
:103AB00024186D1C6D1C28786E281ED00CDC632821
:103AC00031D004DC00288BD0582811D1B2E0642812
:103AD0007BD069280CD178E073282DD004DC6F28C6
:103AE00070D0702804D1A7E075286CD078286BD0EE
:103AF000149A13999047761C62E06002400F0228E6
:103B000007D003280AD0042838680AD006603F1D71
:103B100056E03868F11706604160F8E738680680BB
:103B2000F5E70670F3E738786946087400204874B2
:103B300004A80390012003E0386803900020C043EC
:103B40003F1D61070FD5002101E00199491C029A30
:103B50000191914213DA8142F7DB019A0399895C62
:103B60000029F2D10BE0002101E00199491C0191EB
:103B70008142FADB019A0399895C0029F5D1019908
:103B80000098139A401A00902146149B00F0C4FC40
:103B900001998019461807E0039803990078491C99
:103BA0000391149A139990470198401E0190401C6C
:103BB000F2D12146149B139A009800F08DFC8619CF
:103BC0006D1C0AE741E033E034E00A200021049054
:103BD00005916002410F022905D001CFC21794461A
:103BE000032905D007E0FF1DFF08FF0003CF06E013
:103BF00000B2C2179446042902D140B2C1178C46C4
:103C000000226146944506DA0A460021404291416D
:103C10008C462D2102E0210504D52B216A46117620
:103C2000012103E0E10701D02021F7E7019155E0F0
:103C30000A200BE0102009E010200490002104204D
:103C4000044308200591029003E00820002105911B
:103C500004906002410F022905D001CF0022944652
:103C6000032906D006E0FF1DFF08FF0003CF8C46A6
:103C700003E080B2042900D1C0B2002101912107E4
:103C80002CD529780391702906D0049A1021059B20
:103C90004A401A4305D00EE040216A4611760121C0
:103CA00008E06146014306D030216A461176039947
:103CB000517602210191049A0821059B4A401A433A
:103CC0000CD16146014301D1610707D530216A4615
:103CD0001176012101910299491E029129785829F2
:103CE00004D037A103910FA90F910DE039A1F9E795
:103CF0006146059B049AFCF763FA039B8C469B5C28
:103D00000F9A521E0F92137061460143F0D10F9823
:103D100007A9081A20300390600704D50120000489
:103D20008443029801E0012002900399884201DD5A
:103D3000401A00E0002041180290019809180098EC
:103D4000401A0090E00306D42146149B139A009871
:103D500000F0E2FB86190020049008E006A9085C48
:103D6000149A139990470498401C761C049001996A
:103D70008842F3DBE0030CD52146149B139A00988C
:103D800000F0CAFB861904E0149A3020139990477A
:103D9000761C0299481E02900029F5DC08E00F9875
:103DA0000F990078491C0F91149A13999047761C2B
:103DB0000399481E03900029F1DCFAE60928010066
:103DC0003031323334353637383961626364656691
:103DD0000000000030313233343536373839414253
:103DE0004344454600000000FFB597B00646002555
:103DF0001BE2252876D100242746F749049400E0E9
:103E00000443761C32780120203A90400842F7D1D2
:103E100030782A280ED0022230780146303909291C
:103E200016D804990A235943303940181443761C94
:103E30000490F1E7189802C804911890002904DA58
:103E40000120400304434842049002200443761CAE
:103E500030782E2814D1042004437078761C2A2848
:103E600009D11898761C80C8189009E00A214F43A0
:103E7000303FC719761C3078014630390929F5D909
:103E800030786C2810D006DC4C281AD068280ED068
:103E90006A2817D104E0742813D07A2812D110E0D0
:103EA0000120400504430CE00121090501E0032144
:103EB00009050C437178814203D1012000052418C3
:103EC000761C761C307866280BD013DC58287DD001
:103ED00009DC00287BD04528F6D04628F4D04728B6
:103EE0001AD1A9E118E0632835D0642870D065287C
:103EF00012D1A1E170286CD008DC6728F1D06928C4
:103F00007DD06E280DD06F2806D1BCE073282ED04E
:103F1000752873D0782859D01A9A199990476D1C32
:103F200082E16002400F022809D003280DD0042846
:103F3000189801680DD00D60001D189074E1189854
:103F4000EA1701680D604A60F6E7189801680D806D
:103F5000F2E70D70F0E718986A4601781172001DBB
:103F600018900020507202A80090012005E01898D7
:103F700002C8189000200091C04361070ED50021AF
:103F800001E00199491C0191B94213DA8142F8DB41
:103F9000019A0099895C0029F3D10BE0002101E02E
:103FA0000199491C01918142FADB019A0099895CCF
:103FB0000029F5D1019904981A9B471A21463846E1
:103FC000199A00F0BFFA4019019903E051E030E17D
:103FD00015E050E0451807E0009800990078491C6A
:103FE00000911A9A199990470198401E0190401C1F
:103FF000F2D1214638461A9B199A12E137E00A207D
:104000000021009001916002410F022907D0189A07
:1040100001CA1892C2179446032908D00AE01898DA
:10402000C01DC108C90005C91891944607E000B237
:10403000C2179446042902D140B2C1178C4600220F
:104040006146944506DA0A460021404291418C4679
:104050002D2102E0210504D52B216A46117301218F
:1040600003E0E10701D02021F7E7029156E00A20A2
:104070000AE0102008E010200090002104200443F2
:104080000191082703E008200021019100906002BF
:10409000410F022907D0189A01CA189200229446AB
:1040A000032908D008E01898C01DC108C90005C937
:1040B0001891944603E080B2042900D1C0B20021D7
:1040C000029121072AD531780D91702906D0009AE6
:1040D0001021019B4A401A4305D00EE040216A4658
:1040E0001173012108E06146014306D030216A4680
:1040F00011730D99517302210291009A0821019BBD
:104100004A401A430AD16146014301D1610705D5EE
:1041100030216A46117301217F1E0291317858299E
:1041200004D02EA10E910DA90D910DE030A1F9E75B
:104130006146019B009AFCF743F80E9B8C469B5C02
:104140000D9A521E0D92137061460143F0D10D98E5
:1041500005A9081A20300190600703D5012000044A
:10416000844300E001270198874201DD381A00E00E
:104170000020019900904118029809180498401AEB
:104180000490E00306D421461A9B199A049800F083
:10419000D9F94519002706E003A81A9AC05D1999B4
:1041A00090476D1C7F1C02988742F5DBE0030CD51D
:1041B00021461A9B199A049800F0C4F9451904E0A5
:1041C0001A9A3020199990476D1C0099481E00904A
:1041D0000029F5DC1FE000000928010030313233EE
:1041E0003435363738396162636465660000000033
:1041F000303132333435363738394142434445461D
:10420000000000000D980D990078491C0D911A9A34
:10421000199990476D1C0199481E01900029F1DC05
:104220004DE100F069F94519761C3078002800D07E
:10423000DFE528461BB0F0BD600700D406271898BC
:10424000C01DC108C90048680A680831C30FDB07F0
:104250001891190001D09CA108E0210501D59BA16E
:1042600004E0E10701D09AA100E09AA14300109177
:1042700030785B0865280CD006DC452809D0462834
:104280001DD0472841D141E0662818D067283CD18D
:104290003CE00021112F01DB112000E0781C01918E
:1042A000009008A911A8FFF7D1FA139905910021F0
:1042B000119A15927F1C12980197009150E00120ED
:1042C000C00703900120019008A9009711A8FFF7EB
:1042D000BDFA139A149905920022119B009212982C
:1042E0001593059A0192002901D0104602E0791C2D
:1042F00040180190381A01D5019804E04042401E50
:104300000090781C0190C01B029043E0012F00DA5E
:1043100001270021112F01DD112000E03846019115
:10432000009008A911A8FFF791FA13990591119A25
:104330000021129815920091019721070CD405993C
:10434000B94201DB019900E00191012904DD159AD0
:10435000491E515C302906D0B84201DA011D05DA48
:104360000121029115E00199491EEDE7002805DCC5
:104370000099411800910199091A03E0019A411C22
:10438000914200DD01910099401A401C02900120E9
:10439000C0070390200706D402990198814202DBEE
:1043A0000020C043029000206946C87707AF012172
:1043B00003980337C907884224D0022011902B208C
:1043C0001290039800280CDA404203902D2012909E
:1043D00007E00A210398FBF7C9FE30317F1E0390E6
:1043E00039701199481E11900029F2DC03980028B9
:1043F000EFD1791E1298087030782021084045309E
:10440000BF1E387006A8C01BC01D0390109800780E
:10441000002800D00120019941180298C0170918FE
:10442000039809180498401A401E0490E00306D42B
:1044300021461A9B199A049800F084F8451910989F
:104440000078002803D01A9A199990476D1CE00350
:1044500024D521461A9B199A049800F073F845193F
:104460001CE00098002807DB00990598884203DDCE
:104470001598405C199901E0199930201A9A9047D3
:1044800000986D1C401C00900298401E029000286D
:1044900004D11A9A2E20199990476D1C0199481E33
:1044A00001900029DDDC05E038781A9A7F1C199903
:1044B00090476D1C0399481E03900029F4DC2146A7
:1044C0001A9B199A0498ACE62D0000002B000000FE
:1044D0002000000000000000F8B5044600251E463C
:1044E0001746880404D405E039462020B0476D1CE7
:1044F000641EF9D52846F8BDF8B5044600251E46C9
:104500001746880404D405E039462020B0476D1CC6
:10451000641EF9D52846F8BDFFB50446002581B0D4
:104520001E46C80301D5302700E02027880404D5A3
:1045300005E038460399B0476D1C641EF9D528463E
:1045400005B0F0BDFFB50446002581B01E46C80386
:1045500001D5302700E02027880404D505E038463F
:104560000399B0476D1C641EF9D5284605B0F0BD0F
:104570004A68002A06D00A68531C0B60107048680D
:10458000401E48607047000070B504460D46E1B219
:104590000548FEF769FC00BF0348FEF748FC012808
:1045A000FAD1204670BD00000078014010B500F03F
:1045B00071FC002010BD000010B520210448FDF75B
:1045C000D3FF202102484030FDF7C4FF10BD00009A
:1045D000400C0040F8B505460E46174807681748D6
:1045E0000068001D03F00EFA681C002808D1002E98
:1045F00006D012480168091D114803F042FA1AE07A
:104600007C190E4800684460BC4207D20B48016820
:10461000091D0C48006803F019FA0CE0074801680E
:10462000091D0948006803F011FA0848006884422F
:1046300001D206480460F8BD2800002014000020C4
:10464000E00100201C000020180000204400002091
:1046500010B5044603F022FA22480068401C2149A4
:10466000086021480068002808D11F4804600846F7
:10467000006801280ED100F091F90BE01B4800689A
:10468000002807D118480068C06AE16A884201D84A
:104690001548046016480068401C15490860084623
:1046A000006860641349E06A0968884202D91149C8
:1046B000E06A08601422E16A51430F4A8818211DFC
:1046C00003F0DFF903F0F8F908480068002807D084
:1046D00005480068C06AE16A884201D203F022FA04
:1046E00010BD000024000020140000203000002035
:1046F000400000202C0000202C01002070B525E097
:1047000003F0C4FA14480068002801D1012000E039
:104710000020054603F048FE002D17D103F0BEF936
:104720000D48C068C468201D03F06CF90B48006890
:10473000401E0A4908600A480068401E084908608F
:1047400003F0BAF9204600F063F800BF044800689F
:104750000028D5D170BD0000CC010020240000202D
:104760002000002070B504460D46206C00280ED0B5
:10477000216CE0684018E0606168E068884201D31D
:104780002068E0602846226CE168FBF7CDFD70BD33
:10479000F8B504460F46154600200090A66B206C25
:1047A000002809D1206800282ED1606803F08CFD14
:1047B00000900020606027E0002D0FD13946226C68
:1047C000A068FBF7B1FD216CA0684018A06061688B
:1047D000A068884218D32068A06015E03946226C92
:1047E000E068FBF7A1FD216CE068401AE0602168F9
:1047F000E068884203D2216C6068401AE060022DB4
:1048000002D1002E00D0761E701CA0630098F8BD67
:1048100010B50446206B03F05DF9204603F05AF909
:1048200010BD000030B511239B0217484407640FE8
:10483000002C05D0C01DC008C000134C041B1B1B5E
:104840000246124C22600024104D6C60D0180838CB
:10485000C008C0000E4C206000240D4D2D686C6017
:104860000B4D2D682C601146441A4C60084C24688E
:104870000C60084D4C682C60074D4C682C6001247E
:10488000E407064D2C6030BDF401002058000020E4
:104890006000002068000020640000206C00002000
:1048A00000BFFFF72BFF034800680128F9D903F088
:1048B00039F9F6E72C01002010B50446002C09D088
:1048C000002060602060E06000231A461946204600
:1048D00003F07BFB10BDFFB581B006460D461746C1
:1048E0000A9C002D01D1246000E02760E663256466
:1048F0000121204603F02DFB4C210498085505B0FA
:10490000F0BDFFB581B00F460A9E0C9C039A910042
:10491000A522206BFBF71AFD216B0398401E800037
:10492000081800900098C008C0000090002508E01A
:10493000795D204634304155785D002800D102E091
:104940006D1C102DF4D300BF002143200155052E0E
:1049500000D30426E662E66400202065201D03F0F3
:1049600072F82046183003F06EF824610520801B91
:10497000A061646200206065A06500215C20015593
:10498000049A0199009800F077F920600B980028AC
:1049900001D00B98046005B0F0BD000010B50024F4
:1049A00006E0142161430E4A881803F03FF8641CA6
:1049B000052CF6D30B4803F039F80B4803F036F812
:1049C0000A4803F033F80A4803F030F8094803F0C6
:1049D0002DF804480849086003480849086010BDDC
:1049E0002C01002090010020A4010020B80100202B
:1049F000CC010020E0010020180000201C00002055
:104A000010B50146164800E0006803688B42FBD3EE
:104A1000024643689B188B4204D143684C681B19BB
:104A2000436001460A464B689B180468A34211D1B3
:104A30000C4C03682468A34208D04B68046864687F
:104A40001B194B6003681B680B6005E0054B1B6876
:104A50000B6001E003680B60884200D0016010BD6C
:104A6000580000206000002070B5054603F016F8DD
:104A7000A86B002801D1012400E0002403F01CF8F9
:104A8000204670BD70B5054603F008F8A86BE96BC9
:104A9000884201D1012400E0002403F00DF82046F3
:104AA00070BD00000B4909680968002901D1012186
:104AB00000E00021002904D00021C943064A11600A
:104AC00006E004490968C968C868034A416811607A
:104AD00070470000180000204400002002480349ED
:104AE0004861072008617047FFF9000000E000E01E
:104AF00072B600BFFEE770B5044602F0CFFF452056
:104B0000055713E0606A002801D1012000E0002071
:104B1000002808D12046243003F006FC002803D0EA
:104B200003F020F800E003E0681E45B2002DE9DC48
:104B300000BF0021C9434520015502F0BDFF02F02E
:104B4000ADFF4420055713E02069002801D1012062
:104B500000E0002000280AD12046103003F0E4FBDA
:104B6000002801D002F0FEFF681E45B200E001E01F
:104B7000002DE9DC00BF0021C9434420015502F0AB
:104B80009BFF70BDF8B505460020009003F07EF84D
:104B90002C480068002801D1FFF744FE2A4800682D
:104BA0002840002849D1002D09D008356807400F5A
:104BB000002804D06807400F0821081A4519002D65
:104BC0003BD022480068854237D8214E30460468E1
:104BD00001E0264624686068A84202D220680028C6
:104BE000F7D118480068844227D030680830009018
:104BF000206830606068401B102807D9671960681A
:104C0000401B786065603846FFF7FAFE0F49606820
:104C10000968081A0D490860084600680D490968C6
:104C2000884203D2094800680A490860064960685A
:104C30000968084360600020206003F0B5FB00981D
:104C4000F8BD0000600000206C000020640000201F
:104C5000580000206800002006480068002806D0A0
:104C60000449096808465030096D491C0160014833
:104C70000068704714000020001F01231B0603601A
:104C8000001F0160001F034B0360143802602038CE
:104C900070470000F14A000000B595B00120119066
:104CA0000320129000201390149011A8FCF760F9D3
:104CB00003200B900C9000200D900E900F90109000
:104CC0000BA91B48FDF740FBFF2081300B90032010
:104CD0000C9000200D900E900F9010900BA914488E
:104CE0008030FDF731FB00200090019001216846E3
:104CF00001724172002003900490059006900F20ED
:104D0000079008A8017003204004099088050A90C4
:104D100069460848FCF718FA07490648FCF70EFAF6
:104D2000012109060348FCF709FA15B000BD00008F
:104D3000000C0040005C014060300000FEB500BF88
:104D400000BF202002F0F6F801904D494A7C0B7C10
:104D5000110219430846FBF7A6FD4A490090FBF7EC
:104D600087FB06460198FBF79EFD47490090FBF73D
:104D70007FFB07463146FBF722FB0546FBF7B3FDF9
:104D800081B23F480174090A417401464A7C0B7C98
:104D900011021943084602F081F9054638491231DB
:104DA000FBF704FB402002F0C5F801900198FBF7E7
:104DB0007AFD05463549FBF75BFB04463048001D8C
:104DC000FBF7EAFA074639462E48FBF751FB064641
:104DD00021462D48FBF74CFB31460090FBF7EFFADC
:104DE00005462749091DFBF7E1FA0120000302F0FF
:104DF000A1F801900198FBF756FD05462449FBF701
:104E000037FB04461E480C30FBF7C6FA0746394606
:104E10001C48FBF72DFB064621461B48FBF728FBE9
:104E200031460090FBF7CBFA054615490C31FBF7EC
:104E3000BDFA0120400302F07DF801900198FBF7D4
:104E400032FD054601218907FBF712FB04460C4899
:104E50000830FBF7A1FA074639460A48FBF708FB7A
:104E6000064621460848FBF703FB31460090FBF756
:104E7000A6FA054602490831FBF798FAFEBD000084
:104E8000B74600207E954C3F06AA4D3E6666FA4125
:104E90006666B6401CB502F0AFFA01F0FFF800F00C
:104EA000C3F914A31EA20621012003F0DBFC00209D
:104EB000012103468A020091019027A1294803F0AD
:104EC00033F90020012103464A020091019026A1F6
:104ED000294803F029F90020012103468A020091A4
:104EE000019026A1284803F01FF902F0A3FE00BF9D
:104EF000FEE7000051444D3533385F464D33334CA7
:104F0000473034355F30312E3030312E30312E3055
:104F100030315F4245544132303232313032360026
:104F20003D3D3D3D3D3D3D3D3D3D3D3D3D3D3D3DB1
:104F30003D3D3D3D3D20436F64653A202573203D56
:104F40003D3D3D3D3D3D3D3D3D3D3D3D3D3D3D3D91
:104F50003D3D3D3D0D0A00006465766963655F7403
:104F600061736B0051670000646174615F7061631D
:104F70006B5F7461736B0000495A00006D61696E6C
:104F80005F7461736B0000003972000030B589B046
:104F900000240020079008900121C9027848FDF7FD
:104FA000C8F9C4B2002C01D1012100E000217548EC
:104FB000C17075480078844263D0142003F0A4FACD
:104FC0000121C9026E48FDF7B4F9C4B26E480078F9
:104FD000844256D06C480470002C1AD169488078FD
:104FE000002803D101216748817006E06548807A76
:104FF000012802D1072163488170C8216348C1702C
:10500000002101715F484172817200205F49487040
:1050100037E0012C35D15B481938FBF7BDF905465F
:105020005B49FBF789FC11D256481138FBF7B4F9FC
:1050300005465849FBF780FC08D20421514881708D
:10504000012141720F20514948701AE04D4819382A
:10505000FBF7A2F905464E49FBF778FC08D9494809
:105060001138FBF799F905464A49FBF76FFC08D858
:105070000621444881700121817241720F20434909
:1050800048704048407A012831D140484078002893
:1050900007D03E48437840A20621012003F0E2FBFE
:1050A00025E005A800F04EF90699059808910790AB
:1050B00008A8817842780378C07803930492059118
:1050C00002906846C17F807F019100906846838B83
:1050D00037A20621012003F0C5FB0899079802F0CA
:1050E00063FB0121274841710F2028494870274858
:1050F0000179C27808021043002813D12148807832
:1051000003280FD11F48C07A01280BD136A20621EF
:1051100003F0A8FB05211B488170C8211B48C17002
:105120000021017117482038407E012810D100204D
:105130003C4908700021134820384176102010495E
:10514000C039496901430E4AC03A516100BF14E0B9
:1051500034480078401C3349087008460078052818
:105160000BDB0020087010200549C0398969014314
:10517000034AC03A916100BF00BF09B030BD0000D2
:10518000C00C0040D44600202801002074000020FC
:105190000060EA4600A00C46696E746F5F736C6530
:1051A00065705F745F733A2025640D0A000000008B
:1051B0006E6578745F77616B6575705F727463207C
:1051C0003D20253034642F253032642F2530326461
:1051D0002D253032642D253032643A253032643A40
:1051E00025303264200D0A006D6375206E6F2072C9
:1051F000656365697665206B6565706C69766520A9
:105200007061636B2066726F6D206D6F64756C6585
:105210002C207265736574206D6F64756C650D0A62
:10522000000000002701002010B51948FBF7B4F872
:10523000002804D117A20621012003F013FB1C480B
:10524000FBF7AAF8002804D11AA20621012003F0D6
:1052500009FB2048FBF7A0F8002804D11EA2062174
:10526000012003F0FFFA2548FBF796F8002804D147
:1052700023A20621012003F0F5FA2A48FBF78CF857
:10528000002804D128A20621012003F0EBFA10BD6A
:10529000BE000020737069206275662063726561CC
:1052A0007465206661696C6564200D0A0000000069
:1052B000B500002063616E207061636B20627566CB
:1052C00020637265617465206661696C6564200D98
:1052D0000A000000CC00002063616E20727820720A
:1052E000696E672062756620637265617465206609
:1052F00061696C6564200D0A00000000DA0000207E
:1053000063616E2074782072696E67206275662012
:10531000637265617465206661696C6564200D0A5D
:1053200000000000E3000020756172743020627597
:105330006620637265617465206661696C656420CE
:105340000D0A00007CB50646002400252148417C5A
:10535000027C08021043002805D101211D48017478
:10536000002141740CE01B48417C027C0802104380
:105370002D214901884203DB16480174090A417452
:1053800014484F3001F002FF082212494F3168469D
:10539000FAF7CAFF0199009803F00EF9054607E0F5
:1053A0000C48417C027C080210433C21484304190C
:1053B00009492846FAF7DAFEA142F1D20649284601
:1053C000FAF7D4FE641A2D192946304603F01AF96B
:1053D0007CBD00007F46002080510100017900293A
:1053E00002D1017241724AE0417802780902114308
:1053F000C278837812021A4391420EDAC178827819
:10540000090211434278037812021A43891A491C8F
:1054100089B20172090A417231E0417802780902C9
:105420001143C278837812021A43914213DDC17886
:10543000827809021143C279837912021A438A18C9
:105440004178037809021943511A491C89B2017243
:10545000090A417213E04178027809021143C278C7
:10546000837812021A43914209D10179012903D1AB
:1054700001720021417202E0002101724172704705
:10548000F8B504460D46002600200090607821788B
:1054900000020843E178A27809021143884206D14C
:1054A0002079002803D1012000900098F8BD607891
:1054B0002178000208436179484386B220460A30C9
:1054C000FAF76AFF8719627939462846FAF72CFFFE
:1054D0006078217800020843E178A278090211433C
:1054E000884202D10020207115E060782178000206
:1054F0000843401CE179A27909021143884201DB8B
:10550000002004E06078217800020843401C80B24B
:105510002070000A60700098C8E7F7B582B00446B2
:10552000164600250027002001906079B04204DA79
:1055300001200190019805B0F0BD2079012813D118
:10554000E078A17800020843401CE179A2790902C1
:105550001143884201DB002004E0E078A1780002DA
:105560000843401C85B203E06078217805020D43B2
:105570006079684387B220460A30FAF70DFFC019F8
:10558000324600900399FAF7CFFEA570280AE07022
:10559000012020710198CEE730B585B0142168460E
:1055A000FAF7DBFE00BF4B48FAF7F6FE4321017025
:1055B0004848FAF7F1FE462141704648FAF7ECFEFA
:1055C000232181704348FAF7E7FE2321C170414847
:1055D000FAF7E2FE052101713E48FAF7DDFE0121EE
:1055E00041713C48001FC1788278080210430028AE
:1055F00008D03949C87989790002084337490988B0
:10560000884204DC002036490880344908801FE0C5
:105610003048FAF7C1FE324909880A3145182E4848
:10562000427969462846FAF77FFE2B4840792C4993
:10563000098840182A49088028480088401C2749C2
:10564000088008460088FF212D31884200DB05E0F4
:1056500069462148FFF714FF0128D9D100BF1D4832
:10566000FAF79AFE1D490988091201721948FAF7DA
:1056700093FE1A49097841721648FAF78DFE1849C7
:105680000988891C0904090E81711248FAF784FE01
:1056900013490978891CC1710E48FAF77DFE051D72
:1056A0000F480088801D81B2284603F045F9044662
:1056B0000848FAF771FE0A4909880A314454084833
:1056C00000880B3081B20348001F8170090AC17045
:1056D00005B030BDB5000020C20000202001002030
:1056E0001E0100201FB50020009001900290039041
:1056F0001948FFF773FE1849487A097A00020843EF
:10570000002827D020E06946087800064978090477
:10571000084369468978090208436946C9780843FD
:105720000E494860694608790002497908430B49E7
:105730000872082201A9023108480930FAF7F4FD7D
:1057400006490220FCF7ACF869460348FFF798FECB
:105750000128D8D11FBD0000D000002060710020BA
:10576000FFB583B004460E4617460C9D00200290FC
:105770000190B54201DD07B0F0BD43202070462006
:1057800060702320A070E070277106986071281265
:10579000A071E5710D98002806D02A4620460830F1
:1057A0000D99FAF7C1FD01E000202072281D81B299
:1057B000201D03F0C1F8019029460831019860547A
:1057C000481C80B202900298D5E70000F0B585B081
:1057D00000BF964903C903910290684601890020E1
:1057E00002F04CFF03909248007800287ED10120FF
:1057F0008F4908708F48FAF7CFFD05460020012138
:105800008C4A121F009101905078127800021043C8
:10581000014601231A462846FFF7A2FF8549091FC2
:105820008870000AC870322283490398FAF77CFD19
:10583000322480480830FAF7AFFD054603987D4AC8
:10584000121F00940190507A127A00021043014610
:10585000012302222846FFF783FF7649091F887239
:10586000000AC87208462430FAF796FD0546002063
:105870000121009101906F481C304278037810029A
:1058800018430146012308222846FFF769FF6949AA
:105890001C318870000AC87008460C30FAF77CFD8D
:1058A0000546002001210091019062481C30427A97
:1058B000037A100218430146012309222846FFF704
:1058C0004FFF5C4924318870000AC87008460C30CC
:1058D000FAF762FD0546002001210091019055482C
:1058E0001C30427C037C1002184300E00AE00146B1
:1058F00001230E222846FFF733FF4E492C318870D2
:10590000000AC87000235A1E19464C48006802F06D
:105910007CFA4948C730FAF73FFD07464849FAF78D
:10592000E4FD06463F210906FAF749FD0546FAF768
:10593000DAFF0004000E039908703F48C730FAF7F9
:105940002BFD07463E49FAF7D0FD06463F210906E2
:10595000FAF735FD0546FAF7C6FF03994870364851
:10596000CF30FAF719FD07463549FAF7BEFD06466E
:105970003F210906FAF723FD0546FAF7B4FF03991C
:1059800088702D48E030C0780399C8702A48E0300C
:105990000079039908712848D530FAF7FDFC0646CE
:1059A0002849FAF765FD0546FAF784FFFF38913874
:1059B0000004000E039948711F48D530FAF7ECFC3B
:1059C00006462049FAF754FD0546FAF773FF703092
:1059D0000399887100200399C87116481830FAF7A6
:1059E000DBFC054608210398124A121F0091019022
:1059F000507E127E000210430146012304222846F5
:105A0000FFF7AEFE0B49091F8876000AC876FFF73C
:105A1000C3FD00231A4619460848006802F0D5FA6B
:105A20000020039902F0B6FD05B0F0BD3C8A0000ED
:105A30001C0100207D000020F4450020F000002023
:105A40000000C8420000204100BF04E0FFF7BEFE96
:105A50000A2002F073F8F9E7F0B587B005460E4664
:105A60001446002701200690BAA00068059004960D
:105A700000200390029061E1B7494878097800025C
:105A80000843711E884203DD0020B3490870487046
:105A9000B148C0780300FDF7BCFE0805222D38632D
:105AA000E9FDFCFBAC494878097800020843285C12
:105AB000A949897805AA515C884205D1A648807811
:105AC000401CA549887002E00020A3498870A248C4
:105AD0008078042802D101209F49C87019E19E49AD
