:020000040800F2
:200000001831002075F60008A9E90008ABE9000800000000000000000000000000000000CE
:20002000000000000000000000000000EF2500080000000000000000EF270008AFE90008E6
:20004000B7E9000800000000B9E90008C1E90008C3E90008C5E90008C7E900080F2A000839
:2000600000000000C9E90008D3E90008DDE90008E7E90008E9E90008EBE9000800000000A6
:20008000EDE90008F7E90008F9E9000803EA000805EA000807EA000809EA00080BEA0008D3
:2000A0000DEA00080FEA000811EA000813EA00081DEA000827EA0008000000000000000010
:2000C00038B504001500C9482060616000202072022120000C3001F06FFA6561200032BD68
:2000E0003EB50400606861680968496B8847606861680968096B8847050000202900C9B276
:20010000002904D060686168096889688847C0B2002815D0200000F005F9002808D0022071
:200120006946487101A9491C200000F03AF836E001206946087101A9200000F032F82EE0B5
:20014000EDB2002D24D0200000F052F9002808D005206946C87000A9C91C200000F021F8C1
:200160001DE0200000F016FA002808D004206946887000A9891C200000F013F80FE003201C
:200180006946487000A9491C200000F00AF806E00620694608706946200000F002F80020CC
:2001A0003EBD097801727047007A7047FDB5E4B00D0001206946087201206946487200271A
:2001C000039724A88021490001F0B6FA1BA801F0CDFA686801F0DEFA04006598007801F0B0
:2001E000DBFA06006698007801F0D8FAF6B218214E43A119C0B2042250430818001D01F066
:20020000CFFA04901BAA02A9684601F0D4FA696809A86A681268526A904709A9684601F0F2
:20022000CEFA6846007A00282BD003AA02A905A801F0DDFA04A80090669B659A290007A8CA
:2002400001F077F907A905A801F0D5FA19E03800694608720AE0220024A928000C3001F098
:2002600013FA0128F3D10120694608720498001904900398001B0390686869680968496BE2
:2002800088476846007A002834D00398002831D00398FF21891C884202D38024640000E090
:2002A000039C019424A80090049B669A659968686E683668B669B047694608726846007A66
:2002C0000028D9D06846407A0028C4D0380069464872230024AA1BA928000C3001F08FF9F6
:2002E000012803D1012069460872BFE7380069460872BBE76846007A00280CD013A92800FE
:200300000C3001F0E1F9012803D101206946087201E068460772649813AA02A901F082FAB6
:2003200067B0F0BD38B596B00400606861680968C96888476946087004A8AE49242201F0BF
:2003400081FA68460078002820D06068002529006A46117104AA01A903685B69984704A88A
:20036000057070214170821C694602A801F091FA01206946C87000ABDB1C04AA21000DA825
:20038000FFF714FF0DA902A801F087FA6846007800280BD0606801216A46917004AA00A967
:2003A000891C03685B69984769460870606861680968496B88476068002421006A46517060
:2003C00000A9491C0268D26A9047002807D068460078002803D001206946087001E068469B
:2003E00004706846007817B030BD00003CF6000838B5DEB005000FA87F49242201F022FA23
:2004000000242000694608700FAA69460DA801F05CFA696820006A46507000AA521C54A898
:200420000B681B69984754A90DA801F056FA6846007800280AD00FA80078022803D201207C
:200440006946087002E02000694608706846007800286AD00FA84078C0B2702854D0782887
:2004600043D07C2832D0F82821D0FC2810D0FE2859D10FAA69460BA801F027FA0FAA29004F
:200480004AA800F065FB4AA90BA801F026FA4CE00FAA694609A801F018FA0FAA290040A851
:2004A00000F060FC40A909A801F017FA3DE00FAA694607A801F009FA0FAA290036A800F07C
:2004C000B7FC36A907A801F008FA2EE00FAA694605A801F0FAF90FAA29002CA800F05CFDE2
:2004E0002CA905A801F0F9F91FE00FAA694603A801F0EBF90FAA290022A800F0B8FD22A994
:2005000003A801F0EAF910E00FAA694601A801F0DCF90FAA290018A800F010FE18A901A88B
:2005200001F0DBF901E068460470684600785FB030BDF8B594B007000D0016000024200072
:200540006946087003A8202101F0F6F803AA694601A801F09EF9149B320039000BA8FFF759
:2005600025FE0BA901A801F098F96846007800280CD02900202203A801F0C8F9002803D18B
:2005800001206946087001E0684604706846007815B0F0BD38B596B005000DA817492422E5
:2005A00001F050F90020694608700DAA694601A801F08BF9696801246846847000AA921C46
:2005C00003A80B681B69984703A901A801F085F968460078002809D0684644700DAA00A9ED
:2005E000491C280000F00CF8694608706846007817B030BDECF2000810F3000834F3000859
:20060000F8B596B004000E001700012528006946087003A83900242201F02EF930786946B0
:20062000487068464078002816D13878002813D028006946487003AA694601A801F045F90F
:2006400000AA521C61680CA863681B681B6998470CA901A801F041F968460078002811D09C
:2006600003A8017800290AD1411C00A8401C00F045FF002803D028006946087002E0002071
:20068000694608706846007800280BD06846857000AB9B1C03AA03A8811C2000FFF749FFB2
:2006A0006946087068460078002807D003A9606862681268D26A90476946087068460078D6
:2006C00017B0F0BDF7B590B01F000024200069460872059404941198406801F05BF8050063
:2006E0001298007801F058F8182148432E183000083001F055F8069005AA02A90BA801F053
:2007000076F801256846857206A8009002AB9B1C129A11990DA800F00CFF0DA90BA801F09E
:200720006AF86846007A002834D0301D01F038F80390FFB2002F18D0300001F031F8079059
:20074000300001F02DF8070030000C3001F028F801000398019007980090380001F0E5F86D
:200760000098411801984018039004AA02A907A801F03DF820006946487203A8009002AB65
:200780005B1C129A119909A800F0D3FE09A907A801F031F86846007A002810D0300000F04F
:2007A000FFFF0499884208D3300000F0F9FF0599884202D36846057201E0684604721098D2
:2007C00005AB04AA02A901F007F913B0F0BDF7B58CB005001F000126300069460871686854
:2007E00000F0D8FF04000D98007800F0D5FF182148432018049004980C3000F0D1FF040021
:2008000004980C3000F0CCFF010038680019401E01F08BF8059004980C3000F0C1FF040098
:2008200004980C3000F0BCFF01000E9800680019401E01F07AF8069006A905A801F0E2F88F
:200840000068079034000027029702AA01A908A800F0CDFF69690AA801F060F90AA908A8B2
:2008600000F0C9FF3AE0686931006A46917000AA921C02A903681B6998476946087102E018
:200880003800694608716846007900280ED00398069988420AD214A800780090049B03AADB
:2008A0000D99280000F034FD694608716846007900280BD0686902216A46517000AA521C7A
:2008C00002A903681B699847694608710298401C0290686869680968496B88476846007933
:2008E000002800D187E002980021C943884200D181E00298079988427DD214A80078002826
:2009000005D007980299401A401E039001E0029803902000C0B200282ED0039805998842B4
:200920002AD23C0030006946C87101AAD21C02A9686901F04AF90028A5D114A800780090BC
:20094000049B03AA0D99280000F03BFC00280FD0686931006A46917101AA921C02A903682C
:200960001B699847002803D03000694608718AE738006946087186E72000C0B2002818D0E1
:200980003C0030006946C87000AAD21C02A9686901F01BF9002800D075E7686931006A46E5
:2009A00011706A4602A903681B6998476946087169E703980599884200D354E714A80078D0
:2009C0000090049B03AA0D99280000F0FAFB002800D155E7686931006A46517101AA521CC6
:2009E00002A903681B699847002800D148E730006946087147E7684600790FB0F0BDF1B597
:200A0000A8B00F001500002630006946087134000CA82900242200F02FFF68787C2801D111
:200A2000012500E0350003960296786901F0FEF8694608716846007900280CD130200CA929
:200A40004870786831006A4691700CAA00A9891C03685B69984768460079002817D003AB26
:200A600002AA01A906A801F02AF92B00DBB20CAA390009A8FFF726FE09A906A801F023F97F
:200A800068460079002801D1012400E034006846007900280AD02800C0B2009003AB02AA4F
:200AA0000CA93800FFF793FE694608716846007900283AD02800C0B2002801D0782000E036
:200AC000F8200CA94870300023228854EDB2002D20D0087800281DD11FAA01A904A800F0DF
:200AE000F4FE796801206A46507000AA521C15A80B681B69984715A904A800F0EEFE6846F3
:200B00000079002806D00CA8801C1FA9891C202200F0B2FE786869460E700CAA69460368E2
:200B20005B699847694608710BE02000C0B2284207D030200CA94870786979690968C9680A
:200B4000884728980CAA01A901F0D5F829B0F0BDF5B5B1B00E000AA83299242200F08CFE0C
:200B6000706800F017FE03900AAC207800F014FE0399C0B2182250430818083000F010FE84
:200B80000590207800F008FE0399C0B2182250430818001D00F004FE049000252800694698
:200BA000087202AB0AAAA11C3000FFF7C2FC694608706846007800280AD005AB04AA329941
:200BC000706977693F68BF68B8476946087011E028002321605428006070802022216054C8
:200BE000706829006A46D1710AAA01A9C91C03685B69984768460078002829D03298007828
:200C0000002825D127AA694608A800F05EFE7168012738006A46907101AA921C1DA80B68BF
:200C20001B6998471DA908A800F057FE6846007800280DD0280027A94870706869464F7174
:200C400027AA01A9491C03685B699847694608706846007800280FD0FC20607028002321FA
:200C60006054706829006A4611710AAA01A903685B6998476946087068460078002820D0BC
:200C80000AAA694606A800F020FE0AAA310013A8FFF7B5FE13A906A800F01FFE684600784F
:200CA00000280ED1601C00F017FC002809D0706829006A46D1700AAA00A9C91C03685B694A
:200CC000984768460078002837D0207800F064FD1821484303990F183800143000F060FDA7
:200CE000002803D101206946087002E02800694608706846007800280FD13800143000F0E5
:200D00004FFD2321615C814207D22320205C401C2321605401206946087068460078002841
:200D20000BD0706829006A4691700AAA00A9891C03685B69984769460870684600780028A1
:200D400009D0684645700AAA00A9491C3000FFF757FC6946087031980AAA694600F0CBFF0F
:200D600033B0F0BDF0B597B007000D00110004A8242200F081FD002420006946087004AA59
:200D8000694602A800F0A1FD04AA29000DA8FFF736FE0DA902A800F0A0FD6846007800287B
:200DA00030D0686800F0F6FC019004AE307800F0F3FC18214843019908182321715C491CC3
:200DC0002322B154143000F0EBFC00280BD0686821006A46D17004AA00A9C91C03685B695E
:200DE00098476946087068460078002819D06846847004AA00A9891C2800FFF701FC69464E
:200E000008700EE004A8401C00F066FB002808D0686869464C7004AA00A9491C03685B69ED
:200E20009847380004AA694600F065FF17B0F0BDF1B5A6B00E00110001206A46107009A859
:200E4000242200F019FD706800F0A4FC070009AC207800F0A1FC182148433D182800143078
:200E600000F09EFC002807D02800143000F098FC2321615C81425ED3207800F08DFC0100F2
:200E800003A8C9B2182251437918182200F0F4FC059802900498039947180398069900F0C3
:200EA00044FD7818019002AB01AA09A9706977693F68BF68B84769460870684600780028CB
:200EC00010D07C206070802022216054706800216A46D17009AA00A9C91C03685B699847F6
:200EE0006946087068460078002824D009AA694605A800F0EAFC09AA31001CA8FFF77FFD8A
:200F00001CA905A800F0E9FC68460078002812D1601C00F0E1FA00280DD009AA864903A8E0
:200F200000F0FAFE09AA310012A800F099FA12A903A800F0F5FE68460078002816D02320E8
:200F4000205C401C232160542800143000F028FC00280BD0706800216A46917009AA00A938
:200F6000891C03685B699847694608706846007800280AD000206946487009AA00A9491C27
:200F80003000FFF73DFB69460870269809AA694600F0B1FE27B0F0BDF8B5A2B007000C0077
:200FA000150001206946087005A82900242200F063FC05AA694603A800F087FC2A002100A2
:200FC00018A8FFF71CFD18A903A800F086FC68460078002830D0606800F0DCFB050005AECF
:200FE000307800F0D9FB1821484328182321715C491C2322B154143000F0D2FB00280BD0BD
:20100000606800216A46917005AA00A9891C03685B699847694608706846007800281FD0C7
:2010200000206946487005AA00A9491C2000FFF7E7FA6946087013E005A8401C00F04CFA1C
:2010400000280DD005AA3C4901A800F065FE05AA21000EA800F004FA0EA901A800F060FE39
:20106000380005AA694600F046FE23B0F0BDF2B596B007001100012528006A46107003A8F8
:20108000242200F0F9FB1698406800F083FB060003AC207800F080FB182148433618300068
:2010A000143000F07DFB002807D03000143000F077FB2321615C814213D31020607003AA58
:2010C0001D4901A800F028FE03AA16990CA800F0C7F90CA901A800F023FE00206946087075
:2010E00022E02320205C401C2321605416984068002421006A46517003AA00A9491C0368A9
:201100005B69984700280DD020006946887003AA00A9891C1698FFF773FA002802D06846AC
:20112000057001E068460470380003AA694600F0E2FD17B0F0BD00002E3C0008F8B58AB007
:2011400005000E001100012738006A46107001A8242200F091FB01AC207800280AD1706850
:2011600069468F7001AA00A9891C03685B6998476946087068460078002814D0FF20607072
:201180002220205CE02802D1C02022216054706800216A46517001AA00A9491C03685B698D
:2011A00098476946087068460078002802D03000FFF7F0F9280001AA694600F09CFD0BB034
:2011C000F0BDF6B5C7B004000E001D004E98C0B2002802D0489807681BE048980068002805
:2011E00014D1280000F0DCFA070028000C3000F0D7FA009028000C3000F0D2FA01000098A7
:201200003818401E00F091FB070002E0489807687F1E0696039428000C3000F0C1FA040089
:20122000281D00F0BDFA67433818049028000C3000F0B6FA04002800083000F0B1FA489950
:2012400009686143081805900398446800206946087128000C3000F0A3FA0090049B01AA6A
:20126000069920002468246AA04704002000C0B2002849D028000C3000F092FA060007A842
:201280008021490000F058FA31E0002421E0350003984068012469460C72019507A900914B
:2012A000059B02AA06990768BF69B8470028ECD00398406800216A465172019507A900911B
:2012C000049B02AA521C06990768FF69B8470028DBD0049840190490059840190590761B68
:2012E00003984068039949680968496B88472000C0B2002808D0002E06D0FF20801C864251
:20130000C5D380256D00C3E72000C0B249B0F0BDF6B5C7B004000E001D004E98C0B2002870
:201320001CD048980068002803D0489807687F1E16E0280000F034FA070028000C3000F0FB
:201340002FFA009028000C3000F02AFA010000983818401E00F0E9FA070001E0489807680B
:201360000696039428000C3000F01AFA0400281D00F016FA67433818059028000C3000F0A6
:201380000FFA04002800083000F00AFA4899096861430818049003984468012069460871B2
:2013A00028000C3000F0FCF90090049B01AA069920002468246AA04704002000C0B200288C
:2013C0004AD028000C3000F0EBF9060007A88021490000F0B1F932E023E0350003984068F5
:2013E000002421006A461172019507A90091059B02AA06990768BF69B8470028ECD003989E
:20140000406801216A465172019507A90091049B02AA521C06990768FF69B8470028DBD0B7
:201420000124059840190590049840190490761B03984068039949680968496B884720003E
:20144000C0B2002808D0002E06D0FF20801C8642C3D380256D00C1E72000C0B249B0F0BD0B
:2014600078B593B006000C00110001256846057001A8242200F000FA68460079002814D183
:201480000AA801A9242200F0DDF90AA8801C202100F050F9606869468D700AAA00A9891CA6
:2014A00003685B699847694608706846007800280BD0606800216A46517001AA00A9491CBB
:2014C00003685B69984769460870300001AA694600F011FC14B070BD00B50178302908D000
:2014E0000178102905D00178FF2902D00078002801D1012000E00020C0B200BD00B5027801
:20150000012A06D10878702801D101200FE000200DE00078002809D10878F82802D0087856
:20152000782801D1012002E0002000E00020C0B200BDFCB587B006000C000E9F00252800F3
:201540006946087102AA01A903A800F050F90097089B079A616805A867683F68BF6AB8473A
:2015600005A903A800F047F968460079002819D00298002814D0606800F00CF904000798A4
:20158000007800F009F9C0B218214843201800F007F90299884203D301206946087101E01E
:2015A00068460571300002AA01A900F0D2FB09B0F0BD8160C260704738B505000C002C700A
:2015C00000200100697068600C2000F0D3FB68606868002802D0686800F0D4FC280032BD26
:2015E00010B504006068002807D0606800F0D5FC606800F017FC00206060200010BDFEB587
:2016000004000F001120694608706068002801D10E2032E0019800282ED06078002801D0CD
:2016200002202AE02078012801D1154900E015490122606800F0D2FC0500002D0ED138005D
:201640003968496888470600380039680968884732000100606800F0E4FC0500002D07D175
:2016600001206070029A0199606800F054FD0500280000F0B3FD00E00520C0B2FEBD00003B
:2016800090F00008C0F00008F8B504000D0017001120694608706068002801D10E2011E0FC
:2016A000002D0ED06078002809D03A002900606800F031FD0600300000F090FD02E0032045
:2016C00000E00520C0B2F2BDF8B504000F001120694608706068002801D10E2511E0002FB7
:2016E0000ED06078002809D03900606800F029FD0600300000F072FD050002E0032500E098
:201700000525606800F049FC002060702800C0B2F2BD00001206130A1A43130C1A4300BF9C
:20172000094205D0830709D00270401C491EF9D1704700000022F3E70022FFE71300103910
:2017400006D330B41400150010393CC0FCD230BC490700D30CC000D504C0890002D302803C
:20176000801C002900D502707047000010B50400200000F0ADFD03482060200000F0AEFD9D
:20178000200010BD90F5000880B500F001F802BD4160704740687047C0B27047C0B27047E9
:2017A000C3788278417800781B021A430902120408431043704780B500F099FD01BD38B56D
:2017C00005000C002000243000F09EFD007869680870200000F099FD00F098FD04002800E1
:2017E00000F095FD210000F093FD280032BD80B500F0A2FD01BD38B505000C00201D00F002
:2018000083FD007869680870200000F0A2FD00F0A1FD0400280000F09EFD210000F09CFDE9
:20182000280032BD70B504000D00100000F0A7FD0600280000F0A4FD32000100200000F0B5
:20184000A0FD70BD70B4103A03D378C9103A78C0FBD2530701D318C918C001D508C908C094
:20186000D20704D30B880380891C801C002A01D50B78037070BC70478B0701D18307E1D0E9
:20188000124205D00B78491C0370401C521EF9D1704780B500F089FD01BD38B505000C0010
:2018A0002000203000F030FD007869680870200000F088FD00F087FD0400280000F084FD34
:2018C000210000F082FD280032BD38B50D0014002200290000F08EFD31BD70B504000D0069
:2018E0002800243000F010FD007861680870280000F08EFD00F08DFD0600200000F08AFDFC
:20190000310000F088FD200070BD0000A446521E08D303780C78401C491CA342F7D0181B00
:20192000644670470020644670470022030A8B420BD203098B4219D243088B422ED2411AB5
:2019400000D20146524110467047FF2209023FD012068B4205D3121209028B4201D31212E2
:20196000090203098B4219D300E0090AC3098B4201D3CB01C01A524183098B4201D38B0145
:20198000C01A524143098B4201D34B01C01A524103098B4201D30B01C01A5241C3088B4276
:2019A00001D3CB00C01A524183088B4201D38B00C01A524143088B4201D34B00C01A524153
:2019C000884200D3401A5241CFD201461046704708B500F035FD08BDF8B506000F0014000E
:2019E000180000F02EFD0500200000F02AFD0400380000F0C5FC2B0022000100300000F01D
:201A000021FDF1BD00B502680B689A4201D20800FFE700BD10B504009C4820606160200000
:201A200008309B490922FFF727FF00206074200010BD40687047F3B58DB0040017001E00E5
:201A400000252800694608710395029520002168C968884703AA01A909A800F00DFD61686E
:201A600028006A469071009701AB9B1C0E9A0BA80F68BF6AB8470BA909A800F001FD684698
:201A80000079002814D002AA01A905A800F0F4FC616801206A465071009601AB5B1C0E9A22
:201AA00007A80E68B66AB04707A905A800F0E8FC68460079002824D06068FFF76BFE060049
:201AC0000E980078FFF768FEC0B21821484330180C30FFF765FE060003988019401E3100B0
:201AE000FFF723FF009002988019401E3100FFF71CFF049004A96846FFF784FF0068A0609B
:201B0000E560607C002805D168460079002801D001206074684600790FB0F0BD1FB58A6838
:201B2000002A03D001226B461A7002E000226B461A7004000A000C32694601A800F0B7FCC4
:201B400001A9200000F0C3FC1FBD70B5040015000868E168884204D12878032801D20120DB
:201B600000E000200100C9B200290DD0207C00F0BEFC0600F6B2761C287800F0B8FC864251
:201B800001D1012000E000200100C9B2002911D029782174217C02290CD1E168A2689142CB
:201BA00005D2E168491CE1600021217402E00021C943E160617C002905D10100C9B20029D8
:201BC00001D001216174C0B270BD70B50300002420000D689E68B5421BD21578002D18D031
:201BE0001578032D15D20868DD68A84201D2012000E020000500EDB2002D0AD10968DD684C
:201C0000A94206D1187C1178884201D3012000E02000C0B270BD10B50400200008301D4900
:201C20000922FFF729FE0120607410BD00B58068002801D0012000E00020C0B200BD38B5C7
:201C400086B00400002528006946087022000832694601A800F04DFC2000FFF7EAFE0100EA
:201C600003A80A68D26B904703A901A800F045FC68460078002805D12000083006490922B7
:201C8000FFF7FAFD657407B030BD000084F400080CF7000818F7000824F7000810B504004C
:201CA0000120617C002908D02000FFF7C2FE210008310268926B90476074C0B210BD80B56F
:201CC00000F033FC01BD38B505000C002000083000F01AFB0078A9680870200000F034FC8B
:201CE00000F033FC0400280000F030FC210000F02EFC280032BDF8B504000F00150028002E
:201D000000F03CFC0600380000F03AFB32000100200000F034FCF1BD80B500F045FC01BDF3
:201D200038B505000C002000243000F0EDFA0100686800F046FC200000F06AFB00F069FB8E
:201D40000400280000F03EFC210000F064FB280032BDF8B504000F001500280000F071FB4D
:201D60000600380000F00CFB32000100200000F02AFCF1BDFEB5060000250295664800688C
:201D8000002801D100F06BF8644800683040002846D1002E07D008360720064203D031007D
:201DA000083130400E1A002E3AD05D4F3868B04236D35C480090006804006068B04205D2A2
:201DC0002068002802D000942468F6E752480068844225D0009800680830029020680099DC
:201DE00008606068801B112809D3A01901906068801B019948606660019800F05DF83868D0
:201E00006168401A3860484839680268914201D23968016060684149096801436160256077
:201E20000298FEBD70B505002E00002D16D0083E34003A48616802680A40002A0ED02168D8
:201E400000290BD1616800688143616034480168626889180160200000F02EF870BD70B58E
:201E60008021C900314A100043075B0F002B04D0C01D07239843091A89180200294C22601B
:201E8000002363605418083C0725AC43224D2C602E6873602E6833601300E61A5E602D689E
:201EA0001D605D68204E35605D681D4E356080252D061A4E356070BD30B51A490A68824298
:201EC00001D20968FAE70A004B68D318834204D14B6844681B194B600800030044681C1971
:201EE0000D68AC4210D10C4A0C681568AC4208D042680C686468121942600A68126802608C
:201F000004E01268026001E00A680260814200D0086030BD000000004C1D0020581D002046
:201F2000501D00202C1D0020541D0020B0100020F8B504000E0080204002844201D2864238
:201F400001D3002017E0270077433800FFF712FF0500002D01D100200DE03B0000223900CF
:201F6000280000F045FB002801D1280003E02800FFF758FF0020F2BD10B504002000FFF7E1
:201F800051FF10BDF8B504000C2500262700320029003800FFF7BEFBF1BD10B50400002C10
:201FA00002D02068002800D117E06068002803D060682168496A8847A068002809D02068B0
:201FC000C16802204143A06800F03CFBA068FFF7D3FF0C21200000F035FB10BD70B50400D0
:201FE0000D001600002D01D0002C01D1784817E0286A80476060002801D1764810E0002E1C
:202000000CD0E9680220FFF793FFA060A068002804D16068696A88476E4801E0256000203E
:2020200070BDF8B598B005000E001700002D05D02868002802D0A868002801D1664868E0C8
:202040002868C068B8421CD268682968096988470090002858D13A00310068682B685B69CB
:202060009847009000284FD108A968682A68926990470090002847D128688068070008A8C5
:202080000600A8680190A8682968C968401802902868C06807903620069001980390069AD6
:2020A00007990398FFF736FB03982868C06805905C20049002980390049A05990398FFF7CC
:2020C00029FB039800200400BC420DD20198005D315D4140019801550298005D315D414046
:2020E00002980155641CEFE768682968096988470090002808D12868C268019968682B68B0
:202100005B69984700900028402108A800F09AFA009819B0F0BD70B504000E001500002C49
:2021200005D02068002802D0A068002801D12A4805E02A003100606823685B69984770BD71
:202140000000F8B592B004000D00002C05D02068002802D0A068002801D11F4834E0A06877
:202160002168C9684018009002A960682268926990470600002801D0300025E06068216869
:20218000096988470190002801D001981CE02068C2680099606823685B699847070000286F
:2021A00001D0380010E02068826802A9606823685B6998470600002801D0300004E02900D7
:2021C000606822689269904713B0F0BD0000000000AFFFFF80AEFFFF00AFFFFF00B501002F
:2021E0000800002858D0384A801A63D080225200801A63D080385FD0803857D080225200BD
:20220000801A59D080384FD080384FD080384FD0803853D080225200801A43D080383DD035
:20222000803847D0294A801A3ED0801E46D0801E42D0801E32D0801E30D0801E3CD0801ECA
:202240003AD024383CD0C01E34D0401E34D0401E30D0401E30D0801E32D00F382AD0801E8D
:2022600024D0401E1AD0401E26D0401E18D00C3822D0401E1ED0401E1AD0801E1ED0801E94
:202280001AD0801E18D0801E16D0801E0CD0801E12D0801E10D015E0012014E00B2012E0AB
:2022A0000C2010E00D200EE00F200CE006200AE0042008E0082006E0052004E00E2002E089
:2022C000102000E0112000BD80ADFFFF144B000010B50400200000F0C1F910BD10B504004D
:2022E000202300222021201D00F082F910BD38B504000D001100200000F0B1F92900201D94
:2023000000F0B1F9200032BD704770477047704738B504000D00280000F0AEF901002068F2
:2023200000F0ABF9280000F0B6F900F0B5F9200000F0B3F9200032BD38B504000D001100CA
:20234000200000F0ABF92900201D00F08CF9200032BD70477047704738B504000D00280094
:2023600000F0A0F9006821680860280000F09BF900F092F9200000F097F9200032BD7047EE
:20238000704738B504000D001000FFF7F8FF0100200000F08AF92800FFF7F2FF01002000C7
:2023A000203000F086F9200032BD38B504000D001100200000F087F92900201D00F053F90E
:2023C000200032BD70477047704738B504000D00280000F07CF9010020682022FFF74CFA37
:2023E000280000F075F900F057F9200000F071F9200032BD70B504000D00160031002000F1
:2024000000F068F92900201D00F02DF9200070BD70477047704738B504000D00280000F067
:202420005FF9010020682422FFF726FA280000F058F900F031F9200000F054F9200032BD70
:2024400070477047F8B504000F0015001800FFF7F8FF06002800FFF7F4FF320001002000CA
:2024600000F041F93800FFF78BFF01002000083000F01FF92000F2BD80B500F038F901BD36
:2024800038B505000C00201DFFF73EFF0078696808702000FFF75DFFFFF75CFF040028001E
:2024A00000F032F9210000F030F9280032BD70B504000D001000FFF7C4FF06002800FFF78D
:2024C00023FF32000100200000F032F970BD38B505000C002100280000F03DF9201DFFF79F
:2024E00013FF0100281D00F03AF9280032BDC0B2704780B500F03CF901BD38B505000C000B
:2025000020000930FFF700FF007869680870200000F03BF900F03AF90400280000F037F9F9
:20252000210000F035F9280032BD38B504000D0011001A00200000F040F929002000083052
:2025400000F091F8200032BD70477047704738B505000C00201D00F0A5F800686968086065
:20256000200000F02EF9FFF7F5FE0400280000F029F92100FFF7F0FE280032BD704770B505
:2025800004000D0016003000FFF7F8FF0100200000F019F92800FFF7F3FE01002000243050
:2025A00000F087F8200070BD38B504000D001100200000F08FF82900201D00F00AF9200040
:2025C00032BD7047704770B504000D0016003000FFF737FF0100200000F003F92800FFF7CB
:2025E000CFFE0100201D00F064F8200070BDFEE710B50C001900002803D080231B069C42CB
:2026000003D309487844203007E0994201D28C4206D22100FFF77EF804A000F0E9F810BD7D
:20262000FFF778F8002010BD54CD00006D656D6370795F733A2062616420617267756D65A7
:202640006E74000038B505000C00220000212800014B1B68984731BD54000020704780B533
:2026600000F0EAF802BD38B505000C002000FFF787FE2860280032BD704738B504000D00DC
:202680002900200000F0DFF8201D291D2022FFF7F3F8200032BD70477047704780B500F02B
:2026A000D3F802BD70477047704780B500F0D3F802BD38B505000C002000FFF761FE0078D1
:2026C0002870280032BD80B500F0D0F802BD70477047704710B50400200000F0CEF810BD0E
:2026E00070477047704780B500F0D0F802BD38B504000D001100200000F0DBF82900201DB1
:20270000FFF7B1FF200032BD704738B504000D002800FFF7C7FF0068216808602800FFF7F4
:20272000C2FFFFF7B9FF200000F0C7F8200032BD38B504000D001000FFF783FE01002000A6
:2027400000F0BCF82800FFF7DFFD0100201D00F006F8200032BD80B500F0B4F802BD10B54B
:2027600004000800FFF7D0FD00782070200010BD38B504000D001100200000F0AEF82900A7
:20278000201DFFF770FF200032BD70477047704738B504000D00280000F0A3F80100206829
:2027A0000922FFF769F8280000F09CF8FFF774FF200000F098F8200032BD80B500F094F822
:2027C00002BD7047704710B50400200000F099F810BD10B50400080000F09FF8206020009D
:2027E00010BD10B50400200000F098F810BDFEE780B5002801D100BF07A006490B68002B6F
:2028000003D022220021984701E000F093F8222002BD0000641D0020636F6E737472616940
:202820006E742068616E646C65723A20626164206D6573736167650010B50400200000F059
:202840007EF8200010BD704710B50400200000F07EF8200010BD10B504000800FFF78FFDCF
:202860000100200000F07BF8200010BD10B50400200000F080F8200010BD38B505000C00AB
:202880002100280000F07FF8280032BD38B504000D001000FFF7D5FD01002000FFF7A1FFE4
:2028A0002800FFF7CEFD0100201D00F075F8200032BD80B500F07AF802BD704780B500F053
:2028C0007CF802BD10B50400080000F081F80100200000F07EF8200010BD80B500F083F877
:2028E00002BD70477047704738B504000D0011002000FFF7D3FE2900201D00F028F8200068
:2029000032BD38B504000D002800FFF737FE0100200000F06FF8200032BD704738B5040048
:202920000D002800FFF78DFD0100200000F034F8200032BD80B5012000F06AF801BD10B56B
:202940000400080000F06EF82060200010BD10B504000800FFF775FD2060200010BD10B53D
:2029600004000800FFF70BFD010020002022FEF783FF200010BD10B504000800FFF7FFFCC4
:202980002060200010BD38B505000C002000FFF7F5FD2860280032BD38B505000C00200007
:2029A000FFF74FFD00682860280032BD10B50400200000F038F8200010BD10B50400080007
:2029C000FFF73FFD0100200000F035F8200010BD704710B504000800FFF7FAFFFEF7E0FE50
:2029E0002060200010BD10B50400200000F02FF8200010BD38B504000D002800FFF7BEFDA6
:202A0000010020002422FEF737FF200032BDFEE780B500BF00BF024A11001820ABBEFBE79D
:202A200026000200704710B50400080000F017F82060200010BD10B504000800FFF701FDB5
:202A4000FEF7AEFE210000F00BF8200010BD10B50400080000F00EF82060200010BD7047E9
:202A600084460870000A4870000A8870000AC8706046704770470000F8B504006C25002692
:202A80002700320029003800FEF744FEF1BD10B50400002C03D06C212000FFF7D3FD10BD8F
:202AA00038B504000D00200029006C22FEF7CAFE31BD00B50200002010605060002910D195
:202AC000114890601148D0601148106111485061114890611148D0611148106211485062A6
:202AE0000FE0114890601148D0601148106111485061114890611148D06111481062114849
:202B000050629166002000BD67E6096A85AE67BB72F36E3C3AF54FA57F520E518C68059B24
:202B2000ABD9831F19CDE05BD89E05C107D57C3617DD703039590EF7310BC0FF1115586878
:202B4000A78FF964A44FFABEF3B5CAB0002108290AD24A9804224A438018806801AA042300
:202B60004B43D050491CF2E7002010281ED24B9904224243895C09064B9A04234343D21822
:202B8000527812040A434B9904234343C9188978090211434B9A04234343D218D2780A4323
:202BA0000AA904234343CA50401CDEE70021102900D339E2004801E0F0E70008089A059BE8
:202BC0000624059DE341059C0B25059EEC415C40059B1925059EEB416340D218079B059C4B
:202BE000069D079E6E4026405E40921904234B43C358D2180AAB04244C431B59D21800921A
:202C0000019B0222019CD341019A0D24019DE2415A40019B1624019DE3415340019A029CB8
:202C20001440039A019D029E2E43164026439A190992049A009BD2180492009A099BD21806
:202C400008920AAA079D049B0624049EE341049C0B26049FF4415C40049B1927049EFB41F1
:202C60006340EB18069C049D059E069F77402F406740DB1904244C43041964681B19042466
:202C80004C43141964681B190093089B0224089DE341089C0D25089EEC415C40089B162530
:202CA000089EEB416340089D019C2C40029D089E019F37432F402743DB190993039B009CEF
:202CC0001B190393009B099C1B190793069D039B0624039EE341039C0B26039FF4415C40A9
:202CE000039B1927039EFB416340EB18059C039D049E059F77402F406740DB1904244C4374
:202D00000419A4681B1904244C431419A4681B190093079B0224079DE341079C0D25079E95
:202D2000EC415C40079B1625079EEB416340079D089C2C40019D079E089F37432F40274388
:202D4000DB190993029B009C1B190293009B099C1B190693059D029B0624029EE341029C09
:202D60000B26029FF4415C40029B1927029EFB416340EB18049C029D039E049F77402F40A8
:202D80006740DB1904244C430419E4681B1904244C431419E4681B190093069B0224069DE3
:202DA000E341069C0D25069EEC415C40069B1625069EEB416340069D079C2C40089D069E64
:202DC000079F37432F402743DB190993019B009C1B190193009B099C1B190593049D019B21
:202DE0000624019EE341019C0B26019FF4415C40019B1927019EFB416340EB18039C019D0D
:202E0000029E039F77402F406740DB1904244C43041924691B1904244C43141924691B1975
:202E20000093059B0224059DE341059C0D25059EEC415C40059B1625059EEB416340059D45
:202E4000069C2C40079D059E069F37432F402743DB190993089B009C1B190893009B099C47
:202E60001B190493039D089B0624089EE341089C0B26089FF4415C40089B1927089EFB413E
:202E80006340EB18029C089D019E029F77402F406740DB1904244C43041964691B1904244B
:202EA0004C43141964691B19049D0224049EE541049C0D26049FF4416C40049E1625049FEF
:202EC000EE416640049C059F2740069DAC46049D059C2C4365462C403C4334190994079C09
:202EE000E4180794099C1C190394029F079C0625079EEC41A446079D0B26079CF541644647
:202F00006540AC46079D1926079CF541644665407E19019F079DAC46089D019C6C406546A9
:202F20002C407C40341904254D434519AD69641904254D435519AD696419039D0226039F4E
:202F4000F541AC46039E0D27039DFE4165466E40B446039E1627039DFE4165466E40009696
:202F6000039D049F2F40059EB446039E049D3543664635403D43009E75190995069D2D19F4
:202F80000695099D65190295019D0095069D0627069EFD41AC46069E0B27069DFE416546A1
:202FA0006E40B446069E1927069DFE4165466E40009DAE190096089F069EB446079E089DC1
:202FC0007540664635407D40009E751904264E438019C069281804254D435219D26980187E
:202FE000009002980222029DD041029A0D25029EEA41424002981625029EE8415040029DEB
:20300000039A2A40049D029E039F37432F401743C01909900598009A801805900098099A72
:20302000801801900831C2E51020402801D300F09EFC0AA9042242438A18083A12681123A1
:20304000042444430C19083C2468DA4104234343CB18083B1B681324042545434D19083DC8
:203060002D68E3415340042242438A18083A1268920A5A4004234343CB181C3B1B68D31870
:20308000042242438A183C3A12680724042545434D193C3D2D68E241042444430C193C3C34
:2030A00024681225042646438E193C3E3668EC415440042242438A183C3A1268D208624061
:2030C0009A1804234343CB18403B1B68D2180AAB042444431A51014A02E000BFF0E700082C
:2030E000089D059B0624059EE341059C0B26059FF4415C40059B1927059EFB416340EB18EE
:20310000079C059D069E079F77402F406740DB190424444314591B190AAC042545436459EB
:203120001B190093019B0224019DE341019C0D25019EEC415C40019B1625019EEB416340C8
:20314000019D029C2C40039D019E029F37432F402743DB190993049B009C1B190493009B63
:20316000099C1B19089304234343CB181B1F1B681124042545434D192D1F2D68E341042415
:2031800044430C19241F24681325042646438E19361F3668EC415C4004234343CB181B1F9C
:2031A0001B689B0A6340042444430C19183C24681E1904234343CB18383B1F68072304247D
:2031C00044430C19383C2468DF4104234343CB18383B1D681223042444430C19383C246892
:2031E000DD417D4004234343CB18383B1B68DB086B40F318042444430C193C3C24681B19C9
:20320000042444430C196360079D049B0624049EE341049C0B26049FF4415C40049B1927C0
:20322000049EFB416340EB18069C049D059E069F77402F406740DB19042444431419646816
:203240001B19042444430C1964681B190093089B0224089DE341089C0D25089EEC415C40FC
:20326000089B1625089EEB416340089D019C2C40029D089E019F37432F402743DB19099385
:20328000039B009C1B190393009B099C1B1907930AAB042444431E5911230AAC04254543A6
:2032A0006459DE410AAB042444431C5913230AAD04274743ED59DC4174400AAB042545433A
:2032C0005B599B0A6340042444430C19143C24681E1904234343CB18343B1F680723042433
:2032E00044430C19343C2468DF4104234343CB18343B1D681223042444430C19343C24687D
:20330000DD417D4004234343CB18343B1B68DB086B40F318042444430C19383C24681B19AF
:20332000042444430C19A360069D039B0624039EE341039C0B26039FF4415C40039B192765
:20334000039EFB416340EB18059C039D049E059F77402F406740DB19042444431419A468BA
:203360001B19042444430C19A4681B190093079B0224079DE341079C0D25079EEC415C409F
:20338000079B1625079EEB416340079D089C2C40019D079E089F37432F402743DB1909935B
:2033A000029B009C1B190293009B099C1B19069304234343CB185B681124042545434D195F
:2033C0006D68E341042444430C1964681325042646438E197668EC415C4004234343CB188B
:2033E0005B689B0A6340042444430C19103C24681E1904234343CB18303B1F68072304240B
:2034000044430C19303C2468DF4104234343CB18303B1D681223042444430C19303C246867
:20342000DD417D4004234343CB18303B1B68DB086B40F318042444430C19343C24681B1996
:20344000042444430C19E360059D029B0624029EE341029C0B26029FF4415C40029B19270A
:20346000029EFB416340EB18049C029D039E049F77402F406740DB19042444431419E4685E
:203480001B19042444430C19E4681B190093069B0224069DE341069C0D25069EEC415C4042
:2034A000069B1625069EEB416340069D079C2C40089D069E079F37432F402743DB19099339
:2034C000019B009C1B190193009B099C1B19059304234343CB189B681124042545434D1901
:2034E000AD68E341042444430C19A4681325042646438E19B668EC415C4004234343CB18AA
:203500009B689B0A6340042444430C190C3C24681E1904234343CB182C3B1F6807230424B1
:2035200044430C192C3C2468DF4104234343CB182C3B1D681223042444430C192C3C246852
:20354000DD417D4004234343CB182C3B1B68DB086B40F318042444430C19303C24681B197D
:20356000042444430C192361049D019B0624019EE341019C0B26019FF4415C40019B1927AE
:20358000019EFB416340EB18039C019D029E039F77402F406740DB19042444431419246901
:2035A0001B19042444430C1924691B190093059B0224059DE341059C0D25059EEC415C40E4
:2035C000059B1625059EEB416340059D069C2C40079D059E069F37432F402743DB1909931F
:2035E000089B009C1B190893009B099C1B19049304234343CB18DB681124042545434D1993
:20360000ED68E341042444430C19E4681325042646438E19F668EC415C4004234343CB18C8
:20362000DB689B0A6340042444430C19083C24681E1904234343CB18283B1F680723042458
:2036400044430C19283C2468DF4104234343CB18283B1D681223042444430C19283C24683D
:20366000DD417D4004234343CB18283B1B68DB086B40F318042444430C192C3C24681B1964
:20368000042444430C196361039D089B0624089EE341089C0B26089FF4415C40089B19272B
:2036A000089EFB416340EB18029C089D019E029F77402F406740DB19042444431419646995
:2036C0001B19042444430C1964691B190093049B0224049DE341049C0D25049EEC415C4087
:2036E000049B1625049EEB416340049D059C2C40069D049E059F37432F402743DB19099305
:20370000079B009C1B190793009B099C1B19039304234343CB181B691124042545434D1933
:203720002D69E341042444430C1924691325042646438E193669EC415C4004234343CB18E4
:203740001B699B0A6340042444430C19241F24681E1904234343CB18243B1F6807230424FB
:2037600044430C19243C2468DF4104234343CB18243B1D681223042444430C19243C246828
:20378000DD417D4004234343CB18243B1B68DB086B40F318042444430C19283C24681B194B
:2037A000042444430C19A361029D079B0624079EE341079C0B26079FF4415C40079B1927D0
:2037C000079EFB416340EB18019C079D089E019F77402F406740DB19042444431419A46931
:2037E0001B19042444430C19A4691B19039D0224039EE541039C0D26039FF4416C40039EFD
:203800001625039FEE416640039C049F2740059DAC46039D049C2C4365462C403C43341927
:20382000069DED1806951D190295042545434D196D691127042646438E197669FD41AC46EA
:20384000042545434D196E691327042545434D196D69FE4165466E40042545434D196D69CE
:20386000AD0A75400AAE04274743F659AE190096042545434D19203D2D68072704264643D9
:203880008E19203E3668FD41AC46042545434D19203D2E681227042545434D19203D2D6809
:2038A000FE4165466E40042545434D19203D2D68ED087540009E7519042646438E19243ED5
:2038C0003668AD19042646438E19F561019D0095069D0627069EFD41AC46069E0B27069D84
:2038E000FE4165466E40B446069E1927069DFE4165466E40009DAE190096089F069EB446D8
:20390000079E089D7540664635407D40009E7519042646439219D269AA1804254543491930
:20392000C9695118009102990222029DD141029A0D25029EEA414A4002991625029EE94128
:203940005140029D039A2A40049D029E039F37432F401743C91909910599009A891805911F
:203960000099099A891801910830FFF75EFB0021082910D24A9804224A438018806801AA5D
:2039800004234B43D25880184A9A04234B43D2189060491CECE700204CB0F0BDF0B585B062
:2039A00006000D001400002C01D1002050E030788006800E009040200099401A01903068CA
:2039C00000193060306830603068A04202D27068401C7060009800281ED0019884421BD3C9
:2039E0000198049003950098301807002837049A03993800FDF740FF310028313000FFF767
:203A0000A3F80290002801D0029821E001982D180198241A00200090402C0BD329003000DD
:203A2000FFF792F80290002801D0029810E04035403CF1E7002C0AD0049403950098301812
:203A400007002837049A03993800FDF715FF002005B0F0BDF8B584B004000D0020788006F4
:203A6000800E802122182823D154401C0090009839280ED238200099401A0290002600980D
:203A8000201807002837320002993800FDF742FE21E040200099401A039000260296009812
:203AA000201807002837029A03993800FDF732FE210028312000FFF747F80190002801D07B
:203AC00001988FE03827029626002836029A39003000FDF71FFE2068400F6168CE00064396
:203AE0002068C700300E602160543000000C61216054300A62216054300063216054380E73
:203B0000642160543800000C65216054380A66216054380067216054210028312000FFF76D
:203B200013F80100002801D008005BE0A068000E2870A068000C6870A068000AA870A06871
:203B4000E870E068000E2871E068000C6871E068000AA871E068E8712069000E287220692B
:203B6000000C68722069000AA8722069E8726069000E28736069000C68736069000AA873BF
:203B80006069E873A069000E2874A069000C6874A069000AA874A069E874E069000E2875D5
:203BA000E069000C6875E069000AA875E069E875206A000E2876206A000C6876206A000A7F
:203BC000A876206AE876A06E00280AD1606A000E2877606A000C6877606A000AA877606AE5
:203BE000E877002005B0F0BDFCB59BB006000D0014006846FEF740FF1C996846FEF759FF2F
:203C0000070000280DD12A0031006846FFF7C6FE0700002805D121006846FFF71BFF0700E9
:203C200000286846FEF733FF38001DB0F0BD0000F8B50400002C01D1012078E12068924949
:203C4000884208D02068BA49884204D092214900B84801F097F86068002809D060688221E9
:203C60004900884204D0FF212631B24801F08AF8A06800280ED0A0688021C900884209D056
:203C8000A06880210902884204D093214900A94801F078F8F0273F01E068B84240D0E06892
:203CA000E021090188423BD0E068D0210901884236D0E068C0210901884231D0E068B021FA
:203CC000090188422CD0E068A0210901884227D0E06890210901884222D0E068802109018E
:203CE00088421DD0E068E021C900884218D0E068C021C900884213D0E068A021C90088420E
:203D00000ED0E0688021C900884209D0E068C0218900884204D0FF212831864801F032F8BE
:203D20008025AD00A069A8420CD0A069002809D0A0698021C902884204D0942149007D4882
:203D400001F020F8606B082807D0606B002804D0FF212A31774801F015F8E069002819D02F
:203D6000E069082816D0E069102813D0E069182810D0E06920280DD0E06928280AD0E069ED
:203D8000302807D0E069382804D095214900694800F0F8FF206A002807D0206A802804D051
:203DA000FF212C31634800F0EDFF606A002807D0606A102804D0962149005E4800F0E2FFE9
:203DC000606A002815D12069002807D02069022804D0FF213031574800F0D4FF6069002828
:203DE00007D06069012804D098214900514800F0C9FFA06A002809D0A06A802189018842C9
:203E000004D0FF2134314B4800F0BCFF8026B601A06AB0421ED1E06A002808D0E06A80218E
:203E20004902884203D22C20205CC00704D49B214900404800F0A6FF206B00280AD0206BF7
:203E4000012807D0206B022804D0FF213831394800F098FF5D20205C002805D100205C21B4
:203E60006054200000F04CFF022001005D22A1542168096840229143226811602E49E268B0
:203E80008A4203D3002203E00030014080225201E368BB4206D0E368E027FF00BB4201D0D8
:203EA0000023A362236B002B06D1E3688B4201D3206301E0012020636068A16801432069B8
:203EC000084361690143A06905400D43E0692843216A0143A06A084321680860206B02286D
:203EE00006D12068006880210901014320680160A069000C04210840616A0143606B08437C
:203F0000E1680143114320684160A06AB04202D1E06A216808612068C0699A49014020682F
:203F2000C1610020206601205D2160540020F2BD0038004000F6000801070000FCB583B035
:203F400005000C0000263700300069460870E8688E49884203D268468089022806D32000FC
:203F6000C00703D58A49884800F00CFFA868002808D0A86880210902884203D08549824803
:203F800000F000FF5C20285C012801D10220F7E001205C21685400F0F7FE02905D20285C6C
:203FA000012803D0022069460870E2E0002C03D068468089002803D1012069460870D8E048
:203FC00003275D202F542E66AC6368468089A88768468089E8872E643000442168523000F7
:203FE000462168522E65EE64A86880210902884206D1286800688021C901014328680160C6
:20400000A86A8021890188420CD12868006862490140286801602868006880218901014380
:20402000286801604020296809680140002904D129680968084329680860E86853498842F2
:204040002DD36868002802D0E88F012806D120882968C860A41CE88F401EE887E88F00281B
:2040600061D028688068800707D520882968C860A41CE88F401EE887F0E7049800280BD059
:2040800004980021C9438842E8D000F07DFE0299401A04998842E1D36846077069E068681C
:2040A000002802D0E88F012811D1E88F022807D320882968C860A41CE88F801EE88706E07E
:2040C000207829680873641CE88F401EE887E88F002828D028688068800712D5E88F02285A
:2040E00007D320882968C860A41CE88F801EE887EDE7207829680873641CE88F401EE88705
:20410000E5E7049800280BD004980021C9438842DDD000F039FE0299401A04998842D6D3C8
:204120006846077025E0A86A80218901884206D12868006880214901014328680160029AC3
:204140000499280000F0C8FC002801D020202866A868002807D101962868C068019028689F
:20416000806801900198286E002802D001206946087001205D2168545C202E5468460078D6
:2041800005B0F0BDFFF7FFFF00F6000801070000090200000D020000FFDFFFFFF6B583B0EF
:2041A00004000D001F00002630006946C8800296300069460871E068B349884203D2684601
:2041C000008A022806D32800C00703D5AF49B04800F0D8FD60688221490088420ED1A06871
:2041E00000280BD104205D21605400976846038A2A002900200000F055F942E15C20205CC7
:20420000012801D102203CE101205C21605400F0BBFD02905D20205C012803D00220694612
:20422000087127E1002D03D06846008A002803D10120694608711DE104205D2160542666A0
:2042400025646846008A442160526846008A46216052A6633000A0873000E087E664266569
:20426000A06A80218901884211D12068006889490140206801602068006880218901014312
:20428000206801604620205A401E46216052E0687D49884206D3206840687F49014020686C
:2042A000416006E02068406880214901014320684160A06880210902884205D120680068AB
:2042C00076490140206801604020216809680140002904D121680968084321680860E068DE
:2042E0006949884221D24620205A00283FD020688068C00709D52068007B28706D1C462099
:20430000205A401E46216052EDE7002F09D00020C0438742E7D000F037FD0299401AB8421A
:20432000E1D3032069460871A4E04620205A00281DD020688068C00709D52068C068288098
:20434000AD1C4620205A401E46216052EDE7002F09D00020C0438742E7D000F015FD029921
:20436000401AB842E1D303206946087182E0A06A80218901884263D120680068802149017A
:20438000014320680160029800903B0001220121200000F0AFFA002803D003206946087147
:2043A00068E0E0683849884203D32068C068288002E02068007B2870029800903B000122EF
:2043C0000121200000F096FA002807D0206E0221014321660320694608714BE0E068F021D1
:2043E0000901884206D12068C0686946C8806846C08825E02068007B6946C8806846C08880
:20440000E068E021C90088421AD1206B022817D1029800903B0001220121200000F06AFA1A
:20442000002807D0206E0221014321660320694608711FE02068007B6946C8806846C088C7
:20444000029A3900200000F000FB002801D02020206620688068C00606D5206E02210143B7
:2044600021660F4821688860206E002802D001206946087101205D2160545C202654684625
:20448000007905B0F0BD000001070000C602000000F60008FFDFFFFFFFEFFFFFFFBFFFFFEF
:2044A000EFFF0000F8B586B004000D00160000270497059738006946C8800297012003902A
:2044C000380069460871E0684349884203D26846008B02280ED32800C00704D5EE21890065
:2044E0003E4800F04FFC3000C00703D53C493B4800F048FCA068002803D03A49374800F0FB
:2045000041FC5C20205C012801D10220EDE101205C21605400F038FC02905D20205C0490E6
:2045200060680590049801280ED0059882214900884205D1A068002802D10498042803D0B4
:20454000022069460871C9E1002D05D0002E03D06846008B002803D1012069460871BDE148
:204560005D20205C042802D005205D216054276626646846008B462160526846008B4421E6
:204580006052A5636846008BE0876846008BA087E7642765A06A8021890188420CD1206826
:2045A0000068114901402068016020680068802189010143206801600748E168814203D297
:2045C0004621615A022913D321684968074A0A4021684A6013E000BF0107000000F60008E8
:2045E000B9030000BD030000FFDFFFFFFFEFFFFF21684968802252010A4321684A60402167
:20460000226812680A40002A04D122681268114322681160E168814268D36068002802D0F1
:20462000E08F012806D128882168C860AD1CE08F401EE087E08F002804D14620205A002839
:2046400000D1EAE0039800282CD0E08F002829D020688068800725D528882168C860AD1C55
:20466000E08F401EE0870397E08F00281AD1A06A80218901884215D12068006840070AD4F0
:2046800020684068000706D5206800688021890001432068016020680068802149010143A2
:2046A000206801604620205A00280FD00120216889680140002909D02168C9683180B61C0F
:2046C0004621615A491E4622A15203900C980021C9438842AED000F057FB0299401A0C996E
:2046E0008842A7D3032069460871F7E06068002802D0E08F012811D1E08F022807D32888F5
:204700002168C860AD1CE08F801EE08706E02878216808736D1CE08F401EE087E08F0028CD
:2047200003D14620205A002877D00398002837D0E08F002834D020688068800730D5E08F86
:20474000022807D328882168C860AD1CE08F801EE08706E02878216808736D1CE08F401ED7
:20476000E0870397E08F00281AD1A06A80218901884215D12068006840070AD4206840688C
:20478000000706D520680068802189000143206801602068006880214901014320680160E8
:2047A0004620205A002828D00120216889680140002922D04621615A022914D32168C96814
:2047C0003180B61C4621615A891E4622A1524621615A022910D221684968802252010A4387
:2047E00021684A6008E02168097B3170761C4621615A491E4622A15203900C980021C94316
:2048000088428BD000F0C0FA0299401A0C99884284D303206946087160E0A06A802189014E
:2048200088423ED1029800900C9B01220121200000F060F8002807D0206E022101432166A6
:2048400003206946087149E0E068F0210901884206D12068C0686946C8806846C08820E043
:204860002068007B6946C8806846C088206B022817D1029800900C9B01220121200000F085
:2048800039F8002807D0206E02210143216603206946087122E02068007B6946C880684677
:2048A000C08820688068C00609D5206E0221014321660F4821688860012069460871029A73
:2048C0000C99200000F008F9002801D020202066206E002802D001206946087101205D21F3
:2048E00060545C2027546846007907B0F0BD0000EFFF0000F4B504000F001D00069E20688F
:2049000080683840B84201D1012000E00020009988423DD00020C0438542F0D0002D04D02F
:2049200000F032FA801BA842E9D320684068E02188432168486060688221490088420FD18F
:20494000A06880210902884204D0A0688021C900884205D1206800684021884321680860E6
:2049600080208001A16A81420AD121680968754A0A4021680A602168096808432168086041
:2049800001205D21605400205C216054032000E00020F2BD0000F3B581B0040017001D0090
:2049A000089E2068806802990140B9424AD00298C021C900884207D1002F05D12068007B02
:2049C00069460870684600780020C0438542E8D0002D04D000F0D8F9801BA842E1D3206865
:2049E0004068E02188432168486060688221490088420FD1A06880210902884204D0A0685A
:204A00008021C900884205D120680068402188432168086080208001A16A81420AD121682C
:204A20000968484A0A4021680A602168096808432168086001205D21605400205C2160545C
:204A4000032000E00020FEBD0000F8B504000F00160082256D006068A8420FD1A068802153
:204A60000902884204D0A0688021C900884205D120680068402188432168086000963B009D
:204A8000002280212000FFF735FF002805D0206E20210143216603201DE06068A84219D1B6
:204AA000A06880210902884204D0A0688021C90088420FD100963B000022C021C9002000CB
:204AC000FFF769FF002805D0206E202101432166032000E00020F2BD7CB504000E001500B7
:204AE000009533000022C02149012000FFF753FF002805D0206E20210143216603201FE080
:204B000000953300002280212000FFF7F3FE002805D0206E202101432166032010E00095C4
:204B200033000022C021C9002000FFF734FF002805D0206E202101432166032000E0002073
:204B400076BD0000FFDFFFFF80B500F01DF902BD80B500F01FF901BD81B080218902174895
:204B600002680A43026002681140009100998021C90202680A4302600268114000910099CD
:204B80008021090302680A43026002681140009100998021490302680A43026002681140A9
:204BA000009100998021C90302680A430260006801400091009801B07047000014100240A5
:204BC0001CB5040020686549884211D10221654802680A4302600068014000910098002241
:204BE0000321102000F053F9102000F060F986E020685B49884211D110215A4802680A43E4
:204C00000260006801400091009800220321112000F03DF9112000F04AF970E020685249EC
:204C2000884211D120214F4802680A430260006801400091009800220321122000F027F97D
:204C4000122000F034F95AE020684849884212D180214900434802680A43026000680140CE
:204C60000091009800220321132000F010F9132000F01DF943E020683D49884212D18021E1
:204C800049023C4802680A430260006801400091009800220321142000F0F9F8142000F0DB
:204CA00006F92CE020683449884212D180218902304802680A4302600068014000910098A8
:204CC00000220321152000F0E2F8152000F0EFF815E020682949884211D180214900214895
:204CE00002680A430260006801400091009800220321162000F0CBF8162000F0D8F813BDD4
:204D000038B586B0040020681D49884224D18020400118490A6802430A6009680840009013
:204D200000980220029000200390032104910590202001909025ED0501A9280000F0E2F812
:204D40004020019001A9280000F0DCF88020019001A9280000F0D6F807B030BD0004004023
:204D6000001000401C100240001400400020004000400140181002400044014000480140C8
:204D8000003001407047000001480068704700BF401D002002480168491C0160704700BF58
:204DA000401D002000B5010049B2002905D40121C206D20E91404A4A116000BDF0B50200BF
:204DC00052B2002A1CD40322464B040064B2A40804256C431C59FF251600064008277E437C
:204DE000B540AC438D01EDB202400826724395402543020052B29208042462439D5022E0E4
:204E00000F24394A032305006DB22540083DAD0804267543060076B23440083CA408042695
:204E200074431659FF27BC461C00044008277C436746A740BE438C01E4B2034008277B43EE
:204E40009C4034435451F0BD00B5BFF34F8F274827490860BFF34F8F00BFFDE710B5040025
:204E6000601E80214904884201D301200EE0601E2049086003210020C043FFF79FFF0020CF
:204E80001D49086007201D490860002010BD70B505000C001600042C03D39B211848FFF7FE
:204EA00071FF2100280040B2FFF788FF70BD10B50400200040B2002803D5AB211048FFF7A8
:204EC00061FF200040B2FFF76DFF10BD80B5FFF7BBFF01BD10B504002000FFF7BFFF10BD24
:204EE00000E100E000E400E01CED00E00400FA050CED00E014E000E018E000E010E000E0EC
:204F0000E4F40008F1B584B00C000026002001900020009004989021C905884213D00498E0
:204F2000B64988420FD00498B54988420BD00498B449884207D00498B349884203D0C12139
:204F4000B248FFF71FFF206880B2002804D02068000C0004002803D0C221AC48FFF712FF1C
:204F6000606800282AD06068012827D06068112824D06068022821D0606812281ED06068CF
:204F8000A34988421AD06068A249884216D06068A149884212D06068A04988420ED060688F
:204FA0009F4988420AD060689E49884206D06068032803D0C3219548FFF7E4FEA068002887
:204FC00009D0A068012806D0A068022803D0C4218E48FFF7D7FE2068F040002800D10BE1C9
:204FE000012720683900B140014001910198002800D1FFE06068022802D06068122831D1CB
:2050000004989021C905884207D004987B49884203D0D3217D48FFF7B5FE2069072803D3E7
:20502000D4217A48FFF7AEFE0498F108042251434018006A07210F2335000A002A400425DA
:205040006A4393409843226933001940042359438A40024300920498F108042251434018D3
:205060000099016204980168032532000220424328009040814360682840320002235A434E
:205080009040084300900098049908606068012808D06068022805D06068112802D060689D
:2050A00012282AD1E068002809D0E068012806D0E068032803D0E8215448FFF763FE04984D
:2050C0008168320002204243280090408143E26830000223584382400A43049882600498EF
:2050E00041683800B0408143606800093840B040084300900098049948600498C168320033
:2051000002204243280090408143A068320002235A4390400843009000980499C860606860
:20512000C00067D54C4801683943016000683840029002984949B008042250430858844660
:205140000F2233002800184004235843824060469043049A9023DB059A4201D1002710E078
:20516000049A264B9A420CD0049A254B9A4201D1022706E0049A234B9A4201D12F0000E0D4
:2051800005273200154004225543AF400743B008042250430F504E490868019A9043626856
:2051A000D20302D50200019810430860494A1168019B994363689B0302D508000199014343
:2051C0001160454A1068019B98436368DB0202D5010001980843106059490A68019B9A437F
:2051E00000926268920203D50098019A0243009200980860761CEEE605B0F0BD00040048C9
:2052000000080048000C004800140048FCF4000800001110000021100000311000001210E1
:20522000000022100000321038B504000D00280080B2002804D1FF218E314348FFF7A2FDA6
:205240002069290089B20840002801D0012000E00020C0B232BD00001810024008000140EB
:2052600070B505000C001600200080B2002804D1D62149003448FFF785FD3000C0B2002895
:2052800008D03000C0B2012804D0FF21AE312E48FFF778FD3000C0B2002803D0200080B2C8
:2052A000A86102E0200080B2A86270BD38B504000D00280080B2002804D1E1214900224870
:2052C000FFF760FD6069290089B24840606131BD0004014004040140080401407CB5040007
:2052E0000E0080256D0200959020C005844207D01448844204D0FF21D8311348FFF742FD36
:20530000300080B2002804D1EC2149000E48FFF739FD0098310089B2084300900098E0619E
:20532000300080B2E0610098E061E0690090E0690540002D01D0002000E0012076BD000038
:205340000C04014000040048FCF40008F8B504008C256D0000262700320029003800FCF716
:20536000D9F9F1BD10B50400002C04D08C2149002000FDF767F910BDF0B50300100080383D
:2053800004D0403805D0403806D008E00A20186008E00C20186005E00E20186002E01F20DC
:2053A000C043E7E01D0008355D60002004005609B44215D2A6008F5DA6008E1976783602A7
:2053C0003E43A700CF19BF783F043743A6008E19F67836063E4304276743EE51641CE6E7F0
:2053E0001E680A2E04D00C2E34D00E2E6CD0C0E004000A2C2DD29D482F68BC469C4F0426F9
:205400006643BE5967467E40EF683F0AFFB2C75D7740EE68360CF6B2865D36027E40EF68C5
:205420003F0EC75D3F0477402E7BF6B2805D00067840286168682E6946406E61A8686E69E9
:205440004640AE61E868AE694640EE61641C1035CFE78EE00400082C35D284482F68BC46EE
:20546000834F04266643BE5967467E406F693F0AFFB2C75D77406E69360CF6B2865D36027C
:205480007E406F693F0EC75D3F0477402E7DF6B2805D00067840A8616868AE694640EE6158
:2054A000A868EE6946402E62E8682E6A46406E6228696E6A4640AE626869AE6A4640EE6273
:2054C000641C1835C7E754E00400072C51D267482F68BC46664F04266643BE5967467E4071
:2054E000EF693F0AFFB2C75D7740EE69360CF6B2865D36027E40EF693F0EC75D3F047740A2
:205500002E7FF6B2865D36067E402E626E682F6A77406F62AE686F6A7740AF62EE68AF6AAC
:205520007740EF622F692C26AE5DF6B2865D7E40EF6A3F0AFFB2C75D3F027740EE6A360C1C
:20554000F6B2865D36047E40EF6A3F0EC05D00067040286368692E6B46406E63A8696E6B19
:205560004640AE63E869AE6B4640EE63641C2035ABE70020F0BDF7B5C8B001A8FFF7E6FE78
:20558000489806000836489846604A9A499901A8FFF7F2FE0090002862D10198489908603F
:2055A0000298019910225143401801683160011D301D0A680260091D001D0A680260091D23
:2055C000001D0A680260091D001D489A1268521E15002039012D33DB00221400042C2CDAB5
:2055E000224A244B0E78F6B2965D04277E439F59214B9C460B681B0ADBB2D65C04235E435E
:2056000063469B597B401F001C4B9C460B681B0CDBB2D65C04235E4363469E593B005E4030
:20562000174B0F683F0ED25D04277A439A5872400260001D641C091DD0E76D1E2039C9E719
:205640000A680260091D001D0A680260091D001D0A680260091D001D0A6802600F1D061DE2
:2056600001A8FFF77FFE00984BB0F0BDF0E50008A0F100081CD200081CD600081CDA00086A
:205680001CDE0008F7B588B00898406809990978099A527812020A43099989780B041343E3
:2056A0000999C9780906194302684A400092001D09990979099A527912020A430999897962
:2056C0000B0413430999C9790906194302684A400692001D0999097A099A527A12020A4378
:2056E0000999897A0B0413430999C97A0906194302684A400592001D0999097B099A527B12
:2057000012020A430999897B0B0413430999C97B0906194302684A400492041D0898006819
:205720004110491E012900DA2AE19848984A994B924D2768BC46009EF7B204267743EE591A
:2057400067467E40B446069E360AF7B204267743DE5967467E40B446059E360CF7B204261F
:205760007743D65967467E40B446049E370E04267743C65967467E400396241D2768BC461B
:20578000069EF7B204267743EE5967467E40B446059E360AF7B204267743DE5967467E401A
:2057A000B446049E360CF7B204267743D65967467E40B446009E370E04267743C659674657
:2057C0007E400296241D2768BC46059EF7B204267743EE5967467E40B446049E360AF7B23A
:2057E00004267743DE5967467E40B446009E360CF7B204267743D65967467E40B446069E84
:20580000370E04267743C65967467E400196241D2768BC46049EF7B204267743EE59674649
:205820007E40B446009E360AF7B204267743DE5967467E40B446069E360CF7B20426774336
:20584000D65967467E40B446059E370E04267743C65967467E400796241D2768BC46039E4E
:20586000F7B204267743EE5967467E40B446029E360AF7B204267743DE5967467E40B446E6
:20588000019E360CF7B204267743D65967467E40B446079E370E04267743C65967467E40AE
:2058A0000096241D2768BC46029EF7B204267743EE5967467E40B446019E360AF7B20426F5
:2058C0007743DE5967467E40B446079E360CF7B204267743D65967467E40B446039E370E84
:2058E00004267743C65967467E400696241D2768BC46019EF7B204267743EE5967467E40EE
:20590000B446079E360AF7B204267743DE5967467E40B446039E360CF7B204267743D659E0
:2059200067467E40B446029E370E04267743C65967467E400596241D2768AC46079DEEB20E
:2059400004256E436546AD597D40039E360AF6B204277E439B596B40029D2D0CEDB204264A
:20596000754352595A40019B1B0E04256B43C05850400490241D491ED4E600BF1CC200084B
:205980000248034A034B944E06E000BF1CCE00081CCA00081CC600082768BC46009DEFB202
:2059A00004256F43F55967467D40AC46069D2D0AEFB204256F43DD5967467D40AC46059DD8
:2059C0002D0CEFB204256F43D55967467D40AC46049D2F0E04256F43C55967467D400395AF
:2059E000241D2768BC46069DEFB204256F43F55967467D40AC46059D2D0AEFB204256F43B7
:205A0000DD5967467D40AC46049D2D0CEFB204256F43D55967467D40AC46009D2F0E042511
:205A20006F43C55967467D400295241D2768BC46059DEFB204256F43F55967467D40AC46FB
:205A4000049D2D0AEFB204256F43DD5967467D40AC46009D2D0CEFB204256F43D559674633
:205A60007D40AC46069D2F0E04256F43C55967467D400195241D2568B446049EF7B2042661
:205A800077436646F6596E40009D2D0AEDB204277D435B597340069D2D0CEDB20426754381
:205AA00055595D40059A120E04235A4382586A40201D4A4E0468039BDBB2F35C6340029C98
:205AC000240AE4B2345D24025C40019B1B0CDBB2F35C1B046340140E345D24065C40009441
:205AE000001D0468029BDBB2F35C6340019C240AE4B2345D24025C40130CDBB2F35C1D0431
:205B00006540039B1B0EF35C1B066B40001D0468019DEDB2755D6540140AE4B2345D240256
:205B20006C40039D2D0CEDB2755D2D046540029C240E345D24066C40051D2F68D0B2305C9B
:205B40007840039F3F0AFFB2F75D3F0247400298000CC0B2305C00047840019F3F0EF65D35
:205B6000360646402D1D00980A9F38700098000A0A9F78700098000C0A9FB8700098000EE2
:205B80000A9FF87018000A9F3871180A0A9F78711800000C0A9FB871180E0A9FF871200088
:205BA0000A9F3872200A0A9F78722000000C0A9FB872200E0A9FF87230000A9F3873300AD7
:205BC0000A9F78733000000C0A9FB873300E0A9FF87300200BB0F0BD1CC20008F0E5000884
:205BE000F7B588B00898406809990978099A527812020A43099989780B0413430999C9789D
:205C00000906194302684A400092001D09990979099A527912020A43099989790B0413437A
:205C20000999C9790906194302684A400692001D0999097A099A527A12020A430999897AD2
:205C40000B0413430999C97A0906194302684A400592001D0999097B099A527B12020A43F0
:205C60000999897B0B0413430999C97B0906194302684A400492041D089800684110491E5D
:205C8000012900DA2AE19848984A994B924D2768BC46009EF7B204267743EE5967467E4002
:205CA000B446049E360AF7B204267743DE5967467E40B446059E360CF7B204267743D6593E
:205CC00067467E40B446069E370E04267743C65967467E400396241D2768BC46069EF7B250
:205CE00004267743EE5967467E40B446009E360AF7B204267743DE5967467E40B446049E6B
:205D0000360CF7B204267743D65967467E40B446059E370E04267743C65967467E40029632
:205D2000241D2768BC46059EF7B204267743EE5967467E40B446069E360AF7B20426774344
:205D4000DE5967467E40B446009E360CF7B204267743D65967467E40B446049E370E042695
:205D60007743C65967467E400196241D2768BC46049EF7B204267743EE5967467E40B4469B
:205D8000059E360AF7B204267743DE5967467E40B446069E360CF7B204267743D6596746A8
:205DA0007E40B446009E370E04267743C65967467E400796241D2768BC46039EF7B20426F7
:205DC0007743EE5967467E40B446079E360AF7B204267743DE5967467E40B446019E360C6E
:205DE000F7B204267743D65967467E40B446029E370E04267743C65967467E400096241D58
:205E00002768BC46029EF7B204267743EE5967467E40B446039E360AF7B204267743DE5973
:205E200067467E40B446079E360CF7B204267743D65967467E40B446019E370E042677432D
:205E4000C65967467E400696241D2768BC46019EF7B204267743EE5967467E40B446029ED2
:205E6000360AF7B204267743DE5967467E40B446039E360CF7B204267743D65967467E40AF
:205E8000B446079E370E04267743C65967467E400596241D2768AC46079DEEB204256E4335
:205EA0006546AD597D40019E360AF6B204277E439B596B40029D2D0CEDB20426754352595E
:205EC0005A40039B1B0E04256B43C05850400490241D491ED4E600BF1CD200080248034AA0
:205EE000034B944E06E000BF1CDE00081CDA00081CD600082768BC46009DEFB204256F4329
:205F0000F55967467D40AC46049D2D0AEFB204256F43DD5967467D40AC46059D2D0CEFB275
:205F200004256F43D55967467D40AC46069D2F0E04256F43C55967467D400395241D276851
:205F4000BC46069DEFB204256F43F55967467D40AC46009D2D0AEFB204256F43DD59674643
:205F60007D40AC46049D2D0CEFB204256F43D55967467D40AC46059D2F0E04256F43C559BA
:205F800067467D400295241D2768BC46059DEFB204256F43F55967467D40AC46069D2D0A8C
:205FA000EFB204256F43DD5967467D40AC46009D2D0CEFB204256F43D55967467D40AC46F7
:205FC000049D2F0E04256F43C55967467D400195241D2568B446049EF7B204267743664647
:205FE000F6596E40059D2D0AEDB204277D435B597340069D2D0CEDB20426754355595D4032
:20600000009A120E04235A4382586A40201D4A4E0468039BDBB2F35C6340140AE4B2345DDB
:2060200024025C40019B1B0CDBB2F35C1B046340029C240E345D24065C400094001D0468F9
:20604000029BDBB2F35C6340039C240AE4B2345D24025C40130CDBB2F35C1D046540019B11
:206060001B0EF35C1B066B40001D0468019DEDB2755D6540029C240AE4B2345D24026C40DA
:20608000039D2D0CEDB2755D2D046540140E345D24066C40051D2F68D0B2305C7840019F38
:2060A0003F0AFFB2F75D3F0247400298000CC0B2305C00047840039F3F0EF65D3606464066
:2060C0002D1D00980A9F38700098000A0A9F78700098000C0A9FB8700098000E0A9FF8702E
:2060E00018000A9F3871180A0A9F78711800000C0A9FB871180E0A9FF87120000A9F3872E1
:20610000200A0A9F78722000000C0A9FB872200E0A9FF87230000A9F3873300A0A9F787330
:206120003000000C0A9FB873300E0A9FF87300200BB0F0BD1CD20008F0E60008F8B50500EF
:206140000E0014001F00012E05D13A0021002800FFF798FA04E03A0021002800FFF740FD54
:20616000F2BDFBB588B01700109E119D3807000F002802D02120C04353E0099800282DD18F
:20618000002F4DD010200290019603A80090029A01990098FBF770FB00982B00320009995D
:2061A0000898FFF7CBFF00200400102C06DA285D0A99095D41402955641CF6E71020029093
:2061C00003A801900A980090029A01990098FBF753FB009810361035103FD1E7002F1FD0FB
:2061E00000200400102C06DA305D0A99095D41402955641CF6E72B002A0009990898FFF7E0
:206200009DFF1020029001950A980090029A01990098FBF731FB009810361035103FDDE736
:2062200000200BB0F0BD0000F0B504000D0016001F0020680078002827D0281DFBF7B0FAEB
:206240003968FBF772FB00291CD128000830FBF7A7FA3168FBF769FB002913D128000C30D5
:20626000FBF79EFA3968FBF760FB00290AD128000C30FBF795FA3168FBF757FB002901D1E5
:20628000012000E0002021680870F0BD70B504000E00150031002000FBF776FA92482060D6
:2062A0002000083080214901FBF744FA29008F48201800F031FD8D4822188D498D48201823
:2062C00000F06CFD89482218B04981204001201800F067FD85482218AD49C248201800F0C4
:2062E00060FD200070BDF0B599B00600A94D286A0021C943884203D101206946087502E07E
:206300000020694608756846007D002834D110A8B5492422FBF796FA10AA05A901A8FBF758
:20632000D4FA01242000694608706A46310006A833681B69984706A901A8FBF7CEFA6846D6
:20634000007D002816D010A8801C01002031884212D002001378FF2B03D123006F463B754D
:2063600002E000236F463B756B461B7D002B03D0401CECE768460475286A04908548039090
:206380006846007D02909948019058200090984B984A2021280000F01FFD6846007D19B098
:2063A000F0BD7FB506000C000125206A202807D020202062226A2100300000F0E6FB0500A6
:2063C0002800C0B200280BD0206A02908A48019068200090864B894A2021200000F0FCFC9C
:2063E0002800C0B204B070BDF0B58FB0070006A868492422FBF726FA06A93800FFF7D1FFD3
:20640000040080252D0105952000C0B200280CD07B4E2B00320029003800083000F0D4FEF4
:20642000002801D1012400E000242000C0B200280BD0242306AA242138001C3000F0C4FE32
:20644000002801D1012400E000242000C0B2002813D0232000F0F4FE002801D1012400E058
:2064600000242000C0B2002807D1232000F0E8FE002801D1012400E000242000C0B2002870
:206480001CD05F4E2A0039000831300000F0DFFE05002800C0B2002801D1012400E0002408
:2064A0002000C0B2002809D12800C0B201900096A94B93224E49A94800F08BFC0E980490A5
:2064C000344803902000C0B20290A348019098200090474B474A202106A800F07DFC20002A
:2064E000C0B20FB0F0BD0000E0EC000808100000B8F600080C10000070B5A2B005000C0078
:20650000160005A896492422FBF79CF93078002819D0012830D1200000F048FB69460870AF
:206520006846007800280DD005AA694603A8FBF7CCF92C48211818A800F0FFFE18A903A8AA
:20654000FBF7CBF91BE0200000F030FB694608706846007800280ED005AA694601A8FBF703
:20656000B4F98120400121180EA800F0E6FE0EA901A8FBF7B2F902E000206946087005AAF4
:2065800069462800FBF7B7FB22B070BDC4F60008D0F6000814180108F8B504000E001700E6
:2065A000200000F003FB05002800C0B2002815D03078002808D001280ED1390009482018AF
:2065C00000F0E8FE050009E0390081204001201800F0E0FE050001E0002005002800C0B231
:2065E000F2BD000034100000F0F1000894F60008A0F60008ECEE000824F60008B4F40008DB
:2066000000180108FFB5C5B0050046980078FBF7C3F86968C0B21822504308180290479887
:206620000078FBF7BBF80299C0B2042250430818001DFBF7B5F8019047980078002802D1B8
:206640008026760100E000264898019988420CD30298FBF7A5F801990818801948994F9AAE
:206660008918884201D3012400E000242000C0B200286CD047980078002802D0012852D020
:2066800063E0489880214902884238D348987E49884234D228002968496B8847280000F04B
:2066A00085FA00280DD00020009080235B004E9A48997648281800F031FB002801D00127A4
:2066C00000E0002705A880214900FBF735F88022520005A94E9800F0E8FE04004F98049020
:2066E00005A803904E980090049A03990098FBF7C3F8009828002968496B884712E0280077
:2067000000F054FA00280CD0002000904F9B4E9A48995E48281800F001FB002801D00124E4
:2067200000E0002413E0489F280000F03FFA002809D04F9B3A004F994E9800F045FD0028DD
:2067400001D1012400E0002401E0002004002000C0B249B0F0BD000014F600086CEB000890
:2067600014F20008F7B5C4B005001F0045980078FBF712F86968C0B21822504308180390B3
:2067800046980078FBF70AF80399C0B2042250430818001DFBF704F80290469800780028AD
:2067A00002D18026760100E00026029887420BD30398FAF7F5FF0299081880194D99791857
:2067C000884201D3012400E000242000C0B2002856D046980078002802D001283BD04DE061
:2067E000280000F0E3F904002000C0B2002831D080204002874223D32348874220D22800F7
:206800002968496B884704A880214900FAF794FF8022520004A94C9800F034FE694608717B
:206820000020009080235B0004AA39001748281800F087FA040028002968496B884709E08A
:20684000002000904D9B4C9A39001048281800F078FA040014E0280000F0A8F904002000B2
:20686000C0B2002809D04D9A4C99380000F0EFFC002801D1012400E0002401E0002004009E
:206880002000C0B247B0F0BD01F0060008100000FFB583B00498F821090640180190019886
:2068A000C00A00900024270004984005400D002806D106984005400D002801D1012500E0D6
:2068C000250026002800C0B2002827D0300080B20699C90A884221D2039800F067F9050033
:2068E0002800C0B2002817D00098801980B200F0A7FC002801D1012500E025002800C0B23A
:20690000002809D10098801980B200F099FC002801D1012500E02500761CD3E72800C0B282
