:020000040800F2
:20000000F831002059130108BD060108BF0601080000000000000000000000000000000088
:200020000000000000000000000000001332000800000000000000007F410008C9060108D3
:20004000D106010800000000D3060108DB060108DD060108DF060108E1060108AF5600081D
:2000600000000000E3060108ED060108210701082B0701082D0701082F07010800000000AA
:20008000310701083B0701083D07010847070108490701084B0701084D0701084F070108C0
:2000A00051070108530701085507010857070108610701086B0701080000000000000000C4
:2000C000F8B50400D8250026270032002900380001F016FDF1BD10B50400002C03D0D8211F
:2000E000200001F039FD10BD10B503000A000020002103C3083B1C00083403C4083C002A43
:200100002CD12FA003C81C00103403C4083C2EA003C81C00183403C4083C2DA003C81C001D
:20012000203403C4083C2CA003C81C00283403C4083C2BA003C81C00303403C4083C2AA05B
:2001400003C81C00383403C4083C29A003C81864596429A003C89864D9642BE028A003C809
:200160001C00103403C4083C27A003C81C00183403C4083C26A003C81C00203403C4083C03
:2001800025A003C81C00283403C4083C24A003C81C00303403C4083C23A003C81C0038341C
:2001A00003C4083C22A003C81864596422A003C89864D964D0201A50002010BD0000000061
:2001C00008C9BCF367E6096A3BA7CA8485AE67BB2BF894FE72F36E3CF1361D5F3AF54FA5D0
:2001E000D182E6AD7F520E511F6C3E2B8C68059B6BBD41FBABD9831F79217E1319CDE05B8B
:20020000D89E05C15D9DBBCB07D57C362A299A6217DD70305A01599139590EF7D8EC2F15CD
:20022000310BC0FF6726336711155868874AB48EA78FF9640D2E0CDBA44FFABE1D48B547E2
:20024000F3B5FFB0BAB00022082A10DAB998082151434018103003C804AB082454431B1988
:20026000A424A4001B1903C3083B521CECE70024102C51DABA98E100425C002313060022DA
:20028000BA98E1004018407800210104002010431943BA9AE300D2189278002313020022A1
:2002A00002430B43BA98E1004018C07800210100002010431943BA9AE300D2181279002328
:2002C0001B06150A2B43120602430B43BA98E1004018407900210904050C2943000410437F
:2002E0001943BA9AE300D218927900231B02150E2B43120202430B43BA98E1004018C0793A
:2003000000211043194304AA08236343D218103203C2083A641CABE7502C00DB8EE004ADD3
:2003200004A80821614340180CC80838D20C58030243DB0C04A808216143401803C8410393
:200340000020104319430090019104A80821614340180CC808385A0F002304A808216143C2
:20036000401803C8C900460F3143C00010431943009A019B5040594004AA08236343D21891
:200380000CCA92099E0632439B0942404B40082060432818283803C8801859410290039194
:2003A00008206043281868380CC808385208D80702435B08082060432818683803C8C1075F
:2003C0000020104319430090019108206043281868380CC80838120A180602431B0A0820A1
:2003E00060432818683803C80106002010431943009A019B5040594002000B0008206043A2
:200400002818683803C8C0094E063043C90950405940029A039B8018594102000B00082005
:2004200060432818703803C88018594108226243AA18103203C2083A641C6DE7002204A8B8
:20044000B2218900401803C80090019104A8AC218900401803C8800B8B041843890B04AB1E
:20046000AC24A4001B1930CB083BA504002404430D4304A8AC2189004018C0C80838B60C4E
:20048000B8030643BF0C04A9AC208000081803C881030020304339436040694004000D00BC
:2004A00004A8AC2189004018C0C808387E0A002704A9AC208000081803C8C905430A194310
:2004C000C0053043394360406940009C019D001969410290039104A8B0218900401803C8D3
:2004E0000090019104A8AC218900401830C8083804A9AE2080000818C0C8083804A9B020E8
:200500008000081803C87040794020402940009C019D60406940029C039D001969418B4BE4
:20052000082454431B1930CB083B24184D4104A8082151434018103003C80019694104AB7E
:2005400003C3083B04A8A4218900401803C8000F0B011843090F04ABA424A4001B1930CB9D
:20056000083B2501002404430D4326002F0004A8A4218900401803C88808002104ABA424BD
:20058000A4001B1930CB083BAD07A3081D43A40704430D4374407D4026002F0004A8A4210D
:2005A0008900401830C80838EC09002504A8A4218900401803C84906C309194340062043CB
:2005C0002943704079400290039104A8A4218900401830C8083804A8A6218900401803C877
:2005E000204029400090019104A8A8218900401830C8083804A9A42080000818C0C80838A9
:2006000004A9A6208000081803C83043394320402940009C019D20432943029C039D0019E4
:20062000694104AB083303C3083B04A8AA218900401830C8083804A803C80019694104ABA4
:20064000AA24A4001B1903C3083B04A830C8083804A8083003C80019694104ABB224A4006C
:200660001B1903C3083B521C04A8B0218900401803C80090019104A8AA218900401803C861
:20068000800B8B041843890B04ABAA24A4001B1930CB083BA504002404430D4304A8AA21E3
:2006A00089004018C0C80838B60CB8030643BF0C04A9AA208000081803C881030020304307
:2006C00039436040694004000D0004A8AA2189004018C0C808387E0A002704A9AA2080007E
:2006E000081803C8C905430A1943C0053043394360406940009C019D001969410290039178
:2007000004A8AE218900401803C80090019104A8AA218900401830C8083804A9AC20800007
:200720000818C0C8083804A9AE208000081803C87040794020402940009C019D6040694036
:20074000029C039D00196941004B01E068FD0008082454431B1930CB083B24184D4104A854
:20076000082151434018103003C80019694104AB03C3083B04A8B2218900401803C8000FA4
:200780000B011843090F04ABB224A4001B1930CB083B2501002404430D4326002F0004A85D
:2007A000B2218900401803C88808002104ABB224A4001B1930CB083BAD07A3081D43A40704
:2007C00004430D4374407D4026002F0004A8B2218900401830C80838EC09002504A8B2218B
:2007E0008900401803C84906C3091943400620432943704079400290039104A8B22189002A
:20080000401830C8083804A8A4218900401803C8204029400090019104A8A62189004018EC
:2008200030C8083804A9B22080000818C0C8083804A9A4208000081803C83043394320406E
:200840002940009C019D20432943029C039D0019694104AB083303C3083B04A8A821890034
:20086000401830C8083804A803C80019694104ABA824A4001B1903C3083B04A830C808386E
:2008800004A8083003C80019694104ABB024A4001B1903C3083B521C04A8AE2189004018B8
:2008A00003C80090019104A8A8218900401803C8800B8B041843890B04ABA824A4001B19CE
:2008C00030CB083BA504002404430D4304A8A82189004018C0C80838B60CB8030643BF0CC7
:2008E00004A9A8208000081803C881030020304339436040694004000D0004A8A82189002D
:200900004018C0C808387E0A002704A9A8208000081803C8C905430A1943C00530433943FD
:2009200060406940009C019D001969410290039104A8AC218900401803C80090019104A858
:20094000A8218900401830C8083804A9AA2080000818C0C8083804A9AC208000081803C8F2
:200960007040794020402940009C019D60406940029C039D001969418B4B082454431B19F4
:2009800030CB083B24184D4104A8082151434018103003C80019694104AB03C3083B04A85C
:2009A000B0218900401803C8000F0B011843090F04ABB024A4001B1930CB083B2501002449
:2009C00004430D4326002F0004A8B0218900401803C88808002104ABB024A4001B1930CBFB
:2009E000083BAD07A3081D43A40704430D4374407D4026002F0004A8B0218900401830C897
:200A00000838EC09002504A8B0218900401803C84906C3091943400620432943704079405E
:200A20000290039104A8B0218900401830C8083804A8B2218900401803C820402940009076
:200A4000019104A8A4218900401830C8083804A9B02080000818C0C8083804A9B220800096
:200A6000081803C83043394320402940009C019D20432943029C039D0019694104AB0833DF
:200A800003C3083B04A8A6218900401830C8083804A803C80019694104ABA624A4001B1936
:200AA00003C3083B04A830C8083804A8083003C80019694104ABAE24A4001B1903C3083B75
:200AC000521C04A8AC218900401803C80090019104A8A6218900401803C8800B8B041843CD
:200AE000890B04ABA624A4001B1930CB083BA504002404430D4304A8A62189004018C0C893
:200B00000838B60CB8030643BF0C04A9A6208000081803C88103002030433943604069404A
:200B200004000D0004A8A62189004018C0C808387E0A002704A9A6208000081803C8C9052D
:200B4000430A1943C0053043394360406940009C019D001969410290039104A8AA218900CC
:200B6000401803C80090019104A8A6218900401830C8083804A9A82080000818C0C80838C7
:200B800004A9AA208000081803C87040794020402940009C019D60406940029C039D001967
:200BA0006941014B02E000BF68FD0008082454431B1930CB083B24184D4104A808215143C9
:200BC0004018103003C80019694104AB03C3083B04A8AE218900401803C8000F0B0118439A
:200BE000090F04ABAE24A4001B1930CB083B2501002404430D4326002F0004A8AE2189000C
:200C0000401803C88808002104ABAE24A4001B1930CB083BAD07A3081D43A40704430D4368
:200C200074407D4026002F0004A8AE218900401830C80838EC09002504A8AE2189004018E4
:200C400003C84906C3091943400620432943704079400290039104A8AE218900401830C85A
:200C6000083804A8B0218900401803C8204029400090019104A8B2218900401830C8083888
:200C800004A9AE2080000818C0C8083804A9B0208000081803C83043394320402940009C35
:200CA000019D20432943029C039D0019694104AB083303C3083B04A8A4218900401830C889
:200CC000083804A803C80019694104ABA424A4001B1903C3083B04A830C8083804A808307A
:200CE00003C80019694104ABAC24A4001B1903C3083B521C04A8AA218900401803C80090E5
:200D0000019104A8A4218900401803C8800B8B041843890B04ABA424A4001B1930CB083B8E
:200D2000A504002404430D4304A8A42189004018C0C80838B60CB8030643BF0C04A9A42033
:200D40008000081803C881030020304339436040694004000D0004A8A42189004018C0C861
:200D600008387E0A002704A9A4208000081803C8C905430A1943C005304339436040694034
:200D8000009C019D001969410290039104A8A8218900401803C80090019104A8A4218900F3
:200DA000401830C8083804A9A62080000818C0C8083804A9A8208000081803C8704079407F
:200DC00020402940009C019D60406940029C039D001969418B4B082454431B1930CB083BBB
:200DE00024184D4104A8082151434018103003C80019694104AB03C3083B04A8AC218900E0
:200E0000401803C8000F0B011843090F04ABAC24A4001B1930CB083B2501002404430D43AB
:200E200026002F0004A8AC218900401803C88808002104ABAC24A4001B1930CB083BAD073E
:200E4000A3081D43A40704430D4374407D4026002F0004A8AC218900401830C80838EC09F8
:200E6000002504A8AC218900401803C84906C309194340062043294370407940029003910D
:200E800004A8AC218900401830C8083804A8AE218900401803C8204029400090019104A802
:200EA000B0218900401830C8083804A9AC2080000818C0C8083804A9AE208000081803C881
:200EC0003043394320402940009C019D20432943029C039D0019694104AB083303C3083B5D
:200EE00004A8B2218900401830C8083804A803C80019694104ABB224A4001B1903C3083BBA
:200F000004A830C8083804A8083003C80019694104ABAA24A4001B1903C3083B521C04A803
:200F2000A8218900401803C80090019104A8B2218900401803C8800B8B041843890B04AB37
:200F4000B224A4001B1930CB083BA504002404430D4304A8B22189004018C0C80838B60C57
:200F6000B8030643BF0C04A9B2208000081803C881030020304339436040694004000D00CB
:200F800004A8B22189004018C0C808387E0A002704A9B2208000081803C8C905430A194319
:200FA000C0053043394360406940009C019D001969410290039104A8A6218900401803C8F2
:200FC0000090019104A8B2218900401830C8083804A9A42080000818C0C8083804A9A6200B
:200FE0008000081803C87040794020402940009C019D60406940029C039D00196941014B84
:2010000002E000BF68FD0008082454431B1930CB083B24184D4104A80821514340181030C2
:2010200003C80019694104AB03C3083B04A8AA218900401803C8000F0B011843090F04AB0A
:20104000AA24A4001B1930CB083B2501002404430D4326002F0004A8AA218900401803C853
:201060008808002104ABAA24A4001B1930CB083BAD07A3081D43A40704430D4374407D40BA
:2010800026002F0004A8AA218900401830C80838EC09002504A8AA218900401803C84906DF
:2010A000C3091943400620432943704079400290039104A8AA218900401830C8083804A828
:2010C000AC218900401803C8204029400090019104A8AE218900401830C8083804A9AA20A1
:2010E00080000818C0C8083804A9AC208000081803C83043394320402940009C019D20434F
:201100002943029C039D0019694104AB083303C3083B04A8B0218900401830C8083804A82D
:2011200003C80019694104ABB024A4001B1903C3083B04A830C8083804A8083003C8001911
:20114000694104ABA824A4001B1903C3083B521C04A8A6218900401803C80090019104A82E
:20116000B0218900401803C8800B8B041843890B04ABB024A4001B1930CB083BA504002483
:2011800004430D4304A8B02189004018C0C80838B60CB8030643BF0C04A9B02080000818E4
:2011A00003C881030020304339436040694004000D0004A8B02189004018C0C808387E0AC9
:2011C000002704A9B0208000081803C8C905430A1943C0053043394360406940009C019D52
:2011E000001969410290039104A8A4218900401803C80090019104A8B0218900401830C871
:20120000083804A9B22080000818C0C8083804A9A4208000081803C8704079402040294099
:20122000009C019D60406940029C039D00196941EC4B082454431B1930CB083B24184D41F4
:2012400004A8082151434018103003C80019694104AB03C3083B04A8A8218900401803C826
:20126000000F0B011843090F04ABA824A4001B1930CB083B2501002404430D4326002F0019
:2012800004A8A8218900401803C88808002104ABA824A4001B1930CB083BAD07A3081D432C
:2012A000A40704430D4374407D4026002F0004A8A8218900401830C80838EC09002504A8D2
:2012C000A8218900401803C84906C3091943400620432943704079400290039104A8A82109
:2012E0008900401830C8083804A8AA218900401803C8204029400090019104A8AC218900C5
:20130000401830C8083804A9A82080000818C0C8083804A9AA208000081803C8304339438F
:2013200020402940009C019D20432943029C039D0019694104AB083303C3083B04A8AE216C
:201340008900401830C8083804A803C80019694104ABAE24A4001B1903C3083B04A830C834
:20136000083804A8083003C80019694104ABA624A4001B1903C3083B521C029204A8A421EE
:201380008900401803C80090019104A8AE218900401803C8800B8A041043890B04AAAE23D9
:2013A0009B00D2180CCA9304002202430B4304A8AE218900401830C80838A40CA803044350
:2013C000AD0C04A8AE218900401803C881030020204329435040594002000B0004A8AE2109
:2013E0008900401830C808386C0A002504A8AE218900401803C8C905460A3143C005204358
:20140000294350405940009A019B801859410090019104A8B221890040180CC8083804A88D
:20142000AE218900401830C8083804A8B02189004018C0C8083804A9B2208000081803C8B4
:20144000704079402040294050405940009A019B80185941634A029B08246343D2180CCAED
:2014600012184B4104A80299082461434018103003C88018594104AA03C2083A04A8A621E2
:20148000890040180CC80838120F180102431B0F04A8A6218900401803C80101002010431A
:2014A000194304AAA6239B00D21830CA083AAC08002504AAA6239B00D2180CCA9B079608AD
:2014C0003343920722432B4342404B4004A8A6218900401830C80838EC09002504A8A62104
:2014E0008900401803C84906C6093143400620432943504059400090019104A8A621890052
:20150000401803C804AAA8239B00D2180CCA02400B4004A8AA218900401830C8083804A80B
:20152000A62189004018C0C8083804A9A8208000081803C8304339432040294010431943F4
:20154000009A019B8018594104AA083203C2083A04A8AC21890040180CC8083804A803C84F
:201560008018594104AAAC239B00D21803C2083A04A80CC8083804A8083003C8801859418F
:2015800004AAA4239B00D21803C2083A029A521C502A01DAFEF753FF0024082C19DAB99808
:2015A00008216143401810300CC8083804A8082161434018A4218900401803C8801859413E
:2015C000B99A08236343D218103203C2083A641CE3E7B421890004A800F0BEFA00207FB069
:2015E0003CB0F0BD68FD0008F0B585B006000D0014006D20C0430290002C01D1002060E064
:2016000030784006400E009080200099401A01900CCE083E200000218018594103C6083E38
:2016200003CE083E2200002399420CD801D3904209D23000083003C80022401C5141320099
:20164000083203C2083A009800281ED0019884421BD301980490039500983018070050371B
:20166000049A0399380000F09FFA310050313000FEF7E6FD0290002801D0029821E00198F6
:201680002D180198241A00200090802C0BD329003000FEF7D5FD0290002801D0029810E0BF
:2016A0008035803CF1E7002C0AD0049403950098301807005037049A0399380000F074FA6D
:2016C000002005B0F0BDF8B584B004000D006D20C043019020784006400E802122185023FB
:2016E000D154401C0090009871280ED270200099401A0290002600982018070050373200FD
:201700000299380000F0FCF921E080200099401A0390002602960098201807005037029A32
:201720000399380000F0ECF9210050312000FEF787FD0190002801D00198DCE170270296B6
:2017400026005036029A3900300000F0D9F903CC083C480F002122000832C0CA083AFF0064
:20176000720F1743F60006430F4303CC083CC900420F1143C00002AA03C2083A30003900A0
:20178000080E0021C021605430003900080C0021C121605430003900080A0021C221605416
:2017A0003800C3216054300EC42160543000000CC5216054300080B2000AC6216054300075
:2017C000C721605402A803C8080E0021C821605402A803C8080C0021C921605402A803C867
:2017E000080A0021CA21605402A803C8CB20215402A803C8000ECC21605402A803C8000C9D
:20180000CD21605402A803C880B2000ACE21605402A803C8CF216054210050312000FEF702
:201820000FFD0200002801D0100064E12000103003C8080E002128702000103003C8080C13
:20184000002168702000103003C8080A0021A8702000103003C8E9702000103003C8000E5C
:2018600028712000103003C8000C68712000103003C880B2000AA8712000103003C8E871BB
:201880002000183003C8080E002128722000183003C8080C002168722000183003C8080ABD
:2018A0000021A8722000183003C8E9722000183003C8000E28732000183003C8000C687369
:2018C0002000183003C880B2000AA8732000183003C8E8732000203003C8080E00212874E2
:2018E0002000203003C8080C002168742000203003C8080A0021A8742000203003C8E9747A
:201900002000203003C8000E28752000203003C8000C68752000203003C880B2000AA87529
:201920002000203003C8E8752000283003C8080E002128762000283003C8080C00216876A1
:201940002000283003C8080A0021A8762000283003C8E9762000283003C8000E2877200041
:20196000283003C8000C68772000283003C880B2000AA8772000283003C8E8772000303099
:2019800003C8080E0021202168542000303003C8080C0021212168542000303003C8080A6D
:2019A0000021222168542000303003C8232029542000303003C8000E242168542000303022
:2019C00003C8000C252168542000303003C880B2000A262168542000303003C82721685455
:2019E0002000383003C8080E0021282168542000383003C8080C0021292168542000383042
:201A000003C8080A00212A2168542000383003C82B2029542000383003C8000E2C2168543C
:201A20002000383003C8000C2D2168542000383003C880B2000A2E2168542000383003C850
:201A40002F216854D0202058002853D1206C616C080E002130216854206C616C080C00219B
:201A600031216854206C616C080A002132216854206C616C33202954206C616C000E3421D8
:201A80006854206C616C000C35216854206C616C80B2000A36216854206C616C37216854FE
:201AA000A06CE16C080E002138216854A06CE16C080C002139216854A06CE16C080A002151
:201AC0003A216854A06CE16C3B202954A06CE16C000E3C216854A06CE16C000C3D216854BF
:201AE000A06CE16C80B2000A3E216854A06CE16C3F216854002005B0F0BD8160C260704785
:201B00001206130A1A43130C1A4300BF094205D0830709D00270401C491EF9D170470000BF
:201B20000022F3E70022FFE71300103906D330B41400150010393CC0FCD230BC490700D33D
:201B40000CC000D504C0890002D30280801C002900D502707047000038B505000C00002C53
:201B600005D0220000212800014B1B68984731BD5400002070B4103A03D378C9103A78C00E
:201B8000FBD2530701D318C918C001D508C908C0D20704D30B880380891C801C002A01D51B
:201BA0000B78037070BC70478B0701D18307E1D0124205D00B78491C0370401C521EF9D193
:201BC0007047000038B504001500C9482060616000202072022120000C3001F06DFA6561A7
:201BE000200032BD3EB50400606861680968496B8847606861680968096B884705000020F0
:201C00002900C9B2002904D060686168096889688847C0B2002815D0200000F005F90028AC
:201C200008D002206946487101A9491C200000F03AF836E001206946087101A9200000F0D8
:201C400032F82EE0EDB2002D24D0200000F052F9002808D005206946C87000A9C91C200077
:201C600000F021F81DE0200000F016FA002808D004206946887000A9891C200000F013F80A
:201C80000FE003206946487000A9491C200000F00AF806E00620694608706946200000F0B9
:201CA00002F800203EBD097801727047007A7047FDB5E4B00D0001206946087201206946C6
:201CC00048720027039724A880214900FFF72AFF1BA801F09FFA686801F0B0FA04006598FB
:201CE000007801F0ADFA06006698007801F0AAFAF6B218214E43A119C0B20422504308184C
:201D0000001D01F0A1FA04901BAA02A9684601F0A6FA696809A86A681268526A904709A9C4
:201D2000684601F0A0FA6846007A00282BD003AA02A905A801F0AFFA04A80090669B659A44
:201D4000290007A801F077F907A905A801F0A7FA19E03800694608720AE0220024A9280000
:201D60000C3001F011FA0128F3D10120694608720498001904900398001B039068686968C1
:201D80000968496B88476846007A002834D00398002831D00398FF21891C884202D3802494
:201DA000640000E0039C019424A80090049B669A659968686E683668B669B047694608722F
:201DC0006846007A0028D9D06846407A0028C4D0380069464872230024AA1BA928000C302C
:201DE00001F08DF9012803D1012069460872BFE7380069460872BBE76846007A00280CD050
:201E000013A928000C3001F0DFF9012803D101206946087201E068460772649813AA02A926
:201E200001F054FA67B0F0BD38B596B00400606861680968C96888476946087004A8AE499C
:201E40002422FFF797FE68460078002820D06068002529006A46117104AA01A903685B69A4
:201E6000984704A8057070214170821C694602A801F03CFA01206946C87000ABDB1C04AAAA
:201E800021000DA8FFF714FF0DA902A801F032FA6846007800280BD0606801216A46917022
:201EA00004AA00A9891C03685B69984769460870606861680968496B88476068002421005F
:201EC0006A46517000A9491C0268D26A9047002807D068460078002803D00120694608709E
:201EE00001E0684604706846007817B030BD00002013010838B5DEB005000FA87F49242284
:201F0000FFF738FE00242000694608700FAA69460DA801F007FA696820006A46507000AA10
:201F2000521C54A80B681B69984754A90DA801F001FA6846007800280AD00FA80078022842
:201F400003D201206946087002E02000694608706846007800286AD00FA84078C0B270283A
:201F600054D0782843D07C2832D0F82821D0FC2810D0FE2859D10FAA69460BA801F0D2F9A8
:201F80000FAA29004AA800F065FB4AA90BA801F0D1F94CE00FAA694609A801F0C3F90FAA11
:201FA000290040A800F060FC40A909A801F0C2F93DE00FAA694607A801F0B4F90FAA2900CA
:201FC00036A800F0B7FC36A907A801F0B3F92EE00FAA694605A801F0A5F90FAA29002CA8ED
:201FE00000F05CFD2CA905A801F0A4F91FE00FAA694603A801F096F90FAA290022A800F05A
:20200000B8FD22A903A801F095F910E00FAA694601A801F087F90FAA290018A800F010FE04
:2020200018A901A801F086F901E068460470684600785FB030BDF8B594B007000D00160086
:20204000002420006946087003A82021FFF76AFD03AA694601A801F049F9149B320039007A
:202060000BA8FFF725FE0BA901A801F043F96846007800280CD02900202203A801F072F96E
:20208000002803D101206946087001E0684604706846007815B0F0BD38B596B005000DA874
:2020A00017492422FFF766FD0020694608700DAA694601A801F036F9696801246846847013
:2020C00000AA921C03A80B681B69984703A901A801F030F968460078002809D0684644702F
:2020E0000DAA00A9491C280000F00CF8694608706846007817B030BDD00F0108F40F01080A
:2021000018100108F8B596B004000E001700012528006946087003A839002422FFF744FD9C
:2021200030786946487068464078002816D13878002813D028006946487003AA694601A8CC
:2021400001F0F0F800AA521C61680CA863681B681B6998470CA901A801F0ECF86846007807
:20216000002811D003A8017800290AD1411C00A8401C00F045FF002803D02800694608704F
:2021800002E00020694608706846007800280BD06846857000AB9B1C03AA03A8811C2000D3
:2021A000FFF749FF6946087068460078002807D003A9606862681268D26A904769460870A3
:2021C0006846007817B0F0BDF7B590B01F000024200069460872059404941198406801F07A
:2021E0002DF805001298007801F02AF8182148432E183000083001F027F8069005AA02A90E
:202200000BA801F048F801256846857206A8009002AB9B1C129A11990DA800F00CFF0DA9B1
:202220000BA801F03CF86846007A002834D0301D01F00AF80390FFB2002F18D0300001F0B6
:2022400003F80790300000F0FFFF070030000C3000F0FAFF010003980190079800903800DE
:2022600001F08FF80098411801984018039004AA02A907A801F00FF820006946487203A83D
:20228000009002AB5B1C129A119909A800F0D3FE09A907A801F003F86846007A002810D045
:2022A000300000F0D1FF0499884208D3300000F0CBFF0599884202D36846057201E0684611
:2022C0000472109805AB04AA02A901F0B1F813B0F0BDF7B58CB005001F00012630006946BB
:2022E0000871686800F0AAFF04000D98007800F0A7FF182148432018049004980C3000F0ED
:20230000A3FF040004980C3000F09EFF010038680019401E01F035F8059004980C3000F01F
:2023200093FF040004980C3000F08EFF01000E9800680019401E01F024F8069006A905A82D
:2023400001F08CF80068079034000027029702AA01A908A800F09FFF69690AA801F00AF909
:202360000AA908A800F09BFF3AE0686931006A46917000AA921C02A903681B699847694623
:20238000087102E03800694608716846007900280ED00398069988420AD214A800780090B1
:2023A000049B03AA0D99280000F034FD694608716846007900280BD0686902216A4651702B
:2023C00000AA521C02A903681B699847694608710298401C0290686869680968496B884727
:2023E00068460079002800D187E002980021C943884200D181E00298079988427DD214A884
:202400000078002805D007980299401A401E039001E0029803902000C0B200282ED0039861
:20242000059988422AD23C0030006946C87101AAD21C02A9686901F0F4F80028A5D114A898
:2024400000780090049B03AA0D99280000F03BFC00280FD0686931006A46917101AA921C1F
:2024600002A903681B699847002803D03000694608718AE738006946087186E72000C0B2C0
:20248000002818D03C0030006946C87000AAD21C02A9686901F0C5F8002800D075E76869F2
:2024A00031006A4611706A4602A903681B6998476946087169E703980599884200D354E708
:2024C00014A800780090049B03AA0D99280000F0FAFB002800D155E7686931006A46517190
:2024E00001AA521C02A903681B699847002800D148E730006946087147E7684600790FB0B6
:20250000F0BDF1B5A8B00F001500002630006946087134000CA829002422FFF745FB687801
:202520007C2801D1012500E0350003960296786901F0A8F8694608716846007900280CD1F3
:2025400030200CA94870786831006A4691700CAA00A9891C03685B6998476846007900289B
:2025600017D003AB02AA01A906A801F0D4F82B00DBB20CAA390009A8FFF726FE09A906A833
:2025800001F0CDF868460079002801D1012400E034006846007900280AD02800C0B20090D8
:2025A00003AB02AA0CA93800FFF793FE694608716846007900283AD02800C0B2002801D039
:2025C000782000E0F8200CA94870300023228854EDB2002D20D0087800281DD11FAA01A9E8
:2025E00004A800F09FFE796801206A46507000AA521C15A80B681B69984715A904A800F02B
:2026000099FE68460079002806D00CA8801C1FA9891C2022FFF7C8FA786869460E700CAA84
:20262000694603685B699847694608710BE02000C0B2284207D030200CA948707869796977
:202640000968C968884728980CAA01A901F07FF829B0F0BDF5B5B1B00E000AA8329924221F
:20266000FFF7A2FA706800F0E9FD03900AAC207800F0E6FD0399C0B2182250430818083033
:2026800000F0E2FD0590207800F0DAFD0399C0B2182250430818001D00F0D6FD04900025E3
:2026A00028006946087202AB0AAAA11C3000FFF7C2FC694608706846007800280AD005ABC8
:2026C00004AA3299706977693F68BF68B8476946087011E02800232160542800607080202B
:2026E00022216054706829006A46D1710AAA01A9C91C03685B69984768460078002829D058
:2027000032980078002825D127AA694608A800F009FE7168012738006A46907101AA921CEF
:202720001DA80B681B6998471DA908A800F002FE6846007800280DD0280027A948707068E5
:2027400069464F7127AA01A9491C03685B699847694608706846007800280FD0FC206070DC
:20276000280023216054706829006A4611710AAA01A903685B69984769460870684600784D
:20278000002820D00AAA694606A800F0CBFD0AAA310013A8FFF7B5FE13A906A800F0CAFDEE
:2027A0006846007800280ED1601C00F017FC002809D0706829006A46D1700AAA00A9C91C38
:2027C00003685B69984768460078002837D0207800F036FD1821484303990F1838001430D8
:2027E00000F032FD002803D101206946087002E02800694608706846007800280FD13800DF
:20280000143000F021FD2321615C814207D22320205C401C232160540120694608706846C0
:20282000007800280BD0706829006A4691700AAA00A9891C03685B69984769460870684686
:202840000078002809D0684645700AAA00A9491C3000FFF757FC6946087031980AAA69460E
:2028600000F075FF33B0F0BDF0B597B007000D00110004A82422FFF797F9002420006946E8
:20288000087004AA694602A800F04CFD04AA29000DA8FFF736FE0DA902A800F04BFD684684
:2028A0000078002830D0686800F0C8FC019004AE307800F0C5FC1821484301990818232196
:2028C000715C491C2322B154143000F0BDFC00280BD0686821006A46D17004AA00A9C91C6E
:2028E00003685B6998476946087068460078002819D06846847004AA00A9891C2800FFF7B0
:2029000001FC694608700EE004A8401C00F066FB002808D0686869464C7004AA00A9491C55
:2029200003685B699847380004AA694600F00FFF17B0F0BDF1B5A6B00E00110001206A4696
:20294000107009A82422FFF72FF9706800F076FC070009AC207800F073FC182148433D18DC
:202960002800143000F070FC002807D02800143000F06AFC2321615C81425ED3207800F051
:202980005FFC010003A8C9B21822514379181822FFF70AF9059802900498039947180398C2
:2029A000069900F0EEFC7818019002AB01AA09A9706977693F68BF68B84769460870684618
:2029C0000078002810D07C206070802022216054706800216A46D17009AA00A9C91C0368DE
:2029E0005B6998476946087068460078002824D009AA694605A800F095FC09AA31001CA893
:202A0000FFF77FFD1CA905A800F094FC68460078002812D1601C00F0E1FA00280DD009AA22
:202A2000864903A800F0A4FE09AA310012A800F099FA12A903A800F09FFE68460078002828
:202A400016D02320205C401C232160542800143000F0FAFB00280BD0706800216A4691707F
:202A600009AA00A9891C03685B699847694608706846007800280AD000206946487009AABE
:202A800000A9491C3000FFF73DFB69460870269809AA694600F05BFE27B0F0BDF8B5A2B0B7
:202AA00007000C00150001206946087005A829002422FFF779F805AA694603A800F032FCFC
:202AC0002A00210018A8FFF71CFD18A903A800F031FC68460078002830D0606800F0AEFBA4
:202AE000050005AE307800F0ABFB1821484328182321715C491C2322B154143000F0A4FB49
:202B000000280BD0606800216A46917005AA00A9891C03685B6998476946087068460078C0
:202B200000281FD000206946487005AA00A9491C2000FFF7E7FA6946087013E005A8401C20
:202B400000F04CFA00280DD005AA3C4901A800F00FFE05AA21000EA800F004FA0EA901A88C
:202B600000F00AFE380005AA694600F0F0FD23B0F0BDF2B596B007001100012528006A4667
:202B8000107003A82422FFF70FF81698406800F055FB060003AC207800F052FB18214843E3
:202BA00036183000143000F04FFB002807D03000143000F049FB2321615C814213D3102098
:202BC000607003AA1D4901A800F0D2FD03AA16990CA800F0C7F90CA901A800F0CDFD0020B2
:202BE0006946087022E02320205C401C2321605416984068002421006A46517003AA00A937
:202C0000491C03685B69984700280DD020006946887003AA00A9891C1698FFF773FA002841
:202C200002D06846057001E068460470380003AA694600F08CFD17B0F0BD0000926600081B
:202C4000F8B58AB005000E001100012738006A46107001A82422FEF7A7FF01AC20780028E2
:202C60000AD1706869468F7001AA00A9891C03685B6998476946087068460078002814D093
:202C8000FF2060702220205CE02802D1C02022216054706800216A46517001AA00A9491CB2
:202CA00003685B6998476946087068460078002802D03000FFF7F0F9280001AA694600F03E
:202CC00046FD0BB0F0BDF6B5C7B004000E001D004E98C0B2002802D0489807681BE048987C
:202CE0000068002814D1280000F0AEFA070028000C3000F0A9FA009028000C3000F0A4FA1F
:202D0000010000983818401E00F03BFB070002E0489807687F1E0696039428000C3000F0EA
:202D200093FA0400281D00F08FFA67433818049028000C3000F088FA04002800083000F08C
:202D400083FA489909686143081805900398446800206946087128000C3000F075FA009069
:202D6000049B01AA069920002468246AA04704002000C0B2002849D028000C3000F064FAC0
:202D8000060007A880214900FEF7CCFE31E0002421E0350003984068012469460C7201953F
:202DA00007A90091059B02AA06990768BF69B8470028ECD00398406800216A465172019500
:202DC00007A90091049B02AA521C06990768FF69B8470028DBD00498401904900598401932
:202DE0000590761B03984068039949680968496B88472000C0B2002808D0002E06D0FF2074
:202E0000801C8642C5D380256D00C3E72000C0B249B0F0BDF6B5C7B004000E001D004E988B
:202E2000C0B200281CD048980068002803D0489807687F1E16E0280000F006FA07002800A0
:202E40000C3000F001FA009028000C3000F0FCF9010000983818401E00F093FA070001E0C6
:202E6000489807680696039428000C3000F0ECF90400281D00F0E8F96743381805902800C6
:202E80000C3000F0E1F904002800083000F0DCF948990968614308180490039844680120F1
:202EA0006946087128000C3000F0CEF90090049B01AA069920002468246AA0470400200011
:202EC000C0B200284AD028000C3000F0BDF9060007A880214900FEF725FE32E023E0350033
:202EE00003984068002421006A461172019507A90091059B02AA06990768BF69B847002897
:202F0000ECD00398406801216A465172019507A90091049B02AA521C06990768FF69B84718
:202F20000028DBD00124059840190590049840190490761B03984068039949680968496B3F
:202F400088472000C0B2002808D0002E06D0FF20801C8642C3D380256D00C1E72000C0B2A7
:202F600049B0F0BD78B593B006000C00110001256846057001A82422FEF716FE68460079B0
:202F8000002814D10AA801A92422FEF7F3FD0AA8801C2021FEF7C4FD606869468D700AAA30
:202FA00000A9891C03685B699847694608706846007800280BD0606800216A46517001AA60
:202FC00000A9491C03685B69984769460870300001AA694600F0BBFB14B070BD00B501785F
:202FE000302908D00178102905D00178FF2902D00078002801D1012000E00020C0B200BDE4
:2030000000B50278012A06D10878702801D101200FE000200DE00078002809D10878F8285E
:2030200002D00878782801D1012002E0002000E00020C0B200BDFCB587B006000C000E9FD3
:20304000002528006946087102AA01A903A800F022F90097089B079A616805A867683F6828
:20306000BF6AB84705A903A800F019F968460079002819D00298002814D0606800F0DEF861
:2030800004000798007800F0DBF8C0B218214843201800F0D9F80299884203D30120694618
:2030A000087101E068460571300002AA01A900F07CFB09B0F0BD000038B505000C002C70A5
:2030C00000200100697068600C2000F07FFB68606868002802D0686800F080FC280032BDB3
:2030E00010B504006068002807D0606800F081FC606800F0C3FB00206060200010BDFEB515
:2031000004000F001120694608706068002801D10E2032E0019800282ED06078002801D0B2
:2031200002202AE02078012801D1154900E015490122606800F08FFC0500002D0ED1380085
:203140003968496888470600380039680968884732000100606800F035FD0500002D07D108
:2031600001206070029A0199606800F0A5FD0500280000F0FBFD00E00520C0B2FEBD000087
:20318000A8140108B0140108F8B504000D0017001120694608706068002801D10E2011E08F
:2031A000002D0ED06078002809D03A002900606800F082FD0600300000F0D8FD02E0032091
:2031C00000E00520C0B2F2BDF8B504000F001120694608706068002801D10E2511E0002F9C
:2031E0000ED06078002809D03900606800F07AFD0600300000F0BAFD050002E0032500E0E4
:203200000525606800F0F5FB002060702800C0B2F2BDFEE710B50400200000F021FE03487B
:203220002060200000F022FE200010BD7412010880B500F001F802BD4160704740687047CE
:20324000C0B27047C0B27047C3788278417800781B021A430902120408431043704780B591
:2032600000F00DFE01BD38B505000C002000243000F012FE007869680870200000F00DFE47
:2032800000F00CFE0400280000F009FE210000F007FE280032BD80B500F016FE01BD38B500
:2032A00005000C00201D00F0F7FD007869680870200000F016FE00F015FE0400280000F0D8
:2032C00012FE210000F010FE280032BD70B504000D00100000F01BFE0600280000F018FE25
:2032E00032000100200000F014FE70BD80B500F024FE01BD38B505000C002000203000F0E9
:20330000CBFD007869680870200000F023FE00F022FE0400280000F01FFE210000F01DFE7E
:20332000280032BD38B50D0014002200290000F029FE31BD70B504000D002800243000F076
:20334000ABFD007861680870280000F029FE00F028FE0600200000F025FE310000F023FE3C
:20336000200070BDA446521E08D303780C78401C491CA342F7D0181B644670470020644601
:2033800070470022030A8B420BD203098B4219D243088B422ED2411A00D201465241104664
:2033A0007047FF2209023FD012068B4205D3121209028B4201D31212090203098B4219D39A
:2033C00000E0090AC3098B4201D3CB01C01A524183098B4201D38B01C01A524143098B4215
:2033E00001D34B01C01A524103098B4201D30B01C01A5241C3088B4201D3CB00C01A524176
:2034000083088B4201D38B00C01A524143088B4201D34B00C01A5241884200D3401A52415A
:20342000CFD201461046704708B500F0D1FD08BDF8B506000F001400180000F0CAFD0500AD
:20344000200000F0C6FD0400380000F061FD2B0022000100300000F0BDFDF1BD00B502681A
:203460000B689A4201D20800FFE700BD10B504009C4820606160200008309B490922FEF735
:2034800093FB00206074200010BD40687047F3B58DB0040017001E000025280069460871CB
:2034A0000395029520002168C968884703AA01A909A800F0A9FD616828006A46907100975D
:2034C00001AB9B1C0E9A0BA80F68BF6AB8470BA909A800F09DFD68460079002814D002AAC1
:2034E00001A905A800F090FD616801206A465071009601AB5B1C0E9A07A80E68B66AB04700
:2035000007A905A800F084FD68460079002824D06068FFF793FE06000E980078FFF790FEA3
:20352000C0B21821484330180C30FFF78DFE060003988019401E3100FFF723FF0090029845
:203540008019401E3100FFF71CFF049004A96846FFF784FF0068A060E560607C002805D143
:2035600068460079002801D001206074684600790FB0F0BD1FB58A68002A03D001226B460C
:203580001A7002E000226B461A7004000A000C32694601A800F053FD01A9200000F05FFD68
:2035A0001FBD70B5040015000868E168884204D12878032801D2012000E000200100C9B25E
:2035C00000290DD0207C00F05AFD0600F6B2761C287800F054FD864201D1012000E0002026
:2035E0000100C9B2002911D029782174217C02290CD1E168A268914205D2E168491CE1607E
:203600000021217402E00021C943E160617C002905D10100C9B2002901D001216174C0B2E9
:2036200070BD70B50300002420000D689E68B5421BD21578002D18D01578032D15D20868DC
:20364000DD68A84201D2012000E020000500EDB2002D0AD10968DD68A94206D1187C117806
:20366000884201D3012000E02000C0B270BD10B50400200008301D490922FEF795FA012095
:20368000607410BD00B58068002801D0012000E00020C0B200BD38B586B00400002528002F
:2036A0006946087022000832694601A800F0E9FC2000FFF7EAFE010003A80A68D26B90472A
:2036C00003A901A800F0E1FC68460078002805D12000083006490922FEF766FA657407B0ED
:2036E00030BD000068110108F0130108FC1301080814010810B504000120617C002908D04A
:203700002000FFF7C2FE210008310268926B90476074C0B210BD80B500F0CFFC01BD38B58D
:2037200005000C002000083000F0B6FB0078A9680870200000F0D0FC00F0CFFC04002800BB
:2037400000F0CCFC210000F0CAFC280032BDF8B504000F001500280000F0D8FC06003800C4
:2037600000F0D6FB32000100200000F0D0FCF1BD80B500F0E1FC01BD38B505000C002000ED
:20378000243000F089FB0100686800F0E2FC200000F006FC00F005FC0400280000F0DAFCCD
:2037A000210000F000FC280032BDF8B504000F001500280000F00DFC0600380000F0A8FB1E
:2037C00032000100200000F0C6FCF1BDFEB506000025029566480068002801D100F06BF85E
:2037E000644800683040002846D1002E07D008360720064203D03100083130400E1A002E51
:203800003AD05D4F3868B04236D35C480090006804006068B04205D22068002802D0009410
:203820002468F6E752480068844225D000980068083002902068009908606068801B112873
:2038400009D3A01901906068801B019948606660019800F05DF838686168401A386048480E
:2038600039680268914201D2396801606068414909680143616025600298FEBD70B50500C9
:203880002E00002D16D0083E34003A48616802680A40002A0ED0216800290BD161680068A7
:2038A0008143616034480168626889180160200000F02EF870BD70B58021C900314A100055
:2038C00043075B0F002B04D0C01D07239843091A89180200294C2260002363605418083C00
:2038E0000725AC43224D2C602E6873602E6833601300E61A5E602D681D605D68204E356075
:203900005D681D4E356080252D061A4E356070BD30B51A490A68824201D20968FAE70A0033
:203920004B68D318834204D14B6844681B194B600800030044681C190D68AC4210D10C4A8B
:203940000C681568AC4208D042680C686468121942600A681268026004E01268026001E00A
:203960000A680260814200D0086030BD000000002C1E0020381E0020301E00200C1E0020F3
:20398000341E0020B0100020F8B504000E0080204002844201D2864201D3002017E02700C1
:2039A00077433800FFF712FF0500002D01D100200DE03B0000223900280000F0E1FB00284B
:2039C00001D1280003E02800FFF758FF0020F2BD10B504002000FFF751FF10BDF8B5040019
:2039E0000C2500262700320029003800FEF788F8F1BD10B50400002C02D02068002800D14B
:203A000028E06068002814D0206804214056401F012803D9801E012804D907E0606800F0E0
:203A2000E4FB03E06068FCF756FBFFE76068FFF7CFFFA068002809D0206881790220414315
:203A4000A068FEF789F8A068FFF7C2FF0C212000FEF782F810BD70B504000D001600002D27
:203A600001D0002C01D156483AE0256000206060A06004202856401F012803D9801E01288D
:203A80000ED91BE06C210120FFF77EFF60606068002801D1924823E0606800F09BFB0FE087
:203AA000D8210120FFF770FF60606068002801D18B4815E06068FCF703FB01E040480FE02C
:203AC000002E0CD0A9790220FFF75EFFA060A068002804D12000FFF78CFF814800E00020D6
:203AE00070BD10B50400002C02D02068002801D1704820E0206804214056052806D019D366
:203B000007280DD007D308280FD013E00121606800F074FB0FE00021606800F06FFB0AE058
:203B200001216068FCF7E0FA05E000216068FCF7DBFA00E05F4810BD70B504000E00150098
:203B4000002C02D02068002801D15A4816E0206804214056401F012803D9801E012806D900
:203B60000BE02A003100606801F09CFA06E02A0031006068FDF738FD00E04E4870BD38B5EE
:203B800005000C00002D02D02868002801D1494814E0286804214056401F012803D9801EB9
:203BA000012805D909E02100686801F0DBFA05E021006868FDF787FD00E03E4832BD0000BB
:203BC00000AFFFFFF6B597B005000F006D26F643002D05D02868002802D0A868002801D1D0
:203BE000344865E0286880791899884219D22800FFF777FF0600002855D1189A390028001A
:203C0000FFF79AFF060000284DD107A92800FFF7B6FF0600002846D128684079189007A861
:203C20000700A8680090A86829688979401801902868807906903620059000980290059A7E
:203C400006990298FDF75CFF02982868807904905C20039001980290039A04990298FDF723
:203C60004FFF029800200400189884420DD20098005D395D4140009801550198005D395D5D
:203C8000414001980155641CEEE72800FFF729FF0600002807D12868827900992800FFF7D1
:203CA0004BFF06000028402107A8FDF755FF300019B0F0BD00AFFFFF70B504000E00150095
:203CC000002C05D02068002802D0A068002801D1254804E02A0031002000FFF72DFF70BD44
:203CE00080AEFFFFF0B591B004000F006D25ED43002C05D02068002802D0A068002801D158
:203D000019482EE0A06821688979461801A92000FFF735FF0090002801D0009821E020000D
:203D2000FFF7DFFE0500002801D0280019E02068827931002000FFF7FFFE0090002801D041
:203D400000980EE02068427901A92000FFF7F4FE0500002801D0280003E039002000FFF790
:203D60000EFF11B0F0BD000000AFFFFF00B501000800002858D0384A801A63D080225200CA
:203D8000801A63D080385FD0803857D080225200801A59D080384FD080384FD080384FD054
:203DA000803853D080225200801A43D080383DD0803847D0294A801A3ED0801E46D0801E86
:203DC00042D0801E32D0801E30D0801E3CD0801E3AD024383CD0C01E34D0401E34D0401E37
:203DE00030D0401E30D0801E32D00F382AD0801E24D0401E1AD0401E26D0401E18D00C38CC
:203E000022D0401E1ED0401E1AD0801E1ED0801E1AD0801E18D0801E16D0801E0CD0801EE6
:203E200012D0801E10D015E0012014E00B2012E00C2010E00D200EE00F200CE006200AE099
:203E4000042008E0082006E0052004E00E2002E0102000E0112000BD80ADFFFF144B0000A7
:203E600010B50400200001F04AFA10BD10B50400202300222021201D00F082F910BD38B586
:203E800004000D001100200001F03AFA2900201D01F03AFA200032BD704770477047704745
:203EA00038B504000D00280001F037FA0100206801F034FA280001F03FFA01F03EFA200077
:203EC00001F03CFA200032BD38B504000D001100200001F034FA2900201D01F015FA2000D8
:203EE00032BD70477047704738B504000D00280001F029FA006821680860280001F024FAE4
:203F000001F01BFA200001F020FA200032BD7047704738B504000D001000FFF7F8FF0100F7
:203F2000200001F013FA2800FFF7F2FF01002000203001F00FFA200032BD38B504000D00DC
:203F40001100200001F010FA2900201D01F0DCF9200032BD70477047704738B504000D00D7
:203F6000280001F005FA010020682022FDF71CFE280001F0FEF901F0E0F9200001F0FAF972
:203F8000200032BD70B504000D0016003100200001F0F1F92900201D01F0B6F9200070BD47
:203FA00070477047704738B504000D00280001F0E8F9010020682422FDF7F6FD280001F015
:203FC000E1F901F0BAF9200001F0DDF9200032BD70477047F8B504000F0015001800FFF71C
:203FE000F8FF06002800FFF7F4FF32000100200001F0CAF93800FFF78BFF0100200008309B
:2040000001F0A8F92000F2BD80B501F0C1F901BD38B505000C00201DFFF73EFF00786968EA
:2040200008702000FFF75DFFFFF75CFF0400280001F0BBF9210001F0B9F9280032BD70B574
:2040400004000D001000FFF7C4FF06002800FFF723FF32000100200001F0BBF970BD38B52E
:2040600005000C002100280001F0C6F9201DFFF713FF0100281D01F0C3F9280032BDC0B275
:20408000704780B501F0C5F901BD38B505000C0020000930FFF700FF00786968087020009A
:2040A00001F0C4F901F0C3F90400280001F0C0F9210001F0BEF9280032BD38B504000D00F1
:2040C00011001A00200001F0C9F929002000083001F01AF9200032BD70477047704738B53C
:2040E00005000C00201D01F02EF9006869680860200001F0B7F9FFF7F5FE0400280001F0F2
:20410000B2F92100FFF7F0FE280032BD704770B504000D0016003000FFF7F8FF0100200097
:2041200001F0A2F92800FFF7F3FE01002000243001F010F9200070BD38B504000D00110019
:20414000200001F018F92900201D01F093F9200032BD7047704770B504000D001600300061
:20416000FFF737FF0100200001F08CF92800FFF7CFFE0100201D01F0EDF8200070BDFEE74B
:2041800010B50C001900002803D080231B069C4203D309487844203007E0994201D28C4202
:2041A00006D22100FDF7ACFC04A001F071F910BDFDF7A6FC002010BDA8CE00006D656D6303
:2041C00070795F733A2062616420617267756D656E740000F8B504006C250026270032005F
:2041E00029003800FDF78CFCF1BD10B50400002C03D06C212000FDF7AFFC10BD00B502009C
:20420000002010605060002910D1124890601248D060124810611248506112489061124805
:20422000D06112481062124850620FE0114890601148D06011481061114850611148906196
:204240001148D06111481062114850629166002000BD000067E6096A85AE67BB72F36E3C06
:204260003AF54FA57F520E518C68059BABD9831F19CDE05BD89E05C107D57C3617DD7030B2
:2042800039590EF7310BC0FF11155868A78FF964A44FFABEF3B5CBB0002008280DD24B9932
:2042A00004224243891889686A4604234343D21884235B00D150401CEFE7002110291FD2DA
:2042C0004C9804224A43805C00064C9A04234B43D2185278120402434C9804234B43C0184A
:2042E0008078000210434C9A04234B43D218D2780243684604234B43C0188260491CDDE717
:204300000022102A00D325E2004B01E0BC0501086C46499D46980621469EC84146990B26D7
:20432000469FF141414046981927469EF841484028184899469D479E489F77402F404F409D
:20434000C019042151435958401804215143611889684018009042980221429DC8414299F7
:204360000D25429EE941414042981625429EE8414840429D43992940449D429E439F374399
:204380002F400F43C019019045980099401845900098019940184990489D45980621459E20
:2043A000C84145990B26459FF141414045981927459EF841484028184799459D469E479FC1
:2043C00077402F404F40C01904215143591849684018042151436118C968401800904998F0
:2043E0000221499DC84149990D25499EE941414049981625499EE8414840499D4299294027
:20440000439D499E429F37432F400F43C0190190449800994018449000980199401848904C
:20442000479D44980621449EC84144990B26449FF141414044981927449EF8414840281807
:204440004699449D459E469F77402F404F40C01904215143591889684018042151436118A1
:2044600009694018009048980221489DC84148990D25489EE941414048981625489EE84123
:204480004840489D49992940429D489E499F37432F400F43C0190190439800994018439073
:2044A0000098019940184790469D43980621439EC84143990B26439FF1414140439819270F
:2044C000439EF841484028184599439D449E459F77402F404F40C019042151435918C9688D
:2044E000401804215143611849694018009047980221479DC84147990D25479EE941414007
:2045000047981625479EE8414840479D48992940499D479E489F37432F400F43C019019066
:2045200042980099401842900098019940184690459D42980621429EC84142990B26429FC5
:20454000F141414042981927429EF841484028184499429D439E449F77402F404F40C0199F
:204560000421514359180969401804215143611889694018009046980221469DC84146996F
:204580000D25469EE941414046981625469EE8414840469D47992940489D469E479F374357
:2045A0002F400F43C019019049980099401849900098019940184590449D49980621499EF6
:2045C000C84149990B26499FF141414049981927499EF841484028184399499D429E439F97
:2045E00077402F404F40C01904215143591849694018042151436118C969401800904598D0
:204600000221459DC84145990D25459EE941414045981625459EE8414840459D4699294018
:20462000479D459E469F37432F400F43C01901904898009940184890009801994018449022
:20464000439D48980621489EC84148990B26489FF141414048981927489EF84148402818D1
:204660004299489D499E429F77402F404F40C019042151435918896940180421514361187E
:20468000096A4018009044980221449DC84144990D25449EE941414044981625449EE84118
:2046A0004840449D45992940469D449E459F37432F400F43C0190190479800994018479055
:2046C0000098019940184390429D47980621479EC84147990B26479FF141414047981927E1
:2046E000479EF841484028184999479D489E499F77402F404F40C019042151435918C96956
:204700004018042151436118496A4018009043980221439BC84143990D23439CD941414009
:2047200043981623439CD84148404399449B0B404599439C449D25430D401D434019019042
:20474000469800994018469000980199401842900832D6E51021402901D300F084FC6A46D5
:20476000684604234B43C05811236C4604254D436459D8416B4604244C431B5913246D4683
:2047800004264E43AD59E3414340684604244C430059800A584004234B43D318143B1B685F
:2047A000C31804204843101834380068072404254D435519343D2D68E04104244C43141916
:2047C000343C2468122504264E439619343E3668EC41444004204843101834380068C00808
:2047E0006040181804234B43D318383B1B68C01804234B43D3189860004B01E0BC050108ED
:20480000499D46980624469EE041469C0B26469FF441444046981927469EF84160402818D9
:20482000489C469D479E489F77402F406740C01904244C431C59001904244C431419A4680A
:204840000019009042980224429DE041429C0D25429EEC41444042981625429EE841604050
:20486000429D439C2C40449D429E439F37432F402743C01901904598009C001945900098AF
:20488000019C001949900420484310184068112404254D4355196D68E04104244C431419D4
:2048A0006468132504264E4396197668EC4144400420484310184068800A604004244C439B
:2048C0001419103C2468061904204843101830380768072004244C431419303C2468C741FB
:2048E00004204843101830380568122004244C431419303C2468C5417D4004204843101864
:2049000030380068C0086840301804244C431419343C2468001904244C431419E060489D0D
:2049200045980624459EE041459C0B26459FF441444045981927459EF84160402818479CC1
:20494000459D469E479F77402F406740C01904244C431C196468001904244C431419E46804
:204960000019009049980224499DE041499C0D25499EEC41444049981625499EE841604005
:20498000499D429C2C40439D499E429F37432F402743C01901904498009C00194490009885
:2049A000019C001948900420484310188068112404254D435519AD68E04104244C43141934
:2049C000A468132504264E439619B668EC4144400420484310188068800A604004244C43BA
:2049E00014190C3C246806190420484310182C380768072004244C4314192C3C2468C741E6
:204A00000420484310182C380568122004244C4314192C3C2468C5417D400420484310184A
:204A20002C380068C0086840301804244C431419303C2468001904244C4314192061479DB4
:204A400044980624449EE041449C0B26449FF441444044981927449EF84160402818469CA7
:204A6000449D459E469F77402F406740C01904244C431C19A468001904244C431419246965
:204A80000019009048980224489DE041489C0D25489EEC41444048981625489EE8416040EA
:204AA000489D499C2C40429D489E499F37432F402743C01901904398009C0019439000985B
:204AC000019C00194790042048431018C068112404254D435519ED68E04104244C43141994
:204AE000E468132504264E439619F668EC414440042048431018C068800A604004244C43D9
:204B00001419083C2468061904204843101828380768072004244C431419283C2468C741D0
:204B200004204843101828380568122004244C431419283C2468C5417D4004204843101831
:204B400028380068C0086840301804244C4314192C3C2468001904244C4314196061469D5C
:204B600043980624439EE041439C0B26439FF441444043981927439EF84160402818459C8D
:204B8000439D449E459F77402F406740C01904244C431C19E468001904244C4314196469C7
:204BA0000019009047980224479DE041479C0D25479EEC41444047981625479EE8416040CF
:204BC000479D489C2C40499D479E489F37432F402743C01901904298009C00194290009839
:204BE000019C001946900420484310180069112404254D4355192D69E04104244C431419F2
:204C00002469132504264E4396193669EC4144400420484310180069800A604004244C43F4
:204C20001419241F2468061904204843101824380768072004244C431419243C2468C741B8
:204C400004204843101824380568122004244C431419243C2468C5417D4004204843101818
:204C600024380068C0086840301804244C431419283C2468001904244C431419A061459D04
:204C800042980624429EE041429C0B26429FF441444042981927429EF84160402818449C73
:204CA000429D439E449F77402F406740C01904244C431C192469001904244C431419A46928
:204CC0000019009046980224469DE041469C0D25469EEC41444046981625469EE8416040B4
:204CE000469D479C2C40489D469E479F37432F402743C01901904998009C0019499000980F
:204D0000019C001945900420484310184069112404254D4355196D69E04104244C43141951
:204D20006469132504264E4396197669EC4144400420484310184069800A60406C460425EF
:204D40004D436459061904204843101820380768072004244C431419203C2468C74104202A
:204D60004843101820380568122004244C431419203C2468C5417D400420484310182038CB
:204D80000068C0086840301804244C431419243C2468001904244C431419E061449D499823
:204DA0000624499EE041499C0B26499FF441444049981927499EF84160402818439C499D24
:204DC000429E439F77402F406740C01904244C431C196469001904244C431419E46900194F
:204DE000009045980224459DE041459C0D25459EEC41444045981625459EE8416040459DD0
:204E0000469C2C40479D459E469F37432F402743C01901904898009C001948900098019C39
:204E2000001944900420484310188069112404254D435519AD69E04104244C431419A46941
:204E4000132504264E439619B669EC4144400420484310188069800A604004244C43141912
:204E6000646806190420484310181C380768072004244C4314191C3C2468C7410420484307
:204E800010181C380568122004244C4314191C3C2468C5417D400420484310181C380068D9
:204EA000C0086840301804244C431419203C2468001904244C4314192062439D4898062405
:204EC000489EE041489C0B26489FF441444048981927489EF84160402818429C489D499E4D
:204EE000429F77402F406740C01904244C431C19A469001904244C431419246A00190090FE
:204F000044980224449DE041449C0D25449EEC41444044981625449EE8416040449D459C64
:204F20002C40469D449E459F37432F402743C01901904798009C001947900098019C0019E6
:204F40004390042048431018C069112404254D435519ED69E04104244C431419E469132542
:204F600004264E439619F669EC414440042048431018C069800A604004244C431419A4689D
:204F8000061904204843101818380768072004244C431419183C2468C74104204843101892
:204FA00018380568122004244C431419183C2468C5417D4004204843101818380068C00824
:204FC0006840301804244C4314191C3C2468001904244C4314196062429D47980624479E8D
:204FE000E041479C0B26479FF441444047981927479EF84160402818499C479D489E499F29
:2050000077402F406740C01904244C431B19DB69C01804234B43D218526A80180090439885
:205020000222439BD041439A0D23439CDA41424043981623439CD8415040439A449B134029
:20504000459A439C449D254315401D43401901904698009A801846900098019A8018429027
:205060000831FFF778FB0024082C13D24B98042161434018806869460422624389188422A4
:205080005200895840184B990422624389188860641CE9E7942149006846FCF75DFD0020E4
:2050A0004DB0F0BDF0B585B006000D0014006D27FF43002C01D1002052E030788006800E63
:2050C000009040200099401A0190306800193060306830603068A04202D27068401C7060A1
:2050E000009800281FD0019884421CD30198049003950098301828300290049A0399029850
:20510000FCF752FD0298310028313000FFF7C2F80700002801D0380022E001982D18019898
:20512000241A00200090402C0BD329003000FFF7B1F80700002801D0380011E04035403C25
:20514000F1E7002C0BD0049403950098301828300290049A03990298FCF726FD02980020D2
:2051600005B0F0BDF8B584B004000D006D20C043019020788006800E802122182823D154C3
:20518000401C0090009839280ED238200099401A0290002600982018070028373200029944
:2051A0003800FCF7ADFC21E040200099401A0390002602960098201807002837029A039908
:2051C0003800FCF79DFC210028312000FFF762F80190002801D001988FE038270296260072
:2051E0002836029A39003000FCF78AFC2068400F6168CE0006432068C700300E602160545A
:205200003000000C61216054300A62216054300063216054380E642160543800000C6521FA
:205220006054380A66216054380067216054210028312000FFF72EF80100002801D0080011
:205240005BE0A068000E2870A068000C6870A068000AA870A068E870E068000E2871E068B8
:20526000000C6871E068000AA871E068E8712069000E28722069000C68722069000AA872F0
:205280002069E8726069000E28736069000C68736069000AA8736069E873A069000E287444
:2052A000A069000C6874A069000AA874A069E874E069000E2875E069000C6875E069000AF0
:2052C000A875E069E875206A000E2876206A000C6876206A000AA876206AE876A06E002891
:2052E0000AD1606A000E2877606A000C6877606A000AA877606AE877002005B0F0BD704752
:2053000080B500F0E9F802BD38B505000C002000FEF7FEFD2860280032BD704738B5040073
:205320000D002900200000F0DEF8201D291D2022FCF73AFC200032BD70477047704780B5FA
:2053400000F0D2F802BD70477047704780B500F0D2F802BD38B505000C002000FEF7D8FD19
:2053600000782870280032BD80B500F0CFF802BD70477047704710B50400200000F0CDF898
:2053800010BD70477047704780B500F0CFF802BD38B504000D001100200000F0DAF8290056
:2053A000201DFFF7B1FF200032BD704738B504000D002800FFF7C7FF0068216808602800E1
:2053C000FFF7C2FFFFF7B9FF200000F0C6F8200032BD38B504000D001000FEF7FAFD010090
:2053E000200000F0BBF82800FEF756FD0100201D00F006F8200032BD80B500F0B3F802BDB0
:2054000010B504000800FEF747FD00782070200010BD38B504000D001100200000F0ADF8C9
:205420002900201DFFF770FF200032BD70477047704738B504000D00280000F0A2F80100BC
:2054400020680922FCF7B0FB280000F09BF8FFF774FF200000F097F8200032BD80B500F014
:2054600093F802BD7047704710B50400200000F098F810BD10B50400080000F09EF8206067
:20548000200010BD10B50400200000F097F810BD80B5002801D100BF07A006490B68002B68
:2054A00003D022220021984701E000F093F8222002BD0000441E0020636F6E737472616993
:2054C0006E742068616E646C65723A20626164206D6573736167650010B50400200000F08D
:2054E0007EF8200010BD704710B50400200000F07EF8200010BD10B504000800FEF707FD8C
:205500000100200000F07BF8200010BD10B50400200000F080F8200010BD38B505000C00DE
:205520002100280000F07FF8280032BD38B504000D001000FEF74DFD01002000FFF7A2FF9F
:205540002800FEF746FD0100201D00F075F8200032BD80B500F07AF802BD704780B500F00F
:205560007CF802BD10B50400080000F081F80100200000F07EF8200010BD80B500F083F8AA
:2055800002BD70477047704738B504000D0011002000FFF7D4FE2900201D00F028F820009A
:2055A00032BD38B504000D002800FEF7AFFD0100200000F06FF8200032BD704738B5040006
:2055C0000D002800FEF705FD0100200000F034F8200032BD80B5012000F06AF801BD10B528
:2055E0000400080000F06EF82060200010BD10B504000800FEF7EDFC2060200010BD10B5FB
:2056000004000800FEF783FC010020002022FCF7CBFA200010BD10B504000800FEF777FCC9
:205620002060200010BD38B505000C002000FEF76DFD2860280032BD38B505000C002000C3
:20564000FEF7C7FC00682860280032BD10B50400200000F038F8200010BD10B504000800C4
:20566000FEF7B7FC0100200000F035F8200010BD704710B504000800FFF7FAFFFDF7E4FD0B
:205680002060200010BD10B50400200000F02FF8200010BD38B504000D002800FEF736FD62
:2056A000010020002422FCF77FFA200032BDFEE780B500BF00BF024A11001820ABBEFBE790
:2056C00026000200704710B50400080000F017F82060200010BD10B504000800FEF779FC73
:2056E000FDF7B2FD210000F00BF8200010BD10B50400080000F00EF82060200010BD70471B
:2057000084460870000A4870000A8870000AC8706046704770470000F8B504008C256D005E
:2057200000262700320029003800FCF7E9F9F1BD10B50400002C04D08C2149002000FCF734
:205740000BFA10BDF0B503001000803804D0403805D0403806D008E00A20186008E00C20FA
:20576000186005E00E20186002E01F20C043E7E01D0008355D60002004005609B44215D2C4
:20578000A6008F5DA6008E19767836023E43A700CF19BF783F043743A6008E19F678360609
:2057A0003E4304276743EE51641CE6E71E680A2E04D00C2E34D00E2E6CD0C0E004000A2CE5
:2057C0002DD29D482F68BC469C4F04266643BE5967467E40EF683F0AFFB2C75D7740EE688A
:2057E000360CF6B2865D36027E40EF683F0EC75D3F0477402E7BF6B2805D000678402861AF
:2058000068682E6946406E61A8686E694640AE61E868AE694640EE61641C1035CFE78EE02B
:205820000400082C35D284482F68BC46834F04266643BE5967467E406F693F0AFFB2C75DA7
:2058400077406E69360CF6B2865D36027E406F693F0EC75D3F0477402E7DF6B2805D00067E
:205860007840A8616868AE694640EE61A868EE6946402E62E8682E6A46406E6228696E6A87
:205880004640AE626869AE6A4640EE62641C1835C7E754E00400072C51D267482F68BC4662
:2058A000664F04266643BE5967467E40EF693F0AFFB2C75D7740EE69360CF6B2865D360255
:2058C0007E40EF693F0EC75D3F0477402E7FF6B2865D36067E402E626E682F6A77406F628E
:2058E000AE686F6A7740AF62EE68AF6A7740EF622F692C26AE5DF6B2865D7E40EF6A3F0A9A
:20590000FFB2C75D3F027740EE6A360CF6B2865D36047E40EF6A3F0EC05D00067040286399
:2059200068692E6B46406E63A8696E6B4640AE63E869AE6B4640EE63641C2035ABE700205D
:20594000F0BDF7B5C8B001A8FFF7E6FE489806000836489846604A9A499901A8FFF7F2FEF4
:205960000090002862D10198489908600298019910225143401801683160011D301D0A6831
:205980000260091D001D0A680260091D001D0A680260091D001D489A1268521E15002039FA
:2059A000012D33DB00221400042C2CDA224A244B0E78F6B2965D04277E439F59214B9C4611
:2059C0000B681B0ADBB2D65C04235E4363469B597B401F001C4B9C460B681B0CDBB2D65C8F
:2059E00004235E4363469E593B005E40174B0F683F0ED25D04277A439A5872400260001D06
:205A0000641C091DD0E76D1E2039C9E70A680260091D001D0A680260091D001D0A68026093
:205A2000091D001D0A6802600F1D061D01A8FFF77FFE00984BB0F0BDBC030108840E010841
:205A40000CED00080CF100080CF500080CF90008F7B588B00898406809990978099A52786E
:205A600012020A430999897809041143099AD27812060A430092009902684A400092001DA1
:205A800009990979099A527912020A430999897909041143099AD27912060A43019201998E
:205AA00002684A400192001D0999097A099A527A12020A430999897A09041143099AD27A58
:205AC00012060A430292029902684A400292001D0999097B099A527B12020A430999897BF0
:205AE00009041143099AD27B12060A430392039902684A400392031D089800684410641E38
:205B0000012C00DA30E19B489B499C4A954D1F68BC46009EF7B204267743EE5967467E4078
:205B2000B446019E360AF7B204267743D65967467E40B446029E360CF7B204267743CE59D5
:205B400067467E40B446039E370E04267743C65967467E4004961B1D1F68BC466E463679CE
:205B6000F7B204267743EE5967467E40B446029E360AF7B204267743D65967467E40B446EB
:205B8000039E360CF7B204267743CE5967467E40B446009E370E04267743C65967467E40B8
:205BA00005961B1D1F68BC466E46367AF7B204267743EE5967467E40B446039E360AF7B262
:205BC00004267743D65967467E40B446009E360CF7B204267743CE5967467E40B446019EB5
:205BE000370E04267743C65967467E4006961B1D1F68BC466E46367BF7B204267743EE595C
:205C000067467E40B446009E360AF7B204267743D65967467E40B446019E360CF7B204266C
:205C20007743CE5967467E40B446029E370E04267743C65967467E4007961B1D1F68BC466D
:205C40006E46367CF7B204267743EE5967467E40B446059E360AF7B204267743D659674659
:205C60007E40B446069E360CF7B204267743CE5967467E40B446079E370E04267743C65980
:205C800067467E4000961B1D1F68BC466E46367DF7B204267743EE5967467E40B446069EFE
:205CA000360AF7B204267743D65967467E40B446079E360CF7B204267743CE5967467E407D
:205CC000B446049E370E04267743C65967467E4001961B1D1F68BC466E46367EF7B20426E2
:205CE0007743EE5967467E40B446079E360AF7B204267743D65967467E40B446049E360C54
:205D0000F7B204267743CE5967467E40B446059E370E04267743C65967467E4002961B1D44
:205D20001F68AC466D462D7FEEB204256E436546AD597D40049E360AF6B204277E43925942
:205D40006A40059D2D0CEDB20426754349595140069A120E04256A438058484003901B1D49
:205D6000641ECDE60CDD000802480349034AA14E06E000BF0CE900080CE500080CE100089B
:205D80001F68BC46009DEFB204256F43F55967467D40AC46019D2D0AEFB204256F43D55938
:205DA00067467D40AC46029D2D0CEFB204256F43CD5967467D40AC46039D2F0E04256F43F9
:205DC000C55967467D4004951B1D1F68BC466D462D79EFB204256F43F55967467D40AC4662
:205DE000029D2D0AEFB204256F43D55967467D40AC46039D2D0CEFB204256F43CD5967469F
:205E00007D40AC46009D2F0E04256F43C55967467D4005951B1D1F68BC466D462D7AEFB240
:205E200004256F43F55967467D40AC46039D2D0AEFB204256F43D55967467D40AC46009D63
:205E40002D0CEFB204256F43CD5967467D40AC46019D2F0E04256F43C55967467D40069532
:205E60001B1D1D68B4466E46367BF7B2042677436646F6596E40009D2D0AEDB204277D4372
:205E800052597240019D2D0CEDB20426754349595140029A120E04256A4380584840079091
:205EA000191D55480B686A46127CD2B2825C5A40059B1B0ADBB2C35C1B025340069A120C83
:205EC000D2B2825C12045A40079B1B0EC35C1B0653400093091D0B686A46127DD2B2825C45
:205EE0005A40069B1B0ADBB2C35C1B025340079A120CD2B2825C12045A40049B1B0EC35C2E
:205F00001B0653400193091D0B686A46127ED2B2825C5A40079B1B0ADBB2C35C1B02534041
:205F2000049A120CD2B2825C12045A40059B1B0EC35C1B0653400293091D0B686A46127F88
:205F4000D2B2825C5A40049B1B0ADBB2C35C1B025340059A120CD2B2825C12045A40069BB5
:205F60001B0EC05C0006504003900D1D00980A9908700098000A0A9948700098000C0A9992
:205F800088700098000E0A99C87001980A9908710198000A0A9948710198000C0A99887193
:205FA0000198000E0A99C87102980A9908720298000A0A9948720298000C0A9988720298C9
:205FC000000E0A99C87203980A9908730398000A0A9948730398000C0A9988730398000E2C
:205FE0000A99C87320216846FBF7B6FD00200BB0F0BD00000CDD0008BC030108F7B588B00A
:206000000898406809990978099A527812020A430999897809041143099AD27812060A43F1
:206020000092009902684A400092001D09990979099A527912020A4309998979090411439A
:20604000099AD27912060A430192019902684A400192001D0999097A099A527A12020A4327
:206060000999897A09041143099AD27A12060A430292029902684A400292001D0999097BCC
:20608000099A527B12020A430999897B09041143099AD27B12060A430392039902684A40AE
:2060A0000392031D089800684410641E012C00DA30E19B489B499C4A954D1F68BC46009E7F
:2060C000F7B204267743EE5967467E40B446039E360AF7B204267743D65967467E40B44685
:2060E000029E360CF7B204267743CE5967467E40B446019E370E04267743C65967467E4053
:2061000004961B1D1F68BC466E463679F7B204267743EE5967467E40B446009E360AF7B201
:2061200004267743D65967467E40B446039E360CF7B204267743CE5967467E40B446029E4B
:20614000370E04267743C65967467E4005961B1D1F68BC466E46367AF7B204267743EE59F8
:2061600067467E40B446019E360AF7B204267743D65967467E40B446009E360CF7B2042607
:206180007743CE5967467E40B446039E370E04267743C65967467E4006961B1D1F68BC4608
:2061A0006E46367BF7B204267743EE5967467E40B446029E360AF7B204267743D6596746F8
:2061C0007E40B446019E360CF7B204267743CE5967467E40B446009E370E04267743C65927
:2061E00067467E4007961B1D1F68BC466E46367CF7B204267743EE5967467E40B446079E92
:20620000360AF7B204267743D65967467E40B446069E360CF7B204267743CE5967467E4018
:20622000B446059E370E04267743C65967467E4000961B1D1F68BC466E46367DF7B204267D
:206240007743EE5967467E40B446049E360AF7B204267743D65967467E40B446079E360CEE
:20626000F7B204267743CE5967467E40B446069E370E04267743C65967467E4001961B1DDF
:206280001F68BC466E46367EF7B204267743EE5967467E40B446059E360AF7B20426774364
:2062A000D65967467E40B446049E360CF7B204267743CE5967467E40B446079E370E042639
:2062C0007743C65967467E4002961B1D1F68AC466D462D7FEEB204256E436546AD597D40EA
:2062E000069E360AF6B204277E4392596A40059D2D0CEDB20426754349595140049A120E44
:2063000004256A438058484003901B1D641ECDE60CED000802480349034AA14E06E000BFCF
:206320000CF900080CF500080CF100081F68BC46009DEFB204256F43F55967467D40AC46F6
:20634000039D2D0AEFB204256F43D55967467D40AC46029D2D0CEFB204256F43CD59674639
:206360007D40AC46019D2F0E04256F43C55967467D4004951B1D1F68BC466D462D79EFB2DC
:2063800004256F43F55967467D40AC46009D2D0AEFB204256F43D55967467D40AC46039DFE
:2063A0002D0CEFB204256F43CD5967467D40AC46029D2F0E04256F43C55967467D400595CD
:2063C0001B1D1F68BC466D462D7AEFB204256F43F55967467D40AC46019D2D0AEFB20425DD
:2063E0006F43D55967467D40AC46009D2D0CEFB204256F43CD5967467D40AC46039D2F0EB0
:2064000004256F43C55967467D4006951B1D1D68B4466E46367BF7B2042677436646F659DA
:206420006E40029D2D0AEDB204277D4352597240019D2D0CEDB20426754349595140009ACC
:20644000120E04256A43805848400790191D55480B686A46127CD2B2825C5A40079B1B0A08
:20646000DBB2C35C1B025340069A120CD2B2825C12045A40059B1B0EC35C1B0653400093C1
:20648000091D0B686A46127DD2B2825C5A40049B1B0ADBB2C35C1B025340079A120CD2B2C5
:2064A000825C12045A40069B1B0EC35C1B0653400193091D0B686A46127ED2B2825C5A4048
:2064C000059B1B0ADBB2C35C1B025340049A120CD2B2825C12045A40079B1B0EC35C1B06C2
:2064E00053400293091D0B686A46127FD2B2825C5A40069B1B0ADBB2C35C1B025340059ADD
:20650000120CD2B2825C12045A40049B1B0EC05C0006504003900D1D00980A9908700098C9
:20652000000A0A9948700098000C0A9988700098000E0A99C87001980A9908710198000ADE
:206540000A9948710198000C0A9988710198000E0A99C87102980A9908720298000A0A991D
:2065600048720298000C0A9988720298000E0A99C87203980A9908730398000A0A994873DD
:206580000398000C0A9988730398000E0A99C87320216846FBF7E0FA00200BB0F0BD0000EC
:2065A0000CED0008BC040108F8B505000E0014001F00012E05D13A0021002800FFF748FA5E
:2065C00004E03A0021002800FFF718FDF2BDFBB588B01700109E119D3807000F002802D0F7
:2065E0002120C04353E0099800282DD1002F4DD010200290019603A80090029A01990098AF
:20660000FBF7D2FA00982B00320009990898FFF7CBFF00200400102C06DA285D0A99095DF7
:2066200041402955641CF6E71020029003A801900A980090029A01990098FBF7B5FA0098C7
:2066400010361035103FD1E7002F1FD000200400102C06DA305D0A99095D41402955641C35
:20666000F6E72B002A0009990898FFF79DFF1020029001950A980090029A01990098FBF7CA
:2066800093FA009810361035103FDDE700200BB0F0BD0000F8B50400002C01D1012078E186
:2066A00020689249884208D02068BA49884204D092214900B84801F097F86068002809D067
:2066C000606882214900884204D0FF212631B24801F08AF8A06800280ED0A0688021C90004
:2066E000884209D0A06880210902884204D093214900A94801F078F8F0273F01E068B842BD
:2067000040D0E068E021090188423BD0E068D0210901884236D0E068C0210901884231D030
:20672000E068B021090188422CD0E068A0210901884227D0E06890210901884222D0E06895
:206740008021090188421DD0E068E021C900884218D0E068C021C900884213D0E068A0216B
:20676000C90088420ED0E0688021C900884209D0E068C0218900884204D0FF2128318648BC
:2067800001F032F88025AD00A069A8420CD0A069002809D0A0698021C902884204D09421EB
:2067A00049007D4801F020F8606B082807D0606B002804D0FF212A31774801F015F8E069A8
:2067C000002819D0E069082816D0E069102813D0E069182810D0E06920280DD0E069282875
:2067E0000AD0E069302807D0E069382804D095214900694800F0F8FF206A002807D0206A20
:20680000802804D0FF212C31634800F0EDFF606A002807D0606A102804D0962149005E48B3
:2068200000F0E2FF606A002815D12069002807D02069022804D0FF213031574800F0D4FFBD
:206840006069002807D06069012804D098214900514800F0C9FFA06A002809D0A06A8021A1
:206860008901884204D0FF2134314B4800F0BCFF8026B601A06AB0421ED1E06A002808D09B
:20688000E06A80214902884203D22C20205CC00704D49B214900404800F0A6FF206B0028E7
:2068A0000AD0206B012807D0206B022804D0FF213831394800F098FF5D20205C002805D162
:2068C00000205C216054200000F04CFF022001005D22A1542168096840229143226811604A
:2068E0002E49E2688A4203D3002203E00030014080225201E368BB4206D0E368E027FF005B
:20690000BB4201D00023A362236B002B06D1E3688B4201D3206301E0012020636068A1682C
