:020000040800F2
:20000000A045002091020108C1F70008C3F7000800000000000000000000000000000000BD
:20002000000000000000000000000000571B00080000000000000000C31B0008CBF7000896
:20004000D3F7000800000000D5F70008DDF70008DFF70008E1F70008E3F70008BB2F00088C
:2000600000000000E5F700080BF8000863F8000889F800088BF800088DF80008000000008D
:200080008FF8000899F800089BF80008A5F80008A7F80008A9F80008ABF80008ADF8000850
:2000A000AFF80008B1F80008B3F80008B5F80008BFF80008C9F800080000000000000000F0
:2000C000F8B50400D8250026270032002900380001F016FDF1BD10B50400002C03D0D8211F
:2000E000200001F039FD10BD10B503000A000020002103C3083B1C00083403C4083C002A43
:200100002CD12FA003C81C00103403C4083C2EA003C81C00183403C4083C2DA003C81C001D
:20012000203403C4083C2CA003C81C00283403C4083C2BA003C81C00303403C4083C2AA05B
:2001400003C81C00383403C4083C29A003C81864596429A003C89864D9642BE028A003C809
:200160001C00103403C4083C27A003C81C00183403C4083C26A003C81C00203403C4083C03
:2001800025A003C81C00283403C4083C24A003C81C00303403C4083C23A003C81C0038341C
:2001A00003C4083C22A003C81864596422A003C89864D964D0201A50002010BD0000000061
:2001C00008C9BCF367E6096A3BA7CA8485AE67BB2BF894FE72F36E3CF1361D5F3AF54FA5D0
:2001E000D182E6AD7F520E511F6C3E2B8C68059B6BBD41FBABD9831F79217E1319CDE05B8B
:20020000D89E05C15D9DBBCB07D57C362A299A6217DD70305A01599139590EF7D8EC2F15CD
:20022000310BC0FF6726336711155868874AB48EA78FF9640D2E0CDBA44FFABE1D48B547E2
:20024000F3B5FFB0BAB00022082A10DAB998082151434018103003C804AB082454431B1988
:20026000A424A4001B1903C3083B521CECE70024102C51DABA98E100425C002313060022DA
:20028000BA98E1004018407800210104002010431943BA9AE300D2189278002313020022A1
:2002A00002430B43BA98E1004018C07800210100002010431943BA9AE300D2181279002328
:2002C0001B06150A2B43120602430B43BA98E1004018407900210904050C2943000410437F
:2002E0001943BA9AE300D218927900231B02150E2B43120202430B43BA98E1004018C0793A
:2003000000211043194304AA08236343D218103203C2083A641CABE7502C00DB8EE004ADD3
:2003200004A80821614340180CC80838D20C58030243DB0C04A808216143401803C8410393
:200340000020104319430090019104A80821614340180CC808385A0F002304A808216143C2
:20036000401803C8C900460F3143C00010431943009A019B5040594004AA08236343D21891
:200380000CCA92099E0632439B0942404B40082060432818283803C8801859410290039194
:2003A00008206043281868380CC808385208D80702435B08082060432818683803C8C1075F
:2003C0000020104319430090019108206043281868380CC80838120A180602431B0A0820A1
:2003E00060432818683803C80106002010431943009A019B5040594002000B0008206043A2
:200400002818683803C8C0094E063043C90950405940029A039B8018594102000B00082005
:2004200060432818703803C88018594108226243AA18103203C2083A641C6DE7002204A8B8
:20044000B2218900401803C80090019104A8AC218900401803C8800B8B041843890B04AB1E
:20046000AC24A4001B1930CB083BA504002404430D4304A8AC2189004018C0C80838B60C4E
:20048000B8030643BF0C04A9AC208000081803C881030020304339436040694004000D00BC
:2004A00004A8AC2189004018C0C808387E0A002704A9AC208000081803C8C905430A194310
:2004C000C0053043394360406940009C019D001969410290039104A8B0218900401803C8D3
:2004E0000090019104A8AC218900401830C8083804A9AE2080000818C0C8083804A9B020E8
:200500008000081803C87040794020402940009C019D60406940029C039D001969418B4BE4
:20052000082454431B1930CB083B24184D4104A8082151434018103003C80019694104AB7E
:2005400003C3083B04A8A4218900401803C8000F0B011843090F04ABA424A4001B1930CB9D
:20056000083B2501002404430D4326002F0004A8A4218900401803C88808002104ABA424BD
:20058000A4001B1930CB083BAD07A3081D43A40704430D4374407D4026002F0004A8A4210D
:2005A0008900401830C80838EC09002504A8A4218900401803C84906C309194340062043CB
:2005C0002943704079400290039104A8A4218900401830C8083804A8A6218900401803C877
:2005E000204029400090019104A8A8218900401830C8083804A9A42080000818C0C80838A9
:2006000004A9A6208000081803C83043394320402940009C019D20432943029C039D0019E4
:20062000694104AB083303C3083B04A8AA218900401830C8083804A803C80019694104ABA4
:20064000AA24A4001B1903C3083B04A830C8083804A8083003C80019694104ABB224A4006C
:200660001B1903C3083B521C04A8B0218900401803C80090019104A8AA218900401803C861
:20068000800B8B041843890B04ABAA24A4001B1930CB083BA504002404430D4304A8AA21E3
:2006A00089004018C0C80838B60CB8030643BF0C04A9AA208000081803C881030020304307
:2006C00039436040694004000D0004A8AA2189004018C0C808387E0A002704A9AA2080007E
:2006E000081803C8C905430A1943C0053043394360406940009C019D001969410290039178
:2007000004A8AE218900401803C80090019104A8AA218900401830C8083804A9AC20800007
:200720000818C0C8083804A9AE208000081803C87040794020402940009C019D6040694036
:20074000029C039D00196941004B01E038ED0008082454431B1930CB083B24184D4104A894
:20076000082151434018103003C80019694104AB03C3083B04A8B2218900401803C8000FA4
:200780000B011843090F04ABB224A4001B1930CB083B2501002404430D4326002F0004A85D
:2007A000B2218900401803C88808002104ABB224A4001B1930CB083BAD07A3081D43A40704
:2007C00004430D4374407D4026002F0004A8B2218900401830C80838EC09002504A8B2218B
:2007E0008900401803C84906C3091943400620432943704079400290039104A8B22189002A
:20080000401830C8083804A8A4218900401803C8204029400090019104A8A62189004018EC
:2008200030C8083804A9B22080000818C0C8083804A9A4208000081803C83043394320406E
:200840002940009C019D20432943029C039D0019694104AB083303C3083B04A8A821890034
:20086000401830C8083804A803C80019694104ABA824A4001B1903C3083B04A830C808386E
:2008800004A8083003C80019694104ABB024A4001B1903C3083B521C04A8AE2189004018B8
:2008A00003C80090019104A8A8218900401803C8800B8B041843890B04ABA824A4001B19CE
:2008C00030CB083BA504002404430D4304A8A82189004018C0C80838B60CB8030643BF0CC7
:2008E00004A9A8208000081803C881030020304339436040694004000D0004A8A82189002D
:200900004018C0C808387E0A002704A9A8208000081803C8C905430A1943C00530433943FD
:2009200060406940009C019D001969410290039104A8AC218900401803C80090019104A858
:20094000A8218900401830C8083804A9AA2080000818C0C8083804A9AC208000081803C8F2
:200960007040794020402940009C019D60406940029C039D001969418B4B082454431B19F4
:2009800030CB083B24184D4104A8082151434018103003C80019694104AB03C3083B04A85C
:2009A000B0218900401803C8000F0B011843090F04ABB024A4001B1930CB083B2501002449
:2009C00004430D4326002F0004A8B0218900401803C88808002104ABB024A4001B1930CBFB
:2009E000083BAD07A3081D43A40704430D4374407D4026002F0004A8B0218900401830C897
:200A00000838EC09002504A8B0218900401803C84906C3091943400620432943704079405E
:200A20000290039104A8B0218900401830C8083804A8B2218900401803C820402940009076
:200A4000019104A8A4218900401830C8083804A9B02080000818C0C8083804A9B220800096
:200A6000081803C83043394320402940009C019D20432943029C039D0019694104AB0833DF
:200A800003C3083B04A8A6218900401830C8083804A803C80019694104ABA624A4001B1936
:200AA00003C3083B04A830C8083804A8083003C80019694104ABAE24A4001B1903C3083B75
:200AC000521C04A8AC218900401803C80090019104A8A6218900401803C8800B8B041843CD
:200AE000890B04ABA624A4001B1930CB083BA504002404430D4304A8A62189004018C0C893
:200B00000838B60CB8030643BF0C04A9A6208000081803C88103002030433943604069404A
:200B200004000D0004A8A62189004018C0C808387E0A002704A9A6208000081803C8C9052D
:200B4000430A1943C0053043394360406940009C019D001969410290039104A8AA218900CC
:200B6000401803C80090019104A8A6218900401830C8083804A9A82080000818C0C80838C7
:200B800004A9AA208000081803C87040794020402940009C019D60406940029C039D001967
:200BA0006941014B02E000BF38ED0008082454431B1930CB083B24184D4104A80821514309
:200BC0004018103003C80019694104AB03C3083B04A8AE218900401803C8000F0B0118439A
:200BE000090F04ABAE24A4001B1930CB083B2501002404430D4326002F0004A8AE2189000C
:200C0000401803C88808002104ABAE24A4001B1930CB083BAD07A3081D43A40704430D4368
:200C200074407D4026002F0004A8AE218900401830C80838EC09002504A8AE2189004018E4
:200C400003C84906C3091943400620432943704079400290039104A8AE218900401830C85A
:200C6000083804A8B0218900401803C8204029400090019104A8B2218900401830C8083888
:200C800004A9AE2080000818C0C8083804A9B0208000081803C83043394320402940009C35
:200CA000019D20432943029C039D0019694104AB083303C3083B04A8A4218900401830C889
:200CC000083804A803C80019694104ABA424A4001B1903C3083B04A830C8083804A808307A
:200CE00003C80019694104ABAC24A4001B1903C3083B521C04A8AA218900401803C80090E5
:200D0000019104A8A4218900401803C8800B8B041843890B04ABA424A4001B1930CB083B8E
:200D2000A504002404430D4304A8A42189004018C0C80838B60CB8030643BF0C04A9A42033
:200D40008000081803C881030020304339436040694004000D0004A8A42189004018C0C861
:200D600008387E0A002704A9A4208000081803C8C905430A1943C005304339436040694034
:200D8000009C019D001969410290039104A8A8218900401803C80090019104A8A4218900F3
:200DA000401830C8083804A9A62080000818C0C8083804A9A8208000081803C8704079407F
:200DC00020402940009C019D60406940029C039D001969418B4B082454431B1930CB083BBB
:200DE00024184D4104A8082151434018103003C80019694104AB03C3083B04A8AC218900E0
:200E0000401803C8000F0B011843090F04ABAC24A4001B1930CB083B2501002404430D43AB
:200E200026002F0004A8AC218900401803C88808002104ABAC24A4001B1930CB083BAD073E
:200E4000A3081D43A40704430D4374407D4026002F0004A8AC218900401830C80838EC09F8
:200E6000002504A8AC218900401803C84906C309194340062043294370407940029003910D
:200E800004A8AC218900401830C8083804A8AE218900401803C8204029400090019104A802
:200EA000B0218900401830C8083804A9AC2080000818C0C8083804A9AE208000081803C881
:200EC0003043394320402940009C019D20432943029C039D0019694104AB083303C3083B5D
:200EE00004A8B2218900401830C8083804A803C80019694104ABB224A4001B1903C3083BBA
:200F000004A830C8083804A8083003C80019694104ABAA24A4001B1903C3083B521C04A803
:200F2000A8218900401803C80090019104A8B2218900401803C8800B8B041843890B04AB37
:200F4000B224A4001B1930CB083BA504002404430D4304A8B22189004018C0C80838B60C57
:200F6000B8030643BF0C04A9B2208000081803C881030020304339436040694004000D00CB
:200F800004A8B22189004018C0C808387E0A002704A9B2208000081803C8C905430A194319
:200FA000C0053043394360406940009C019D001969410290039104A8A6218900401803C8F2
:200FC0000090019104A8B2218900401830C8083804A9A42080000818C0C8083804A9A6200B
:200FE0008000081803C87040794020402940009C019D60406940029C039D00196941014B84
:2010000002E000BF38ED0008082454431B1930CB083B24184D4104A8082151434018103002
:2010200003C80019694104AB03C3083B04A8AA218900401803C8000F0B011843090F04AB0A
:20104000AA24A4001B1930CB083B2501002404430D4326002F0004A8AA218900401803C853
:201060008808002104ABAA24A4001B1930CB083BAD07A3081D43A40704430D4374407D40BA
:2010800026002F0004A8AA218900401830C80838EC09002504A8AA218900401803C84906DF
:2010A000C3091943400620432943704079400290039104A8AA218900401830C8083804A828
:2010C000AC218900401803C8204029400090019104A8AE218900401830C8083804A9AA20A1
:2010E00080000818C0C8083804A9AC208000081803C83043394320402940009C019D20434F
:201100002943029C039D0019694104AB083303C3083B04A8B0218900401830C8083804A82D
:2011200003C80019694104ABB024A4001B1903C3083B04A830C8083804A8083003C8001911
:20114000694104ABA824A4001B1903C3083B521C04A8A6218900401803C80090019104A82E
:20116000B0218900401803C8800B8B041843890B04ABB024A4001B1930CB083BA504002483
:2011800004430D4304A8B02189004018C0C80838B60CB8030643BF0C04A9B02080000818E4
:2011A00003C881030020304339436040694004000D0004A8B02189004018C0C808387E0AC9
:2011C000002704A9B0208000081803C8C905430A1943C0053043394360406940009C019D52
:2011E000001969410290039104A8A4218900401803C80090019104A8B0218900401830C871
:20120000083804A9B22080000818C0C8083804A9A4208000081803C8704079402040294099
:20122000009C019D60406940029C039D00196941EC4B082454431B1930CB083B24184D41F4
:2012400004A8082151434018103003C80019694104AB03C3083B04A8A8218900401803C826
:20126000000F0B011843090F04ABA824A4001B1930CB083B2501002404430D4326002F0019
:2012800004A8A8218900401803C88808002104ABA824A4001B1930CB083BAD07A3081D432C
:2012A000A40704430D4374407D4026002F0004A8A8218900401830C80838EC09002504A8D2
:2012C000A8218900401803C84906C3091943400620432943704079400290039104A8A82109
:2012E0008900401830C8083804A8AA218900401803C8204029400090019104A8AC218900C5
:20130000401830C8083804A9A82080000818C0C8083804A9AA208000081803C8304339438F
:2013200020402940009C019D20432943029C039D0019694104AB083303C3083B04A8AE216C
:201340008900401830C8083804A803C80019694104ABAE24A4001B1903C3083B04A830C834
:20136000083804A8083003C80019694104ABA624A4001B1903C3083B521C029204A8A421EE
:201380008900401803C80090019104A8AE218900401803C8800B8A041043890B04AAAE23D9
:2013A0009B00D2180CCA9304002202430B4304A8AE218900401830C80838A40CA803044350
:2013C000AD0C04A8AE218900401803C881030020204329435040594002000B0004A8AE2109
:2013E0008900401830C808386C0A002504A8AE218900401803C8C905460A3143C005204358
:20140000294350405940009A019B801859410090019104A8B221890040180CC8083804A88D
:20142000AE218900401830C8083804A8B02189004018C0C8083804A9B2208000081803C8B4
:20144000704079402040294050405940009A019B80185941634A029B08246343D2180CCAED
:2014600012184B4104A80299082461434018103003C88018594104AA03C2083A04A8A621E2
:20148000890040180CC80838120F180102431B0F04A8A6218900401803C80101002010431A
:2014A000194304AAA6239B00D21830CA083AAC08002504AAA6239B00D2180CCA9B079608AD
:2014C0003343920722432B4342404B4004A8A6218900401830C80838EC09002504A8A62104
:2014E0008900401803C84906C6093143400620432943504059400090019104A8A621890052
:20150000401803C804AAA8239B00D2180CCA02400B4004A8AA218900401830C8083804A80B
:20152000A62189004018C0C8083804A9A8208000081803C8304339432040294010431943F4
:20154000009A019B8018594104AA083203C2083A04A8AC21890040180CC8083804A803C84F
:201560008018594104AAAC239B00D21803C2083A04A80CC8083804A8083003C8801859418F
:2015800004AAA4239B00D21803C2083A029A521C502A01DAFEF753FF0024082C19DAB99808
:2015A00008216143401810300CC8083804A8082161434018A4218900401803C8801859413E
:2015C000B99A08236343D218103203C2083A641CE3E7B421890004A800F0BEFA00207FB069
:2015E0003CB0F0BD38ED0008F0B585B006000D0014006D20C0430290002C01D1002060E0A4
:2016000030784006400E009080200099401A01900CCE083E200000218018594103C6083E38
:2016200003CE083E2200002399420CD801D3904209D23000083003C80022401C5141320099
:20164000083203C2083A009800281ED0019884421BD301980490039500983018070050371B
:20166000049A0399380000F09FFA310050313000FEF7E6FD0290002801D0029821E00198F6
:201680002D180198241A00200090802C0BD329003000FEF7D5FD0290002801D0029810E0BF
:2016A0008035803CF1E7002C0AD0049403950098301807005037049A0399380000F074FA6D
:2016C000002005B0F0BDF8B584B004000D006D20C043019020784006400E802122185023FB
:2016E000D154401C0090009871280ED270200099401A0290002600982018070050373200FD
:201700000299380000F0FCF921E080200099401A0390002602960098201807005037029A32
:201720000399380000F0ECF9210050312000FEF787FD0190002801D00198DCE170270296B6
:2017400026005036029A3900300000F0D9F903CC083C480F002122000832C0CA083AFF0064
:20176000720F1743F60006430F4303CC083CC900420F1143C00002AA03C2083A30003900A0
:20178000080E0021C021605430003900080C0021C121605430003900080A0021C221605416
:2017A0003800C3216054300EC42160543000000CC5216054300080B2000AC6216054300075
:2017C000C721605402A803C8080E0021C821605402A803C8080C0021C921605402A803C867
:2017E000080A0021CA21605402A803C8CB20215402A803C8000ECC21605402A803C8000C9D
:20180000CD21605402A803C880B2000ACE21605402A803C8CF216054210050312000FEF702
:201820000FFD0200002801D0100064E12000103003C8080E002128702000103003C8080C13
:20184000002168702000103003C8080A0021A8702000103003C8E9702000103003C8000E5C
:2018600028712000103003C8000C68712000103003C880B2000AA8712000103003C8E871BB
:201880002000183003C8080E002128722000183003C8080C002168722000183003C8080ABD
:2018A0000021A8722000183003C8E9722000183003C8000E28732000183003C8000C687369
:2018C0002000183003C880B2000AA8732000183003C8E8732000203003C8080E00212874E2
:2018E0002000203003C8080C002168742000203003C8080A0021A8742000203003C8E9747A
:201900002000203003C8000E28752000203003C8000C68752000203003C880B2000AA87529
:201920002000203003C8E8752000283003C8080E002128762000283003C8080C00216876A1
:201940002000283003C8080A0021A8762000283003C8E9762000283003C8000E2877200041
:20196000283003C8000C68772000283003C880B2000AA8772000283003C8E8772000303099
:2019800003C8080E0021202168542000303003C8080C0021212168542000303003C8080A6D
:2019A0000021222168542000303003C8232029542000303003C8000E242168542000303022
:2019C00003C8000C252168542000303003C880B2000A262168542000303003C82721685455
:2019E0002000383003C8080E0021282168542000383003C8080C0021292168542000383042
:201A000003C8080A00212A2168542000383003C82B2029542000383003C8000E2C2168543C
:201A20002000383003C8000C2D2168542000383003C880B2000A2E2168542000383003C850
:201A40002F216854D0202058002853D1206C616C080E002130216854206C616C080C00219B
:201A600031216854206C616C080A002132216854206C616C33202954206C616C000E3421D8
:201A80006854206C616C000C35216854206C616C80B2000A36216854206C616C37216854FE
:201AA000A06CE16C080E002138216854A06CE16C080C002139216854A06CE16C080A002151
:201AC0003A216854A06CE16C3B202954A06CE16C000E3C216854A06CE16C000C3D216854BF
:201AE000A06CE16C80B2000A3E216854A06CE16C3F216854002005B0F0BD8160C260704785
:201B00001206130A1A43130C1A4300BF094205D0830709D00270401C491EF9D170470000BF
:201B20000022F3E70022FFE71300103906D330B41400150010393CC0FCD230BC490700D33D
:201B40000CC000D504C0890002D30280801C002900D502707047FEE738B505000C00002C6E
:201B600005D0220000212800014B1B68984731BD7014002070B4103A03D378C9103A78C0DE
:201B8000FBD2530701D318C918C001D508C908C0D20704D30B880380891C801C002A01D51B
:201BA0000B78037070BC70478B0701D18307E1D0124205D00B78491C0370401C521EF9D193
:201BC0007047FEE738B504001500CB482060616000202072022120000C3001F0EFF965613F
:201BE000200032BD3EB50400606861680968496B8847606861680968096B884705000020F0
:201C00002900C9B2002904D060686168096889688847C0B2002815D0200000F009F90028A8
:201C200008D002206946487101A9491C200000F03AF836E001206946087101A9200000F0D8
:201C400032F82EE0EDB2002D24D0200000F056F9002808D005206946C87000A9C91C200073
:201C600000F021F81DE0200000F01AFA002808D004206946887000A9891C200000F013F806
:201C80000FE003206946487000A9491C200000F00AF806E00620694608706946200000F0B9
:201CA00002F800203EBD097801727047007A7047FDB5E4B00F0001206946087201206946C4
:201CC00048720020039024A880214900FFF72AFF1BA801F04DFB09A82021FFF723FF7868DC
:201CE00001F05AFB04006598007801F057FB05006698007801F054FBEDB218214D43611945
:201D0000C0B2042250430818001D01F04BFB060004961BAA02A9684601F04FFB796811A891
:201D20007A681268526A904711A9684601F049FB6846007A002829D003AA02A905A801F0D8
:201D400058FB04A80090669B659A390007A801F0F4F807A905A801F050FB17E000206946D0
:201D600008720AE0220024A938000C3001F0EAF90128F3D101206946087236190398001B8C
:201D80000390786879680968496B88476846007A002834D00398002831D00398FF21891C83
:201DA000884202D38024640000E0039C019424A800903300669A659978687D682D68AD696B
:201DC000A847694608726846007A0028D9D06846407A0028C6D000252800694648722300F3
:201DE00024AA1BA938000C3001F006F9012803D1012069460872C0E768460572BDE7684688
:201E0000007A00280DD009A938000C3001F024FA012803D101206946087202E00020694616
:201E20000872649809AA02A901F0FEFA67B0F0BD38B596B00400606861680968C9688847E8
:201E40006946087004A8AE492422FFF793FE68460078002820D06068002529006A46117165
:201E600004AA01A903685B69984704A8057070214170821C694602A801F0E6FA0120694601
:201E8000C87000ABDB1C04AA21000DA8FFF710FF0DA902A801F0DCFA6846007800280BD08F
:201EA000606801216A46917004AA00A9891C03685B69984769460870606861680968496BA0
:201EC00088476068002421006A46517000A9491C0268D26A9047002807D0684600780028DD
:201EE00003D001206946087001E0684604706846007817B030BD00008802010838B5DEB0DC
:201F000005000FA87F492422FFF734FE00242000694608700FAA69460DA801F0B1FA6968DA
:201F200020006A46507000AA521C54A80B681B69984754A90DA801F0A7FA68460078002895
:201F40000AD00FA80078022803D201206946087002E02000694608706846007800286AD080
:201F60000FA84078C0B2702854D0782843D07C2832D0F82821D0FC2810D0FE2859D10FAA4D
:201F800069460BA801F07CFA0FAA29004AA800F0DAFA4AA90BA801F077FA4CE00FAA694644
:201FA00009A801F06DFA0FAA290040A800F0D7FB40A909A801F068FA3DE00FAA694607A86B
:201FC00001F05EFA0FAA290036A800F02EFC36A907A801F059FA2EE00FAA694605A801F0F8
:201FE0004FFA0FAA29002CA800F0D9FC2CA905A801F04AFA1FE00FAA694603A801F040FA29
:202000000FAA290022A800F035FD22A903A801F03BFA10E00FAA694601A801F031FA0FAA80
:20202000290018A800F08CFD18A901A801F02CFA01E068460470684600785FB030BDF8B5EB
:2020400094B007000D001600002420006946087003A82021FFF766FD03AA694601A801F06C
:20206000F3F9149B320039000BA8FFF721FE0BA901A801F0EDF96846007800280CD029000B
:20208000202203A801F018FA002803D101206946087001E0684604706846007815B0F0BD71
:2020A00038B596B005000DA817492422FFF762FD0020694608700DAA694601A801F0E0F918
:2020C000696801246846847000AA921C03A80B681B69984703A901A801F0D6F96846007854
:2020E000002809D0684644700DAA00A9491C280000F00CF8694608706846007817B030BD9B
:20210000200001084400010868000108F8B596B004000E001700012528006946087003A89C
:2021200039002422FFF740FD30786946487068464078002816D13878002813D028006946D7
:20214000487003AA694601A801F09AF900AA521C61680CA863681B681B6998470CA901A89A
:2021600001F092F968460078002811D003A8017800290AD1411C00A8401C00F0C3FE002852
:2021800003D028006946087002E00020694608706846007800280BD06846857000AB9B1CC6
:2021A00003AA03A8811C2000FFF749FF6946087068460078002807D003A9606862681268C8
:2021C000D26A9047694608706846007817B0F0BDF7B594B0050001263000694608716868E7
:2021E00001F0DAF804001598007801F0D7F8182148432018049000270897079708AB07AADB
:2022000001A90EA801F067F9696911A801F003FA11A90EA801F0CFFA04980C3001F0C2F8E7
:20222000040004980C3001F0BDF8010008980019401E01F0D8FA059004980C3001F0B2F839
:20224000040004980C3001F0ADF8010007980019401E01F0C8FA069006A905A801F01AFB4A
:2022600000680990340002976846007900284CD002AA01A90AA801F0BCF869690CA801F001
:20228000B7F90CA90AA801F0B8F83EE0686931006A46917000AA921C02A903681B699847E4
:2022A0006946087102E03800694608716846007900280ED00398069988420AD216A8007871
:2022C0000090049B03AA1599280000F025FD694608716846007900280BD0686902216A4644
:2022E000517000AA521C02A903681B6998476946087168460079002802D00298401C0290BB
:20230000686869680968496B884768460079002800D18CE002980021C943884200D186E0D4
:2023200002980999884200D381E016A80078002805D009980299401A401E039001E002982E
:2023400003902000C0B200282ED00398059988422AD23C0030006946C87101AAD21C02A99B
:20236000686901F0AFF90028A0D116A800780090049B03AA1599280000F027FC00280FD058
:20238000686931006A46917101AA921C02A903681B699847002803D030006946087185E7F8
:2023A00038006946087181E72000C0B200281CD030006946C87000AAD21C02A9686901F093
:2023C00081F900280AD1686931006A4611706A4602A903681B6998476946087168460079D5
:2023E000002800D162E73C0060E703980599884200D34BE716A800780090049B03AA159950
:20240000280000F0E2FB002800D14CE7686931006A46517101AA521C02A903681B69984795
:20242000002800D13FE73000694608713EE76846007917B0F0BDF0B59FB007000D00140049
:20244000002630006946087003A821002422FFF7ABFB60787C2801D1012400E034006869F9
:2024600001F061F9694608706846007800280CD1302003A94870686831006A46D17003AA6C
:2024800000A9C91C03685B69984768460078002807D02200D2B203A92800FFF799FE6946C5
:2024A00008706846007800283BD02000C0B2002801D0782000E0F82003A948703000232257
:2024C0008854E4B2002C20D0087800281DD116AA694601A800F0D4FF696801206A4690705B
:2024E00000AA921C0CA80B681B6998470CA901A800F0CAFF68460078002806D003A8801C78
:2025000016A9891C2022FFF74FFB686869464E7003AA00A9491C03685B69984769460870A8
:202520000AE0E4B2002C07D0302003A94870686969690968C9688847380003AA694601F0CB
:20254000B1F91FB0F0BDF5B5B1B00E000AA832992422FFF729FB706800F01EFF03900025C2
:202560002800694608720AAC02AB0AAAA11C3000FFF765FD6946087068460078002824D045
:202580003298007800F00AFF0399C0B2182250430818083000F006FF05903298007800F011
:2025A000FDFE0399C0B2182250430818001D00F0F9FE049005AB04AA3299706977693F6804
:2025C000BF68B8476946087011E028002321605428006070802022216054706829006A465D
:2025E000D1710AAA01A9C91C03685B69984768460078002829D032980078002825D127AAD0
:20260000694608A800F03CFF7168012738006A46907101AA921C1DA80B681B6998471DA98C
:2026200008A800F031FF6846007800280DD0280027A94870706869464F7127AA01A9491CC8
:2026400003685B699847694608706846007800280FD0FC206070280023216054706829000B
:202660006A4611710AAA01A903685B6998476946087068460078002820D00AAA694606A846
:2026800000F0FEFE0AAA310013A8FFF7D4FE13A906A800F0F9FE6846007800280ED1601CEC
:2026A00000F01EFC002809D0706829006A46D1700AAA00A9C91C03685B69984768460078A7
:2026C000002837D0207800F069FE1821484303990F183800143000F065FE002803D1012069
:2026E0006946087002E02800694608706846007800280FD13800143000F054FE2321615C95
:20270000814207D22320205C401C232160540120694608706846007800280BD07068290098
:202720006A4691700AAA00A9891C03685B6998476946087068460078002809D06846457027
:202740000AAA00A9491C3000FFF7E0FC6946087031980AAA694601F0A5F833B0F0BDF0B59F
:2027600097B007000D00110004A82422FFF71CFA002420006946087004AA694602A800F08D
:202780007FFE04AA29000DA8FFF755FE0DA902A800F07AFE68460078002830D0686800F011
:2027A000FBFD019004AE307800F0F8FD18214843019908182321715C491C2322B1541430CF
:2027C00000F0F0FD00280BD0686821006A46D17004AA00A9C91C03685B69984769460870C6
:2027E00068460078002819D06846847004AA00A9891C2800FFF78AFC694608700EE004A89F
:20280000401C00F06DFB002808D0686869464C7004AA00A9491C03685B699847380004AA19
:20282000694601F03FF817B0F0BDF1B5A4B00E00110001206A46107007A82422FFF7B4F94B
:20284000706800F0A9FD040007AD287800F0A6FD1821484324182000143000F0A3FD002803
:2028600007D02000143000F09DFD2321695C814264D32000083000F095FD0390201D00F0F6
:2028800091FD070020000C3000F08CFD002805D0200000F087FD3818019005E020000C301B
:2028A00000F080FD381A01900398029002AB01AA07A9706977693F68BF68B84769460870E6
:2028C00068460078002810D07C206870802022216854706800216A46D17007AA00A9C91C8E
:2028E00003685B6998476946087068460078002824D007AA694605A800F0C2FD07AA3100C3
:202900001AA8FFF798FD1AA905A800F0BDFD68460078002812D1681C00F0E2FA00280DD0CA
:2029200007AA864903A800F0CDFF07AA310010A800F09AFA10A903A800F0C8FF6846007851
:20294000002816D02320285C401C232168542000143000F027FD00280BD0706800216A4622
:20296000917007AA00A9891C03685B699847694608706846007800280AD000206946487073
:2029800007AA00A9491C3000FFF7C0FB69460870249807AA694600F085FF25B0F0BDF8B5B1
:2029A000A2B007000C00150001206946087005A829002422FFF7F8F805AA694603A800F05A
:2029C0005FFD2A00210018A8FFF735FD18A903A800F05AFD68460078002830D0606800F0AF
:2029E000DBFC050005AE307800F0D8FC1821484328182321715C491C2322B154143000F0E4
:202A0000D1FC00280BD0606800216A46917005AA00A9891C03685B6998476946087068466C
:202A2000007800281FD000206946487005AA00A9491C2000FFF76AFB6946087013E005A881
:202A4000401C00F04DFA00280DD005AA3B4901A800F038FF05AA21000EA800F005FA0EA9AF
:202A600001A800F033FF380005AA694600F01AFF23B0F0BDF2B596B0070011000125280019
:202A80006A46107003A82422FFF78EF81698406800F082FC060003AC207800F07FFC1821E4
:202AA000484336183000143000F07CFC002807D03000143000F076FC2321615C814213D3E2
:202AC0001020607003AA1D4901A800F0FBFE03AA16990CA800F0C8F90CA901A800F0F6FE4E
:202AE00000206946087022E02320205C401C2321605416984068002421006A46517003AAC1
:202B000000A9491C03685B69984700280DD020006946887003AA00A9891C1698FFF7F6FA3E
:202B2000002802D06846057001E068460470380003AA694600F0B6FE17B0F0BDDF340008AE
:202B4000F8B58AB005000E001100012738006A46107001A82422FFF727F801AC2078002869
:202B60000AD1706869468F7001AA00A9891C03685B6998476946087068460078002814D094
:202B8000FF2060702220205CE02802D1C02022216054706800216A46517001AA00A9491CB3
:202BA00003685B6998476946087068460078002804D03000FFF774FA69460870280001AA30
:202BC000694600F06FFE0BB0F0BDF6B5C7B004000E001D004E98C0B2002802D0489807688F
:202BE0001BE048980068002814D1280000F0DAFB070028000C3000F0D5FB009028000C3079
:202C000000F0D0FB010000983818401E00F0EBFD070002E0489807687F1E069603942800AA
:202C20000C3000F0BFFB0400281D00F0BBFB67433818049028000C3000F0B4FB0400280002
:202C4000083000F0AFFB489909686143081805900398446800206946087128000C3000F014
:202C6000A1FB0090049B01AA069920002468246AA04704002000C0B2002849D028000C30E3
:202C800000F090FB060007A880214900FEF74AFF31E0002421E0350003984068012469465A
:202CA0000C72019507A90091059B02AA06990768BF69B8470028ECD00398406800216A4646
:202CC0005172019507A90091049B02AA521C06990768FF69B8470028DBD0049840190490D0
:202CE000059840190590761B03984068039949680968496B88472000C0B2002808D0002E74
:202D000006D0FF20801C8642C5D380256D00C3E72000C0B249B0F0BDF6B5C7B004000E009A
:202D20001D004E98C0B200281CD048980068002803D0489807687F1E16E0280000F032FBA0
:202D4000070028000C3000F02DFB009028000C3000F028FB010000983818401E00F043FD72
:202D6000070001E0489807680696039428000C3000F018FB0400281D00F014FB6743381840
:202D8000059028000C3000F00DFB04002800083000F008FB489909686143081804900398A6
:202DA000446801206946087128000C3000F0FAFA0090049B01AA069920002468246AA0473C
:202DC00004002000C0B200284AD028000C3000F0E9FA060007A880214900FEF7A3FE32E09D
:202DE00023E0350003984068002421006A461172019507A90091059B02AA06990768BF6987
:202E0000B8470028ECD00398406801216A465172019507A90091049B02AA521C0699076859
:202E2000FF69B8470028DBD00124059840190590049840190490761B0398406803994968FE
:202E40000968496B88472000C0B2002808D0002E06D0FF20801C8642C3D380256D00C1E715
:202E60002000C0B249B0F0BD78B593B006000C00110001256846057001A82422FEF794FEC8
:202E800068460079002814D10AA801A92422FEF771FE0AA8801C2021FEF742FE60686946BD
:202EA0008D700AAA00A9891C03685B699847694608706846007800280BD0606800216A461C
:202EC000517001AA00A9491C03685B69984769460870300001AA694600F0E4FC14B070BDF8
:202EE00000B50178302908D00178102905D00178FF2902D00078002801D1012000E00020E6
:202F0000C0B200BD00B50278012A06D10878702801D101200FE000200DE00078002809D1D0
:202F20000878F82802D00878782801D1012002E0002000E00020C0B200BDFCB587B00600ED
:202F40000C000E9F002528006946087102AA01A903A800F04EFA0097089B079A616805A8B9
:202F600067683F68BF6AB84705A903A800F045FA68460079002819D00298002814D0606885
:202F800000F00AFA04000798007800F007FAC0B218214843201800F005FA0299884203D399
:202FA00001206946087101E068460571300002AA01A900F0A4FC09B0F0BDFEE710B5040099
:202FC00021700020607060600C2000F0A9FC6060002801D000F06CFD200010BD10B5040027
:202FE0006068002806D000F06EFD606800F002FD00206060200010BDF8B504000D001F004F
:203000006068002800D187E00092002A00D197E06178002901D00220F2BD2178012901D14B
:20302000894900E08949012200F07FFD00280DD1280029684968884706002800296809680E
:20304000884732000100606800F026FE002806D13A00012060700099606800F097FE00285A
:203060006AD07B49401A57D0F0210901401A55D080214900401A4FD0803861D0803851D012
:20308000401A5DD080384FD080384BD0803847D0803841D0401A49D080384BD080383DD05C
:2030A0006C49401A40D0801E36D0801E48D0801E40D0801E3ED0801E42D0801E40D0243883
:2030C00028D0C01E2AD0401E3AD0401E26D0401E36D0801E1ED00F3820D0801E22D0401E4F
:2030E00028D0401E2CD0401E22D00C3828D0401E14D0401E14D0801E0ED0801E20D0801EC6
:203100001ED0801E1CD0801E0ED0801E18D0801E16D013E01020F2BD0E20F2BD0820F2BD2B
:203120000420F2BD0620F2BD0F20F2BD0D20F2BD0C20F2BD0B20F2BD0120F2BD1120F2BDC8
:203140000520F2BD80B503005868002863D0002977D05B78002B72D000F018FE00286AD030
:203160003B49401A57D0F0210901401A55D080214900401A4FD0803863D0803851D0401A2F
:203180005FD080384FD080384BD0803847D0803841D0401A49D080384BD080383DD02D493D
:2031A000401A40D0801E36D0801E4AD0801E40D0801E3ED0801E44D0801E42D0243828D039
:2031C000C01E2AD0401E3CD0401E26D0401E38D0801E1ED00F3820D0801E22D0401E28D04A
:2031E000401E2ED0401E22D00C382AD0401E14D0401E14D0801E0ED0801E22D0801E20D0C7
:20320000801E1ED0801E0ED0801E1AD0801E18D013E0102002BD0E2002BD082002BD0420BE
:2032200002BD062002BD0F2002BD0D2002BD0C2002BD0B2002BD012002BD112002BD032048
:2032400002BD052002BD0000440301084C030108809EFFFF144B000038B5040060680028C7
:2032600063D0002977D06278002A72D000F0A4FD00286AD03C49401A57D0F0210901401AF7
:2032800055D080214900401A4FD0803863D0803851D0401A5FD080384FD080384BD08038F7
:2032A00047D0803841D0401A49D080384BD080383DD02E49401A40D0801E36D0801E4AD0E6
:2032C000801E40D0801E3ED0801E44D0801E42D0243828D0C01E2AD0401E3CD0401E26D048
:2032E000401E38D0801E1ED00F3820D0801E22D0401E28D0401E2ED0401E22D00C382AD0D5
:20330000401E14D0401E14D0801E0ED0801E22D0801E20D0801E1ED0801E0ED0801E1AD0FF
:20332000801E18D013E0102516E00E2514E0082512E0042510E006250EE00F250CE00D251F
:203340000AE00C2508E00B2506E0012504E0112502E0032500E00525606800F0B4FB002079
:203360006070280032BD0000809EFFFF144B000010B50400200000F063FD034820602000C7
:2033800000F062FD200010BDE801010880B500F001F802BD4160704740687047C0B2704742
:2033A000C0B27047C3788278417800781B021A430902120408431043704780B500F04CFD20
:2033C00001BD38B505000C002000243000F051FD007869680870200000F04CFD00F04BFD2D
:2033E0000400280000F048FD210000F046FD280032BD80B500F055FD01BD38B505000C00CE
:20340000201D00F036FD007869680870200000F055FD00F054FD0400280000F051FD21005D
:2034200000F04FFD280032BD70B504000D00100000F05AFD0600280000F057FD3200010007
:20344000200000F053FD70BD80B500F063FD01BD38B505000C002000203000F00AFD0078BF
:2034600069680870200000F062FD00F061FD0400280000F05EFD210000F05CFD280032BD4E
:2034800080B500F06CFD01BD38B505000C002000243000F0EEFC007869680870200000F0C3
:2034A0006BFD00F06AFD0400280000F067FD210000F065FD280032BDA446521E08D3037893
:2034C0000C78401C491CA342F7D0181B6446704700206446704780B500F066FD01BD0000A0
:2034E00010B50400A7482060616020000830A6491122FEF759FB00206076200010BD406885
:203500007047F3B58DB0040017001E0000252800694608710395029520002168C968884789
:2035200003AA01A909A800F04EFD616828006A469071009701AB9B1C0E9A0BA80F68BF6AB1
:20354000B8470BA909A800F042FD68460079002814D002AA01A905A800F035FD6168012096
:203560006A465071009601AB5B1C0E9A07A80E68B66AB04707A905A800F029FD68460079A3
:20358000002828D06068FFF707FF06000E980078FFF704FFC0B21821484330180C30FFF77A
:2035A00001FF0600039820610298606103988019401E310000F017F9009002988019401EAA
:2035C000310000F010F9049004A9684600F062F90068A060E560607E002805D168460079D7
:2035E000002801D001206076684600790FB0F0BD3EB504000D00280000F095F86946087078
:203600002A000C32694601A800F0F8FC01A9200000F004FD37BD38B584B004000D002800FD
:2036200000F081F8694608702B0014332A001032694601A800F002FD01A9200000F014FD0A
:2036400005B030BD70B5040015000868E168884204D12878032801D2012000E00020010072
:20366000C9B200290DD0207E00F010FD0600F6B2761C287800F00AFD864201D1012000E0BC
:2036800000200100C9B2002911D029782176217E02290CD1E168A268914205D2E168491CFA
:2036A000E1600021217602E00021C943E160617E002905D10100C9B2002901D00121617674
:2036C000C0B270BD70B50300002420000D689E68B5421BD21578002D18D01578032D15D23A
:2036E0000868DD68A84201D2012000E020000500EDB2002D0AD10968DD68A94206D1187E7D
:203700001178884201D3012000E02000C0B270BD10B50400200008301C491122FEF744FAD6
:203720000120607610BD00B58068002801D0012000E00020C0B200BD38B588B00400002591
:2037400028006946087022000832694601A800F09FFC2000FFF7D3FE010003A80A68D26B99
:20376000904703A901A800F097FC68460078002805D12000083006491122FEF715FA6576BD
:2037800009B030BD9C010108080201081C0201083002010810B504000120617E002908D09E
:2037A0002000FFF7ACFE210008310268926B90476076C0B210BD38B505000C002000083046
:2037C00000F057FB0078A9680870200000F07CFC00F07BFC0400280000F078FC210000F016
:2037E00076FC280032BD0022030A8B420BD203098B4219D243088B422ED2411A00D2014617
:20380000524110467047FF2209023FD012068B4205D3121209028B4201D312120902030905
:203820008B4219D300E0090AC3098B4201D3CB01C01A524183098B4201D38B01C01A524110
:2038400043098B4201D34B01C01A524103098B4201D30B01C01A5241C3088B4201D3CB0065
:20386000C01A524183088B4201D38B00C01A524143088B4201D34B00C01A5241884200D376
:20388000401A5241CFD201461046704708B500F035FC08BD00B502680B689A4201D208005A
:2038A000FFE700BD70B504000D00100000F027FC0600280000F019FB32000100200000F097
:2038C0001FFC70BD80B500F02FFC01BD38B505000C002000243000F0CCFA0100686800F0A9
:2038E00030FC200000F048FB00F047FB0400280000F028FC210000F042FB280032BD70B54D
:2039000004000D00100000F01EFC0600280000F0ECFA32000100200000F016FC70BD0000F6
:20392000F8B5070000240094504DA868002821D1E026F60000F01DFC2900183108002A00AB
:203940001832520704D0C01D07229043321A561828606C608119083907229143A9604C607C
:203960000C600A1A4260016040682861E8608020000668616869384037D1002F35D0083708
:203980000720074203D03900083138400F1A002F2BD0E868B84228D328002E687168B942D0
:2039A00005D23168002902D030000E00F6E7A9688E421AD0016808310091316801607068B1
:2039C000C01B112805D3311DC8517760F01900F028F87068E968091AE9602A69914200D2D7
:2039E00029616969014371603460009800F0BFFB0098F2BD002800D1704710B508384168DB
:203A00001A4A536919420BD00468002C08D199434160D3685918D16000F003F800F0A8FB07
:203A200010BD30B4114A110000E021000C688442FBD34B68CC18844203D1406818184860AF
:203A4000080044680B6805199D4208D19268934204D05A68A21842601B6800E013000360CF
:203A6000814200D0086030BC70470000CC25002038B580225202904213D2914211D24843BC
:203A80000500FFF74DFF04000BD02B000022290000F070FB002801D1200032BD2000FFF710
:203AA000A9FF002032BD80B5FFF7A4FF01BD0000F8B504000C250026270032002900380001
:203AC000FEF71EF8F1BD10B50400002C02D02068002800D128E06068002814D0206804215C
:203AE0004056401F012803D9801E012804D907E0606800F074FB03E06068FCF7ECFAFFE7B0
:203B00006068FFF7D0FFA068002809D02068817902204143A068FEF71FF8A068FFF7C3FF13
:203B20000C212000FEF718F810BD70B504000D001600002D01D0002C01D156483AE02560E1
:203B400000206060A06004202856401F012803D9801E01280ED91BE06C210120FFF788FFAB
:203B600060606068002801D1924823E0606800F02BFB0FE0D8210120FFF77AFF6060606808
:203B8000002801D18B4815E06068FCF799FA01E040480FE0002E0CD0A9790220FFF768FF12
:203BA000A060A068002804D12000FFF78CFF814800E0002070BD10B50400002C02D020681A
:203BC000002801D1704820E0206804214056052806D019D307280DD007D308280FD013E019
:203BE0000121606800F004FB0FE00021606800F0FFFA0AE001216068FCF776FA05E00021EE
:203C00006068FCF771FA00E05F4810BD70B504000E001500002C02D02068002801D15A48BC
:203C200016E0206804214056401F012803D9801E012806D90BE02A003100606801F02CFA1C
:203C400006E02A0031006068FDF7CEFC00E04E4870BD38B505000C00002D02D02868002845
:203C600001D1494814E0286804214056401F012803D9801E012805D909E02100686801F0CE
:203C80006BFA05E021006868FDF71DFD00E03E4832BD000000AFFFFFF6B597B005000F00D3
:203CA0006D26F643002D05D02868002802D0A868002801D1344865E02868807918998842DD
:203CC00019D22800FFF777FF0600002855D1189A39002800FFF79AFF060000284DD107A973
:203CE0002800FFF7B6FF0600002846D128684079189007A80700A8680090A86829688979C2
:203D0000401801902868807906903620059000980290059A06990298FDF7F2FE02982868A0
:203D2000807904905C20039001980290039A04990298FDF7E5FE02980020040018988442DD
:203D40000DD20098005D395D4140009801550198005D395D414001980155641CEEE7280011
:203D6000FFF729FF0600002807D12868827900992800FFF74BFF06000028402107A8FDF761
:203D8000EBFE300019B0F0BD00AFFFFF70B504000E001500002C05D02068002802D0A06810
:203DA000002801D1254804E02A0031002000FFF72DFF70BD80AEFFFFF0B591B004000F00C9
:203DC0006D25ED43002C05D02068002802D0A068002801D119482EE0A0682168897946183C
:203DE00001A92000FFF735FF0090002801D0009821E02000FFF7DFFE0500002801D0280094
:203E000019E02068827931002000FFF7FFFE0090002801D000980EE02068427901A92000C6
:203E2000FFF7F4FE0500002801D0280003E039002000FFF70EFF11B0F0BD000000AFFFFF1A
:203E400080B501F056FA02BD80B5202300222021001D00F08FF901BD38B504000D001100F0
:203E6000200001F047FA2900201D01F047FA200032BD704770477047704738B504000D006F
:203E8000280001F043FA0100206801F040FA280001F04BFA01F04AFA200001F048FA200012
:203EA00032BD38B504000D001100200001F040FA2900201D01F022FA200032BD70477047C9
:203EC000704738B504000D00280001F035FA006821680860280001F030FA01F027FA200017
:203EE00001F02CFA200032BD7047704738B504000D001000FFF7F8FF0100200001F01FFA08
:203F00002800FFF7F2FF01002000203001F01BFA200032BD38B504000D001100200001F0EC
:203F20001BFA2900201D01F0E9F9200032BD70477047704738B504000D00280001F010FADE
:203F4000010020682022FDF72FFE280001F009FA01F0ECF9200001F005FA200032BD38B577
:203F600004000D001100200001F0FDF92900201D01F0C4F9200032BD70477047704738B5E3
:203F800004000D00280001F0F2F9010020682422FDF70AFE280001F0EBF901F0C7F9200073
:203FA00001F0E7F9200032BD38B504000D0011001A00200001F0DEF929002000083001F09E
:203FC0009DF9200032BD80B501F0D8F901BD38B505000C00201DFFF74CFF0078696808704A
:203FE0002000FFF76BFFFFF76AFF0400280001F0D2F9210001F0D0F9280032BD70B50400DF
:204000000D00100000F09FF806002800FFF731FF32000100200001F0D2F970BD38B505007A
:204020000C002100280001F0DDF9201DFFF721FF0100281D01F0DAF9280032BDF8B506003D
:204040000F001400180000F07EF80500200000F07AF804003800FFF70CFF2B0022000100AD
:20406000300001F0CCF9F1BD38B505000C002100280001F0DEF920000830FFF7FAFE010056
:204080002800083001F0B2F9280032BDC0B2704780B501F0D2F901BD38B505000C00200017
:2040A0001130FFF7E6FE007869680870200001F0D1F901F0D0F90400280001F0CDF921008B
:2040C00001F0CBF9280032BD70477047704738B505000C00201D01F02FF9006869680860FA
:2040E000200001F0CFF9FFF7EAFE0400280001F0CAF92100FFF7E5FE280032BD70477047AA
:2041000038B504000D001000FFF7F9FF0100200001F0BAF92800FFF7E8FE01002000243065
:2041200001F011F9200032BD38B504000D001100200001F018F92900201D01F0A9F920002B
:2041400032BD70477047704738B504000D001000FFF7F9FF0100200001F0A2F92800FFF784
:20416000C4FE0100201D01F0EEF8200032BD70477047704710B50C001900002803D08023AC
:204180001B069C4203D309487844203007E0994201D28C4206D22100FDF7B2FC04A001F05A
:2041A00083F910BDFDF7ACFC002010BD04BF00006D656D6370795F733A2062616420617299
:2041C00067756D656E740000F8B504006C2500262700320029003800FDF792FCF1BD10B538
:2041E0000400002C03D06C212000FDF7B5FC10BD00B50200002010605060002910D1124842
:2042000090601248D0601248106112485061124890611248D06112481062124850620FE0B1
:20422000114890601148D0601148106111485061114890611148D06111481062114850622E
:204240009166002000BD000067E6096A85AE67BB72F36E3C3AF54FA57F520E518C68059B7F
:20426000ABD9831F19CDE05BD89E05C107D57C3617DD703039590EF7310BC0FF1115586821
:20428000A78FF964A44FFABEF3B5CBB0002008280DD24B9904224243891889686A46042396
:2042A0004343D21884235B00D150401CEFE7002110291FD24C9804224A43805C00064C9A8F
:2042C00004234B43D2185278120402434C9804234B43C0188078000210434C9A04234B43C1
:2042E000D218D2780243684604234B43C0188260491CDDE70022102A00D325E2004B01E09D
:2043000030FC00086C46499D46980621469EC84146990B26469FF141414046981927469E35
:20432000F841484028184899469D479E489F77402F404F40C0190421514359584018042177
:204340005143611889684018009042980221429DC84142990D25429EE941414042981625E5
:20436000429EE8414840429D43992940449D429E439F37432F400F43C019019045980099CA
:20438000401845900098019940184990489D45980621459EC84145990B26459FF141414012
:2043A00045981927459EF841484028184799459D469E479F77402F404F40C0190421514329
:2043C000591849684018042151436118C9684018009049980221499DC84149990D25499E2A
:2043E000E941414049981625499EE8414840499D42992940439D499E429F37432F400F4351
:20440000C019019044980099401844900098019940184890479D44980621449EC841449980
:204420000B26449FF141414044981927449EF841484028184699449D459E469F77402F4008
:204440004F40C0190421514359188968401804215143611809694018009048980221489D0D
:20446000C84148990D25489EE941414048981625489EE8414840489D49992940429D489EE8
:20448000499F37432F400F43C019019043980099401843900098019940184790469D4398D1
:2044A0000621439EC84143990B26439FF141414043981927439EF841484028184599439D8E
:2044C000449E459F77402F404F40C019042151435918C96840180421514361184969401899
:2044E000009047980221479DC84147990D25479EE941414047981625479EE8414840479D07
:2045000048992940499D479E489F37432F400F43C01901904298009940184290009801992B
:2045200040184690459D42980621429EC84142990B26429FF141414042981927429EF841AE
:20454000484028184499429D439E449F77402F404F40C0190421514359180969401804216C
:204560005143611889694018009046980221469DC84146990D25469EE941414046981625AE
:20458000469EE8414840469D47992940489D469E479F37432F400F43C0190190499800998C
:2045A000401849900098019940184590449D49980621499EC84149990B26499FF1414140E4
:2045C00049981927499EF841484028184399499D429E439F77402F404F40C0190421514307
:2045E000591849694018042151436118C9694018009045980221459DC84145990D25459E16
:20460000E941414045981625459EE8414840459D46992940479D459E469F37432F400F4332
:20462000C019019048980099401848900098019940184490439D48980621489EC841489952
:204640000B26489FF141414048981927489EF841484028184299489D499E429F77402F40DA
:204660004F40C01904215143591889694018042151436118096A4018009044980221449DF1
:20468000C84144990D25449EE941414044981625449EE8414840449D45992940469D449EDE
:2046A000459F37432F400F43C019019047980099401847900098019940184390429D4798AF
:2046C0000621479EC84147990B26479FF141414047981927479EF841484028184999479D50
:2046E000489E499F77402F404F40C019042151435918C9694018042151436118496A40186D
:20470000009043980221439BC84143990D23439CD941414043981623439CD841484043992E
:20472000449B0B404599439C449D25430D401D4340190190469800994018469000980199DB
:20474000401842900832D6E51021402901D300F084FC6A46684604234B43C05811236C464B
:2047600004254D436459D8416B4604244C431B5913246D4604264E43AD59E34143406846CE
:2047800004244C430059800A584004234B43D318143B1B68C31804204843101834380068EF
:2047A000072404254D435519343D2D68E04104244C431419343C2468122504264E439619FF
:2047C000343E3668EC41444004204843101834380068C0086040181804234B43D318383BC2
:2047E0001B68C01804234B43D3189860004B01E030FC0008499D46980624469EE041469C91
:204800000B26469FF441444046981927469EF84160402818489C469D479E489F77402F40F5
:204820006740C01904244C431C59001904244C431419A4680019009042980224429DE0411A
:20484000429C0D25429EEC41444042981625429EE8416040429D439C2C40449D429E439F2C
:2048600037432F402743C01901904598009C001945900098019C0019499004204843101816
:204880004068112404254D4355196D68E04104244C4314196468132504264E4396197668EE
:2048A000EC4144400420484310184068800A604004244C431419103C246806190420484314
:2048C000101830380768072004244C431419303C2468C741042048431018303805681220F0
:2048E00004244C431419303C2468C5417D4004204843101830380068C00868403018042492
:204900004C431419343C2468001904244C431419E060489D45980624459EE041459C0B26A0
:20492000459FF441444045981927459EF84160402818479C459D469E479F77402F40674065
:20494000C01904244C431C196468001904244C431419E4680019009049980224499DE041C6
:20496000499C0D25499EEC41444049981625499EE8416040499D429C2C40439D499E429FE4
:2049800037432F402743C01901904498009C001944900098019C00194890042048431018F8
:2049A0008068112404254D435519AD68E04104244C431419A468132504264E439619B668CD
:2049C000EC4144400420484310188068800A604004244C4314190C3C2468061904204843B7
:2049E00010182C380768072004244C4314192C3C2468C7410420484310182C3805681220DB
:204A000004244C4314192C3C2468C5417D400420484310182C380068C00868403018042478
:204A20004C431419303C2468001904244C4314192061479D44980624449EE041449C0B2646
:204A4000449FF441444044981927449EF84160402818469C449D459E469F77402F4067404B
:204A6000C01904244C431C19A468001904244C43141924690019009048980224489DE04126
:204A8000489C0D25489EEC41444048981625489EE8416040489D499C2C40429D489E499FBC
:204AA00037432F402743C01901904398009C001943900098019C00194790042048431018DA
:204AC000C068112404254D435519ED68E04104244C431419E468132504264E439619F668AC
:204AE000EC414440042048431018C068800A604004244C431419083C24680619042048435A
:204B0000101828380768072004244C431419283C2468C741042048431018283805681220C5
:204B200004244C431419283C2468C5417D4004204843101828380068C0086840301804245F
:204B40004C4314192C3C2468001904244C4314196061469D43980624439EE041439C0B26ED
:204B6000439FF441444043981927439EF84160402818459C439D449E459F77402F40674031
:204B8000C01904244C431C19E468001904244C43141964690019009047980224479DE04187
:204BA000479C0D25479EEC41444047981625479EE8416040479D489C2C40499D479E489F9C
:204BC00037432F402743C01901904298009C001942900098019C00194690042048431018BC
:204BE0000069112404254D4355192D69E04104244C4314192469132504264E439619366987
:204C0000EC4144400420484310180069800A604004244C431419241F2468061904204843F8
:204C2000101824380768072004244C431419243C2468C741042048431018243805681220B0
:204C400004244C431419243C2468C5417D4004204843101824380068C00868403018042446
:204C60004C431419283C2468001904244C431419A061459D42980624429EE041429C0B2694
:204C8000429FF441444042981927429EF84160402818449C429D439E449F77402F40674017
:204CA000C01904244C431C192469001904244C431419A4690019009046980224469DE041E7
:204CC000469C0D25469EEC41444046981625469EE8416040469D479C2C40489D469E479F84
:204CE00037432F402743C01901904998009C001949900098019C001945900420484310188E
:204D00004069112404254D4355196D69E04104244C4314196469132504264E439619766965
:204D2000EC4144400420484310184069800A60406C4604254D4364590619042048431018FA
:204D400020380768072004244C431419203C2468C74104204843101820380568122004249B
:204D60004C431419203C2468C5417D4004204843101820380068C0086840301804244C43C6
:204D80001419243C2468001904244C431419E061449D49980624499EE041499C0B26499FCA
:204DA000F441444049981927499EF84160402818439C499D429E439F77402F406740C019EC
:204DC00004244C431C196469001904244C431419E4690019009045980224459DE041459C40
:204DE0000D25459EEC41444045981625459EE8416040459D469C2C40479D459E469F3743D3
:204E00002F402743C01901904898009C001948900098019C00194490042048431018806900
:204E2000112404254D435519AD69E04104244C431419A469132504264E439619B669EC4100
:204E400044400420484310188069800A604004244C431419646806190420484310181C38EA
:204E60000768072004244C4314191C3C2468C7410420484310181C380568122004244C434B
:204E800014191C3C2468C5417D400420484310181C380068C0086840301804244C4314190F
:204EA000203C2468001904244C4314192062439D48980624489EE041489C0B26489FF44169
:204EC000444048981927489EF84160402818429C489D499E429F77402F406740C0190424D6
:204EE0004C431C19A469001904244C431419246A0019009044980224449DE041449C0D2597
:204F0000449EEC41444044981625449EE8416040449D459C2C40469D449E459F37432F407C
:204F20002743C01901904798009C001947900098019C00194390042048431018C0691124DC
:204F400004254D435519ED69E04104244C431419E469132504264E439619F669EC414440D0
:204F6000042048431018C069800A604004244C431419A46806190420484310181838076862
:204F8000072004244C431419183C2468C74104204843101818380568122004244C43141974
:204FA000183C2468C5417D4004204843101818380068C0086840301804244C4314191C3CCB
:204FC0002468001904244C4314196062429D47980624479EE041479C0B26479FF4414440E5
:204FE00047981927479EF84160402818499C479D489E499F77402F406740C01904244C43A0
:205000001B19DB69C01804234B43D218526A8018009043980222439BD041439A0D23439CE3
:20502000DA41424043981623439CD8415040439A449B1340459A439C449D254315401D436C
:20504000401901904698009A801846900098019A801842900831FFF778FB0024082C13D204
:205060004B980421614340188068694604226243891884225200895840184B990422624349
:2050800089188860641CE9E7942149006846FCF763FD00204DB0F0BDF0B585B006000D0081
:2050A00014006D27FF43002C01D1002052E030788006800E009040200099401A01903068EE
:2050C00000193060306830603068A04202D27068401C7060009800281FD0019884421CD3B0
:2050E0000198049003950098301828300290049A03990298FCF758FD0298310028313000B1
:20510000FFF7C2F80700002801D0380022E001982D180198241A00200090402C0BD32900CD
:205120003000FFF7B1F80700002801D0380011E04035403CF1E7002C0BD0049403950098DF
:20514000301828300290049A03990298FCF72CFD0298002005B0F0BDF8B584B004000D001F
:205160006D20C043019020788006800E802122182823D154401C0090009839280ED23820FA
:205180000099401A029000260098201807002837320002993800FCF7B3FC21E0402000998D
:2051A000401A0390002602960098201807002837029A03993800FCF7A3FC21002831200072
:2051C000FFF762F80190002801D001988FE03827029626002836029A39003000FCF790FCEE
:2051E0002068400F6168CE0006432068C700300E602160543000000C61216054300A622107
:205200006054300063216054380E642160543800000C65216054380A662160543800672138
:205220006054210028312000FFF72EF80100002801D008005BE0A068000E2870A068000C05
:205240006870A068000AA870A068E870E068000E2871E068000C6871E068000AA871E0681D
:20526000E8712069000E28722069000C68722069000AA8722069E8726069000E287360696A
:20528000000C68736069000AA8736069E873A069000E2874A069000C6874A069000AA87442
:2052A000A069E874E069000E2875E069000C6875E069000AA875E069E875206A000E287617
:2052C000206A000C6876206A000AA876206AE876A06E00280AD1606A000E2877606A000C62
:2052E0006877606A000AA877606AE877002005B0F0BD704780B500F0FBF802BD10B50400DA
:205300000800FEF7F2FD2060200010BD704738B504000D002900200000F0F1F8201D291DDA
:205320002022FCF741FC200032BD70477047704780B500F0E5F802BD70477047704780B5AC
:2053400000F0E5F802BD10B504000800FEF7CDFD00782070200010BD80B500F0E3F802BD7D
:2053600070477047704780B500F0E3F802BD70477047704780B500F0E3F802BD38B5040074
:205380000D001100200000F0E8F82900201DFFF7B5FF200032BD704738B504000D00280003
:2053A000FFF7CAFF0068216808602800FFF7C5FFFFF7BCFF200000F0D4F8200032BD38B56A
:2053C00004000D001000FEF7BEFE0100200000F0C9F82800FEF74DFD0100201D00F006F896
:2053E000200032BD80B500F0C1F802BD10B504000800FEF73EFD00782070200010BDF8B55E
:2054000004000F0015001800FEF79DFE06002800FEF799FE32000100200000F0B2F83800DD
:20542000FEF727FD010020000830FFF7DFFF2000F2BD80B500F0A9F802BD38B504000D00D4
:205440001100200000F0B1F82900201DFFF756FF200032BD70477047704738B504000D009F
:20546000280000F0A6F8010020681122FCF79CFB280000F09FF8FFF759FF200000F09BF890
:20548000200032BD7047704780B500F095F802BD10B50400080000F09AF82060200010BD5E
:2054A00080B500F095F802BD80B5002801D100BF07A006490B68002B03D0222200219847E2
:2054C00001E000F090F8222002BD0000FC310020636F6E73747261696E742068616E646CB9
:2054E00065723A20626164206D6573736167650010B50400200000F07BF8200010BD70475F
:2055000010B50400200000F07BF8200010BD10B504000800FEF7E8FC0100200000F078F827
:20552000200010BD10B50400200000F07DF8200010BD10B50400200000F07EF8200010BD07
:2055400038B504000D0011002000FFF7F1FE2900201D00F055F8200032BD80B500F074F8F4
:2055600002BD704780B500F076F802BD10B50400080000F07BF80100200000F078F820008E
:2055800010BD80B500F07DF802BD38B505000C0021002800FFF726FF201D00F067F80100F6
:2055A000281D00F064F8280032BD80B500F07CF802BD70477047704710B504000800FEF700
:2055C0009EFD0100200000F076F8200010BD704710B504000800FEF7B6FD0100200000F083
:2055E00076F8200010BD80B5012000F079F801BD10B50400080000F07DF82060200010BD38
:2056000010B504000800FEF79EFD2060200010BD10B504000800FEF767FC01002000202230
:20562000FCF7C2FA200010BD10B504000800FEF75BFC2060200010BD10B504000800FEF77E
:205640005EFD2060200010BD10B50400200000F052F8200010BD10B504000800FEF773FD3C
:205660000100200000F04FF8200010BD704710B504000800FFF7FAFFFDF794FE2060200048
:2056800010BD38B504000D001000FEF75CFD01002000FFF767FF2800FEF755FD0100201DB7
:2056A00000F031F8200032BD10B50400200000F036F8200010BD10B504000800FEF71FFDEC
:2056C000010020002422FCF76FFA200010BD10B504000800FEF737FD00682060200010BD4B
:2056E00080B500F025F8024A11001820ABBEFBE726000200704710B50400080000F030F8C0
:205700002060200010BD10B504000800FEF71BFDFDF748FE210000F025F8200010BD10B524
:205720000400080000F028F82060200010BD000080B500F023F802000023DB43106898420B
:2057400004D011000220ABBE002010605068984204D0111D0220ABBE0020506001BD00009C
:205760007047000084460870000A4870000A8870000AC87060467047704700000048704717
:2057800078150020F8B504008C256D0000262700320029003800FCF7B3F9F1BD10B5040097
:2057A000002C04D08C2149002000FCF7D5F910BDF0B503001000803804D0403805D040383C
:2057C00006D008E00A20186008E00C20186005E00E20186002E01F20C043E7E01D0008350D
:2057E0005D60002004005609B44215D2A6008F5DA6008E19767836023E43A700CF19BF7840
:205800003F043743A6008E19F67836063E4304276743EE51641CE6E71E680A2E04D00C2E26
:2058200034D00E2E6CD0C0E004000A2C2DD29D482F68BC469C4F04266643BE5967467E4055
:20584000EF683F0AFFB2C75D7740EE68360CF6B2865D36027E40EF683F0EC75D3F04774041
:205860002E7BF6B2805D00067840286168682E6946406E61A8686E694640AE61E868AE6914
:205880004640EE61641C1035CFE78EE00400082C35D284482F68BC46834F04266643BE59EA
:2058A00067467E406F693F0AFFB2C75D77406E69360CF6B2865D36027E406F693F0EC75DED
:2058C0003F0477402E7DF6B2805D00067840A8616868AE694640EE61A868EE6946402E629E
:2058E000E8682E6A46406E6228696E6A4640AE626869AE6A4640EE62641C1835C7E754E0FD
:205900000400072C51D267482F68BC46664F04266643BE5967467E40EF693F0AFFB2C75D65
:205920007740EE69360CF6B2865D36027E40EF693F0EC75D3F0477402E7FF6B2865D36065F
:205940007E402E626E682F6A77406F62AE686F6A7740AF62EE68AF6A7740EF622F692C26EA
:20596000AE5DF6B2865D7E40EF6A3F0AFFB2C75D3F027740EE6A360CF6B2865D36047E4047
:20598000EF6A3F0EC05D00067040286368692E6B46406E63A8696E6B4640AE63E869AE6B57
:2059A0004640EE63641C2035ABE70020F0BDF7B5C8B001A8FFF7E6FE489806000836489831
:2059C00046604A9A499901A8FFF7F2FE0090002862D1019848990860029801991022514305
:2059E000401801683160011D301D0A680260091D001D0A680260091D001D0A680260091DC2
:205A0000001D489A1268521E15002039012D33DB00221400042C2CDA224A244B0E78F6B27E
:205A2000965D04277E439F59214B9C460B681B0ADBB2D65C04235E4363469B597B401F00AB
:205A40001C4B9C460B681B0CDBB2D65C04235E4363469E593B005E40174B0F683F0ED25D0E
:205A600004277A439A5872400260001D641C091DD0E76D1E2039C9E70A680260091D001D13
:205A80000A680260091D001D0A680260091D001D0A6802600F1D061D01A8FFF77FFE009801
:205AA0004BB0F0BD30FA000888FF0008FCDC0008FCE00008FCE40008FCE80008F7B588B001
:205AC0000898406809990978099A527812020A430999897809041143099AD27812060A4337
:205AE0000092009902684A400092001D09990979099A527912020A430999897909041143E0
:205B0000099AD27912060A430192019902684A400192001D0999097A099A527A12020A436C
:205B20000999897A09041143099AD27A12060A430292029902684A400292001D0999097B11
:205B4000099A527B12020A430999897B09041143099AD27B12060A430392039902684A40F3
:205B60000392031D089800684410641E012C00DA30E19B489B499C4A954D1F68BC46009EC4
:205B8000F7B204267743EE5967467E40B446019E360AF7B204267743D65967467E40B446CC
:205BA000029E360CF7B204267743CE5967467E40B446039E370E04267743C65967467E4096
:205BC00004961B1D1F68BC466E463679F7B204267743EE5967467E40B446029E360AF7B245
:205BE00004267743D65967467E40B446039E360CF7B204267743CE5967467E40B446009E93
:205C0000370E04267743C65967467E4005961B1D1F68BC466E46367AF7B204267743EE593D
:205C200067467E40B446039E360AF7B204267743D65967467E40B446009E360CF7B204264A
:205C40007743CE5967467E40B446019E370E04267743C65967467E4006961B1D1F68BC464F
:205C60006E46367BF7B204267743EE5967467E40B446009E360AF7B204267743D65967463F
:205C80007E40B446019E360CF7B204267743CE5967467E40B446029E370E04267743C6596A
:205CA00067467E4007961B1D1F68BC466E46367CF7B204267743EE5967467E40B446059ED9
:205CC000360AF7B204267743D65967467E40B446069E360CF7B204267743CE5967467E405E
:205CE000B446079E370E04267743C65967467E4000961B1D1F68BC466E46367DF7B20426C1
:205D00007743EE5967467E40B446069E360AF7B204267743D65967467E40B446079E360C31
:205D2000F7B204267743CE5967467E40B446049E370E04267743C65967467E4001961B1D26
:205D40001F68BC466E46367EF7B204267743EE5967467E40B446079E360AF7B204267743A7
:205D6000D65967467E40B446049E360CF7B204267743CE5967467E40B446059E370E042680
:205D80007743C65967467E4002961B1D1F68AC466D462D7FEEB204256E436546AD597D402F
:205DA000049E360AF6B204277E4392596A40059D2D0CEDB20426754349595140069A120E89
:205DC00004256A438058484003901B1D641ECDE6FCCC000802480349034AA14E06E000BF46
:205DE000FCD80008FCD40008FCD000081F68BC46009DEFB204256F43F55967467D40AC46CF
:205E0000019D2D0AEFB204256F43D55967467D40AC46029D2D0CEFB204256F43CD59674680
:205E20007D40AC46039D2F0E04256F43C55967467D4004951B1D1F68BC466D462D79EFB21F
:205E400004256F43F55967467D40AC46029D2D0AEFB204256F43D55967467D40AC46039D41
:205E60002D0CEFB204256F43CD5967467D40AC46009D2F0E04256F43C55967467D40059514
:205E80001B1D1F68BC466D462D7AEFB204256F43F55967467D40AC46039D2D0AEFB2042520
:205EA0006F43D55967467D40AC46009D2D0CEFB204256F43CD5967467D40AC46019D2F0EF7
:205EC00004256F43C55967467D4006951B1D1D68B4466E46367BF7B2042677436646F65920
:205EE0006E40009D2D0AEDB204277D4352597240019D2D0CEDB20426754349595140029A12
:205F0000120E04256A43805848400790191D55480B686A46127CD2B2825C5A40059B1B0A4F
:205F2000DBB2C35C1B025340069A120CD2B2825C12045A40079B1B0EC35C1B065340009304
:205F4000091D0B686A46127DD2B2825C5A40069B1B0ADBB2C35C1B025340079A120CD2B208
:205F6000825C12045A40049B1B0EC35C1B0653400193091D0B686A46127ED2B2825C5A408F
:205F8000079B1B0ADBB2C35C1B025340049A120CD2B2825C12045A40059B1B0EC35C1B0607
:205FA00053400293091D0B686A46127FD2B2825C5A40049B1B0ADBB2C35C1B025340059A24
:205FC000120CD2B2825C12045A40069B1B0EC05C0006504003900D1D00980A99087000980D
:205FE000000A0A9948700098000C0A9988700098000E0A99C87001980A9908710198000A24
:206000000A9948710198000C0A9988710198000E0A99C87102980A9908720298000A0A9962
:2060200048720298000C0A9988720298000E0A99C87203980A9908730398000A0A99487322
:206040000398000C0A9988730398000E0A99C87320216846FBF780FD00200BB0F0BD00008E
:20606000FCCC000830FA0008F7B588B00898406809990978099A527812020A43099989785E
:2060800009041143099AD27812060A430092009902684A400092001D09990979099A5279ED
:2060A00012020A430999897909041143099AD27912060A430192019902684A400192001D56
:2060C0000999097A099A527A12020A430999897A09041143099AD27A12060A430292029942
:2060E00002684A400292001D0999097B099A527B12020A430999897B09041143099AD27B0D
:2061000012060A430392039902684A400392031D089800684410641E012C00DA30E19B4867
:206120009B499C4A954D1F68BC46009EF7B204267743EE5967467E40B446039E360AF7B2C9
:2061400004267743D65967467E40B446029E360CF7B204267743CE5967467E40B446019E2D
:20616000370E04267743C65967467E4004961B1D1F68BC466E463679F7B204267743EE59DA
:2061800067467E40B446009E360AF7B204267743D65967467E40B446039E360CF7B20426E5
:2061A0007743CE5967467E40B446029E370E04267743C65967467E4005961B1D1F68BC46EA
:2061C0006E46367AF7B204267743EE5967467E40B446019E360AF7B204267743D6596746DA
:2061E0007E40B446009E360CF7B204267743CE5967467E40B446039E370E04267743C65905
:2062000067467E4006961B1D1F68BC466E46367BF7B204267743EE5967467E40B446029E78
:20622000360AF7B204267743D65967467E40B446019E360CF7B204267743CE5967467E40FD
:20624000B446009E370E04267743C65967467E4007961B1D1F68BC466E46367CF7B204265C
:206260007743EE5967467E40B446079E360AF7B204267743D65967467E40B446069E360CCC
:20628000F7B204267743CE5967467E40B446059E370E04267743C65967467E4000961B1DC1
:2062A0001F68BC466E46367DF7B204267743EE5967467E40B446049E360AF7B20426774346
:2062C000D65967467E40B446079E360CF7B204267743CE5967467E40B446069E370E042617
:2062E0007743C65967467E4001961B1D1F68BC466E46367EF7B204267743EE5967467E405B
:20630000B446059E360AF7B204267743D65967467E40B446049E360CF7B204267743CE59E7
:2063200067467E40B446079E370E04267743C65967467E4002961B1D1F68AC466D462D7FF8
:20634000EEB204256E436546AD597D40069E360AF6B204277E4392596A40059D2D0CEDB2CE
:206360000426754349595140049A120E04256A438058484003901B1D641ECDE6FCDC000834
:2063800002480349034AA14E06E000BFFCE80008FCE40008FCE000081F68BC46009DEFB207
:2063A00004256F43F55967467D40AC46039D2D0AEFB204256F43D55967467D40AC46029DDC
:2063C0002D0CEFB204256F43CD5967467D40AC46019D2F0E04256F43C55967467D400495AF
:2063E0001B1D1F68BC466D462D79EFB204256F43F55967467D40AC46009D2D0AEFB20425BF
:206400006F43D55967467D40AC46039D2D0CEFB204256F43CD5967467D40AC46029D2F0E8D
:2064200004256F43C55967467D4005951B1D1F68BC466D462D7AEFB204256F43F5596746CD
:206440007D40AC46019D2D0AEFB204256F43D55967467D40AC46009D2D0CEFB204256F4360
:20646000CD5967467D40AC46039D2F0E04256F43C55967467D4006951B1D1D68B4466E4654
:20648000367BF7B2042677436646F6596E40029D2D0AEDB204277D4352597240019D2D0C81
:2064A000EDB20426754349595140009A120E04256A43805848400790191D55480B686A46AB
:2064C000127CD2B2825C5A40079B1B0ADBB2C35C1B025340069A120CD2B2825C12045A403F
:2064E000059B1B0EC35C1B0653400093091D0B686A46127DD2B2825C5A40049B1B0ADBB248
:20650000C35C1B025340079A120CD2B2825C12045A40069B1B0EC35C1B0653400193091D84
:206520000B686A46127ED2B2825C5A40059B1B0ADBB2C35C1B025340049A120CD2B2825C6D
:2065400012045A40079B1B0EC35C1B0653400293091D0B686A46127FD2B2825C5A40069BE1
:206560001B0ADBB2C35C1B025340059A120CD2B2825C12045A40049B1B0EC05C0006504051
:2065800003900D1D00980A9908700098000A0A9948700098000C0A9988700098000E0A9906
:2065A000C87001980A9908710198000A0A9948710198000C0A9988710198000E0A99C8712B
:2065C00002980A9908720298000A0A9948720298000C0A9988720298000E0A99C8720398A0
:2065E0000A9908730398000A0A9948730398000C0A9988730398000E0A99C87320216846BF
:20660000FBF7AAFA00200BB0F0BD0000FCDC000830FB0008F8B505000E0014001F00012E27
:2066200005D13A0021002800FFF748FA04E03A0021002800FFF718FDF2BDFBB588B01700A9
:20664000109E119D3807000F002802D02120C04353E0099800282DD1002F4DD0102002904A
:20666000019603A80090029A01990098FBF79CFA00982B00320009990898FFF7CBFF0020DB
:206680000400102C06DA285D0A99095D41402955641CF6E71020029003A801900A980090C0
:2066A000029A01990098FBF77FFA009810361035103FD1E7002F1FD000200400102C06DA19
:2066C000305D0A99095D41402955641CF6E72B002A0009990898FFF79DFF10200290019547
:2066E0000A980090029A01990098FBF75DFA009810361035103FDDE700200BB0F0BD000093
:20670000F8B5040001D10120F2BD2068A04DA149884207D0A049884204D09221490028007B
:2067200001F028F86068002807D082214900884203D02131280001F01DF8A06800280BD06D
:206740008021C900884207D04901884204D093214900280001F00EF8E068F0273F01B84291
:2067600034D0E0210901884230D0D021090188422CD0C0210901884228D0B021090188422D
:2067800024D0A0210901884220D09021090188421CD080210901884218D0E021C90088421E
:2067A00014D0C021C900884210D0A021C90088420CD08021C900884208D0C0218900884231
:2067C00004D0FF212831280000F0D4FFA06980218900884209D0002807D04902884204D0C3
:2067E00094214900280000F0C5FF606B082806D0002804D0FF212A31280000F0BBFFE0695C
:20680000002812D0082810D010280ED018280CD020280AD0282808D0302806D0382804D080
:2068200095214900280000F0A5FF206A002806D0802804D0FF212C31280000F09BFF606AA0
:20684000002809D010281BD096214900280000F091FF606A002813D12069002806D00228E5
:2068600004D0FF213031280000F084FF6069002806D0012804D098214900280000F07AFFD1
:20688000A06A002824D08026B601B04207D0FF213431280000F06EFFA06AB04218D1E06A73
:2068A000002804D0F100884201D2C00704D49B214900280000F05EFF206B002808D0012881
:2068C00006D0022804D0FF213831280000F052FF25005C3500266878002803D12E7020007C
:2068E00000F008FF0220687021680A6840239A430A60E268E023DB009A4203D90021BA4205
:2069000003D103E0C1029A4200D0A662276B002F03D19A4200D8012020636068A268024345
